{
  "contractName": "HmineSacrifice",
  "abi": [
    {
      "inputs": [
        {
          "internalType": "address",
          "name": "_sacTo",
          "type": "address"
        },
        {
          "internalType": "address",
          "name": "_wbnb",
          "type": "address"
        },
        {
          "internalType": "address",
          "name": "_bnbLP",
          "type": "address"
        },
        {
          "internalType": "address",
          "name": "_twap",
          "type": "address"
        }
      ],
      "stateMutability": "nonpayable",
      "type": "constructor"
    },
    {
      "anonymous": false,
      "inputs": [
        {
          "indexed": true,
          "internalType": "address",
          "name": "previousOwner",
          "type": "address"
        },
        {
          "indexed": true,
          "internalType": "address",
          "name": "newOwner",
          "type": "address"
        }
      ],
      "name": "OwnershipTransferred",
      "type": "event"
    },
    {
      "inputs": [],
      "name": "hminePerRound",
      "outputs": [
        {
          "internalType": "uint256",
          "name": "",
          "type": "uint256"
        }
      ],
      "stateMutability": "view",
      "type": "function",
      "constant": true
    },
    {
      "inputs": [],
      "name": "initPrice",
      "outputs": [
        {
          "internalType": "uint256",
          "name": "",
          "type": "uint256"
        }
      ],
      "stateMutability": "view",
      "type": "function",
      "constant": true
    },
    {
      "inputs": [],
      "name": "owner",
      "outputs": [
        {
          "internalType": "address",
          "name": "",
          "type": "address"
        }
      ],
      "stateMutability": "view",
      "type": "function",
      "constant": true
    },
    {
      "inputs": [],
      "name": "renounceOwnership",
      "outputs": [],
      "stateMutability": "nonpayable",
      "type": "function"
    },
    {
      "inputs": [],
      "name": "roundPeriod",
      "outputs": [
        {
          "internalType": "uint256",
          "name": "",
          "type": "uint256"
        }
      ],
      "stateMutability": "view",
      "type": "function",
      "constant": true
    },
    {
      "inputs": [
        {
          "internalType": "address",
          "name": "",
          "type": "address"
        }
      ],
      "name": "sacrifices",
      "outputs": [
        {
          "internalType": "bool",
          "name": "isEnabled",
          "type": "bool"
        },
        {
          "internalType": "bool",
          "name": "isStable",
          "type": "bool"
        },
        {
          "internalType": "address",
          "name": "oracleAddress",
          "type": "address"
        }
      ],
      "stateMutability": "view",
      "type": "function",
      "constant": true
    },
    {
      "inputs": [],
      "name": "sacrificesTo",
      "outputs": [
        {
          "internalType": "address",
          "name": "",
          "type": "address"
        }
      ],
      "stateMutability": "view",
      "type": "function",
      "constant": true
    },
    {
      "inputs": [],
      "name": "startTime",
      "outputs": [
        {
          "internalType": "uint256",
          "name": "",
          "type": "uint256"
        }
      ],
      "stateMutability": "view",
      "type": "function",
      "constant": true
    },
    {
      "inputs": [],
      "name": "totalHmine",
      "outputs": [
        {
          "internalType": "uint256",
          "name": "",
          "type": "uint256"
        }
      ],
      "stateMutability": "view",
      "type": "function",
      "constant": true
    },
    {
      "inputs": [
        {
          "internalType": "address",
          "name": "newOwner",
          "type": "address"
        }
      ],
      "name": "transferOwnership",
      "outputs": [],
      "stateMutability": "nonpayable",
      "type": "function"
    },
    {
      "inputs": [],
      "name": "twap",
      "outputs": [
        {
          "internalType": "address",
          "name": "",
          "type": "address"
        }
      ],
      "stateMutability": "view",
      "type": "function",
      "constant": true
    },
    {
      "inputs": [],
      "name": "twapMax",
      "outputs": [
        {
          "internalType": "uint256",
          "name": "",
          "type": "uint256"
        }
      ],
      "stateMutability": "view",
      "type": "function",
      "constant": true
    },
    {
      "inputs": [
        {
          "internalType": "uint256",
          "name": "",
          "type": "uint256"
        }
      ],
      "name": "users",
      "outputs": [
        {
          "internalType": "string",
          "name": "nickname",
          "type": "string"
        },
        {
          "internalType": "address",
          "name": "user",
          "type": "address"
        },
        {
          "internalType": "uint256",
          "name": "amount",
          "type": "uint256"
        }
      ],
      "stateMutability": "view",
      "type": "function",
      "constant": true
    },
    {
      "inputs": [],
      "name": "wbnb",
      "outputs": [
        {
          "internalType": "address",
          "name": "",
          "type": "address"
        }
      ],
      "stateMutability": "view",
      "type": "function",
      "constant": true
    },
    {
      "inputs": [
        {
          "internalType": "address",
          "name": "_token",
          "type": "address"
        }
      ],
      "name": "getSacrificeInfo",
      "outputs": [
        {
          "components": [
            {
              "internalType": "bool",
              "name": "isEnabled",
              "type": "bool"
            },
            {
              "internalType": "bool",
              "name": "isStable",
              "type": "bool"
            },
            {
              "internalType": "address",
              "name": "oracleAddress",
              "type": "address"
            }
          ],
          "internalType": "struct Sacrifice",
          "name": "",
          "type": "tuple"
        }
      ],
      "stateMutability": "view",
      "type": "function",
      "constant": true
    },
    {
      "inputs": [
        {
          "internalType": "uint256",
          "name": "_max",
          "type": "uint256"
        }
      ],
      "name": "updateRoundMax",
      "outputs": [],
      "stateMutability": "nonpayable",
      "type": "function"
    },
    {
      "inputs": [
        {
          "internalType": "address",
          "name": "_token",
          "type": "address"
        },
        {
          "internalType": "uint256",
          "name": "_amount",
          "type": "uint256"
        }
      ],
      "name": "sacrificeERC20",
      "outputs": [],
      "stateMutability": "nonpayable",
      "type": "function"
    },
    {
      "inputs": [],
      "name": "sacrificeBNB",
      "outputs": [],
      "stateMutability": "payable",
      "type": "function",
      "payable": true
    },
    {
      "inputs": [
        {
          "internalType": "uint256",
          "name": "_time",
          "type": "uint256"
        }
      ],
      "name": "startFirstRound",
      "outputs": [],
      "stateMutability": "nonpayable",
      "type": "function"
    },
    {
      "inputs": [
        {
          "internalType": "address",
          "name": "_twap",
          "type": "address"
        }
      ],
      "name": "updateTwap",
      "outputs": [],
      "stateMutability": "nonpayable",
      "type": "function"
    },
    {
      "inputs": [
        {
          "internalType": "address",
          "name": "_token",
          "type": "address"
        },
        {
          "internalType": "bool",
          "name": "_isStable",
          "type": "bool"
        },
        {
          "internalType": "address",
          "name": "_lpAddress",
          "type": "address"
        }
      ],
      "name": "updateSacrifice",
      "outputs": [],
      "stateMutability": "nonpayable",
      "type": "function"
    },
    {
      "inputs": [
        {
          "internalType": "address",
          "name": "_token",
          "type": "address"
        }
      ],
      "name": "removeSacrifice",
      "outputs": [],
      "stateMutability": "nonpayable",
      "type": "function"
    },
    {
      "inputs": [
        {
          "internalType": "string",
          "name": "nickname",
          "type": "string"
        }
      ],
      "name": "updateNickname",
      "outputs": [],
      "stateMutability": "nonpayable",
      "type": "function"
    },
    {
      "inputs": [
        {
          "internalType": "address",
          "name": "_token",
          "type": "address"
        },
        {
          "internalType": "bool",
          "name": "_isStable",
          "type": "bool"
        },
        {
          "internalType": "address",
          "name": "_lpAddress",
          "type": "address"
        }
      ],
      "name": "addSacToken",
      "outputs": [],
      "stateMutability": "nonpayable",
      "type": "function"
    },
    {
      "inputs": [
        {
          "internalType": "address",
          "name": "_user",
          "type": "address"
        }
      ],
      "name": "getUserByAddress",
      "outputs": [
        {
          "components": [
            {
              "internalType": "string",
              "name": "nickname",
              "type": "string"
            },
            {
              "internalType": "address",
              "name": "user",
              "type": "address"
            },
            {
              "internalType": "uint256",
              "name": "amount",
              "type": "uint256"
            }
          ],
          "internalType": "struct User",
          "name": "",
          "type": "tuple"
        }
      ],
      "stateMutability": "view",
      "type": "function",
      "constant": true
    },
    {
      "inputs": [
        {
          "internalType": "uint256",
          "name": "_index",
          "type": "uint256"
        }
      ],
      "name": "getUserByIndex",
      "outputs": [
        {
          "components": [
            {
              "internalType": "string",
              "name": "nickname",
              "type": "string"
            },
            {
              "internalType": "address",
              "name": "user",
              "type": "address"
            },
            {
              "internalType": "uint256",
              "name": "amount",
              "type": "uint256"
            }
          ],
          "internalType": "struct User",
          "name": "",
          "type": "tuple"
        }
      ],
      "stateMutability": "view",
      "type": "function",
      "constant": true
    },
    {
      "inputs": [],
      "name": "getCurrentRound",
      "outputs": [
        {
          "internalType": "uint16",
          "name": "",
          "type": "uint16"
        }
      ],
      "stateMutability": "view",
      "type": "function",
      "constant": true
    },
    {
      "inputs": [
        {
          "internalType": "uint256",
          "name": "_twapMax",
          "type": "uint256"
        }
      ],
      "name": "updateTwapMax",
      "outputs": [],
      "stateMutability": "nonpayable",
      "type": "function"
    }
  ],
  "bytecode": "0x60806040526202a300600455690a968163f0a57b4000006005556102586007556000600855601e600e553480156200003657600080fd5b5060405162003eb338038062003eb383398181016040528101906200005c91906200034b565b6200007c620000706200016460201b60201c565b6200016c60201b60201c565b6001808190555083600b60006101000a81548173ffffffffffffffffffffffffffffffffffffffff021916908373ffffffffffffffffffffffffffffffffffffffff16021790555082600c60006101000a81548173ffffffffffffffffffffffffffffffffffffffff021916908373ffffffffffffffffffffffffffffffffffffffff16021790555080600d60006101000a81548173ffffffffffffffffffffffffffffffffffffffff021916908373ffffffffffffffffffffffffffffffffffffffff1602179055506200015a836000846200023060201b60201c565b5050505062000405565b600033905090565b60008060009054906101000a900473ffffffffffffffffffffffffffffffffffffffff169050816000806101000a81548173ffffffffffffffffffffffffffffffffffffffff021916908373ffffffffffffffffffffffffffffffffffffffff1602179055508173ffffffffffffffffffffffffffffffffffffffff168173ffffffffffffffffffffffffffffffffffffffff167f8be0079c531659141344cd1fd0a4f28419497f9722a3daafe3b4186f6b6457e060405160405180910390a35050565b604051806060016040528060011515815260200183151581526020018273ffffffffffffffffffffffffffffffffffffffff16815250600260008573ffffffffffffffffffffffffffffffffffffffff1673ffffffffffffffffffffffffffffffffffffffff16815260200190815260200160002060008201518160000160006101000a81548160ff02191690831515021790555060208201518160000160016101000a81548160ff02191690831515021790555060408201518160000160026101000a81548173ffffffffffffffffffffffffffffffffffffffff021916908373ffffffffffffffffffffffffffffffffffffffff160217905550905050505050565b6000815190506200034581620003eb565b92915050565b600080600080608085870312156200036257600080fd5b6000620003728782880162000334565b9450506020620003858782880162000334565b9350506040620003988782880162000334565b9250506060620003ab8782880162000334565b91505092959194509250565b6000620003c482620003cb565b9050919050565b600073ffffffffffffffffffffffffffffffffffffffff82169050919050565b620003f681620003b7565b81146200040257600080fd5b50565b613a9e80620004156000396000f3fe6080604052600436106101b75760003560e01c8063816d26b9116100ec578063a32bf5971161008a578063e60ec6ec11610064578063e60ec6ec146105b7578063f012599d146105f4578063f2fde38b1461061f578063ff5d32fe14610648576101b7565b8063a32bf59714610538578063b6add0f414610563578063bd2e3b171461058e576101b7565b80638ce3192d116100c65780638ce3192d146104905780638d72647e146104b95780638da5cb5b146104e4578063a2e9e3591461050f576101b7565b8063816d26b91461043457806385592de61461043e5780638a015c8614610467576101b7565b806350f10eab1161015957806369c212f61161013357806369c212f61461038c578063715018a6146103c9578063725068a5146103e057806378e9792514610409576101b7565b806350f10eab1461030d57806351fd76c0146103365780635603e0de14610361576101b7565b8063365b98b211610195578063365b98b21461023b578063413447cc1461027a578063413a7888146102b9578063417542c9146102e2576101b7565b8063112cee44146101bc5780631208aa18146101e75780632c3f4e9a14610212575b600080fd5b3480156101c857600080fd5b506101d1610685565b6040516101de91906132c9565b60405180910390f35b3480156101f357600080fd5b506101fc61068b565b6040516102099190612f88565b60405180910390f35b34801561021e57600080fd5b50610239600480360381019061023491906129bb565b6106b1565b005b34801561024757600080fd5b50610262600480360381019061025d9190612b51565b610809565b60405161027193929190613033565b60405180910390f35b34801561028657600080fd5b506102a1600480360381019061029c91906129bb565b6108db565b6040516102b093929190612fda565b60405180910390f35b3480156102c557600080fd5b506102e060048036038101906102db9190612b51565b61093f565b005b3480156102ee57600080fd5b506102f7610a0a565b60405161030491906132c9565b60405180910390f35b34801561031957600080fd5b50610334600480360381019061032f9190612b51565b610a10565b005b34801561034257600080fd5b5061034b610ad9565b6040516103589190612f88565b60405180910390f35b34801561036d57600080fd5b50610376610aff565b60405161038391906132c9565b60405180910390f35b34801561039857600080fd5b506103b360048036038101906103ae91906129bb565b610b05565b6040516103c0919061328c565b60405180910390f35b3480156103d557600080fd5b506103de610c69565b005b3480156103ec57600080fd5b50610407600480360381019061040291906129bb565b610cf1565b005b34801561041557600080fd5b5061041e610e20565b60405161042b91906132c9565b60405180910390f35b61043c610e26565b005b34801561044a57600080fd5b5061046560048036038101906104609190612b51565b6111a6565b005b34801561047357600080fd5b5061048e60048036038101906104899190612a5c565b61127d565b005b34801561049c57600080fd5b506104b760048036038101906104b29190612a0d565b6115c7565b005b3480156104c557600080fd5b506104ce611743565b6040516104db9190612f88565b60405180910390f35b3480156104f057600080fd5b506104f9611769565b6040516105069190612f88565b60405180910390f35b34801561051b57600080fd5b5061053660048036038101906105319190612a0d565b611792565b005b34801561054457600080fd5b5061054d6119a5565b60405161055a91906132ae565b60405180910390f35b34801561056f57600080fd5b506105786119e1565b60405161058591906132c9565b60405180910390f35b34801561059a57600080fd5b506105b560048036038101906105b09190612ac1565b6119e7565b005b3480156105c357600080fd5b506105de60048036038101906105d991906129bb565b611aa0565b6040516105eb9190613271565b60405180910390f35b34801561060057600080fd5b50610609611b85565b60405161061691906132c9565b60405180910390f35b34801561062b57600080fd5b50610646600480360381019061064191906129bb565b611b8b565b005b34801561065457600080fd5b5061066f600480360381019061066a9190612b51565b611c83565b60405161067c919061328c565b60405180910390f35b60045481565b600d60009054906101000a900473ffffffffffffffffffffffffffffffffffffffff1681565b6106b9611da2565b73ffffffffffffffffffffffffffffffffffffffff166106d7611769565b73ffffffffffffffffffffffffffffffffffffffff161461072d576040517f08c379a000000000000000000000000000000000000000000000000000000000815260040161072490613171565b60405180910390fd5b61073681611daa565b610775576040517f08c379a000000000000000000000000000000000000000000000000000000000815260040161076c906130f1565b60405180910390fd5b600260008273ffffffffffffffffffffffffffffffffffffffff1673ffffffffffffffffffffffffffffffffffffffff168152602001908152602001600020600080820160006101000a81549060ff02191690556000820160016101000a81549060ff02191690556000820160026101000a81549073ffffffffffffffffffffffffffffffffffffffff0219169055505050565b600a60205280600052604060002060009150905080600001805461082c90613554565b80601f016020809104026020016040519081016040528092919081815260200182805461085890613554565b80156108a55780601f1061087a576101008083540402835291602001916108a5565b820191906000526020600020905b81548152906001019060200180831161088857829003601f168201915b5050505050908060010160009054906101000a900473ffffffffffffffffffffffffffffffffffffffff16908060020154905083565b60026020528060005260406000206000915090508060000160009054906101000a900460ff16908060000160019054906101000a900460ff16908060000160029054906101000a900473ffffffffffffffffffffffffffffffffffffffff16905083565b610947611da2565b73ffffffffffffffffffffffffffffffffffffffff16610965611769565b73ffffffffffffffffffffffffffffffffffffffff16146109bb576040517f08c379a00000000000000000000000000000000000000000000000000000000081526004016109b290613171565b60405180910390fd5b600060035414610a00576040517f08c379a00000000000000000000000000000000000000000000000000000000081526004016109f790613071565b60405180910390fd5b8060058190555050565b60055481565b610a18611da2565b73ffffffffffffffffffffffffffffffffffffffff16610a36611769565b73ffffffffffffffffffffffffffffffffffffffff1614610a8c576040517f08c379a0000000000000000000000000000000000000000000000000000000008152600401610a8390613171565b60405180910390fd5b60008111610acf576040517f08c379a0000000000000000000000000000000000000000000000000000000008152600401610ac690613131565b60405180910390fd5b80600e8190555050565b600b60009054906101000a900473ffffffffffffffffffffffffffffffffffffffff1681565b60065481565b610b0d612796565b6000600960008473ffffffffffffffffffffffffffffffffffffffff1673ffffffffffffffffffffffffffffffffffffffff168152602001908152602001600020549050600a6000828152602001908152602001600020604051806060016040529081600082018054610b7f90613554565b80601f0160208091040260200160405190810160405280929190818152602001828054610bab90613554565b8015610bf85780601f10610bcd57610100808354040283529160200191610bf8565b820191906000526020600020905b815481529060010190602001808311610bdb57829003601f168201915b505050505081526020016001820160009054906101000a900473ffffffffffffffffffffffffffffffffffffffff1673ffffffffffffffffffffffffffffffffffffffff1673ffffffffffffffffffffffffffffffffffffffff168152602001600282015481525050915050919050565b610c71611da2565b73ffffffffffffffffffffffffffffffffffffffff16610c8f611769565b73ffffffffffffffffffffffffffffffffffffffff1614610ce5576040517f08c379a0000000000000000000000000000000000000000000000000000000008152600401610cdc90613171565b60405180910390fd5b610cef6000611e14565b565b610cf9611da2565b73ffffffffffffffffffffffffffffffffffffffff16610d17611769565b73ffffffffffffffffffffffffffffffffffffffff1614610d6d576040517f08c379a0000000000000000000000000000000000000000000000000000000008152600401610d6490613171565b60405180910390fd5b8073ffffffffffffffffffffffffffffffffffffffff163073ffffffffffffffffffffffffffffffffffffffff161415610ddc576040517f08c379a0000000000000000000000000000000000000000000000000000000008152600401610dd390613151565b60405180910390fd5b80600d60006101000a81548173ffffffffffffffffffffffffffffffffffffffff021916908373ffffffffffffffffffffffffffffffffffffffff16021790555050565b60035481565b60026001541415610e6c576040517f08c379a0000000000000000000000000000000000000000000000000000000008152600401610e6390613251565b60405180910390fd5b60026001819055506000349050610ea4600c60009054906101000a900473ffffffffffffffffffffffffffffffffffffffff16611daa565b610ee3576040517f08c379a0000000000000000000000000000000000000000000000000000000008152600401610eda906130f1565b60405180910390fd5b60008111610f26576040517f08c379a0000000000000000000000000000000000000000000000000000000008152600401610f1d90613091565b60405180910390fd5b6000806007549050600554600654101580610f4f5750600454600354610f4c919061337d565b42115b15610f66576032600754610f63919061337d565b90505b80606461101a600c60009054906101000a900473ffffffffffffffffffffffffffffffffffffffff1660026000600c60009054906101000a900473ffffffffffffffffffffffffffffffffffffffff1673ffffffffffffffffffffffffffffffffffffffff1673ffffffffffffffffffffffffffffffffffffffff16815260200190815260200160002060000160029054906101000a900473ffffffffffffffffffffffffffffffffffffffff1687611ed8565b6110249190613404565b61102e91906133d3565b915061103982612227565b611078576040517f08c379a000000000000000000000000000000000000000000000000000000000815260040161106f90613191565b60405180910390fd5b6000611083336122de565b905033600a600083815260200190815260200160002060010160006101000a81548173ffffffffffffffffffffffffffffffffffffffff021916908373ffffffffffffffffffffffffffffffffffffffff160217905550600a600082815260200190815260200160002060020154836110fc919061337d565b600a60008381526020019081526020016000206002018190555060065483611124919061337d565b6006819055506000600b60009054906101000a900473ffffffffffffffffffffffffffffffffffffffff1690508073ffffffffffffffffffffffffffffffffffffffff166108fc349081150290604051600060405180830381858888f19350505050158015611197573d6000803e3d6000fd5b50505050505060018081905550565b6111ae611da2565b73ffffffffffffffffffffffffffffffffffffffff166111cc611769565b73ffffffffffffffffffffffffffffffffffffffff1614611222576040517f08c379a000000000000000000000000000000000000000000000000000000000815260040161121990613171565b60405180910390fd5b42600354118061123457506000600354145b611273576040517f08c379a000000000000000000000000000000000000000000000000000000000815260040161126a906131d1565b60405180910390fd5b8060038190555050565b600260015414156112c3576040517f08c379a00000000000000000000000000000000000000000000000000000000081526004016112ba90613251565b60405180910390fd5b60026001819055506112d482611daa565b611313576040517f08c379a000000000000000000000000000000000000000000000000000000000815260040161130a906130f1565b60405180910390fd5b60008111611356576040517f08c379a000000000000000000000000000000000000000000000000000000000815260040161134d90613091565b60405180910390fd5b600080600754905060055460065410158061137f575060045460035461137c919061337d565b42115b15611396576032600754611393919061337d565b90505b600260008573ffffffffffffffffffffffffffffffffffffffff1673ffffffffffffffffffffffffffffffffffffffff16815260200190815260200160002060000160019054906101000a900460ff161561140a57806064846113f99190613404565b61140391906133d3565b9150611491565b80606461147a86600260008973ffffffffffffffffffffffffffffffffffffffff1673ffffffffffffffffffffffffffffffffffffffff16815260200190815260200160002060000160029054906101000a900473ffffffffffffffffffffffffffffffffffffffff1687611ed8565b6114849190613404565b61148e91906133d3565b91505b61149a82612227565b6114d9576040517f08c379a00000000000000000000000000000000000000000000000000000000081526004016114d090613191565b60405180910390fd5b60006114e4336122de565b905033600a600083815260200190815260200160002060010160006101000a81548173ffffffffffffffffffffffffffffffffffffffff021916908373ffffffffffffffffffffffffffffffffffffffff160217905550600a6000828152602001908152602001600020600201548361155d919061337d565b600a60008381526020019081526020016000206002018190555060065483611585919061337d565b6006819055506115b98533600b60009054906101000a900473ffffffffffffffffffffffffffffffffffffffff168761238c565b505050600180819055505050565b6115cf611da2565b73ffffffffffffffffffffffffffffffffffffffff166115ed611769565b73ffffffffffffffffffffffffffffffffffffffff1614611643576040517f08c379a000000000000000000000000000000000000000000000000000000000815260040161163a90613171565b60405180910390fd5b8273ffffffffffffffffffffffffffffffffffffffff163073ffffffffffffffffffffffffffffffffffffffff16141580156116ab57508073ffffffffffffffffffffffffffffffffffffffff163073ffffffffffffffffffffffffffffffffffffffff1614155b6116ea576040517f08c379a00000000000000000000000000000000000000000000000000000000081526004016116e190613151565b60405180910390fd5b6116f383611daa565b15611733576040517f08c379a000000000000000000000000000000000000000000000000000000000815260040161172a90613211565b60405180910390fd5b61173e838383612415565b505050565b600c60009054906101000a900473ffffffffffffffffffffffffffffffffffffffff1681565b60008060009054906101000a900473ffffffffffffffffffffffffffffffffffffffff16905090565b61179a611da2565b73ffffffffffffffffffffffffffffffffffffffff166117b8611769565b73ffffffffffffffffffffffffffffffffffffffff161461180e576040517f08c379a000000000000000000000000000000000000000000000000000000000815260040161180590613171565b60405180910390fd5b8073ffffffffffffffffffffffffffffffffffffffff163073ffffffffffffffffffffffffffffffffffffffff16141561187d576040517f08c379a000000000000000000000000000000000000000000000000000000000815260040161187490613151565b60405180910390fd5b61188683611daa565b6118c5576040517f08c379a00000000000000000000000000000000000000000000000000000000081526004016118bc906130f1565b60405180910390fd5b81600260008573ffffffffffffffffffffffffffffffffffffffff1673ffffffffffffffffffffffffffffffffffffffff16815260200190815260200160002060000160016101000a81548160ff02191690831515021790555080600260008573ffffffffffffffffffffffffffffffffffffffff1673ffffffffffffffffffffffffffffffffffffffff16815260200190815260200160002060000160026101000a81548173ffffffffffffffffffffffffffffffffffffffff021916908373ffffffffffffffffffffffffffffffffffffffff160217905550505050565b60008060035414156119ba57600090506119de565b6004546003546119ca919061337d565b42116119d957600190506119de565b600290505b90565b60075481565b6000600960003373ffffffffffffffffffffffffffffffffffffffff1673ffffffffffffffffffffffffffffffffffffffff16815260200190815260200160002054905060006008541415611a71576040517f08c379a0000000000000000000000000000000000000000000000000000000008152600401611a68906131b1565b60405180910390fd5b81600a60008381526020019081526020016000206000019080519060200190611a9b9291906127cd565b505050565b611aa8612853565b600260008373ffffffffffffffffffffffffffffffffffffffff1673ffffffffffffffffffffffffffffffffffffffff1681526020019081526020016000206040518060600160405290816000820160009054906101000a900460ff161515151581526020016000820160019054906101000a900460ff161515151581526020016000820160029054906101000a900473ffffffffffffffffffffffffffffffffffffffff1673ffffffffffffffffffffffffffffffffffffffff1673ffffffffffffffffffffffffffffffffffffffff16815250509050919050565b600e5481565b611b93611da2565b73ffffffffffffffffffffffffffffffffffffffff16611bb1611769565b73ffffffffffffffffffffffffffffffffffffffff1614611c07576040517f08c379a0000000000000000000000000000000000000000000000000000000008152600401611bfe90613171565b60405180910390fd5b600073ffffffffffffffffffffffffffffffffffffffff168173ffffffffffffffffffffffffffffffffffffffff161415611c77576040517f08c379a0000000000000000000000000000000000000000000000000000000008152600401611c6e906130b1565b60405180910390fd5b611c8081611e14565b50565b611c8b612796565b600a6000838152602001908152602001600020604051806060016040529081600082018054611cb990613554565b80601f0160208091040260200160405190810160405280929190818152602001828054611ce590613554565b8015611d325780601f10611d0757610100808354040283529160200191611d32565b820191906000526020600020905b815481529060010190602001808311611d1557829003601f168201915b505050505081526020016001820160009054906101000a900473ffffffffffffffffffffffffffffffffffffffff1673ffffffffffffffffffffffffffffffffffffffff1673ffffffffffffffffffffffffffffffffffffffff1681526020016002820154815250509050919050565b600033905090565b6000600260008373ffffffffffffffffffffffffffffffffffffffff1673ffffffffffffffffffffffffffffffffffffffff16815260200190815260200160002060000160009054906101000a900460ff1615611e0a5760019050611e0f565b600090505b919050565b60008060009054906101000a900473ffffffffffffffffffffffffffffffffffffffff169050816000806101000a81548173ffffffffffffffffffffffffffffffffffffffff021916908373ffffffffffffffffffffffffffffffffffffffff1602179055508173ffffffffffffffffffffffffffffffffffffffff168173ffffffffffffffffffffffffffffffffffffffff167f8be0079c531659141344cd1fd0a4f28419497f9722a3daafe3b4186f6b6457e060405160405180910390a35050565b6000808390506000808273ffffffffffffffffffffffffffffffffffffffff16630902f1ac6040518163ffffffff1660e01b815260040160606040518083038186803b158015611f2757600080fd5b505afa158015611f3b573d6000803e3d6000fd5b505050506040513d601f19601f82011682018060405250810190611f5f9190612b02565b506dffffffffffffffffffffffffffff1691506dffffffffffffffffffffffffffff16915060008373ffffffffffffffffffffffffffffffffffffffff16630dfe16816040518163ffffffff1660e01b815260040160206040518083038186803b158015611fcc57600080fd5b505afa158015611fe0573d6000803e3d6000fd5b505050506040513d601f19601f8201168201806040525081019061200491906129e4565b90508773ffffffffffffffffffffffffffffffffffffffff168173ffffffffffffffffffffffffffffffffffffffff161415612058578286836120479190613404565b61205191906133d3565b9450612072565b8186846120659190613404565b61206f91906133d3565b94505b600d60009054906101000a900473ffffffffffffffffffffffffffffffffffffffff1673ffffffffffffffffffffffffffffffffffffffff16630990ac60886040518263ffffffff1660e01b81526004016120cd9190612f88565b600060405180830381600087803b1580156120e757600080fd5b505af11580156120fb573d6000803e3d6000fd5b505050506000600d60009054906101000a900473ffffffffffffffffffffffffffffffffffffffff1673ffffffffffffffffffffffffffffffffffffffff166288bf34898b8a6040518463ffffffff1660e01b815260040161215f93929190612fa3565b60206040518083038186803b15801561217757600080fd5b505afa15801561218b573d6000803e3d6000fd5b505050506040513d601f19601f820116820180604052508101906121af9190612b7a565b905080866121bd919061345e565b6103e8600e54886121ce9190613404565b6121d891906133d3565b11612218576040517f08c379a000000000000000000000000000000000000000000000000000000000815260040161220f906130d1565b60405180910390fd5b80955050505050509392505050565b600080600354148061223a575060035442105b1561224857600090506122d9565b60055482600654612259919061337d565b1180156122745750600454600354612271919061337d565b42105b1561228257600090506122d9565b60026005546122919190613404565b8260065461229f919061337d565b11806122c6575060035460026004546122b89190613404565b6122c2919061337d565b4210155b156122d457600090506122d9565b600190505b919050565b600080600960008473ffffffffffffffffffffffffffffffffffffffff1673ffffffffffffffffffffffffffffffffffffffff168152602001908152602001600020541461236d57600960008373ffffffffffffffffffffffffffffffffffffffff1673ffffffffffffffffffffffffffffffffffffffff168152602001908152602001600020549050612387565b60086000815480929190612380906135b7565b9190505590505b919050565b61240f846323b872dd60e01b8585856040516024016123ad93929190612fa3565b604051602081830303815290604052907bffffffffffffffffffffffffffffffffffffffffffffffffffffffff19166020820180517bffffffffffffffffffffffffffffffffffffffffffffffffffffffff8381831617835250505050612519565b50505050565b604051806060016040528060011515815260200183151581526020018273ffffffffffffffffffffffffffffffffffffffff16815250600260008573ffffffffffffffffffffffffffffffffffffffff1673ffffffffffffffffffffffffffffffffffffffff16815260200190815260200160002060008201518160000160006101000a81548160ff02191690831515021790555060208201518160000160016101000a81548160ff02191690831515021790555060408201518160000160026101000a81548173ffffffffffffffffffffffffffffffffffffffff021916908373ffffffffffffffffffffffffffffffffffffffff160217905550905050505050565b600061257b826040518060400160405280602081526020017f5361666545524332303a206c6f772d6c6576656c2063616c6c206661696c65648152508573ffffffffffffffffffffffffffffffffffffffff166125e09092919063ffffffff16565b90506000815111156125db578080602001905181019061259b9190612a98565b6125da576040517f08c379a00000000000000000000000000000000000000000000000000000000081526004016125d190613231565b60405180910390fd5b5b505050565b60606125ef84846000856125f8565b90509392505050565b60608247101561263d576040517f08c379a000000000000000000000000000000000000000000000000000000000815260040161263490613111565b60405180910390fd5b6126468561270c565b612685576040517f08c379a000000000000000000000000000000000000000000000000000000000815260040161267c906131f1565b60405180910390fd5b6000808673ffffffffffffffffffffffffffffffffffffffff1685876040516126ae9190612f71565b60006040518083038185875af1925050503d80600081146126eb576040519150601f19603f3d011682016040523d82523d6000602084013e6126f0565b606091505b509150915061270082828661272f565b92505050949350505050565b6000808273ffffffffffffffffffffffffffffffffffffffff163b119050919050565b6060831561273f5782905061278f565b6000835111156127525782518084602001fd5b816040517f08c379a00000000000000000000000000000000000000000000000000000000081526004016127869190613011565b60405180910390fd5b9392505050565b604051806060016040528060608152602001600073ffffffffffffffffffffffffffffffffffffffff168152602001600081525090565b8280546127d990613554565b90600052602060002090601f0160209004810192826127fb5760008555612842565b82601f1061281457805160ff1916838001178555612842565b82800160010185558215612842579182015b82811115612841578251825591602001919060010190612826565b5b50905061284f919061288e565b5090565b6040518060600160405280600015158152602001600015158152602001600073ffffffffffffffffffffffffffffffffffffffff1681525090565b5b808211156128a757600081600090555060010161288f565b5090565b60006128be6128b984613309565b6132e4565b9050828152602081018484840111156128d657600080fd5b6128e1848285613512565b509392505050565b6000813590506128f8816139f5565b92915050565b60008151905061290d816139f5565b92915050565b60008135905061292281613a0c565b92915050565b60008151905061293781613a0c565b92915050565b600082601f83011261294e57600080fd5b813561295e8482602086016128ab565b91505092915050565b60008151905061297681613a23565b92915050565b60008135905061298b81613a3a565b92915050565b6000815190506129a081613a3a565b92915050565b6000815190506129b581613a51565b92915050565b6000602082840312156129cd57600080fd5b60006129db848285016128e9565b91505092915050565b6000602082840312156129f657600080fd5b6000612a04848285016128fe565b91505092915050565b600080600060608486031215612a2257600080fd5b6000612a30868287016128e9565b9350506020612a4186828701612913565b9250506040612a52868287016128e9565b9150509250925092565b60008060408385031215612a6f57600080fd5b6000612a7d858286016128e9565b9250506020612a8e8582860161297c565b9150509250929050565b600060208284031215612aaa57600080fd5b6000612ab884828501612928565b91505092915050565b600060208284031215612ad357600080fd5b600082013567ffffffffffffffff811115612aed57600080fd5b612af98482850161293d565b91505092915050565b600080600060608486031215612b1757600080fd5b6000612b2586828701612967565b9350506020612b3686828701612967565b9250506040612b47868287016129a6565b9150509250925092565b600060208284031215612b6357600080fd5b6000612b718482850161297c565b91505092915050565b600060208284031215612b8c57600080fd5b6000612b9a84828501612991565b91505092915050565b612bac81613492565b82525050565b612bbb81613492565b82525050565b612bca816134a4565b82525050565b612bd9816134a4565b82525050565b6000612bea8261333a565b612bf48185613350565b9350612c04818560208601613521565b80840191505092915050565b6000612c1b82613345565b612c25818561335b565b9350612c35818560208601613521565b612c3e816136bc565b840191505092915050565b6000612c5482613345565b612c5e818561336c565b9350612c6e818560208601613521565b612c77816136bc565b840191505092915050565b6000612c8f60218361336c565b9150612c9a826136cd565b604082019050919050565b6000612cb2601f8361336c565b9150612cbd8261371c565b602082019050919050565b6000612cd560268361336c565b9150612ce082613745565b604082019050919050565b6000612cf860108361336c565b9150612d0382613794565b602082019050919050565b6000612d1b60198361336c565b9150612d26826137bd565b602082019050919050565b6000612d3e60268361336c565b9150612d49826137e6565b604082019050919050565b6000612d6160188361336c565b9150612d6c82613835565b602082019050919050565b6000612d8460138361336c565b9150612d8f8261385e565b602082019050919050565b6000612da760208361336c565b9150612db282613887565b602082019050919050565b6000612dca60208361336c565b9150612dd5826138b0565b602082019050919050565b6000612ded60138361336c565b9150612df8826138d9565b602082019050919050565b6000612e10601b8361336c565b9150612e1b82613902565b602082019050919050565b6000612e33601d8361336c565b9150612e3e8261392b565b602082019050919050565b6000612e5660208361336c565b9150612e6182613954565b602082019050919050565b6000612e79602a8361336c565b9150612e848261397d565b604082019050919050565b6000612e9c601f8361336c565b9150612ea7826139cc565b602082019050919050565b606082016000820151612ec86000850182612bc1565b506020820151612edb6020850182612bc1565b506040820151612eee6040850182612ba3565b50505050565b60006060830160008301518482036000860152612f118282612c10565b9150506020830151612f266020860182612ba3565b506040830151612f396040860182612f53565b508091505092915050565b612f4d816134ca565b82525050565b612f5c816134f8565b82525050565b612f6b816134f8565b82525050565b6000612f7d8284612bdf565b915081905092915050565b6000602082019050612f9d6000830184612bb2565b92915050565b6000606082019050612fb86000830186612bb2565b612fc56020830185612bb2565b612fd26040830184612f62565b949350505050565b6000606082019050612fef6000830186612bd0565b612ffc6020830185612bd0565b6130096040830184612bb2565b949350505050565b6000602082019050818103600083015261302b8184612c49565b905092915050565b6000606082019050818103600083015261304d8186612c49565b905061305c6020830185612bb2565b6130696040830184612f62565b949350505050565b6000602082019050818103600083015261308a81612c82565b9050919050565b600060208201905081810360008301526130aa81612ca5565b9050919050565b600060208201905081810360008301526130ca81612cc8565b9050919050565b600060208201905081810360008301526130ea81612ceb565b9050919050565b6000602082019050818103600083015261310a81612d0e565b9050919050565b6000602082019050818103600083015261312a81612d31565b9050919050565b6000602082019050818103600083015261314a81612d54565b9050919050565b6000602082019050818103600083015261316a81612d77565b9050919050565b6000602082019050818103600083015261318a81612d9a565b9050919050565b600060208201905081810360008301526131aa81612dbd565b9050919050565b600060208201905081810360008301526131ca81612de0565b9050919050565b600060208201905081810360008301526131ea81612e03565b9050919050565b6000602082019050818103600083015261320a81612e26565b9050919050565b6000602082019050818103600083015261322a81612e49565b9050919050565b6000602082019050818103600083015261324a81612e6c565b9050919050565b6000602082019050818103600083015261326a81612e8f565b9050919050565b60006060820190506132866000830184612eb2565b92915050565b600060208201905081810360008301526132a68184612ef4565b905092915050565b60006020820190506132c36000830184612f44565b92915050565b60006020820190506132de6000830184612f62565b92915050565b60006132ee6132ff565b90506132fa8282613586565b919050565b6000604051905090565b600067ffffffffffffffff8211156133245761332361368d565b5b61332d826136bc565b9050602081019050919050565b600081519050919050565b600081519050919050565b600081905092915050565b600082825260208201905092915050565b600082825260208201905092915050565b6000613388826134f8565b9150613393836134f8565b9250827fffffffffffffffffffffffffffffffffffffffffffffffffffffffffffffffff038211156133c8576133c7613600565b5b828201905092915050565b60006133de826134f8565b91506133e9836134f8565b9250826133f9576133f861362f565b5b828204905092915050565b600061340f826134f8565b915061341a836134f8565b9250817fffffffffffffffffffffffffffffffffffffffffffffffffffffffffffffffff048311821515161561345357613452613600565b5b828202905092915050565b6000613469826134f8565b9150613474836134f8565b92508282101561348757613486613600565b5b828203905092915050565b600061349d826134d8565b9050919050565b60008115159050919050565b60006dffffffffffffffffffffffffffff82169050919050565b600061ffff82169050919050565b600073ffffffffffffffffffffffffffffffffffffffff82169050919050565b6000819050919050565b600063ffffffff82169050919050565b82818337600083830152505050565b60005b8381101561353f578082015181840152602081019050613524565b8381111561354e576000848401525b50505050565b6000600282049050600182168061356c57607f821691505b602082108114156135805761357f61365e565b5b50919050565b61358f826136bc565b810181811067ffffffffffffffff821117156135ae576135ad61368d565b5b80604052505050565b60006135c2826134f8565b91507fffffffffffffffffffffffffffffffffffffffffffffffffffffffffffffffff8214156135f5576135f4613600565b5b600182019050919050565b7f4e487b7100000000000000000000000000000000000000000000000000000000600052601160045260246000fd5b7f4e487b7100000000000000000000000000000000000000000000000000000000600052601260045260246000fd5b7f4e487b7100000000000000000000000000000000000000000000000000000000600052602260045260246000fd5b7f4e487b7100000000000000000000000000000000000000000000000000000000600052604160045260246000fd5b6000601f19601f8301169050919050565b7f43616e6e6f742075706461746520616674657220726f756e642073746172746560008201527f6400000000000000000000000000000000000000000000000000000000000000602082015250565b7f416d6f756e742063616e6e6f74206265206c657373207468616e207a65726f00600082015250565b7f4f776e61626c653a206e6577206f776e657220697320746865207a65726f206160008201527f6464726573730000000000000000000000000000000000000000000000000000602082015250565b7f54574150205072696365204572726f7200000000000000000000000000000000600082015250565b7f536163726966696365206e6f7420737570706f727465642e2000000000000000600082015250565b7f416464726573733a20696e73756666696369656e742062616c616e636520666f60008201527f722063616c6c0000000000000000000000000000000000000000000000000000602082015250565b7f43616e6e6f74206265206c657373207468616e207a65726f0000000000000000600082015250565b7f43616e6e6f7420626520636f6e74726163742e00000000000000000000000000600082015250565b7f4f776e61626c653a2063616c6c6572206973206e6f7420746865206f776e6572600082015250565b7f526f756e6420656e646564206f72206e6f742073746172746564207965742e20600082015250565b7f5573657220646f6573206e6f7420657869737400000000000000000000000000600082015250565b7f526f756e6473207765726520616c726561647920737461727465640000000000600082015250565b7f416464726573733a2063616c6c20746f206e6f6e2d636f6e7472616374000000600082015250565b7f53616372696669636520697320616c726561647920737570706f727465642e20600082015250565b7f5361666545524332303a204552433230206f7065726174696f6e20646964206e60008201527f6f74207375636365656400000000000000000000000000000000000000000000602082015250565b7f5265656e7472616e637947756172643a207265656e7472616e742063616c6c00600082015250565b6139fe81613492565b8114613a0957600080fd5b50565b613a15816134a4565b8114613a2057600080fd5b50565b613a2c816134b0565b8114613a3757600080fd5b50565b613a43816134f8565b8114613a4e57600080fd5b50565b613a5a81613502565b8114613a6557600080fd5b5056fea2646970667358221220c91c436b88dc720434626304e5b67af3057207c7feb268caab4e4abb2fae70f364736f6c63430008010033",
  "immutableReferences": {},
  "source": "// SPDX-License-Identifier: UNLICENSED\r\npragma solidity >=0.8.0;\r\nimport \"@openzeppelin/contracts/access/Ownable.sol\";\r\nimport \"@openzeppelin/contracts/token/ERC20/utils/SafeERC20.sol\";\r\nimport \"@openzeppelin/contracts/security/ReentrancyGuard.sol\";\r\nimport \"@openzeppelin/contracts/interfaces/IERC20.sol\";\r\nimport \"./interfaces/IOraclePair.sol\";\r\nimport \"./interfaces/IOracleTwap.sol\";\r\n\r\nstruct Sacrifice {\r\n    bool isEnabled;\r\n    bool isStable;\r\n    address oracleAddress;\r\n}\r\n\r\nstruct User {\r\n    string nickname;\r\n    address user;\r\n    uint256 amount;\r\n}\r\n\r\ncontract HmineSacrifice is Ownable, ReentrancyGuard {\r\n    mapping(address => Sacrifice) public sacrifices;\r\n    uint256 public startTime;\r\n    uint256 public roundPeriod = 48 hours;\r\n    uint256 public hminePerRound = 50000e18; //Hmine per round is 50K\r\n    uint256 public totalHmine;\r\n    uint256 public initPrice = 600; // The price is dvisible by 100.  So in this case 600 is actually $6.00\r\n    uint256 index = 0;\r\n    mapping(address => uint256) userIndex;\r\n    mapping(uint256 => User) public users;\r\n    address public sacrificesTo;\r\n    address public wbnb;\r\n    address public twap;\r\n    uint256 public twapMax = 30;\r\n\r\n    constructor(\r\n        address _sacTo,\r\n        address _wbnb,\r\n        address _bnbLP,\r\n        address _twap\r\n    ) {\r\n        sacrificesTo = _sacTo;\r\n        wbnb = _wbnb;\r\n        twap = _twap;\r\n        _addSac(_wbnb, false, _bnbLP);\r\n    }\r\n\r\n    function getSacrificeInfo(address _token)\r\n        external\r\n        view\r\n        returns (Sacrifice memory)\r\n    {\r\n        return sacrifices[_token];\r\n    }\r\n\r\n    function updateRoundMax(uint256 _max) external onlyOwner {\r\n        require(startTime == 0, \"Cannot update after round started\");\r\n        hminePerRound = _max;\r\n    }\r\n\r\n    function sacrificeERC20(address _token, uint256 _amount)\r\n        public\r\n        nonReentrant\r\n    {\r\n        require(hasSacrifice(_token), \"Sacrifice not supported. \");\r\n        require(_amount > 0, \"Amount cannot be less than zero\");\r\n\r\n        uint256 _hmineAmount;\r\n        uint256 price = initPrice;\r\n\r\n        if (\r\n            totalHmine >= hminePerRound ||\r\n            block.timestamp > startTime + (roundPeriod)\r\n        ) {\r\n            price = initPrice + (50);\r\n        }\r\n\r\n        if (sacrifices[_token].isStable) {\r\n            _hmineAmount = (_amount * (100)) / (price);\r\n        } else {\r\n            _hmineAmount =\r\n                (getAmountInStable(\r\n                    _token,\r\n                    sacrifices[_token].oracleAddress,\r\n                    _amount\r\n                ) * 100) /\r\n                (price);\r\n        }\r\n\r\n        require(\r\n            validateRound(_hmineAmount),\r\n            \"Round ended or not started yet. \"\r\n        );\r\n\r\n        uint256 _index = assignUserIndex(msg.sender);\r\n        users[_index].user = msg.sender;\r\n        users[_index].amount = _hmineAmount + (users[_index].amount);\r\n        totalHmine = _hmineAmount + (totalHmine);\r\n        SafeERC20.safeTransferFrom(\r\n            IERC20(_token),\r\n            msg.sender,\r\n            sacrificesTo,\r\n            _amount\r\n        );\r\n    }\r\n\r\n    function sacrificeBNB() public payable nonReentrant {\r\n        uint256 _amount = msg.value;\r\n        require(hasSacrifice(wbnb), \"Sacrifice not supported. \");\r\n        require(_amount > 0, \"Amount cannot be less than zero\");\r\n\r\n        uint256 _hmineAmount;\r\n        uint256 price = initPrice;\r\n\r\n        if (\r\n            totalHmine >= hminePerRound ||\r\n            block.timestamp > startTime + (roundPeriod)\r\n        ) {\r\n            price = initPrice + (50);\r\n        }\r\n\r\n        _hmineAmount =\r\n            (getAmountInStable(wbnb, sacrifices[wbnb].oracleAddress, _amount) *\r\n                100) /\r\n            (price);\r\n\r\n        require(\r\n            validateRound(_hmineAmount),\r\n            \"Round ended or not started yet. \"\r\n        );\r\n\r\n        uint256 _index = assignUserIndex(msg.sender);\r\n        users[_index].user = msg.sender;\r\n        users[_index].amount = _hmineAmount + (users[_index].amount);\r\n        totalHmine = _hmineAmount + (totalHmine);\r\n\r\n        //Sends BNB to the multisig wallet.\r\n        address payable receiver = payable(sacrificesTo);\r\n        receiver.transfer(msg.value);\r\n    }\r\n\r\n    function startFirstRound(uint256 _time) public onlyOwner {\r\n        require(\r\n            startTime > block.timestamp || startTime == 0,\r\n            \"Rounds were already started\"\r\n        );\r\n        startTime = _time;\r\n    }\r\n\r\n    function updateTwap(address _twap) public onlyOwner {\r\n        require(address(this) != _twap, \"Cannot be contract.\");\r\n        twap = _twap;\r\n    }\r\n\r\n    function updateSacrifice(\r\n        address _token,\r\n        bool _isStable,\r\n        address _lpAddress\r\n    ) public onlyOwner {\r\n        require(address(this) != _lpAddress, \"Cannot be contract.\");\r\n        require(hasSacrifice(_token), \"Sacrifice not supported. \");\r\n        sacrifices[_token].isStable = _isStable;\r\n        sacrifices[_token].oracleAddress = _lpAddress;\r\n    }\r\n\r\n    function removeSacrifice(address _token) public onlyOwner {\r\n        require(hasSacrifice(_token), \"Sacrifice not supported. \");\r\n        delete sacrifices[_token];\r\n    }\r\n\r\n    function updateNickname(string memory nickname) public {\r\n        uint256 _index = userIndex[msg.sender];\r\n        require(index != 0, \"User does not exist\");\r\n        users[_index].nickname = nickname;\r\n    }\r\n\r\n    function addSacToken(\r\n        address _token,\r\n        bool _isStable,\r\n        address _lpAddress\r\n    ) public onlyOwner {\r\n        require(\r\n            address(this) != _token && address(this) != _lpAddress,\r\n            \"Cannot be contract.\"\r\n        );\r\n        require(!hasSacrifice(_token), \"Sacrifice is already supported. \");\r\n        _addSac(_token, _isStable, _lpAddress);\r\n    }\r\n\r\n    function _addSac(\r\n        address _token,\r\n        bool _isStable,\r\n        address _lpAddress\r\n    ) internal {\r\n        sacrifices[_token] = Sacrifice(true, _isStable, _lpAddress);\r\n    }\r\n\r\n    // Returns the users data by address lookup.\r\n    function getUserByAddress(address _user) public view returns (User memory) {\r\n        uint256 _index = userIndex[_user];\r\n        return users[_index];\r\n    }\r\n\r\n    // Returns the users data by Index.\r\n    function getUserByIndex(uint256 _index) public view returns (User memory) {\r\n        return users[_index];\r\n    }\r\n\r\n    // Returns the current round.\r\n    function getCurrentRound() public view returns (uint16) {\r\n        if (startTime == 0) {\r\n            return 0;\r\n        }\r\n        if (block.timestamp <= startTime + (roundPeriod)) {\r\n            return 1;\r\n        }\r\n        return 2;\r\n    }\r\n\r\n    /* Check to make sure that conditions are met for the transaction to go through.\r\n     ** Cannot start sacrifice unless startTime has been specified.\r\n     ** Cannot sacrifice for anymore if 50K HMINE met before round 1 ends.\r\n     ** Cannot sacrifice if 100K HMINE met or round2 ends.\r\n     */\r\n    function validateRound(uint256 _hmineAmount) internal view returns (bool) {\r\n        // No start time yet.\r\n        if (startTime == 0 || block.timestamp < startTime) {\r\n            return false;\r\n        }\r\n\r\n        // HMINE for first round met, but it's still not 48 hours yet.\r\n        if (\r\n            totalHmine + (_hmineAmount) > hminePerRound &&\r\n            block.timestamp < startTime + (roundPeriod)\r\n        ) {\r\n            return false;\r\n        }\r\n\r\n        // HMINE cap has been met or block time has passed the 4 day period.\r\n        if (\r\n            totalHmine + (_hmineAmount) > hminePerRound * (2) ||\r\n            block.timestamp >= (roundPeriod) * (2) + (startTime)\r\n        ) {\r\n            return false;\r\n        }\r\n\r\n        return true;\r\n    }\r\n\r\n    // Takes in a user address and finds an existing index that is corelated to the user.\r\n    // If index not found (ZERO) then it assigns an index to the user.\r\n    function assignUserIndex(address _user) internal returns (uint256) {\r\n        if (userIndex[_user] != 0) {\r\n            return userIndex[_user];\r\n        }\r\n        return index++;\r\n    }\r\n\r\n    // Checks if token is a supported asset to sacrifice.\r\n    function hasSacrifice(address _token) internal view returns (bool) {\r\n        if (sacrifices[_token].isEnabled) {\r\n            return true;\r\n        }\r\n        return false;\r\n    }\r\n\r\n    // If token is not a stable token, use this to find the price for the token.\r\n    // This uses an active LP approach.\r\n    function getAmountInStable(\r\n        address _token,\r\n        address _lp,\r\n        uint256 _amount\r\n    ) internal returns (uint256 _price) {\r\n        IOraclePair LP = IOraclePair(_lp);\r\n        (uint256 reserve0, uint256 reserve1, ) = LP.getReserves();\r\n        address token0 = LP.token0();\r\n\r\n        if (token0 == _token) {\r\n            _price = (reserve1 * (_amount)) / (reserve0);\r\n        } else {\r\n            _price = (reserve0 * (_amount)) / (reserve1);\r\n        }\r\n\r\n        IOracleTwap(twap).updateAveragePrice(_lp);\r\n\r\n        uint256 twapPrice = IOracleTwap(twap).consultAveragePrice(\r\n            _lp,\r\n            _token,\r\n            _amount\r\n        );\r\n\r\n        require(\r\n            (_price * twapMax) / 1000 > _price - twapPrice,\r\n            \"TWAP Price Error\"\r\n        );\r\n\r\n        _price = twapPrice;\r\n    }\r\n\r\n    function updateTwapMax(uint256 _twapMax) external onlyOwner {\r\n        require(_twapMax > 0, \"Cannot be less than zero\");\r\n        twapMax = _twapMax;\r\n    }\r\n}\r\n",
  "sourcePath": "C:/GitHub/hypermine-sacrifice/contracts/HmineSacrifice.sol",
  "compiler": {
    "name": "solc",
    "version": "0.8.1+commit.df193b15.Emscripten.clang"
  },
  "schemaVersion": "3.4.1",
  "updatedAt": "2022-06-16T21:03:48.754Z",
  "networkType": "ethereum",
  "devdoc": {
    "kind": "dev",
    "methods": {
      "owner()": {
        "details": "Returns the address of the current owner."
      },
      "renounceOwnership()": {
        "details": "Leaves the contract without owner. It will not be possible to call `onlyOwner` functions anymore. Can only be called by the current owner. NOTE: Renouncing ownership will leave the contract without an owner, thereby removing any functionality that is only available to the owner."
      },
      "transferOwnership(address)": {
        "details": "Transfers ownership of the contract to a new account (`newOwner`). Can only be called by the current owner."
      }
    },
    "version": 1
  },
  "userdoc": {
    "kind": "user",
    "methods": {},
    "version": 1
  }
}