{
  "contractName": "HmineMain",
  "abi": [
    {
      "inputs": [
        {
          "internalType": "address",
          "name": "_currenctyToken",
          "type": "address"
        },
        {
          "internalType": "address",
          "name": "_hmineToken",
          "type": "address"
        }
      ],
      "stateMutability": "nonpayable",
      "type": "constructor"
    },
    {
      "anonymous": false,
      "inputs": [
        {
          "indexed": false,
          "internalType": "uint256",
          "name": "_amount",
          "type": "uint256"
        }
      ],
      "name": "BonusReward",
      "type": "event"
    },
    {
      "anonymous": false,
      "inputs": [
        {
          "indexed": true,
          "internalType": "address",
          "name": "_user",
          "type": "address"
        },
        {
          "indexed": false,
          "internalType": "uint256",
          "name": "_amount",
          "type": "uint256"
        },
        {
          "indexed": false,
          "internalType": "uint256",
          "name": "_price",
          "type": "uint256"
        }
      ],
      "name": "Buy",
      "type": "event"
    },
    {
      "anonymous": false,
      "inputs": [
        {
          "indexed": true,
          "internalType": "address",
          "name": "_user",
          "type": "address"
        },
        {
          "indexed": false,
          "internalType": "uint256",
          "name": "_amount",
          "type": "uint256"
        },
        {
          "indexed": false,
          "internalType": "uint256",
          "name": "_price",
          "type": "uint256"
        }
      ],
      "name": "Compound",
      "type": "event"
    },
    {
      "anonymous": false,
      "inputs": [
        {
          "indexed": true,
          "internalType": "address",
          "name": "previousOwner",
          "type": "address"
        },
        {
          "indexed": true,
          "internalType": "address",
          "name": "newOwner",
          "type": "address"
        }
      ],
      "name": "OwnershipTransferred",
      "type": "event"
    },
    {
      "anonymous": false,
      "inputs": [
        {
          "indexed": true,
          "internalType": "address",
          "name": "_user",
          "type": "address"
        },
        {
          "indexed": false,
          "internalType": "uint256",
          "name": "_amount",
          "type": "uint256"
        },
        {
          "indexed": false,
          "internalType": "uint256",
          "name": "_price",
          "type": "uint256"
        }
      ],
      "name": "Sell",
      "type": "event"
    },
    {
      "inputs": [],
      "name": "FURNACE",
      "outputs": [
        {
          "internalType": "address",
          "name": "",
          "type": "address"
        }
      ],
      "stateMutability": "view",
      "type": "function",
      "constant": true
    },
    {
      "inputs": [],
      "name": "accRewardPerShare",
      "outputs": [
        {
          "internalType": "uint256",
          "name": "",
          "type": "uint256"
        }
      ],
      "stateMutability": "view",
      "type": "function",
      "constant": true
    },
    {
      "inputs": [],
      "name": "bankroll",
      "outputs": [
        {
          "internalType": "address",
          "name": "",
          "type": "address"
        }
      ],
      "stateMutability": "view",
      "type": "function",
      "constant": true
    },
    {
      "inputs": [],
      "name": "currencyToken",
      "outputs": [
        {
          "internalType": "address",
          "name": "",
          "type": "address"
        }
      ],
      "stateMutability": "view",
      "type": "function",
      "constant": true
    },
    {
      "inputs": [],
      "name": "currentPrice",
      "outputs": [
        {
          "internalType": "uint256",
          "name": "",
          "type": "uint256"
        }
      ],
      "stateMutability": "view",
      "type": "function",
      "constant": true
    },
    {
      "inputs": [],
      "name": "firstRound",
      "outputs": [
        {
          "internalType": "uint256",
          "name": "",
          "type": "uint256"
        }
      ],
      "stateMutability": "view",
      "type": "function",
      "constant": true
    },
    {
      "inputs": [],
      "name": "hmineToken",
      "outputs": [
        {
          "internalType": "address",
          "name": "",
          "type": "address"
        }
      ],
      "stateMutability": "view",
      "type": "function",
      "constant": true
    },
    {
      "inputs": [],
      "name": "index",
      "outputs": [
        {
          "internalType": "uint256",
          "name": "",
          "type": "uint256"
        }
      ],
      "stateMutability": "view",
      "type": "function",
      "constant": true
    },
    {
      "inputs": [
        {
          "internalType": "uint256",
          "name": "",
          "type": "uint256"
        }
      ],
      "name": "management",
      "outputs": [
        {
          "internalType": "address",
          "name": "",
          "type": "address"
        }
      ],
      "stateMutability": "view",
      "type": "function",
      "constant": true
    },
    {
      "inputs": [],
      "name": "maxSupply",
      "outputs": [
        {
          "internalType": "uint256",
          "name": "",
          "type": "uint256"
        }
      ],
      "stateMutability": "view",
      "type": "function",
      "constant": true
    },
    {
      "inputs": [],
      "name": "owner",
      "outputs": [
        {
          "internalType": "address",
          "name": "",
          "type": "address"
        }
      ],
      "stateMutability": "view",
      "type": "function",
      "constant": true
    },
    {
      "inputs": [],
      "name": "renounceOwnership",
      "outputs": [],
      "stateMutability": "nonpayable",
      "type": "function"
    },
    {
      "inputs": [],
      "name": "rewardGiver",
      "outputs": [
        {
          "internalType": "address",
          "name": "",
          "type": "address"
        }
      ],
      "stateMutability": "view",
      "type": "function",
      "constant": true
    },
    {
      "inputs": [],
      "name": "rewardTotal",
      "outputs": [
        {
          "internalType": "uint256",
          "name": "",
          "type": "uint256"
        }
      ],
      "stateMutability": "view",
      "type": "function",
      "constant": true
    },
    {
      "inputs": [],
      "name": "roundIncrement",
      "outputs": [
        {
          "internalType": "uint256",
          "name": "",
          "type": "uint256"
        }
      ],
      "stateMutability": "view",
      "type": "function",
      "constant": true
    },
    {
      "inputs": [],
      "name": "safeHolders",
      "outputs": [
        {
          "internalType": "address",
          "name": "",
          "type": "address"
        }
      ],
      "stateMutability": "view",
      "type": "function",
      "constant": true
    },
    {
      "inputs": [],
      "name": "secondRound",
      "outputs": [
        {
          "internalType": "uint256",
          "name": "",
          "type": "uint256"
        }
      ],
      "stateMutability": "view",
      "type": "function",
      "constant": true
    },
    {
      "inputs": [],
      "name": "startTime",
      "outputs": [
        {
          "internalType": "uint256",
          "name": "",
          "type": "uint256"
        }
      ],
      "stateMutability": "view",
      "type": "function",
      "constant": true
    },
    {
      "inputs": [],
      "name": "totalSold",
      "outputs": [
        {
          "internalType": "uint256",
          "name": "",
          "type": "uint256"
        }
      ],
      "stateMutability": "view",
      "type": "function",
      "constant": true
    },
    {
      "inputs": [],
      "name": "totalStaked",
      "outputs": [
        {
          "internalType": "uint256",
          "name": "",
          "type": "uint256"
        }
      ],
      "stateMutability": "view",
      "type": "function",
      "constant": true
    },
    {
      "inputs": [
        {
          "internalType": "address",
          "name": "newOwner",
          "type": "address"
        }
      ],
      "name": "transferOwnership",
      "outputs": [],
      "stateMutability": "nonpayable",
      "type": "function"
    },
    {
      "inputs": [
        {
          "internalType": "address",
          "name": "",
          "type": "address"
        }
      ],
      "name": "userIndex",
      "outputs": [
        {
          "internalType": "uint256",
          "name": "",
          "type": "uint256"
        }
      ],
      "stateMutability": "view",
      "type": "function",
      "constant": true
    },
    {
      "inputs": [
        {
          "internalType": "address",
          "name": "",
          "type": "address"
        }
      ],
      "name": "userRewardDebt",
      "outputs": [
        {
          "internalType": "uint256",
          "name": "",
          "type": "uint256"
        }
      ],
      "stateMutability": "view",
      "type": "function",
      "constant": true
    },
    {
      "inputs": [
        {
          "internalType": "uint256",
          "name": "",
          "type": "uint256"
        }
      ],
      "name": "users",
      "outputs": [
        {
          "internalType": "string",
          "name": "nickname",
          "type": "string"
        },
        {
          "internalType": "address",
          "name": "user",
          "type": "address"
        },
        {
          "internalType": "uint256",
          "name": "amount",
          "type": "uint256"
        },
        {
          "internalType": "uint256",
          "name": "reward",
          "type": "uint256"
        }
      ],
      "stateMutability": "view",
      "type": "function",
      "constant": true
    },
    {
      "inputs": [
        {
          "internalType": "uint256",
          "name": "_startTime",
          "type": "uint256"
        }
      ],
      "name": "initialize",
      "outputs": [],
      "stateMutability": "nonpayable",
      "type": "function"
    },
    {
      "inputs": [
        {
          "components": [
            {
              "internalType": "string",
              "name": "nickname",
              "type": "string"
            },
            {
              "internalType": "address",
              "name": "user",
              "type": "address"
            },
            {
              "internalType": "uint256",
              "name": "amount",
              "type": "uint256"
            },
            {
              "internalType": "uint256",
              "name": "reward",
              "type": "uint256"
            }
          ],
          "internalType": "struct HmineMain.User[]",
          "name": "_users",
          "type": "tuple[]"
        }
      ],
      "name": "migrateSacrifice",
      "outputs": [],
      "stateMutability": "nonpayable",
      "type": "function"
    },
    {
      "inputs": [],
      "name": "hmineReserve",
      "outputs": [
        {
          "internalType": "uint256",
          "name": "_hmineReserve",
          "type": "uint256"
        }
      ],
      "stateMutability": "view",
      "type": "function",
      "constant": true
    },
    {
      "inputs": [],
      "name": "currencyReserve",
      "outputs": [
        {
          "internalType": "uint256",
          "name": "_currencyReserve",
          "type": "uint256"
        }
      ],
      "stateMutability": "view",
      "type": "function",
      "constant": true
    },
    {
      "inputs": [
        {
          "internalType": "uint256",
          "name": "_amount",
          "type": "uint256"
        }
      ],
      "name": "recoverReserve",
      "outputs": [],
      "stateMutability": "nonpayable",
      "type": "function"
    },
    {
      "inputs": [
        {
          "internalType": "uint256",
          "name": "_amount",
          "type": "uint256"
        },
        {
          "internalType": "bool",
          "name": "_isBuy",
          "type": "bool"
        }
      ],
      "name": "calculateSwap",
      "outputs": [
        {
          "internalType": "uint256",
          "name": "_value",
          "type": "uint256"
        }
      ],
      "stateMutability": "view",
      "type": "function",
      "constant": true
    },
    {
      "inputs": [
        {
          "internalType": "uint256",
          "name": "_amount",
          "type": "uint256"
        }
      ],
      "name": "buy",
      "outputs": [],
      "stateMutability": "nonpayable",
      "type": "function"
    },
    {
      "inputs": [
        {
          "internalType": "uint256",
          "name": "_amount",
          "type": "uint256"
        }
      ],
      "name": "sell",
      "outputs": [],
      "stateMutability": "nonpayable",
      "type": "function"
    },
    {
      "inputs": [
        {
          "internalType": "uint256",
          "name": "_amount",
          "type": "uint256"
        }
      ],
      "name": "stake",
      "outputs": [],
      "stateMutability": "nonpayable",
      "type": "function"
    },
    {
      "inputs": [
        {
          "internalType": "uint256",
          "name": "_amount",
          "type": "uint256"
        }
      ],
      "name": "unstake",
      "outputs": [],
      "stateMutability": "nonpayable",
      "type": "function"
    },
    {
      "inputs": [
        {
          "internalType": "string",
          "name": "_nickname",
          "type": "string"
        }
      ],
      "name": "updateNickname",
      "outputs": [],
      "stateMutability": "nonpayable",
      "type": "function"
    },
    {
      "inputs": [],
      "name": "claim",
      "outputs": [],
      "stateMutability": "nonpayable",
      "type": "function"
    },
    {
      "inputs": [],
      "name": "compound",
      "outputs": [],
      "stateMutability": "nonpayable",
      "type": "function"
    },
    {
      "inputs": [
        {
          "internalType": "uint256",
          "name": "_amount",
          "type": "uint256"
        },
        {
          "internalType": "address[]",
          "name": "_topTen",
          "type": "address[]"
        },
        {
          "internalType": "address[]",
          "name": "_topTwenty",
          "type": "address[]"
        }
      ],
      "name": "sendBonusDiv",
      "outputs": [],
      "stateMutability": "nonpayable",
      "type": "function"
    },
    {
      "inputs": [
        {
          "internalType": "uint256",
          "name": "_amount",
          "type": "uint256"
        }
      ],
      "name": "sendDailyDiv",
      "outputs": [],
      "stateMutability": "nonpayable",
      "type": "function"
    },
    {
      "inputs": [
        {
          "internalType": "address",
          "name": "_userAddress",
          "type": "address"
        }
      ],
      "name": "userRewardBalance",
      "outputs": [
        {
          "internalType": "uint256",
          "name": "_reward",
          "type": "uint256"
        }
      ],
      "stateMutability": "view",
      "type": "function",
      "constant": true
    },
    {
      "inputs": [
        {
          "internalType": "address",
          "name": "_userAddress",
          "type": "address"
        }
      ],
      "name": "getUserByAddress",
      "outputs": [
        {
          "components": [
            {
              "internalType": "string",
              "name": "nickname",
              "type": "string"
            },
            {
              "internalType": "address",
              "name": "user",
              "type": "address"
            },
            {
              "internalType": "uint256",
              "name": "amount",
              "type": "uint256"
            },
            {
              "internalType": "uint256",
              "name": "reward",
              "type": "uint256"
            }
          ],
          "internalType": "struct HmineMain.User",
          "name": "_user",
          "type": "tuple"
        }
      ],
      "stateMutability": "view",
      "type": "function",
      "constant": true
    },
    {
      "inputs": [
        {
          "internalType": "uint256",
          "name": "_index",
          "type": "uint256"
        }
      ],
      "name": "getUserByIndex",
      "outputs": [
        {
          "components": [
            {
              "internalType": "string",
              "name": "nickname",
              "type": "string"
            },
            {
              "internalType": "address",
              "name": "user",
              "type": "address"
            },
            {
              "internalType": "uint256",
              "name": "amount",
              "type": "uint256"
            },
            {
              "internalType": "uint256",
              "name": "reward",
              "type": "uint256"
            }
          ],
          "internalType": "struct HmineMain.User",
          "name": "_user",
          "type": "tuple"
        }
      ],
      "stateMutability": "view",
      "type": "function",
      "constant": true
    },
    {
      "inputs": [
        {
          "internalType": "address",
          "name": "_rewardGiver",
          "type": "address"
        },
        {
          "internalType": "address",
          "name": "_bankRoll",
          "type": "address"
        }
      ],
      "name": "updateStateAddresses",
      "outputs": [],
      "stateMutability": "nonpayable",
      "type": "function"
    },
    {
      "inputs": [
        {
          "internalType": "address",
          "name": "_management",
          "type": "address"
        },
        {
          "internalType": "uint256",
          "name": "_i",
          "type": "uint256"
        }
      ],
      "name": "updateManagement",
      "outputs": [],
      "stateMutability": "nonpayable",
      "type": "function"
    }
  ],
  "bytecode": "0x60c06040526040518060800160405280735c9de63470d0d6d8103f7c83f1be4f55998706fc73ffffffffffffffffffffffffffffffffffffffff1673ffffffffffffffffffffffffffffffffffffffff168152602001732165fa4a32b9c228cd55713f77d2e977297d03e873ffffffffffffffffffffffffffffffffffffffff1673ffffffffffffffffffffffffffffffffffffffff1681526020017370f5fb6be943162545a496ed120495b05dc5ce0773ffffffffffffffffffffffffffffffffffffffff1673ffffffffffffffffffffffffffffffffffffffff1681526020017336b13280500aebc5a75ebc1e9cb9bf1b6a78a95e73ffffffffffffffffffffffffffffffffffffffff1673ffffffffffffffffffffffffffffffffffffffff1681525060029060046200013792919062000384565b507325be1fcf5f51c418a0c30357a4e8371db9cf9369600660006101000a81548173ffffffffffffffffffffffffffffffffffffffff021916908373ffffffffffffffffffffffffffffffffffffffff160217905550732165fa4a32b9c228cd55713f77d2e977297d03e8600760006101000a81548173ffffffffffffffffffffffffffffffffffffffff021916908373ffffffffffffffffffffffffffffffffffffffff160217905550676124fee993bc0000600c55348015620001fb57600080fd5b50604051620063083803806200630883398181016040528101906200022191906200048f565b6200024162000235620002b860201b60201c565b620002c060201b60201c565b600180819055508173ffffffffffffffffffffffffffffffffffffffff1660808173ffffffffffffffffffffffffffffffffffffffff16815250508073ffffffffffffffffffffffffffffffffffffffff1660a08173ffffffffffffffffffffffffffffffffffffffff16815250505050620004d6565b600033905090565b60008060009054906101000a900473ffffffffffffffffffffffffffffffffffffffff169050816000806101000a81548173ffffffffffffffffffffffffffffffffffffffff021916908373ffffffffffffffffffffffffffffffffffffffff1602179055508173ffffffffffffffffffffffffffffffffffffffff168173ffffffffffffffffffffffffffffffffffffffff167f8be0079c531659141344cd1fd0a4f28419497f9722a3daafe3b4186f6b6457e060405160405180910390a35050565b8260048101928215620003f3579160200282015b82811115620003f25782518260006101000a81548173ffffffffffffffffffffffffffffffffffffffff021916908373ffffffffffffffffffffffffffffffffffffffff1602179055509160200191906001019062000398565b5b50905062000402919062000406565b5090565b5b808211156200042157600081600090555060010162000407565b5090565b600080fd5b600073ffffffffffffffffffffffffffffffffffffffff82169050919050565b600062000457826200042a565b9050919050565b62000469816200044a565b81146200047557600080fd5b50565b60008151905062000489816200045e565b92915050565b60008060408385031215620004a957620004a862000425565b5b6000620004b98582860162000478565b9250506020620004cc8582860162000478565b9150509250929050565b60805160a051615d64620005a460003960008181610ad801528181610b4501528181610b90015281816114ff01528181611f00015281816121bd01528181612a7701528181612fef01526131860152600081816107e301528181610db20152818161157e015281816117c5015281816119de015281816120670152818161215d0152818161242c01528181612add01528181612bd301528181613d5b01528181613dce01528181613e3b01528181613ecd01528181613f4201528181613fb10152613ffe0152615d646000f3fe608060405234801561001057600080fd5b50600436106102745760003560e01c80638da5cb5b11610151578063c96679fe116100c3578063f2fde38b11610087578063f2fde38b14610730578063f69e20461461074c578063f703542e14610756578063f959680b14610774578063fe4b84df14610792578063ff5d32fe146107ae57610274565b8063c96679fe1461068e578063cbc8f275146106be578063d5abeb01146106da578063d96a094a146106f8578063e4849b321461071457610274565b80639d1b464a116101155780639d1b464a146105e0578063a694fc3a146105fe578063a88db3ff1461061a578063b2dd71d014610636578063b476dd1c14610654578063bd2e3b171461067257610274565b80638da5cb5b1461054c5780639106d7ba1461056a5780639295f47b14610588578063939d6237146105a657806398b29392146105c457610274565b80634c8af89f116101ea57806369c212f6116101ae57806369c212f6146104885780636b2fa374146104b8578063715018a6146104d657806378e97925146104e0578063817b1cd2146104fe5780638787bb151461051c57610274565b80634c8af89f146103e65780634cb11f99146104025780634e71d92d1461041e57806356a745121461042857806362e760131461045857610274565b8063333e530e1161023c578063333e530e1461030d578063337c46b21461032b578063348a60ef14610347578063365b98b2146103655780633aab16f7146103985780634bf6f9e7146103b657610274565b80630a8a2f6a146102795780630c657eb0146102975780632486df02146102b55780632986c0e5146102d35780632e17de78146102f1575b600080fd5b6102816107de565b60405161028e91906143fc565b60405180910390f35b61029f610891565b6040516102ac9190614458565b60405180910390f35b6102bd6108b7565b6040516102ca91906143fc565b60405180910390f35b6102db6108c4565b6040516102e891906143fc565b60405180910390f35b61030b600480360381019061030691906144b3565b6108ca565b005b610315610c20565b60405161032291906143fc565b60405180910390f35b610345600480360381019061034091906144b3565b610c2e565b005b61034f610e24565b60405161035c9190614458565b60405180910390f35b61037f600480360381019061037a91906144b3565b610e4a565b60405161038f9493929190614579565b60405180910390f35b6103a0610f22565b6040516103ad9190614458565b60405180910390f35b6103d060048036038101906103cb91906145f1565b610f28565b6040516103dd91906143fc565b60405180910390f35b61040060048036038101906103fb919061461e565b610f40565b005b61041c60048036038101906104179190614917565b611192565b005b610426611638565b005b610442600480360381019061043d9190614998565b611814565b60405161044f91906143fc565b60405180910390f35b610472600480360381019061046d91906144b3565b61183e565b60405161047f9190614458565b60405180910390f35b6104a2600480360381019061049d91906145f1565b611874565b6040516104af9190614aa3565b60405180910390f35b6104c06119dc565b6040516104cd9190614458565b60405180910390f35b6104de611a00565b005b6104e8611a88565b6040516104f591906143fc565b60405180910390f35b610506611a8e565b60405161051391906143fc565b60405180910390f35b610536600480360381019061053191906145f1565b611a94565b60405161054391906143fc565b60405180910390f35b610554611b98565b6040516105619190614458565b60405180910390f35b610572611bc1565b60405161057f91906143fc565b60405180910390f35b610590611bc7565b60405161059d9190614458565b60405180910390f35b6105ae611bdf565b6040516105bb91906143fc565b60405180910390f35b6105de60048036038101906105d99190614ac5565b611be5565b005b6105e8611da4565b6040516105f591906143fc565b60405180910390f35b610618600480360381019061061391906144b3565b611daa565b005b610634600480360381019061062f91906144b3565b611f86565b005b61063e6121ad565b60405161064b91906143fc565b60405180910390f35b61065c6121bb565b6040516106699190614458565b60405180910390f35b61068c60048036038101906106879190614b05565b6121df565b005b6106a860048036038101906106a391906145f1565b612290565b6040516106b591906143fc565b60405180910390f35b6106d860048036038101906106d39190614c11565b6122a8565b005b6106e2612800565b6040516106ef91906143fc565b60405180910390f35b610712600480360381019061070d91906144b3565b61280e565b005b61072e600480360381019061072991906144b3565b612973565b005b61074a600480360381019061074591906145f1565b612c97565b005b610754612d8e565b005b61075e612fea565b60405161076b91906143fc565b60405180910390f35b61077c61309d565b60405161078991906143fc565b60405180910390f35b6107ac60048036038101906107a791906144b3565b6130a3565b005b6107c860048036038101906107c391906144b3565b613271565b6040516107d59190614aa3565b60405180910390f35b6000807f000000000000000000000000000000000000000000000000000000000000000073ffffffffffffffffffffffffffffffffffffffff166370a08231306040518263ffffffff1660e01b815260040161083a9190614458565b602060405180830381865afa158015610857573d6000803e3d6000fd5b505050506040513d601f19601f8201168201806040525081019061087b9190614cb1565b9050600d548161088b9190614d0d565b91505090565b600660009054906101000a900473ffffffffffffffffffffffffffffffffffffffff1681565b683635c9adc5dea0000081565b60095481565b60026001540361090f576040517f08c379a000000000000000000000000000000000000000000000000000000000815260040161090690614d8d565b60405180910390fd5b6002600181905550600180151560006008541415801561093157504260085411155b151514610973576040517f08c379a000000000000000000000000000000000000000000000000000000000815260040161096a90614df9565b60405180910390fd5b600082116109b6576040517f08c379a00000000000000000000000000000000000000000000000000000000081526004016109ad90614e65565b60405180910390fd5b6000600e60003373ffffffffffffffffffffffffffffffffffffffff1673ffffffffffffffffffffffffffffffffffffffff16815260200190815260200160002054905060008103610a3d576040517f08c379a0000000000000000000000000000000000000000000000000000000008152600401610a3490614ed1565b60405180910390fd5b82600f6000838152602001908152602001600020600201541015610a96576040517f08c379a0000000000000000000000000000000000000000000000000000000008152600401610a8d90614f3d565b60405180910390fd5b60006064600a85610aa79190614f5d565b610ab19190614fe6565b90506000816002610ac29190614f5d565b85610acd9190614d0d565b9050610b1c61dead837f000000000000000000000000000000000000000000000000000000000000000073ffffffffffffffffffffffffffffffffffffffff1661339a9092919063ffffffff16565b610b89600660009054906101000a900473ffffffffffffffffffffffffffffffffffffffff16837f000000000000000000000000000000000000000000000000000000000000000073ffffffffffffffffffffffffffffffffffffffff1661339a9092919063ffffffff16565b610bd433827f000000000000000000000000000000000000000000000000000000000000000073ffffffffffffffffffffffffffffffffffffffff1661339a9092919063ffffffff16565b610bf9600f600085815260200190815260200160002086610bf490615021565b613420565b84600b6000828254610c0b9190614d0d565b92505081905550505050506001808190555050565b69152d02c7e14af680000081565b600760009054906101000a900473ffffffffffffffffffffffffffffffffffffffff1673ffffffffffffffffffffffffffffffffffffffff163373ffffffffffffffffffffffffffffffffffffffff1614610cbe576040517f08c379a0000000000000000000000000000000000000000000000000000000008152600401610cb5906150b5565b60405180910390fd5b600260015403610d03576040517f08c379a0000000000000000000000000000000000000000000000000000000008152600401610cfa90614d8d565b60405180910390fd5b60026001819055506001801515600060085414158015610d2557504260085411155b151514610d67576040517f08c379a0000000000000000000000000000000000000000000000000000000008152600401610d5e90614df9565b60405180910390fd5b60008211610daa576040517f08c379a0000000000000000000000000000000000000000000000000000000008152600401610da190614e65565b60405180910390fd5b610df73330847f000000000000000000000000000000000000000000000000000000000000000073ffffffffffffffffffffffffffffffffffffffff166135aa909392919063ffffffff16565b610e0082613633565b81600d6000828254610e1291906150d5565b92505081905550506001808190555050565b600760009054906101000a900473ffffffffffffffffffffffffffffffffffffffff1681565b600f602052806000526040600020600091509050806000018054610e6d9061515a565b80601f0160208091040260200160405190810160405280929190818152602001828054610e999061515a565b8015610ee65780601f10610ebb57610100808354040283529160200191610ee6565b820191906000526020600020905b815481529060010190602001808311610ec957829003601f168201915b5050505050908060010160009054906101000a900473ffffffffffffffffffffffffffffffffffffffff16908060020154908060030154905084565b61dead81565b60116020528060005260406000206000915090505481565b610f4861366c565b73ffffffffffffffffffffffffffffffffffffffff16610f66611b98565b73ffffffffffffffffffffffffffffffffffffffff1614610fbc576040517f08c379a0000000000000000000000000000000000000000000000000000000008152600401610fb3906151d7565b60405180910390fd5b600073ffffffffffffffffffffffffffffffffffffffff168173ffffffffffffffffffffffffffffffffffffffff161415801561102557503073ffffffffffffffffffffffffffffffffffffffff168173ffffffffffffffffffffffffffffffffffffffff1614155b611064576040517f08c379a000000000000000000000000000000000000000000000000000000000815260040161105b90615243565b60405180910390fd5b600073ffffffffffffffffffffffffffffffffffffffff168273ffffffffffffffffffffffffffffffffffffffff16141580156110cd57503073ffffffffffffffffffffffffffffffffffffffff168273ffffffffffffffffffffffffffffffffffffffff1614155b61110c576040517f08c379a000000000000000000000000000000000000000000000000000000000815260040161110390615243565b60405180910390fd5b80600660006101000a81548173ffffffffffffffffffffffffffffffffffffffff021916908373ffffffffffffffffffffffffffffffffffffffff16021790555081600760006101000a81548173ffffffffffffffffffffffffffffffffffffffff021916908373ffffffffffffffffffffffffffffffffffffffff1602179055505050565b61119a61366c565b73ffffffffffffffffffffffffffffffffffffffff166111b8611b98565b73ffffffffffffffffffffffffffffffffffffffff161461120e576040517f08c379a0000000000000000000000000000000000000000000000000000000008152600401611205906151d7565b60405180910390fd5b600260015403611253576040517f08c379a000000000000000000000000000000000000000000000000000000000815260040161124a90614d8d565b60405180910390fd5b6002600181905550600080151560006008541415801561127557504260085411155b1515146112b7576040517f08c379a00000000000000000000000000000000000000000000000000000000081526004016112ae90614df9565b60405180910390fd5b60008060005b84518110156114f65760008582815181106112db576112da615263565b5b6020026020010151602001519050600073ffffffffffffffffffffffffffffffffffffffff168173ffffffffffffffffffffffffffffffffffffffff1603611358576040517f08c379a000000000000000000000000000000000000000000000000000000000815260040161134f90615243565b60405180910390fd5b6000600e60008373ffffffffffffffffffffffffffffffffffffffff1673ffffffffffffffffffffffffffffffffffffffff16815260200190815260200160002054146113da576040517f08c379a00000000000000000000000000000000000000000000000000000000081526004016113d1906152de565b60405180910390fd5b60006113e582613674565b90508683815181106113fa576113f9615263565b5b6020026020010151600f6000838152602001908152602001600020600082015181600001908161142a91906154aa565b5060208201518160010160006101000a81548173ffffffffffffffffffffffffffffffffffffffff021916908373ffffffffffffffffffffffffffffffffffffffff160217905550604082015181600201556060820151816003015590505086838151811061149c5761149b615263565b5b602002602001015160400151856114b391906150d5565b94508683815181106114c8576114c7615263565b5b602002602001015160600151846114df91906150d5565b9350505080806114ee9061557c565b9150506112bd565b506115443330847f000000000000000000000000000000000000000000000000000000000000000073ffffffffffffffffffffffffffffffffffffffff166135aa909392919063ffffffff16565b81600a600082825461155691906150d5565b9250508190555081600b600082825461156f91906150d5565b925050819055506115c33330837f000000000000000000000000000000000000000000000000000000000000000073ffffffffffffffffffffffffffffffffffffffff166135aa909392919063ffffffff16565b80600d60008282546115d591906150d5565b9250508190555069152d02c7e14af6800000600a54111561162b576040517f08c379a000000000000000000000000000000000000000000000000000000000815260040161162290615610565b60405180910390fd5b5050506001808190555050565b60026001540361167d576040517f08c379a000000000000000000000000000000000000000000000000000000000815260040161167490614d8d565b60405180910390fd5b60026001819055506000600e60003373ffffffffffffffffffffffffffffffffffffffff1673ffffffffffffffffffffffffffffffffffffffff16815260200190815260200160002054905060006009540361170e576040517f08c379a00000000000000000000000000000000000000000000000000000000081526004016117059061567c565b60405180910390fd5b61172b600f60008381526020019081526020016000206000613420565b6000600f600083815260200190815260200160002060030154905060008111611789576040517f08c379a0000000000000000000000000000000000000000000000000000000008152600401611780906156e8565b60405180910390fd5b80600d600082825461179b9190614d0d565b925050819055506000600f60008481526020019081526020016000206003018190555061180933827f000000000000000000000000000000000000000000000000000000000000000073ffffffffffffffffffffffffffffffffffffffff1661339a9092919063ffffffff16565b505060018081905550565b600081611829576118248361375c565b611833565b611832836138ae565b5b508091505092915050565b6002816004811061184e57600080fd5b016000915054906101000a900473ffffffffffffffffffffffffffffffffffffffff1681565b61187c6143a5565b600f6000600e60008573ffffffffffffffffffffffffffffffffffffffff1673ffffffffffffffffffffffffffffffffffffffff1681526020019081526020016000205481526020019081526020016000206040518060800160405290816000820180546118e99061515a565b80601f01602080910402602001604051908101604052809291908181526020018280546119159061515a565b80156119625780601f1061193757610100808354040283529160200191611962565b820191906000526020600020905b81548152906001019060200180831161194557829003601f168201915b505050505081526020016001820160009054906101000a900473ffffffffffffffffffffffffffffffffffffffff1673ffffffffffffffffffffffffffffffffffffffff1673ffffffffffffffffffffffffffffffffffffffff168152602001600282015481526020016003820154815250509050919050565b7f000000000000000000000000000000000000000000000000000000000000000081565b611a0861366c565b73ffffffffffffffffffffffffffffffffffffffff16611a26611b98565b73ffffffffffffffffffffffffffffffffffffffff1614611a7c576040517f08c379a0000000000000000000000000000000000000000000000000000000008152600401611a73906151d7565b60405180910390fd5b611a866000613b2b565b565b60085481565b600b5481565b600080600f6000600e60008673ffffffffffffffffffffffffffffffffffffffff1673ffffffffffffffffffffffffffffffffffffffff16815260200190815260200160002054815260200190815260200160002090506000601160008360010160009054906101000a900473ffffffffffffffffffffffffffffffffffffffff1673ffffffffffffffffffffffffffffffffffffffff1673ffffffffffffffffffffffffffffffffffffffff1681526020019081526020016000205464e8d4a510006010548460020154611b699190614f5d565b611b739190614fe6565b611b7d9190614d0d565b9050808260030154611b8f91906150d5565b92505050919050565b60008060009054906101000a900473ffffffffffffffffffffffffffffffffffffffff16905090565b600a5481565b73cd8ddee99c0c4be4cd699661ae9c00c69d1eb4a881565b60105481565b611bed61366c565b73ffffffffffffffffffffffffffffffffffffffff16611c0b611b98565b73ffffffffffffffffffffffffffffffffffffffff1614611c61576040517f08c379a0000000000000000000000000000000000000000000000000000000008152600401611c58906151d7565b60405180910390fd5b600073ffffffffffffffffffffffffffffffffffffffff168273ffffffffffffffffffffffffffffffffffffffff1614158015611cca57503073ffffffffffffffffffffffffffffffffffffffff168273ffffffffffffffffffffffffffffffffffffffff1614155b611d09576040517f08c379a0000000000000000000000000000000000000000000000000000000008152600401611d0090615243565b60405180910390fd5b60048110611d4c576040517f08c379a0000000000000000000000000000000000000000000000000000000008152600401611d4390615754565b60405180910390fd5b8160028260048110611d6157611d60615263565b5b0160006101000a81548173ffffffffffffffffffffffffffffffffffffffff021916908373ffffffffffffffffffffffffffffffffffffffff1602179055505050565b600c5481565b600260015403611def576040517f08c379a0000000000000000000000000000000000000000000000000000000008152600401611de690614d8d565b60405180910390fd5b60026001819055506001801515600060085414158015611e1157504260085411155b151514611e53576040517f08c379a0000000000000000000000000000000000000000000000000000000008152600401611e4a90614df9565b60405180910390fd5b60008211611e96576040517f08c379a0000000000000000000000000000000000000000000000000000000008152600401611e8d90614e65565b60405180910390fd5b6000611ea133613674565b905033600f600083815260200190815260200160002060010160006101000a81548173ffffffffffffffffffffffffffffffffffffffff021916908373ffffffffffffffffffffffffffffffffffffffff160217905550611f453330857f000000000000000000000000000000000000000000000000000000000000000073ffffffffffffffffffffffffffffffffffffffff166135aa909392919063ffffffff16565b611f61600f600083815260200190815260200160002084613420565b82600b6000828254611f7391906150d5565b9250508190555050506001808190555050565b600760009054906101000a900473ffffffffffffffffffffffffffffffffffffffff1673ffffffffffffffffffffffffffffffffffffffff163373ffffffffffffffffffffffffffffffffffffffff1614612016576040517f08c379a000000000000000000000000000000000000000000000000000000000815260040161200d906150b5565b60405180910390fd5b60026001540361205b576040517f08c379a000000000000000000000000000000000000000000000000000000000815260040161205290614d8d565b60405180910390fd5b600260018190555060007f000000000000000000000000000000000000000000000000000000000000000073ffffffffffffffffffffffffffffffffffffffff166370a08231306040518263ffffffff1660e01b81526004016120be9190614458565b602060405180830381865afa1580156120db573d6000803e3d6000fd5b505050506040513d601f19601f820116820180604052508101906120ff9190614cb1565b90506000600d54826121119190614d0d565b905080831115612156576040517f08c379a000000000000000000000000000000000000000000000000000000000815260040161214d906157c0565b60405180910390fd5b6121a133847f000000000000000000000000000000000000000000000000000000000000000073ffffffffffffffffffffffffffffffffffffffff1661339a9092919063ffffffff16565b50506001808190555050565b69156338918f10d520000081565b7f000000000000000000000000000000000000000000000000000000000000000081565b6000600e60003373ffffffffffffffffffffffffffffffffffffffff1673ffffffffffffffffffffffffffffffffffffffff168152602001908152602001600020549050600060095403612268576040517f08c379a000000000000000000000000000000000000000000000000000000000815260040161225f9061567c565b60405180910390fd5b81600f6000838152602001908152602001600020600001908161228b91906154aa565b505050565b600e6020528060005260406000206000915090505481565b600760009054906101000a900473ffffffffffffffffffffffffffffffffffffffff1673ffffffffffffffffffffffffffffffffffffffff163373ffffffffffffffffffffffffffffffffffffffff1614612338576040517f08c379a000000000000000000000000000000000000000000000000000000000815260040161232f906150b5565b60405180910390fd5b60026001540361237d576040517f08c379a000000000000000000000000000000000000000000000000000000000815260040161237490614d8d565b60405180910390fd5b6002600181905550600180151560006008541415801561239f57504260085411155b1515146123e1576040517f08c379a00000000000000000000000000000000000000000000000000000000081526004016123d890614df9565b60405180910390fd5b60008411612424576040517f08c379a000000000000000000000000000000000000000000000000000000000815260040161241b90614e65565b60405180910390fd5b6124713330867f000000000000000000000000000000000000000000000000000000000000000073ffffffffffffffffffffffffffffffffffffffff166135aa909392919063ffffffff16565b600a83511480156124835750600a8251145b6124c2576040517f08c379a00000000000000000000000000000000000000000000000000000000081526004016124b99061582c565b60405180910390fd5b6000600a6064604b876124d59190614f5d565b6124df9190614fe6565b6124e99190614fe6565b90506000600a60646019886124fe9190614f5d565b6125089190614fe6565b6125129190614fe6565b905060005b600a811015612602576000600e600088848151811061253957612538615263565b5b602002602001015173ffffffffffffffffffffffffffffffffffffffff1673ffffffffffffffffffffffffffffffffffffffff168152602001908152602001600020549050600081036125c1576040517f08c379a00000000000000000000000000000000000000000000000000000000081526004016125b890615898565b60405180910390fd5b83600f600083815260200190815260200160002060030160008282546125e791906150d5565b925050819055505080806125fa9061557c565b915050612517565b5060005b600a8110156126f1576000600e600087848151811061262857612627615263565b5b602002602001015173ffffffffffffffffffffffffffffffffffffffff1673ffffffffffffffffffffffffffffffffffffffff168152602001908152602001600020549050600081036126b0576040517f08c379a00000000000000000000000000000000000000000000000000000000081526004016126a790615898565b60405180910390fd5b82600f600083815260200190815260200160002060030160008282546126d691906150d5565b925050819055505080806126e99061557c565b915050612606565b506000818361270091906150d5565b600a61270c9190614f5d565b876127179190614d0d565b905080600f6000600e60008a60008151811061273657612735615263565b5b602002602001015173ffffffffffffffffffffffffffffffffffffffff1673ffffffffffffffffffffffffffffffffffffffff168152602001908152602001600020548152602001908152602001600020600301600082825461279991906150d5565b9250508190555086600d60008282546127b291906150d5565b925050819055507ff231db6d9d668f25bf91c4a1377e817aa60638cc3c1d700e776a0996242b347a876040516127e891906143fc565b60405180910390a15050505060018081905550505050565b692a5a058fc295ed00000081565b600260015403612853576040517f08c379a000000000000000000000000000000000000000000000000000000000815260040161284a90614d8d565b60405180910390fd5b6002600181905550600180151560006008541415801561287557504260085411155b1515146128b7576040517f08c379a00000000000000000000000000000000000000000000000000000000081526004016128ae90614df9565b60405180910390fd5b600082116128fa576040517f08c379a00000000000000000000000000000000000000000000000000000000081526004016128f190614e65565b60405180910390fd5b600080612906846138ae565b9150915061291633858484613bef565b3373ffffffffffffffffffffffffffffffffffffffff167f1cbc5ab135991bd2b6a4b034a04aa2aa086dac1371cb9b16b8b5e2ed6b036bed838360405161295e9291906158b8565b60405180910390a25050506001808190555050565b6002600154036129b8576040517f08c379a00000000000000000000000000000000000000000000000000000000081526004016129af90614d8d565b60405180910390fd5b600260018190555060018015156000600854141580156129da57504260085411155b151514612a1c576040517f08c379a0000000000000000000000000000000000000000000000000000000008152600401612a1390614df9565b60405180910390fd5b60008211612a5f576040517f08c379a0000000000000000000000000000000000000000000000000000000008152600401612a5690614e65565b60405180910390fd5b600080612a6b8461375c565b91509150612abc3330867f000000000000000000000000000000000000000000000000000000000000000073ffffffffffffffffffffffffffffffffffffffff166135aa909392919063ffffffff16565b60006064603c84612acd9190614f5d565b612ad79190614fe6565b905060007f000000000000000000000000000000000000000000000000000000000000000073ffffffffffffffffffffffffffffffffffffffff166370a08231306040518263ffffffff1660e01b8152600401612b349190614458565b602060405180830381865afa158015612b51573d6000803e3d6000fd5b505050506040513d601f19601f82011682018060405250810190612b759190614cb1565b90506000600d5482612b879190614d0d565b905080831115612bcc576040517f08c379a0000000000000000000000000000000000000000000000000000000008152600401612bc3906157c0565b60405180910390fd5b612c1733847f000000000000000000000000000000000000000000000000000000000000000073ffffffffffffffffffffffffffffffffffffffff1661339a9092919063ffffffff16565b86600a6000828254612c299190614d0d565b9250508190555083600c819055503373ffffffffffffffffffffffffffffffffffffffff167fed7a144fad14804d5c249145e3e0e2b63a9eb455b76aee5bc92d711e9bba3e4a8886604051612c7f9291906158b8565b60405180910390a25050505050506001808190555050565b612c9f61366c565b73ffffffffffffffffffffffffffffffffffffffff16612cbd611b98565b73ffffffffffffffffffffffffffffffffffffffff1614612d13576040517f08c379a0000000000000000000000000000000000000000000000000000000008152600401612d0a906151d7565b60405180910390fd5b600073ffffffffffffffffffffffffffffffffffffffff168173ffffffffffffffffffffffffffffffffffffffff1603612d82576040517f08c379a0000000000000000000000000000000000000000000000000000000008152600401612d7990615953565b60405180910390fd5b612d8b81613b2b565b50565b600260015403612dd3576040517f08c379a0000000000000000000000000000000000000000000000000000000008152600401612dca90614d8d565b60405180910390fd5b60026001819055506001801515600060085414158015612df557504260085411155b151514612e37576040517f08c379a0000000000000000000000000000000000000000000000000000000008152600401612e2e90614df9565b60405180910390fd5b6000600e60003373ffffffffffffffffffffffffffffffffffffffff1673ffffffffffffffffffffffffffffffffffffffff168152602001908152602001600020549050600060095403612ec0576040517f08c379a0000000000000000000000000000000000000000000000000000000008152600401612eb79061567c565b60405180910390fd5b612edd600f60008381526020019081526020016000206000613420565b6000600f600083815260200190815260200160002060030154905060008111612f3b576040517f08c379a0000000000000000000000000000000000000000000000000000000008152600401612f32906156e8565b60405180910390fd5b80600d6000828254612f4d9190614d0d565b925050819055506000600f600084815260200190815260200160002060030181905550600080612f7c836138ae565b91509150612f8c30848484613bef565b3373ffffffffffffffffffffffffffffffffffffffff167f0e311a2c6dbfb0153ec3a8a5bdca09070b3e5f60768fdc10a20453f38d1868738383604051612fd49291906158b8565b60405180910390a2505050505060018081905550565b6000807f000000000000000000000000000000000000000000000000000000000000000073ffffffffffffffffffffffffffffffffffffffff166370a08231306040518263ffffffff1660e01b81526004016130469190614458565b602060405180830381865afa158015613063573d6000803e3d6000fd5b505050506040513d601f19601f820116820180604052508101906130879190614cb1565b9050600b54816130979190614d0d565b91505090565b600d5481565b6130ab61366c565b73ffffffffffffffffffffffffffffffffffffffff166130c9611b98565b73ffffffffffffffffffffffffffffffffffffffff161461311f576040517f08c379a0000000000000000000000000000000000000000000000000000000008152600401613116906151d7565b60405180910390fd5b600080151560006008541415801561313957504260085411155b15151461317b576040517f08c379a000000000000000000000000000000000000000000000000000000000815260040161317290614df9565b60405180910390fd5b8160088190555060007f000000000000000000000000000000000000000000000000000000000000000073ffffffffffffffffffffffffffffffffffffffff166370a08231306040518263ffffffff1660e01b81526004016131dd9190614458565b602060405180830381865afa1580156131fa573d6000803e3d6000fd5b505050506040513d601f19601f8201168201806040525081019061321e9190614cb1565b9050692a5a058fc295ed000000811461326c576040517f08c379a0000000000000000000000000000000000000000000000000000000008152600401613263906159bf565b60405180910390fd5b505050565b6132796143a5565b600f60008381526020019081526020016000206040518060800160405290816000820180546132a79061515a565b80601f01602080910402602001604051908101604052809291908181526020018280546132d39061515a565b80156133205780601f106132f557610100808354040283529160200191613320565b820191906000526020600020905b81548152906001019060200180831161330357829003601f168201915b505050505081526020016001820160009054906101000a900473ffffffffffffffffffffffffffffffffffffffff1673ffffffffffffffffffffffffffffffffffffffff1673ffffffffffffffffffffffffffffffffffffffff168152602001600282015481526020016003820154815250509050919050565b61341b8363a9059cbb60e01b84846040516024016133b99291906159df565b604051602081830303815290604052907bffffffffffffffffffffffffffffffffffffffffffffffffffffffff19166020820180517bffffffffffffffffffffffffffffffffffffffffffffffffffffffff8381831617835250505050614128565b505050565b6000601160008460010160009054906101000a900473ffffffffffffffffffffffffffffffffffffffff1673ffffffffffffffffffffffffffffffffffffffff1673ffffffffffffffffffffffffffffffffffffffff1681526020019081526020016000205464e8d4a51000601054856002015461349e9190614f5d565b6134a89190614fe6565b6134b29190614d0d565b9050808360030160008282546134c891906150d5565b92505081905550600082126134f757818360020160008282546134eb91906150d5565b9250508190555061351c565b8161350190615021565b8360020160008282546135149190614d0d565b925050819055505b64e8d4a5100060105484600201546135349190614f5d565b61353e9190614fe6565b601160008560010160009054906101000a900473ffffffffffffffffffffffffffffffffffffffff1673ffffffffffffffffffffffffffffffffffffffff1673ffffffffffffffffffffffffffffffffffffffff16815260200190815260200160002081905550505050565b61362d846323b872dd60e01b8585856040516024016135cb93929190615a08565b604051602081830303815290604052907bffffffffffffffffffffffffffffffffffffffffffffffffffffffff19166020820180517bffffffffffffffffffffffffffffffffffffffffffffffffffffffff8381831617835250505050614128565b50505050565b600b5464e8d4a51000826136479190614f5d565b6136519190614fe6565b6010600082825461366291906150d5565b9250508190555050565b600033905090565b600080600e60008473ffffffffffffffffffffffffffffffffffffffff1673ffffffffffffffffffffffffffffffffffffffff1681526020019081526020016000205403613715576009600081546136cb9061557c565b919050819055600e60008473ffffffffffffffffffffffffffffffffffffffff1673ffffffffffffffffffffffffffffffffffffffff168152602001908152602001600020819055505b600e60008373ffffffffffffffffffffffffffffffffffffffff1673ffffffffffffffffffffffffffffffffffffffff168152602001908152602001600020549050919050565b600080600c5490506000683635c9adc5dea00000600a5461377d9190615a3f565b90508084116137ac57670de0b6b3a7640000828561379b9190614f5d565b6137a59190614fe6565b92506138a8565b670de0b6b3a764000082826137c19190614f5d565b6137cb9190614fe6565b9250600081856137db9190614d0d565b90505b60008111156138a657676124fee993bc000083111561380e576729a2241af62c00008361380b9190614d0d565b92505b683635c9adc5dea0000081111561387057670de0b6b3a764000083683635c9adc5dea0000061383d9190614f5d565b6138479190614fe6565b8461385291906150d5565b9350683635c9adc5dea00000816138699190614d0d565b90506138a1565b670de0b6b3a764000083826138859190614f5d565b61388f9190614fe6565b8461389a91906150d5565b9350600090505b6137de565b505b50915091565b600080600c54905080670de0b6b3a7640000846138cb9190614f5d565b6138d59190614fe6565b915069156338918f10d520000082600a546138f091906150d5565b1161392f5769156338918f10d520000082600a5461390e91906150d5565b0361392a576729a2241af62c00008161392791906150d5565b90505b613b26565b6000915060008390506000683635c9adc5dea00000600a546139519190615a3f565b683635c9adc5dea000006139659190614d0d565b905069152d02c7e14af6800000600a5410156139d957600a5469152d02c7e14af68000006139939190614d0d565b8461399e91906150d5565b9350670de0b6b3a764000083856139b59190614f5d565b6139bf9190614fe6565b826139ca9190614d0d565b9150683635c9adc5dea0000090505b600083670de0b6b3a7640000846139f09190614f5d565b6139fa9190614fe6565b905081811015613a17578085613a1091906150d5565b9450613b22565b8185613a2391906150d5565b9450670de0b6b3a7640000848383613a3b9190614d0d565b613a459190614f5d565b613a4f9190614fe6565b92506729a2241af62c000084613a6591906150d5565b93505b6000831115613b215783670de0b6b3a764000084613a869190614f5d565b613a909190614fe6565b9050683635c9adc5dea000008110613b0957683635c9adc5dea0000085613ab791906150d5565b9450670de0b6b3a764000084683635c9adc5dea0000083613ad89190614d0d565b613ae29190614f5d565b613aec9190614fe6565b92506729a2241af62c000084613b0291906150d5565b9350613b1c565b8085613b1591906150d5565b9450600092505b613a68565b5b5050505b915091565b60008060009054906101000a900473ffffffffffffffffffffffffffffffffffffffff169050816000806101000a81548173ffffffffffffffffffffffffffffffffffffffff021916908373ffffffffffffffffffffffffffffffffffffffff1602179055508173ffffffffffffffffffffffffffffffffffffffff168173ffffffffffffffffffffffffffffffffffffffff167f8be0079c531659141344cd1fd0a4f28419497f9722a3daafe3b4186f6b6457e060405160405180910390a35050565b692a5a058fc295ed00000082600a54613c0891906150d5565b1115613c49576040517f08c379a0000000000000000000000000000000000000000000000000000000008152600401613c4090615abc565b60405180910390fd5b600060046103e8604b86613c5d9190614f5d565b613c679190614fe6565b613c719190614fe6565b905060006103e8601986613c859190614f5d565b613c8f9190614fe6565b905060006064605087613ca29190614f5d565b613cac9190614fe6565b905060008183856004613cbf9190614f5d565b613cc991906150d5565b613cd391906150d5565b87613cde9190614d0d565b90503073ffffffffffffffffffffffffffffffffffffffff168873ffffffffffffffffffffffffffffffffffffffff1603613e845760005b6004811015613db257613d9f60028260048110613d3657613d35615263565b5b0160009054906101000a900473ffffffffffffffffffffffffffffffffffffffff16867f000000000000000000000000000000000000000000000000000000000000000073ffffffffffffffffffffffffffffffffffffffff1661339a9092919063ffffffff16565b8080613daa9061557c565b915050613d16565b50613e1273cd8ddee99c0c4be4cd699661ae9c00c69d1eb4a8847f000000000000000000000000000000000000000000000000000000000000000073ffffffffffffffffffffffffffffffffffffffff1661339a9092919063ffffffff16565b613e7f600660009054906101000a900473ffffffffffffffffffffffffffffffffffffffff16837f000000000000000000000000000000000000000000000000000000000000000073ffffffffffffffffffffffffffffffffffffffff1661339a9092919063ffffffff16565b614044565b60005b6004811015613f2557613f128960028360048110613ea857613ea7615263565b5b0160009054906101000a900473ffffffffffffffffffffffffffffffffffffffff16877f000000000000000000000000000000000000000000000000000000000000000073ffffffffffffffffffffffffffffffffffffffff166135aa909392919063ffffffff16565b8080613f1d9061557c565b915050613e87565b50613f878873cd8ddee99c0c4be4cd699661ae9c00c69d1eb4a8857f000000000000000000000000000000000000000000000000000000000000000073ffffffffffffffffffffffffffffffffffffffff166135aa909392919063ffffffff16565b613ff688600660009054906101000a900473ffffffffffffffffffffffffffffffffffffffff16847f000000000000000000000000000000000000000000000000000000000000000073ffffffffffffffffffffffffffffffffffffffff166135aa909392919063ffffffff16565b6140438830837f000000000000000000000000000000000000000000000000000000000000000073ffffffffffffffffffffffffffffffffffffffff166135aa909392919063ffffffff16565b5b61404d81613633565b600061405833613674565b905033600f600083815260200190815260200160002060010160006101000a81548173ffffffffffffffffffffffffffffffffffffffff021916908373ffffffffffffffffffffffffffffffffffffffff1602179055506140cb600f600083815260200190815260200160002088613420565b86600a60008282546140dd91906150d5565b9250508190555086600b60008282546140f691906150d5565b9250508190555085600c8190555081600d600082825461411691906150d5565b92505081905550505050505050505050565b600061418a826040518060400160405280602081526020017f5361666545524332303a206c6f772d6c6576656c2063616c6c206661696c65648152508573ffffffffffffffffffffffffffffffffffffffff166141ef9092919063ffffffff16565b90506000815111156141ea57808060200190518101906141aa9190615af1565b6141e9576040517f08c379a00000000000000000000000000000000000000000000000000000000081526004016141e090615b90565b60405180910390fd5b5b505050565b60606141fe8484600085614207565b90509392505050565b60608247101561424c576040517f08c379a000000000000000000000000000000000000000000000000000000000815260040161424390615c22565b60405180910390fd5b6142558561431b565b614294576040517f08c379a000000000000000000000000000000000000000000000000000000000815260040161428b90615c8e565b60405180910390fd5b6000808673ffffffffffffffffffffffffffffffffffffffff1685876040516142bd9190615cf5565b60006040518083038185875af1925050503d80600081146142fa576040519150601f19603f3d011682016040523d82523d6000602084013e6142ff565b606091505b509150915061430f82828661433e565b92505050949350505050565b6000808273ffffffffffffffffffffffffffffffffffffffff163b119050919050565b6060831561434e5782905061439e565b6000835111156143615782518084602001fd5b816040517f08c379a00000000000000000000000000000000000000000000000000000000081526004016143959190615d0c565b60405180910390fd5b9392505050565b604051806080016040528060608152602001600073ffffffffffffffffffffffffffffffffffffffff16815260200160008152602001600081525090565b6000819050919050565b6143f6816143e3565b82525050565b600060208201905061441160008301846143ed565b92915050565b600073ffffffffffffffffffffffffffffffffffffffff82169050919050565b600061444282614417565b9050919050565b61445281614437565b82525050565b600060208201905061446d6000830184614449565b92915050565b6000604051905090565b600080fd5b600080fd5b614490816143e3565b811461449b57600080fd5b50565b6000813590506144ad81614487565b92915050565b6000602082840312156144c9576144c861447d565b5b60006144d78482850161449e565b91505092915050565b600081519050919050565b600082825260208201905092915050565b60005b8381101561451a5780820151818401526020810190506144ff565b83811115614529576000848401525b50505050565b6000601f19601f8301169050919050565b600061454b826144e0565b61455581856144eb565b93506145658185602086016144fc565b61456e8161452f565b840191505092915050565b600060808201905081810360008301526145938187614540565b90506145a26020830186614449565b6145af60408301856143ed565b6145bc60608301846143ed565b95945050505050565b6145ce81614437565b81146145d957600080fd5b50565b6000813590506145eb816145c5565b92915050565b6000602082840312156146075761460661447d565b5b6000614615848285016145dc565b91505092915050565b600080604083850312156146355761463461447d565b5b6000614643858286016145dc565b9250506020614654858286016145dc565b9150509250929050565b600080fd5b7f4e487b7100000000000000000000000000000000000000000000000000000000600052604160045260246000fd5b61469b8261452f565b810181811067ffffffffffffffff821117156146ba576146b9614663565b5b80604052505050565b60006146cd614473565b90506146d98282614692565b919050565b600067ffffffffffffffff8211156146f9576146f8614663565b5b602082029050602081019050919050565b600080fd5b600080fd5b600080fd5b600080fd5b600067ffffffffffffffff82111561473957614738614663565b5b6147428261452f565b9050602081019050919050565b82818337600083830152505050565b600061477161476c8461471e565b6146c3565b90508281526020810184848401111561478d5761478c614719565b5b61479884828561474f565b509392505050565b600082601f8301126147b5576147b461465e565b5b81356147c584826020860161475e565b91505092915050565b6000608082840312156147e4576147e361470f565b5b6147ee60806146c3565b9050600082013567ffffffffffffffff81111561480e5761480d614714565b5b61481a848285016147a0565b600083015250602061482e848285016145dc565b60208301525060406148428482850161449e565b60408301525060606148568482850161449e565b60608301525092915050565b6000614875614870846146de565b6146c3565b905080838252602082019050602084028301858111156148985761489761470a565b5b835b818110156148df57803567ffffffffffffffff8111156148bd576148bc61465e565b5b8086016148ca89826147ce565b8552602085019450505060208101905061489a565b5050509392505050565b600082601f8301126148fe576148fd61465e565b5b813561490e848260208601614862565b91505092915050565b60006020828403121561492d5761492c61447d565b5b600082013567ffffffffffffffff81111561494b5761494a614482565b5b614957848285016148e9565b91505092915050565b60008115159050919050565b61497581614960565b811461498057600080fd5b50565b6000813590506149928161496c565b92915050565b600080604083850312156149af576149ae61447d565b5b60006149bd8582860161449e565b92505060206149ce85828601614983565b9150509250929050565b600082825260208201905092915050565b60006149f4826144e0565b6149fe81856149d8565b9350614a0e8185602086016144fc565b614a178161452f565b840191505092915050565b614a2b81614437565b82525050565b614a3a816143e3565b82525050565b60006080830160008301518482036000860152614a5d82826149e9565b9150506020830151614a726020860182614a22565b506040830151614a856040860182614a31565b506060830151614a986060860182614a31565b508091505092915050565b60006020820190508181036000830152614abd8184614a40565b905092915050565b60008060408385031215614adc57614adb61447d565b5b6000614aea858286016145dc565b9250506020614afb8582860161449e565b9150509250929050565b600060208284031215614b1b57614b1a61447d565b5b600082013567ffffffffffffffff811115614b3957614b38614482565b5b614b45848285016147a0565b91505092915050565b600067ffffffffffffffff821115614b6957614b68614663565b5b602082029050602081019050919050565b6000614b8d614b8884614b4e565b6146c3565b90508083825260208201905060208402830185811115614bb057614baf61470a565b5b835b81811015614bd95780614bc588826145dc565b845260208401935050602081019050614bb2565b5050509392505050565b600082601f830112614bf857614bf761465e565b5b8135614c08848260208601614b7a565b91505092915050565b600080600060608486031215614c2a57614c2961447d565b5b6000614c388682870161449e565b935050602084013567ffffffffffffffff811115614c5957614c58614482565b5b614c6586828701614be3565b925050604084013567ffffffffffffffff811115614c8657614c85614482565b5b614c9286828701614be3565b9150509250925092565b600081519050614cab81614487565b92915050565b600060208284031215614cc757614cc661447d565b5b6000614cd584828501614c9c565b91505092915050565b7f4e487b7100000000000000000000000000000000000000000000000000000000600052601160045260246000fd5b6000614d18826143e3565b9150614d23836143e3565b925082821015614d3657614d35614cde565b5b828203905092915050565b7f5265656e7472616e637947756172643a207265656e7472616e742063616c6c00600082015250565b6000614d77601f836144eb565b9150614d8282614d41565b602082019050919050565b60006020820190508181036000830152614da681614d6a565b9050919050565b7f556e617661696c61626c65000000000000000000000000000000000000000000600082015250565b6000614de3600b836144eb565b9150614dee82614dad565b602082019050919050565b60006020820190508181036000830152614e1281614dd6565b9050919050565b7f496e76616c696420616d6f756e74000000000000000000000000000000000000600082015250565b6000614e4f600e836144eb565b9150614e5a82614e19565b602082019050919050565b60006020820190508181036000830152614e7e81614e42565b9050919050565b7f4e6f74207374616b656420796574000000000000000000000000000000000000600082015250565b6000614ebb600e836144eb565b9150614ec682614e85565b602082019050919050565b60006020820190508181036000830152614eea81614eae565b9050919050565b7f496e656666696369656e74207374616b652062616c616e636500000000000000600082015250565b6000614f276019836144eb565b9150614f3282614ef1565b602082019050919050565b60006020820190508181036000830152614f5681614f1a565b9050919050565b6000614f68826143e3565b9150614f73836143e3565b9250817fffffffffffffffffffffffffffffffffffffffffffffffffffffffffffffffff0483118215151615614fac57614fab614cde565b5b828202905092915050565b7f4e487b7100000000000000000000000000000000000000000000000000000000600052601260045260246000fd5b6000614ff1826143e3565b9150614ffc836143e3565b92508261500c5761500b614fb7565b5b828204905092915050565b6000819050919050565b600061502c82615017565b91507f8000000000000000000000000000000000000000000000000000000000000000820361505e5761505d614cde565b5b816000039050919050565b7f556e617574686f72697a65640000000000000000000000000000000000000000600082015250565b600061509f600c836144eb565b91506150aa82615069565b602082019050919050565b600060208201905081810360008301526150ce81615092565b9050919050565b60006150e0826143e3565b91506150eb836143e3565b9250827fffffffffffffffffffffffffffffffffffffffffffffffffffffffffffffffff038211156151205761511f614cde565b5b828201905092915050565b7f4e487b7100000000000000000000000000000000000000000000000000000000600052602260045260246000fd5b6000600282049050600182168061517257607f821691505b6020821081036151855761518461512b565b5b50919050565b7f4f776e61626c653a2063616c6c6572206973206e6f7420746865206f776e6572600082015250565b60006151c16020836144eb565b91506151cc8261518b565b602082019050919050565b600060208201905081810360008301526151f0816151b4565b9050919050565b7f496e76616c696420616464726573730000000000000000000000000000000000600082015250565b600061522d600f836144eb565b9150615238826151f7565b602082019050919050565b6000602082019050818103600083015261525c81615220565b9050919050565b7f4e487b7100000000000000000000000000000000000000000000000000000000600052603260045260246000fd5b7f4475706c69636174652075736572000000000000000000000000000000000000600082015250565b60006152c8600e836144eb565b91506152d382615292565b602082019050919050565b600060208201905081810360008301526152f7816152bb565b9050919050565b60008190508160005260206000209050919050565b60006020601f8301049050919050565b600082821b905092915050565b6000600883026153607fffffffffffffffffffffffffffffffffffffffffffffffffffffffffffffffff82615323565b61536a8683615323565b95508019841693508086168417925050509392505050565b6000819050919050565b60006153a76153a261539d846143e3565b615382565b6143e3565b9050919050565b6000819050919050565b6153c18361538c565b6153d56153cd826153ae565b848454615330565b825550505050565b600090565b6153ea6153dd565b6153f58184846153b8565b505050565b5b818110156154195761540e6000826153e2565b6001810190506153fb565b5050565b601f82111561545e5761542f816152fe565b61543884615313565b81016020851015615447578190505b61545b61545385615313565b8301826153fa565b50505b505050565b600082821c905092915050565b600061548160001984600802615463565b1980831691505092915050565b600061549a8383615470565b9150826002028217905092915050565b6154b3826144e0565b67ffffffffffffffff8111156154cc576154cb614663565b5b6154d6825461515a565b6154e182828561541d565b600060209050601f8311600181146155145760008415615502578287015190505b61550c858261548e565b865550615574565b601f198416615522866152fe565b60005b8281101561554a57848901518255600182019150602085019450602081019050615525565b868310156155675784890151615563601f891682615470565b8355505b6001600288020188555050505b505050505050565b6000615587826143e3565b91507fffffffffffffffffffffffffffffffffffffffffffffffffffffffffffffffff82036155b9576155b8614cde565b5b600182019050919050565b7f4d6967726174696f6e2065786365737300000000000000000000000000000000600082015250565b60006155fa6010836144eb565b9150615605826155c4565b602082019050919050565b60006020820190508181036000830152615629816155ed565b9050919050565b7f5573657220646f6573206e6f7420657869737400000000000000000000000000600082015250565b60006156666013836144eb565b915061567182615630565b602082019050919050565b6000602082019050818103600083015261569581615659565b9050919050565b7f4e6f207265776172647320746f20636c61696d00000000000000000000000000600082015250565b60006156d26013836144eb565b91506156dd8261569c565b602082019050919050565b60006020820190508181036000830152615701816156c5565b9050919050565b7f496e76616c696420656e74727900000000000000000000000000000000000000600082015250565b600061573e600d836144eb565b915061574982615708565b602082019050919050565b6000602082019050818103600083015261576d81615731565b9050919050565b7f496e73756666696369656e7420444149206f6e20436f6e747261637400000000600082015250565b60006157aa601c836144eb565b91506157b582615774565b602082019050919050565b600060208201905081810360008301526157d98161579d565b9050919050565b7f496e76616c696420617272617973000000000000000000000000000000000000600082015250565b6000615816600e836144eb565b9150615821826157e0565b602082019050919050565b6000602082019050818103600083015261584581615809565b9050919050565b7f41207573657220646f65736e2774206578697374000000000000000000000000600082015250565b60006158826014836144eb565b915061588d8261584c565b602082019050919050565b600060208201905081810360008301526158b181615875565b9050919050565b60006040820190506158cd60008301856143ed565b6158da60208301846143ed565b9392505050565b7f4f776e61626c653a206e6577206f776e657220697320746865207a65726f206160008201527f6464726573730000000000000000000000000000000000000000000000000000602082015250565b600061593d6026836144eb565b9150615948826158e1565b604082019050919050565b6000602082019050818103600083015261596c81615930565b9050919050565b7f4d697373696e6720686d696e652062616c616e63650000000000000000000000600082015250565b60006159a96015836144eb565b91506159b482615973565b602082019050919050565b600060208201905081810360008301526159d88161599c565b9050919050565b60006040820190506159f46000830185614449565b615a0160208301846143ed565b9392505050565b6000606082019050615a1d6000830186614449565b615a2a6020830185614449565b615a3760408301846143ed565b949350505050565b6000615a4a826143e3565b9150615a55836143e3565b925082615a6557615a64614fb7565b5b828206905092915050565b7f457863656564656420737570706c790000000000000000000000000000000000600082015250565b6000615aa6600f836144eb565b9150615ab182615a70565b602082019050919050565b60006020820190508181036000830152615ad581615a99565b9050919050565b600081519050615aeb8161496c565b92915050565b600060208284031215615b0757615b0661447d565b5b6000615b1584828501615adc565b91505092915050565b7f5361666545524332303a204552433230206f7065726174696f6e20646964206e60008201527f6f74207375636365656400000000000000000000000000000000000000000000602082015250565b6000615b7a602a836144eb565b9150615b8582615b1e565b604082019050919050565b60006020820190508181036000830152615ba981615b6d565b9050919050565b7f416464726573733a20696e73756666696369656e742062616c616e636520666f60008201527f722063616c6c0000000000000000000000000000000000000000000000000000602082015250565b6000615c0c6026836144eb565b9150615c1782615bb0565b604082019050919050565b60006020820190508181036000830152615c3b81615bff565b9050919050565b7f416464726573733a2063616c6c20746f206e6f6e2d636f6e7472616374000000600082015250565b6000615c78601d836144eb565b9150615c8382615c42565b602082019050919050565b60006020820190508181036000830152615ca781615c6b565b9050919050565b600081519050919050565b600081905092915050565b6000615ccf82615cae565b615cd98185615cb9565b9350615ce98185602086016144fc565b80840191505092915050565b6000615d018284615cc4565b915081905092915050565b60006020820190508181036000830152615d268184614540565b90509291505056fea26469706673582212209f8f9fe659dcf22c8b9de1053c2a474332c4e16790d4c0980f53ba08cc57991c64736f6c634300080f0033",
  "immutableReferences": {
    "49": [
      {
        "length": 32,
        "start": 2019
      },
      {
        "length": 32,
        "start": 3506
      },
      {
        "length": 32,
        "start": 5502
      },
      {
        "length": 32,
        "start": 6085
      },
      {
        "length": 32,
        "start": 6622
      },
      {
        "length": 32,
        "start": 8295
      },
      {
        "length": 32,
        "start": 8541
      },
      {
        "length": 32,
        "start": 9260
      },
      {
        "length": 32,
        "start": 10973
      },
      {
        "length": 32,
        "start": 11219
      },
      {
        "length": 32,
        "start": 15707
      },
      {
        "length": 32,
        "start": 15822
      },
      {
        "length": 32,
        "start": 15931
      },
      {
        "length": 32,
        "start": 16077
      },
      {
        "length": 32,
        "start": 16194
      },
      {
        "length": 32,
        "start": 16305
      },
      {
        "length": 32,
        "start": 16382
      }
    ],
    "51": [
      {
        "length": 32,
        "start": 2776
      },
      {
        "length": 32,
        "start": 2885
      },
      {
        "length": 32,
        "start": 2960
      },
      {
        "length": 32,
        "start": 5375
      },
      {
        "length": 32,
        "start": 7936
      },
      {
        "length": 32,
        "start": 8637
      },
      {
        "length": 32,
        "start": 10871
      },
      {
        "length": 32,
        "start": 12271
      },
      {
        "length": 32,
        "start": 12678
      }
    ]
  },
  "source": "// SPDX-License-Identifier: UNLICENSED\r\npragma solidity >=0.8.9;\r\n\r\nimport {Ownable} from \"@openzeppelin/contracts/access/Ownable.sol\";\r\nimport {ReentrancyGuard} from \"@openzeppelin/contracts/security/ReentrancyGuard.sol\";\r\nimport {IERC20} from \"@openzeppelin/contracts/token/ERC20/IERC20.sol\";\r\nimport {SafeERC20} from \"@openzeppelin/contracts/token/ERC20/utils/SafeERC20.sol\";\r\n\r\ncontract HmineMain is Ownable, ReentrancyGuard {\r\n    using SafeERC20 for IERC20;\r\n\r\n    struct User {\r\n        string nickname;\r\n        address user;\r\n        uint256 amount;\r\n        uint256 reward;\r\n    }\r\n\r\n    // dead address to receive \"burnt\" tokens\r\n    address public constant FURNACE =\r\n        0x000000000000000000000000000000000000dEaD;\r\n\r\n    address[4] public management = [\r\n        0x5C9dE63470D0D6d8103f7c83F1Be4F55998706FC, // 0 Loft\r\n        0x2165fa4a32B9c228cD55713f77d2e977297D03e8, // 1 Ghost\r\n        0x70F5FB6BE943162545a496eD120495B05dC5ce07, // 2 Mike\r\n        0x36b13280500AEBC5A75EbC1e9cB9Bf1b6A78a95e // 3 Miko\r\n    ];\r\n\r\n    address public constant safeHolders =\r\n        0xcD8dDeE99C0c4Be4cD699661AE9c00C69D1Eb4A8;\r\n\r\n    address public bankroll = 0x25be1fcF5F51c418a0C30357a4e8371dB9cf9369; // 4 Way Multisig wallet\r\n    address public rewardGiver = 0x2165fa4a32B9c228cD55713f77d2e977297D03e8; // Ghost\r\n    address public immutable currencyToken; // Will likely be DAI\r\n    address public immutable hmineToken;\r\n\r\n    uint256 public startTime;\r\n    uint256 public index;\r\n    uint256 public totalSold; // The contract will start with 100,000 Sold HMINE.\r\n    uint256 public totalStaked; // The contract will start with 100,000 Staked HMINE.\r\n    uint256 public currentPrice = 7e18; // The price is divisible by 1e18.  So in this case 7.00 is the current price.\r\n    uint256 public constant roundIncrement = 1_000e18;\r\n    uint256 public rewardTotal;\r\n    uint256 public constant maxSupply = 200_000e18;\r\n    uint256 public constant firstRound = 100_000e18;\r\n    uint256 public constant secondRound = 101_000e18;\r\n\r\n    mapping(address => uint256) public userIndex;\r\n    mapping(uint256 => User) public users;\r\n\r\n    // The user's pending reward is user's balance multiplied by the accumulated reward per share minus the user's reward debt.\r\n    // The user's reward debt is always set to balance multiplied by the accumulated reward per share when reward's are distributed\r\n    // (or balance changes, which also forces distribution), such that the diference immediately after distribution is always zero (nothing left)\r\n    uint256 public accRewardPerShare;\r\n    mapping(address => uint256) public userRewardDebt;\r\n\r\n    modifier onlyRewardGiver() {\r\n        require(msg.sender == rewardGiver, \"Unauthorized\");\r\n        _;\r\n    }\r\n\r\n    modifier isRunning(bool _flag) {\r\n        require(\r\n            (startTime != 0 && startTime <= block.timestamp) == _flag,\r\n            \"Unavailable\"\r\n        );\r\n        _;\r\n    }\r\n\r\n    constructor(address _currenctyToken, address _hmineToken) {\r\n        currencyToken = _currenctyToken;\r\n        hmineToken = _hmineToken;\r\n    }\r\n\r\n    // Start the contract.\r\n    // Will not initialize if already started.\r\n    function initialize(uint256 _startTime)\r\n        external\r\n        onlyOwner\r\n        isRunning(false)\r\n    {\r\n        startTime = _startTime;\r\n\r\n        // Admin is supposed to send an additional 100k HMINE to the contract\r\n        uint256 _balance = IERC20(hmineToken).balanceOf(address(this));\r\n        require(_balance == maxSupply, \"Missing hmine balance\");\r\n    }\r\n\r\n    // Used to initally migrate the user data from the sacrifice round. Can be run multiple times. Do 10 at a time.\r\n    function migrateSacrifice(User[] memory _users)\r\n        external\r\n        onlyOwner\r\n        nonReentrant\r\n        isRunning(false)\r\n    {\r\n        uint256 _amountSum = 0;\r\n        uint256 _rewardSum = 0;\r\n        for (uint256 _i = 0; _i < _users.length; _i++) {\r\n            address _userAddress = _users[_i].user;\r\n            require(_userAddress != address(0), \"Invalid address\");\r\n            require(userIndex[_userAddress] == 0, \"Duplicate user\");\r\n            uint256 _index = _assignUserIndex(_userAddress);\r\n            users[_index] = _users[_i];\r\n            _amountSum += _users[_i].amount;\r\n            _rewardSum += _users[_i].reward;\r\n        }\r\n\r\n        // Admin sends send initial token deposits to the contract\r\n        IERC20(hmineToken).safeTransferFrom(\r\n            msg.sender,\r\n            address(this),\r\n            _amountSum\r\n        );\r\n        totalSold += _amountSum;\r\n        totalStaked += _amountSum;\r\n\r\n        // Admin must send initial rewards to the contract\r\n        IERC20(currencyToken).safeTransferFrom(\r\n            msg.sender,\r\n            address(this),\r\n            _rewardSum\r\n        );\r\n        rewardTotal += _rewardSum;\r\n\r\n        // Sanity check, pre-sale must not exceed 100k\r\n        require(totalSold <= 100_000e18, \"Migration excess\");\r\n    }\r\n\r\n    // Total liquidity of HMINE available for trades.\r\n    function hmineReserve() external view returns (uint256 _hmineReserve) {\r\n        uint256 _balance = IERC20(hmineToken).balanceOf(address(this));\r\n        return _balance - totalStaked;\r\n    }\r\n\r\n    // Total liquidity of DAI available for trades.\r\n    function currencyReserve()\r\n        external\r\n        view\r\n        returns (uint256 _currencyReserve)\r\n    {\r\n        uint256 _balance = IERC20(currencyToken).balanceOf(address(this));\r\n        return _balance - rewardTotal;\r\n    }\r\n\r\n    // Allows for withdrawing DAI liquidity.\r\n    // Admin is supposed to send the DAI liquidity directly to the contract.\r\n    function recoverReserve(uint256 _amount) external onlyRewardGiver nonReentrant {\r\n        // Checks to make sure there is enough dai on contract to fullfill the withdrawal.\r\n        uint256 _balance = IERC20(currencyToken).balanceOf(address(this));\r\n        uint256 _available = _balance - rewardTotal;\r\n        require(_amount <= _available, \"Insufficient DAI on Contract\");\r\n\r\n        // Send DAI to user.  User only get's 60% of the selling price.\r\n        IERC20(currencyToken).safeTransfer(msg.sender, _amount);\r\n    }\r\n\r\n    // An external function to calculate the swap value.\r\n    // If it's a buy then calculate the amount of HMINE you get for the DAI input.\r\n    // If it's a sell then calculate the amount of DAI you get for the HMINE input.\r\n    function calculateSwap(uint256 _amount, bool _isBuy)\r\n        external\r\n        view\r\n        returns (uint256 _value)\r\n    {\r\n        (_value, ) = _isBuy ? _getBuyValue(_amount) : _getSellValue(_amount);\r\n        return _value;\r\n    }\r\n\r\n    // Input the amount a DAI and return the HMINE value.\r\n    // It takes into account the price upscale in case a round has been met during the buy.\r\n    function _getBuyValue(uint256 _amount)\r\n        internal\r\n        view\r\n        returns (uint256 _hmineValue, uint256 _price)\r\n    {\r\n        _price = currentPrice;\r\n        _hmineValue = (_amount * 1e18) / _price;\r\n        // Fixed price if below second round\r\n        if (totalSold + _hmineValue <= secondRound) {\r\n            // Increment price if second round is reached\r\n            if (totalSold + _hmineValue == secondRound) {\r\n                _price += 3e18;\r\n            }\r\n        }\r\n        // Price calculation when beyond the second round\r\n        else {\r\n            _hmineValue = 0;\r\n            uint256 _amountLeftOver = _amount;\r\n            uint256 _roundAvailable = roundIncrement -\r\n                (totalSold % roundIncrement);\r\n\r\n            // If short of first round, adjust up to first round\r\n            if (totalSold < firstRound) {\r\n                _hmineValue += firstRound - totalSold;\r\n                _amountLeftOver -= (_hmineValue * _price) / 1e18;\r\n                _roundAvailable = roundIncrement;\r\n            }\r\n\r\n            uint256 _valueOfLeftOver = (_amountLeftOver * 1e18) / _price;\r\n            if (_valueOfLeftOver < _roundAvailable) {\r\n                _hmineValue += _valueOfLeftOver;\r\n            } else {\r\n                _hmineValue += _roundAvailable;\r\n                _amountLeftOver =\r\n                    ((_valueOfLeftOver - _roundAvailable) * _price) /\r\n                    1e18;\r\n                _price += 3e18;\r\n                while (_amountLeftOver > 0) {\r\n                    _valueOfLeftOver = (_amountLeftOver * 1e18) / _price;\r\n                    if (_valueOfLeftOver >= roundIncrement) {\r\n                        _hmineValue += roundIncrement;\r\n                        _amountLeftOver =\r\n                            ((_valueOfLeftOver - roundIncrement) * _price) /\r\n                            1e18;\r\n                        _price += 3e18;\r\n                    } else {\r\n                        _hmineValue += _valueOfLeftOver;\r\n                        _amountLeftOver = 0;\r\n                    }\r\n                }\r\n            }\r\n        }\r\n        return (_hmineValue, _price);\r\n    }\r\n\r\n    // This internal function is used to calculate the amount of DAI user will receive.\r\n    // It takes into account the price reversal in case rounds have reversed during a sell order.\r\n    function _getSellValue(uint256 _amount)\r\n        internal\r\n        view\r\n        returns (uint256 _sellValue, uint256 _price)\r\n    {\r\n        _price = currentPrice;\r\n        uint256 _roundAvailable = totalSold % roundIncrement;\r\n        // Still in current round.\r\n        if (_amount <= _roundAvailable) {\r\n            _sellValue = (_amount * _price) / 1e18;\r\n        }\r\n        // Amount plus the mod total tells us tha the round or rounds will most likely be reached.\r\n        else {\r\n            _sellValue = (_roundAvailable * _price) / 1e18;\r\n            uint256 _amountLeftOver = _amount - _roundAvailable;\r\n            while (_amountLeftOver > 0) {\r\n                if (_price > 7e18) {\r\n                    _price -= 3e18;\r\n                }\r\n                if (_amountLeftOver > roundIncrement) {\r\n                    _sellValue += (roundIncrement * _price) / 1e18;\r\n                    _amountLeftOver -= roundIncrement;\r\n                } else {\r\n                    _sellValue += (_amountLeftOver * _price) / 1e18;\r\n                    _amountLeftOver = 0;\r\n                }\r\n            }\r\n        }\r\n        return (_sellValue, _price);\r\n    }\r\n\r\n    // Buy HMINE with DAI\r\n    function buy(uint256 _amount) external nonReentrant isRunning(true) {\r\n        require(_amount > 0, \"Invalid amount\");\r\n\r\n        (uint256 _hmineValue, uint256 _price) = _getBuyValue(_amount);\r\n\r\n        // Used to send funds to the appropriate wallets and update global data\r\n        _buyInternal(msg.sender, _amount, _hmineValue, _price);\r\n\r\n        emit Buy(msg.sender, _hmineValue, _price);\r\n    }\r\n\r\n    // Used to send funds to the appropriate wallets and update global data\r\n    // The buy and compound function calls this internal function.\r\n    function _buyInternal(\r\n        address _sender,\r\n        uint256 _amount,\r\n        uint256 _hmineValue,\r\n        uint256 _price\r\n    ) internal {\r\n        // Checks to make sure supply is not exeeded.\r\n        require(totalSold + _hmineValue <= maxSupply, \"Exceeded supply\");\r\n\r\n        // Sends 7.5% / 4 to Loft, Ghost, Mike, Miko\r\n        uint256 _managementAmount = ((_amount * 75) / 1000) / 4;\r\n\r\n        // Sends 2.5% to SafeHolders\r\n        uint256 _safeHoldersAmount = (_amount * 25) / 1000;\r\n\r\n        // Sends 80% to bankroll\r\n        uint256 _bankrollAmount = (_amount * 80) / 100;\r\n\r\n        // Sends or keeps 10% to/in the contract for divs\r\n        uint256 _amountToStakers = _amount -\r\n            (4 * _managementAmount + _safeHoldersAmount + _bankrollAmount);\r\n\r\n        if (_sender == address(this)) {\r\n            for (uint256 _i = 0; _i < 4; _i++) {\r\n                IERC20(currencyToken).safeTransfer(\r\n                    management[_i],\r\n                    _managementAmount\r\n                );\r\n            }\r\n            IERC20(currencyToken).safeTransfer(safeHolders, _safeHoldersAmount);\r\n            IERC20(currencyToken).safeTransfer(bankroll, _bankrollAmount);\r\n        } else {\r\n            for (uint256 _i = 0; _i < 4; _i++) {\r\n                IERC20(currencyToken).safeTransferFrom(\r\n                    _sender,\r\n                    management[_i],\r\n                    _managementAmount\r\n                );\r\n            }\r\n            IERC20(currencyToken).safeTransferFrom(\r\n                _sender,\r\n                safeHolders,\r\n                _safeHoldersAmount\r\n            );\r\n            IERC20(currencyToken).safeTransferFrom(\r\n                _sender,\r\n                bankroll,\r\n                _bankrollAmount\r\n            );\r\n            IERC20(currencyToken).safeTransferFrom(\r\n                _sender,\r\n                address(this),\r\n                _amountToStakers\r\n            );\r\n        }\r\n\r\n        _distributeRewards(_amountToStakers);\r\n\r\n        // Update user's stake entry.\r\n        uint256 _index = _assignUserIndex(msg.sender);\r\n        users[_index].user = msg.sender; // just in case it was not yet initialized\r\n        _collectsUserRewardAndUpdatesBalance(\r\n            users[_index],\r\n            int256(_hmineValue)\r\n        );\r\n\r\n        // Update global values.\r\n        totalSold += _hmineValue;\r\n        totalStaked += _hmineValue;\r\n        currentPrice = _price;\r\n        rewardTotal += _amountToStakers;\r\n    }\r\n\r\n    // Sell HMINE for DAI\r\n    function sell(uint256 _amount) external nonReentrant isRunning(true) {\r\n        require(_amount > 0, \"Invalid amount\");\r\n\r\n        (uint256 _sellValue, uint256 _price) = _getSellValue(_amount);\r\n\r\n        // Sends HMINE to contract\r\n        IERC20(hmineToken).safeTransferFrom(msg.sender, address(this), _amount);\r\n\r\n        uint256 _60percent = (_sellValue * 60) / 100;\r\n\r\n        // Checks to make sure there is enough dai on contract to fullfill the swap.\r\n        uint256 _balance = IERC20(currencyToken).balanceOf(address(this));\r\n        uint256 _available = _balance - rewardTotal;\r\n        require(_60percent <= _available, \"Insufficient DAI on Contract\");\r\n\r\n        // Send DAI to user.  User only get's 60% of the selling price.\r\n        IERC20(currencyToken).safeTransfer(msg.sender, _60percent);\r\n\r\n        // Update global values.\r\n        totalSold -= _amount;\r\n        currentPrice = _price;\r\n\r\n        emit Sell(msg.sender, _amount, _price);\r\n    }\r\n\r\n    // Stake HMINE\r\n    function stake(uint256 _amount) external nonReentrant isRunning(true) {\r\n        require(_amount > 0, \"Invalid amount\");\r\n        uint256 _index = _assignUserIndex(msg.sender);\r\n        users[_index].user = msg.sender; // just in case it was not yet initialized\r\n\r\n        // User sends HMINE to the contract to stake\r\n        IERC20(hmineToken).safeTransferFrom(msg.sender, address(this), _amount);\r\n\r\n        // Update user's staking amount\r\n        _collectsUserRewardAndUpdatesBalance(users[_index], int256(_amount));\r\n        // Update total staking amount\r\n        totalStaked += _amount;\r\n    }\r\n\r\n    // Unstake HMINE\r\n    function unstake(uint256 _amount) external nonReentrant isRunning(true) {\r\n        require(_amount > 0, \"Invalid amount\");\r\n        uint256 _index = userIndex[msg.sender];\r\n        require(_index != 0, \"Not staked yet\");\r\n        require(users[_index].amount >= _amount, \"Inefficient stake balance\");\r\n\r\n        uint256 _10percent = (_amount * 10) / 100;\r\n        uint256 _80percent = _amount - 2 * _10percent;\r\n\r\n        // Goes to burn address\r\n        IERC20(hmineToken).safeTransfer(FURNACE, _10percent);\r\n        // Goes to bankroll\r\n        IERC20(hmineToken).safeTransfer(bankroll, _10percent);\r\n        // User only gets 80% HMINE\r\n        IERC20(hmineToken).safeTransfer(msg.sender, _80percent);\r\n\r\n        // Update user's staking amount\r\n        _collectsUserRewardAndUpdatesBalance(users[_index], -int256(_amount));\r\n        // Update total staking amount\r\n        totalStaked -= _amount;\r\n    }\r\n\r\n    // Adds a nickname to the user.\r\n    function updateNickname(string memory _nickname) external {\r\n        uint256 _index = userIndex[msg.sender];\r\n        require(index != 0, \"User does not exist\");\r\n        users[_index].nickname = _nickname;\r\n    }\r\n\r\n    // Claim DIV as DAI\r\n    function claim() external nonReentrant {\r\n        uint256 _index = userIndex[msg.sender];\r\n        require(index != 0, \"User does not exist\");\r\n        _collectsUserRewardAndUpdatesBalance(users[_index], 0);\r\n        uint256 _claimAmount = users[_index].reward;\r\n        require(_claimAmount > 0, \"No rewards to claim\");\r\n        rewardTotal -= _claimAmount;\r\n        users[_index].reward = 0;\r\n        IERC20(currencyToken).safeTransfer(msg.sender, _claimAmount);\r\n    }\r\n\r\n    // Compound the divs.\r\n    // Uses the div to buy more HMINE internally by calling the _buyInternal.\r\n    function compound() external nonReentrant isRunning(true) {\r\n        uint256 _index = userIndex[msg.sender];\r\n        require(index != 0, \"User does not exist\");\r\n        _collectsUserRewardAndUpdatesBalance(users[_index], 0);\r\n        uint256 _claimAmount = users[_index].reward;\r\n        require(_claimAmount > 0, \"No rewards to claim\");\r\n        // Removes the the claim amount from total divs for tracing purposes.\r\n        rewardTotal -= _claimAmount;\r\n        // remove the div from the users reward pool.\r\n        users[_index].reward = 0;\r\n\r\n        (uint256 _hmineValue, uint256 _price) = _getBuyValue(_claimAmount);\r\n\r\n        _buyInternal(address(this), _claimAmount, _hmineValue, _price);\r\n\r\n        emit Compound(msg.sender, _hmineValue, _price);\r\n    }\r\n\r\n    // Reward giver sends bonus DIV to top 20 holders\r\n    function sendBonusDiv(\r\n        uint256 _amount,\r\n        address[] memory _topTen,\r\n        address[] memory _topTwenty\r\n    ) external onlyRewardGiver nonReentrant isRunning(true) {\r\n        require(_amount > 0, \"Invalid amount\");\r\n\r\n        // Admin sends div to the contract\r\n        IERC20(currencyToken).safeTransferFrom(\r\n            msg.sender,\r\n            address(this),\r\n            _amount\r\n        );\r\n\r\n        require(\r\n            _topTen.length == 10 && _topTwenty.length == 10,\r\n            \"Invalid arrays\"\r\n        );\r\n\r\n        // 75% split between topTen\r\n        uint256 _topTenAmount = ((_amount * 75) / 100) / 10;\r\n        // 25% split between topTwenty\r\n        uint256 _topTwentyAmount = ((_amount * 25) / 100) / 10;\r\n\r\n        for (uint256 _i = 0; _i < 10; _i++) {\r\n            uint256 _index = userIndex[_topTen[_i]];\r\n            require(_index != 0, \"A user doesn't exist\");\r\n            users[_index].reward += _topTenAmount;\r\n        }\r\n\r\n        for (uint256 _i = 0; _i < 10; _i++) {\r\n            uint256 _index = userIndex[_topTwenty[_i]];\r\n            require(_index != 0, \"A user doesn't exist\");\r\n            users[_index].reward += _topTwentyAmount;\r\n        }\r\n\r\n        uint256 _leftOver = _amount - 10 * (_topTenAmount + _topTwentyAmount);\r\n        users[userIndex[_topTen[0]]].reward += _leftOver;\r\n\r\n        rewardTotal += _amount;\r\n\r\n        emit BonusReward(_amount);\r\n    }\r\n\r\n    // Reward giver sends daily divs to all holders\r\n    function sendDailyDiv(uint256 _amount)\r\n        external\r\n        onlyRewardGiver\r\n        nonReentrant\r\n        isRunning(true)\r\n    {\r\n        require(_amount > 0, \"Invalid amount\");\r\n\r\n        // Admin sends div to the contract\r\n        IERC20(currencyToken).safeTransferFrom(\r\n            msg.sender,\r\n            address(this),\r\n            _amount\r\n        );\r\n\r\n        _distributeRewards(_amount);\r\n\r\n        rewardTotal += _amount;\r\n    }\r\n\r\n    // Calculates actual user reward balance\r\n    function userRewardBalance(address _userAddress)\r\n        external\r\n        view\r\n        returns (uint256 _reward)\r\n    {\r\n        User storage _user = users[userIndex[_userAddress]];\r\n        // The difference is the user's share of rewards distributed since the last collection\r\n        uint256 _newReward = (_user.amount * accRewardPerShare) /\r\n            1e12 -\r\n            userRewardDebt[_user.user];\r\n        return _user.reward + _newReward;\r\n    }\r\n\r\n    // Distributes reward amount to all users propotionally to their stake.\r\n    function _distributeRewards(uint256 _amount) internal {\r\n        accRewardPerShare += (_amount * 1e12) / totalStaked;\r\n    }\r\n\r\n    // Collects pending rewards and updates user balance.\r\n    function _collectsUserRewardAndUpdatesBalance(\r\n        User storage _user,\r\n        int256 _amountDelta\r\n    ) internal {\r\n        // The difference is the user's share of rewards distributed since the last collection/reset\r\n        uint256 _newReward = (_user.amount * accRewardPerShare) /\r\n            1e12 -\r\n            userRewardDebt[_user.user];\r\n        _user.reward += _newReward;\r\n        if (_amountDelta >= 0) {\r\n            _user.amount += uint256(_amountDelta);\r\n        } else {\r\n            _user.amount -= uint256(-_amountDelta);\r\n        }\r\n        // Resets user's reward debt so that the difference is zero\r\n        userRewardDebt[_user.user] = (_user.amount * accRewardPerShare) / 1e12;\r\n    }\r\n\r\n    // Show user by address\r\n    function getUserByAddress(address _userAddress)\r\n        external\r\n        view\r\n        returns (User memory _user)\r\n    {\r\n        return users[userIndex[_userAddress]];\r\n    }\r\n\r\n    // Show user by index\r\n    function getUserByIndex(uint256 _index)\r\n        external\r\n        view\r\n        returns (User memory _user)\r\n    {\r\n        return users[_index];\r\n    }\r\n\r\n    // Takes in a user address and finds an existing index that is corelated to the user.\r\n    // If index not found (ZERO) then it assigns an index to the user.\r\n    function _assignUserIndex(address _user) internal returns (uint256 _index) {\r\n        if (userIndex[_user] == 0) userIndex[_user] = ++index;\r\n        return userIndex[_user];\r\n    }\r\n\r\n    // Updates the management and reward giver address.\r\n    function updateStateAddresses(address _rewardGiver, address _bankRoll)\r\n        external\r\n        onlyOwner\r\n    {\r\n        require(\r\n            _bankRoll != address(0) && _bankRoll != address(this),\r\n            \"Invalid address\"\r\n        );\r\n        require(\r\n            _rewardGiver != address(0) && _rewardGiver != address(this),\r\n            \"Invalid address\"\r\n        );\r\n        bankroll = _bankRoll;\r\n        rewardGiver = _rewardGiver;\r\n    }\r\n\r\n    // Updates the management.\r\n    function updateManagement(address _management, uint256 _i)\r\n        external\r\n        onlyOwner\r\n    {\r\n        require(\r\n            _management != address(0) && _management != address(this),\r\n            \"Invalid address\"\r\n        );\r\n        require(_i < 4, \"Invalid entry\");\r\n        management[_i] = _management;\r\n    }\r\n\r\n    event Buy(address indexed _user, uint256 _amount, uint256 _price);\r\n    event Sell(address indexed _user, uint256 _amount, uint256 _price);\r\n    event Compound(address indexed _user, uint256 _amount, uint256 _price);\r\n    event BonusReward(uint256 _amount);\r\n}\r\n",
  "sourcePath": "C:/GitHub/hypermine-sacrifice/contracts/HmineMain.sol",
  "compiler": {
    "name": "solc",
    "version": "0.8.15+commit.e14f2714.Emscripten.clang"
  },
  "schemaVersion": "3.4.1",
  "updatedAt": "2022-07-05T03:38:08.406Z",
  "networkType": "ethereum",
  "devdoc": {
    "kind": "dev",
    "methods": {
      "owner()": {
        "details": "Returns the address of the current owner."
      },
      "renounceOwnership()": {
        "details": "Leaves the contract without owner. It will not be possible to call `onlyOwner` functions anymore. Can only be called by the current owner. NOTE: Renouncing ownership will leave the contract without an owner, thereby removing any functionality that is only available to the owner."
      },
      "transferOwnership(address)": {
        "details": "Transfers ownership of the contract to a new account (`newOwner`). Can only be called by the current owner."
      }
    },
    "version": 1
  },
  "userdoc": {
    "kind": "user",
    "methods": {},
    "version": 1
  }
}