{
  "contractName": "HmineSacrifice",
  "abi": [
    {
      "inputs": [
        {
          "internalType": "address payable",
          "name": "_sacTo",
          "type": "address"
        },
        {
          "internalType": "address",
          "name": "_wbnb",
          "type": "address"
        },
        {
          "internalType": "address",
          "name": "_bnbLP",
          "type": "address"
        },
        {
          "internalType": "address",
          "name": "_twap",
          "type": "address"
        }
      ],
      "stateMutability": "nonpayable",
      "type": "constructor"
    },
    {
      "anonymous": false,
      "inputs": [
        {
          "indexed": true,
          "internalType": "address",
          "name": "previousOwner",
          "type": "address"
        },
        {
          "indexed": true,
          "internalType": "address",
          "name": "newOwner",
          "type": "address"
        }
      ],
      "name": "OwnershipTransferred",
      "type": "event"
    },
    {
      "anonymous": false,
      "inputs": [
        {
          "indexed": true,
          "internalType": "address",
          "name": "_user",
          "type": "address"
        },
        {
          "indexed": true,
          "internalType": "address",
          "name": "_token",
          "type": "address"
        },
        {
          "indexed": false,
          "internalType": "uint256",
          "name": "_amount",
          "type": "uint256"
        },
        {
          "indexed": false,
          "internalType": "uint256",
          "name": "_hmineAmount",
          "type": "uint256"
        }
      ],
      "name": "UserSacrifice",
      "type": "event"
    },
    {
      "inputs": [],
      "name": "hminePerRound",
      "outputs": [
        {
          "internalType": "uint256",
          "name": "",
          "type": "uint256"
        }
      ],
      "stateMutability": "view",
      "type": "function"
    },
    {
      "inputs": [],
      "name": "index",
      "outputs": [
        {
          "internalType": "uint256",
          "name": "",
          "type": "uint256"
        }
      ],
      "stateMutability": "view",
      "type": "function"
    },
    {
      "inputs": [],
      "name": "owner",
      "outputs": [
        {
          "internalType": "address",
          "name": "",
          "type": "address"
        }
      ],
      "stateMutability": "view",
      "type": "function"
    },
    {
      "inputs": [],
      "name": "renounceOwnership",
      "outputs": [],
      "stateMutability": "nonpayable",
      "type": "function"
    },
    {
      "inputs": [],
      "name": "roundOneHmine",
      "outputs": [
        {
          "internalType": "uint256",
          "name": "",
          "type": "uint256"
        }
      ],
      "stateMutability": "view",
      "type": "function"
    },
    {
      "inputs": [],
      "name": "roundTwoHmine",
      "outputs": [
        {
          "internalType": "uint256",
          "name": "",
          "type": "uint256"
        }
      ],
      "stateMutability": "view",
      "type": "function"
    },
    {
      "inputs": [
        {
          "internalType": "address",
          "name": "",
          "type": "address"
        }
      ],
      "name": "sacrifices",
      "outputs": [
        {
          "internalType": "bool",
          "name": "isEnabled",
          "type": "bool"
        },
        {
          "internalType": "bool",
          "name": "isStable",
          "type": "bool"
        },
        {
          "internalType": "address",
          "name": "oracleAddress",
          "type": "address"
        }
      ],
      "stateMutability": "view",
      "type": "function"
    },
    {
      "inputs": [],
      "name": "sacrificesTo",
      "outputs": [
        {
          "internalType": "address payable",
          "name": "",
          "type": "address"
        }
      ],
      "stateMutability": "view",
      "type": "function"
    },
    {
      "inputs": [],
      "name": "startRoundOne",
      "outputs": [
        {
          "internalType": "uint256",
          "name": "",
          "type": "uint256"
        }
      ],
      "stateMutability": "view",
      "type": "function"
    },
    {
      "inputs": [],
      "name": "startRoundTwo",
      "outputs": [
        {
          "internalType": "uint256",
          "name": "",
          "type": "uint256"
        }
      ],
      "stateMutability": "view",
      "type": "function"
    },
    {
      "inputs": [
        {
          "internalType": "address",
          "name": "newOwner",
          "type": "address"
        }
      ],
      "name": "transferOwnership",
      "outputs": [],
      "stateMutability": "nonpayable",
      "type": "function"
    },
    {
      "inputs": [],
      "name": "twap",
      "outputs": [
        {
          "internalType": "address",
          "name": "",
          "type": "address"
        }
      ],
      "stateMutability": "view",
      "type": "function"
    },
    {
      "inputs": [],
      "name": "twapMax",
      "outputs": [
        {
          "internalType": "uint256",
          "name": "",
          "type": "uint256"
        }
      ],
      "stateMutability": "view",
      "type": "function"
    },
    {
      "inputs": [
        {
          "internalType": "uint256",
          "name": "",
          "type": "uint256"
        }
      ],
      "name": "users",
      "outputs": [
        {
          "internalType": "string",
          "name": "nickname",
          "type": "string"
        },
        {
          "internalType": "address",
          "name": "user",
          "type": "address"
        },
        {
          "internalType": "uint256",
          "name": "amount",
          "type": "uint256"
        }
      ],
      "stateMutability": "view",
      "type": "function"
    },
    {
      "inputs": [],
      "name": "wbnb",
      "outputs": [
        {
          "internalType": "address",
          "name": "",
          "type": "address"
        }
      ],
      "stateMutability": "view",
      "type": "function"
    },
    {
      "inputs": [
        {
          "internalType": "address",
          "name": "_token",
          "type": "address"
        }
      ],
      "name": "getSacrificeInfo",
      "outputs": [
        {
          "components": [
            {
              "internalType": "bool",
              "name": "isEnabled",
              "type": "bool"
            },
            {
              "internalType": "bool",
              "name": "isStable",
              "type": "bool"
            },
            {
              "internalType": "address",
              "name": "oracleAddress",
              "type": "address"
            }
          ],
          "internalType": "struct HmineSacrifice.Sacrifice",
          "name": "",
          "type": "tuple"
        }
      ],
      "stateMutability": "view",
      "type": "function"
    },
    {
      "inputs": [
        {
          "internalType": "address",
          "name": "_user",
          "type": "address"
        }
      ],
      "name": "getUserByAddress",
      "outputs": [
        {
          "components": [
            {
              "internalType": "string",
              "name": "nickname",
              "type": "string"
            },
            {
              "internalType": "address",
              "name": "user",
              "type": "address"
            },
            {
              "internalType": "uint256",
              "name": "amount",
              "type": "uint256"
            }
          ],
          "internalType": "struct HmineSacrifice.User",
          "name": "",
          "type": "tuple"
        }
      ],
      "stateMutability": "view",
      "type": "function"
    },
    {
      "inputs": [
        {
          "internalType": "uint256",
          "name": "_index",
          "type": "uint256"
        }
      ],
      "name": "getUserByIndex",
      "outputs": [
        {
          "components": [
            {
              "internalType": "string",
              "name": "nickname",
              "type": "string"
            },
            {
              "internalType": "address",
              "name": "user",
              "type": "address"
            },
            {
              "internalType": "uint256",
              "name": "amount",
              "type": "uint256"
            }
          ],
          "internalType": "struct HmineSacrifice.User",
          "name": "",
          "type": "tuple"
        }
      ],
      "stateMutability": "view",
      "type": "function"
    },
    {
      "inputs": [],
      "name": "getCurrentRound",
      "outputs": [
        {
          "internalType": "uint16",
          "name": "",
          "type": "uint16"
        }
      ],
      "stateMutability": "view",
      "type": "function"
    },
    {
      "inputs": [
        {
          "internalType": "string",
          "name": "nickname",
          "type": "string"
        }
      ],
      "name": "updateNickname",
      "outputs": [],
      "stateMutability": "nonpayable",
      "type": "function"
    },
    {
      "inputs": [
        {
          "internalType": "address",
          "name": "_token",
          "type": "address"
        },
        {
          "internalType": "uint256",
          "name": "_amount",
          "type": "uint256"
        }
      ],
      "name": "sacrificeERC20",
      "outputs": [],
      "stateMutability": "nonpayable",
      "type": "function"
    },
    {
      "inputs": [],
      "name": "sacrificeBNB",
      "outputs": [],
      "stateMutability": "payable",
      "type": "function"
    },
    {
      "inputs": [
        {
          "internalType": "uint256",
          "name": "_max",
          "type": "uint256"
        }
      ],
      "name": "updateRoundMax",
      "outputs": [],
      "stateMutability": "nonpayable",
      "type": "function"
    },
    {
      "inputs": [
        {
          "internalType": "address",
          "name": "_twap",
          "type": "address"
        }
      ],
      "name": "updateTwap",
      "outputs": [],
      "stateMutability": "nonpayable",
      "type": "function"
    },
    {
      "inputs": [
        {
          "internalType": "uint256",
          "name": "_twapMax",
          "type": "uint256"
        }
      ],
      "name": "updateTwapMax",
      "outputs": [],
      "stateMutability": "nonpayable",
      "type": "function"
    },
    {
      "inputs": [
        {
          "internalType": "uint256",
          "name": "_time",
          "type": "uint256"
        }
      ],
      "name": "startFirstRound",
      "outputs": [],
      "stateMutability": "nonpayable",
      "type": "function"
    },
    {
      "inputs": [
        {
          "internalType": "uint256",
          "name": "_time",
          "type": "uint256"
        }
      ],
      "name": "startSecondRound",
      "outputs": [],
      "stateMutability": "nonpayable",
      "type": "function"
    },
    {
      "inputs": [
        {
          "internalType": "address",
          "name": "_token",
          "type": "address"
        },
        {
          "internalType": "bool",
          "name": "_isStable",
          "type": "bool"
        },
        {
          "internalType": "address",
          "name": "_lpAddress",
          "type": "address"
        }
      ],
      "name": "addSacToken",
      "outputs": [],
      "stateMutability": "nonpayable",
      "type": "function"
    },
    {
      "inputs": [
        {
          "internalType": "address",
          "name": "_token",
          "type": "address"
        },
        {
          "internalType": "bool",
          "name": "_isStable",
          "type": "bool"
        },
        {
          "internalType": "address",
          "name": "_lpAddress",
          "type": "address"
        }
      ],
      "name": "updateSacrifice",
      "outputs": [],
      "stateMutability": "nonpayable",
      "type": "function"
    },
    {
      "inputs": [
        {
          "internalType": "address",
          "name": "_token",
          "type": "address"
        }
      ],
      "name": "removeSacrifice",
      "outputs": [],
      "stateMutability": "nonpayable",
      "type": "function"
    }
  ],
  "bytecode": "0x60c060405260006003556000600455690a968163f0a57b4000006005556000600855601e600c553480156200003357600080fd5b5060405162004d4738038062004d478339818101604052810190620000599190620003c6565b620000796200006d6200014760201b60201c565b6200014f60201b60201c565b600180819055508373ffffffffffffffffffffffffffffffffffffffff1660808173ffffffffffffffffffffffffffffffffffffffff16815250508273ffffffffffffffffffffffffffffffffffffffff1660a08173ffffffffffffffffffffffffffffffffffffffff168152505080600b60006101000a81548173ffffffffffffffffffffffffffffffffffffffff021916908373ffffffffffffffffffffffffffffffffffffffff1602179055506200013d836000846200021360201b60201c565b5050505062000438565b600033905090565b60008060009054906101000a900473ffffffffffffffffffffffffffffffffffffffff169050816000806101000a81548173ffffffffffffffffffffffffffffffffffffffff021916908373ffffffffffffffffffffffffffffffffffffffff1602179055508173ffffffffffffffffffffffffffffffffffffffff168173ffffffffffffffffffffffffffffffffffffffff167f8be0079c531659141344cd1fd0a4f28419497f9722a3daafe3b4186f6b6457e060405160405180910390a35050565b604051806060016040528060011515815260200183151581526020018273ffffffffffffffffffffffffffffffffffffffff16815250600260008573ffffffffffffffffffffffffffffffffffffffff1673ffffffffffffffffffffffffffffffffffffffff16815260200190815260200160002060008201518160000160006101000a81548160ff02191690831515021790555060208201518160000160016101000a81548160ff02191690831515021790555060408201518160000160026101000a81548173ffffffffffffffffffffffffffffffffffffffff021916908373ffffffffffffffffffffffffffffffffffffffff160217905550905050505050565b600080fd5b600073ffffffffffffffffffffffffffffffffffffffff82169050919050565b600062000349826200031c565b9050919050565b6200035b816200033c565b81146200036757600080fd5b50565b6000815190506200037b8162000350565b92915050565b60006200038e826200031c565b9050919050565b620003a08162000381565b8114620003ac57600080fd5b50565b600081519050620003c08162000395565b92915050565b60008060008060808587031215620003e357620003e262000317565b5b6000620003f3878288016200036a565b94505060206200040687828801620003af565b93505060406200041987828801620003af565b92505060606200042c87828801620003af565b91505092959194509250565b60805160a0516148bf62000488600039600081816110310152818161110d01528181611132015281816112f60152611cbc015260008181610c91015281816112b1015261174601526148bf6000f3fe6080604052600436106101cd5760003560e01c806372632ada116100f7578063a2e9e35911610095578063e60ec6ec11610064578063e60ec6ec14610621578063f012599d1461065e578063f2fde38b14610689578063ff5d32fe146106b2576101cd565b8063a2e9e35914610579578063a32bf597146105a2578063bd2e3b17146105cd578063bfb8aee5146105f6576101cd565b80638a015c86116100d15780638a015c86146104d15780638ce3192d146104fa5780638d72647e146105235780638da5cb5b1461054e576101cd565b806372632ada14610473578063816d26b91461049e57806385592de6146104a8576101cd565b8063417542c91161016f57806366da75dd1161013e57806366da75dd146103cb57806369c212f6146103f6578063715018a614610433578063725068a51461044a576101cd565b8063417542c9146103235780634eb6372b1461034e57806350f10eab1461037757806351fd76c0146103a0576101cd565b8063365b98b2116101ab578063365b98b2146102515780633c97eaa714610290578063413447cc146102bb578063413a7888146102fa576101cd565b80631208aa18146101d25780632986c0e5146101fd5780632c3f4e9a14610228575b600080fd5b3480156101de57600080fd5b506101e76106ef565b6040516101f49190613139565b60405180910390f35b34801561020957600080fd5b50610212610715565b60405161021f919061316d565b60405180910390f35b34801561023457600080fd5b5061024f600480360381019061024a91906131c8565b61071b565b005b34801561025d57600080fd5b5061027860048036038101906102739190613221565b610873565b604051610287939291906132e7565b60405180910390f35b34801561029c57600080fd5b506102a5610945565b6040516102b2919061316d565b60405180910390f35b3480156102c757600080fd5b506102e260048036038101906102dd91906131c8565b61094b565b6040516102f193929190613340565b60405180910390f35b34801561030657600080fd5b50610321600480360381019061031c9190613221565b6109af565b005b34801561032f57600080fd5b50610338610a88565b604051610345919061316d565b60405180910390f35b34801561035a57600080fd5b5061037560048036038101906103709190613221565b610a8e565b005b34801561038357600080fd5b5061039e60048036038101906103999190613221565b610bc6565b005b3480156103ac57600080fd5b506103b5610c8f565b6040516103c29190613398565b60405180910390f35b3480156103d757600080fd5b506103e0610cb3565b6040516103ed919061316d565b60405180910390f35b34801561040257600080fd5b5061041d600480360381019061041891906131c8565b610cb9565b60405161042a919061346b565b60405180910390f35b34801561043f57600080fd5b50610448610e1d565b005b34801561045657600080fd5b50610471600480360381019061046c91906131c8565b610ea5565b005b34801561047f57600080fd5b50610488610fd4565b604051610495919061316d565b60405180910390f35b6104a6610fda565b005b3480156104b457600080fd5b506104cf60048036038101906104ca9190613221565b611388565b005b3480156104dd57600080fd5b506104f860048036038101906104f3919061348d565b61145f565b005b34801561050657600080fd5b50610521600480360381019061051c91906134f9565b611802565b005b34801561052f57600080fd5b50610538611cba565b6040516105459190613139565b60405180910390f35b34801561055a57600080fd5b50610563611cde565b6040516105709190613139565b60405180910390f35b34801561058557600080fd5b506105a0600480360381019061059b91906134f9565b611d07565b005b3480156105ae57600080fd5b506105b7612131565b6040516105c49190613569565b60405180910390f35b3480156105d957600080fd5b506105f460048036038101906105ef91906136b9565b612140565b005b34801561060257600080fd5b5061060b6121f1565b604051610618919061316d565b60405180910390f35b34801561062d57600080fd5b50610648600480360381019061064391906131c8565b6121f7565b6040516106559190613753565b60405180910390f35b34801561066a57600080fd5b506106736122dc565b604051610680919061316d565b60405180910390f35b34801561069557600080fd5b506106b060048036038101906106ab91906131c8565b6122e2565b005b3480156106be57600080fd5b506106d960048036038101906106d49190613221565b6123d9565b6040516106e6919061346b565b60405180910390f35b600b60009054906101000a900473ffffffffffffffffffffffffffffffffffffffff1681565b60085481565b6107236124f8565b73ffffffffffffffffffffffffffffffffffffffff16610741611cde565b73ffffffffffffffffffffffffffffffffffffffff1614610797576040517f08c379a000000000000000000000000000000000000000000000000000000000815260040161078e906137ba565b60405180910390fd5b6107a081612500565b6107df576040517f08c379a00000000000000000000000000000000000000000000000000000000081526004016107d690613826565b60405180910390fd5b600260008273ffffffffffffffffffffffffffffffffffffffff1673ffffffffffffffffffffffffffffffffffffffff168152602001908152602001600020600080820160006101000a81549060ff02191690556000820160016101000a81549060ff02191690556000820160026101000a81549073ffffffffffffffffffffffffffffffffffffffff0219169055505050565b600a60205280600052604060002060009150905080600001805461089690613875565b80601f01602080910402602001604051908101604052809291908181526020018280546108c290613875565b801561090f5780601f106108e45761010080835404028352916020019161090f565b820191906000526020600020905b8154815290600101906020018083116108f257829003601f168201915b5050505050908060010160009054906101000a900473ffffffffffffffffffffffffffffffffffffffff16908060020154905083565b60065481565b60026020528060005260406000206000915090508060000160009054906101000a900460ff16908060000160019054906101000a900460ff16908060000160029054906101000a900473ffffffffffffffffffffffffffffffffffffffff16905083565b6109b76124f8565b73ffffffffffffffffffffffffffffffffffffffff166109d5611cde565b73ffffffffffffffffffffffffffffffffffffffff1614610a2b576040517f08c379a0000000000000000000000000000000000000000000000000000000008152600401610a22906137ba565b60405180910390fd5b6000600354148015610a3f57506000600454145b610a7e576040517f08c379a0000000000000000000000000000000000000000000000000000000008152600401610a7590613918565b60405180910390fd5b8060058190555050565b60055481565b610a966124f8565b73ffffffffffffffffffffffffffffffffffffffff16610ab4611cde565b73ffffffffffffffffffffffffffffffffffffffff1614610b0a576040517f08c379a0000000000000000000000000000000000000000000000000000000008152600401610b01906137ba565b60405180910390fd5b6202a300600354610b1b9190613967565b81118015610b2c5750600060035414155b610b6b576040517f08c379a0000000000000000000000000000000000000000000000000000000008152600401610b6290613a09565b60405180910390fd5b426004541180610b7d57506000600454145b610bbc576040517f08c379a0000000000000000000000000000000000000000000000000000000008152600401610bb390613a75565b60405180910390fd5b8060048190555050565b610bce6124f8565b73ffffffffffffffffffffffffffffffffffffffff16610bec611cde565b73ffffffffffffffffffffffffffffffffffffffff1614610c42576040517f08c379a0000000000000000000000000000000000000000000000000000000008152600401610c39906137ba565b60405180910390fd5b60008111610c85576040517f08c379a0000000000000000000000000000000000000000000000000000000008152600401610c7c90613ae1565b60405180910390fd5b80600c8190555050565b7f000000000000000000000000000000000000000000000000000000000000000081565b60035481565b610cc1613086565b6000600960008473ffffffffffffffffffffffffffffffffffffffff1673ffffffffffffffffffffffffffffffffffffffff168152602001908152602001600020549050600a6000828152602001908152602001600020604051806060016040529081600082018054610d3390613875565b80601f0160208091040260200160405190810160405280929190818152602001828054610d5f90613875565b8015610dac5780601f10610d8157610100808354040283529160200191610dac565b820191906000526020600020905b815481529060010190602001808311610d8f57829003601f168201915b505050505081526020016001820160009054906101000a900473ffffffffffffffffffffffffffffffffffffffff1673ffffffffffffffffffffffffffffffffffffffff1673ffffffffffffffffffffffffffffffffffffffff168152602001600282015481525050915050919050565b610e256124f8565b73ffffffffffffffffffffffffffffffffffffffff16610e43611cde565b73ffffffffffffffffffffffffffffffffffffffff1614610e99576040517f08c379a0000000000000000000000000000000000000000000000000000000008152600401610e90906137ba565b60405180910390fd5b610ea36000612559565b565b610ead6124f8565b73ffffffffffffffffffffffffffffffffffffffff16610ecb611cde565b73ffffffffffffffffffffffffffffffffffffffff1614610f21576040517f08c379a0000000000000000000000000000000000000000000000000000000008152600401610f18906137ba565b60405180910390fd5b8073ffffffffffffffffffffffffffffffffffffffff16600073ffffffffffffffffffffffffffffffffffffffff1603610f90576040517f08c379a0000000000000000000000000000000000000000000000000000000008152600401610f8790613b4d565b60405180910390fd5b80600b60006101000a81548173ffffffffffffffffffffffffffffffffffffffff021916908373ffffffffffffffffffffffffffffffffffffffff16021790555050565b60045481565b60026001540361101f576040517f08c379a000000000000000000000000000000000000000000000000000000000815260040161101690613bb9565b60405180910390fd5b600260018190555060003490506110557f0000000000000000000000000000000000000000000000000000000000000000612500565b611094576040517f08c379a000000000000000000000000000000000000000000000000000000000815260040161108b90613826565b60405180910390fd5b600081116110d7576040517f08c379a00000000000000000000000000000000000000000000000000000000081526004016110ce90613c25565b60405180910390fd5b6000610258905060026110e861261d565b61ffff16036111035760326102586111009190613967565b90505b60008160646111b57f0000000000000000000000000000000000000000000000000000000000000000600260007f000000000000000000000000000000000000000000000000000000000000000073ffffffffffffffffffffffffffffffffffffffff1673ffffffffffffffffffffffffffffffffffffffff16815260200190815260200160002060000160029054906101000a900473ffffffffffffffffffffffffffffffffffffffff16876126a3565b6111bf9190613c45565b6111c99190613cce565b90506111d4816129c3565b611213576040517f08c379a000000000000000000000000000000000000000000000000000000000815260040161120a90613d4b565b60405180910390fd5b600061121e33612a52565b905033600a600083815260200190815260200160002060010160006101000a81548173ffffffffffffffffffffffffffffffffffffffff021916908373ffffffffffffffffffffffffffffffffffffffff16021790555081600a6000838152602001908152602001600020600201600082825461129b9190613967565b925050819055506112ab82612b3a565b6112f4847f000000000000000000000000000000000000000000000000000000000000000073ffffffffffffffffffffffffffffffffffffffff16612b8890919063ffffffff16565b7f000000000000000000000000000000000000000000000000000000000000000073ffffffffffffffffffffffffffffffffffffffff163373ffffffffffffffffffffffffffffffffffffffff167ffbfbee4122d97e8c0c0bae4824575d813ebd0192d6982f360ab56834b86abd2d8685604051611373929190613d6b565b60405180910390a35050505060018081905550565b6113906124f8565b73ffffffffffffffffffffffffffffffffffffffff166113ae611cde565b73ffffffffffffffffffffffffffffffffffffffff1614611404576040517f08c379a00000000000000000000000000000000000000000000000000000000081526004016113fb906137ba565b60405180910390fd5b42600354118061141657506000600354145b611455576040517f08c379a000000000000000000000000000000000000000000000000000000000815260040161144c90613a75565b60405180910390fd5b8060038190555050565b6002600154036114a4576040517f08c379a000000000000000000000000000000000000000000000000000000000815260040161149b90613bb9565b60405180910390fd5b60026001819055506114b582612500565b6114f4576040517f08c379a00000000000000000000000000000000000000000000000000000000081526004016114eb90613826565b60405180910390fd5b60008111611537576040517f08c379a000000000000000000000000000000000000000000000000000000000815260040161152e90613c25565b60405180910390fd5b60006102589050600261154861261d565b61ffff16036115635760326102586115609190613967565b90505b6000600260008573ffffffffffffffffffffffffffffffffffffffff1673ffffffffffffffffffffffffffffffffffffffff16815260200190815260200160002060000160019054906101000a900460ff16156115d957816064846115c89190613c45565b6115d29190613cce565b9050611660565b81606461164986600260008973ffffffffffffffffffffffffffffffffffffffff1673ffffffffffffffffffffffffffffffffffffffff16815260200190815260200160002060000160029054906101000a900473ffffffffffffffffffffffffffffffffffffffff16876126a3565b6116539190613c45565b61165d9190613cce565b90505b611669816129c3565b6116a8576040517f08c379a000000000000000000000000000000000000000000000000000000000815260040161169f90613d4b565b60405180910390fd5b60006116b333612a52565b905033600a600083815260200190815260200160002060010160006101000a81548173ffffffffffffffffffffffffffffffffffffffff021916908373ffffffffffffffffffffffffffffffffffffffff16021790555081600a600083815260200190815260200160002060020160008282546117309190613967565b9250508190555061174082612b3a565b61178d337f0000000000000000000000000000000000000000000000000000000000000000868873ffffffffffffffffffffffffffffffffffffffff16612c7c909392919063ffffffff16565b8473ffffffffffffffffffffffffffffffffffffffff163373ffffffffffffffffffffffffffffffffffffffff167ffbfbee4122d97e8c0c0bae4824575d813ebd0192d6982f360ab56834b86abd2d86856040516117ec929190613d6b565b60405180910390a3505050600180819055505050565b61180a6124f8565b73ffffffffffffffffffffffffffffffffffffffff16611828611cde565b73ffffffffffffffffffffffffffffffffffffffff161461187e576040517f08c379a0000000000000000000000000000000000000000000000000000000008152600401611875906137ba565b60405180910390fd5b8273ffffffffffffffffffffffffffffffffffffffff16600073ffffffffffffffffffffffffffffffffffffffff16036118ed576040517f08c379a00000000000000000000000000000000000000000000000000000000081526004016118e490613b4d565b60405180910390fd5b6118f683612500565b15611936576040517f08c379a000000000000000000000000000000000000000000000000000000000815260040161192d90613de0565b60405180910390fd5b8073ffffffffffffffffffffffffffffffffffffffff16600073ffffffffffffffffffffffffffffffffffffffff1614611bf55760008173ffffffffffffffffffffffffffffffffffffffff16630dfe16816040518163ffffffff1660e01b8152600401602060405180830381865afa1580156119b7573d6000803e3d6000fd5b505050506040513d601f19601f820116820180604052508101906119db9190613e15565b905060008273ffffffffffffffffffffffffffffffffffffffff1663d21220a76040518163ffffffff1660e01b8152600401602060405180830381865afa158015611a2a573d6000803e3d6000fd5b505050506040513d601f19601f82011682018060405250810190611a4e9190613e15565b90508173ffffffffffffffffffffffffffffffffffffffff168573ffffffffffffffffffffffffffffffffffffffff161480611ab557508073ffffffffffffffffffffffffffffffffffffffff168573ffffffffffffffffffffffffffffffffffffffff16145b8015611b32575060128273ffffffffffffffffffffffffffffffffffffffff1663313ce5676040518163ffffffff1660e01b8152600401602060405180830381865afa158015611b09573d6000803e3d6000fd5b505050506040513d601f19601f82011682018060405250810190611b2d9190613e7b565b60ff16145b8015611baf575060128173ffffffffffffffffffffffffffffffffffffffff1663313ce5676040518163ffffffff1660e01b8152600401602060405180830381865afa158015611b86573d6000803e3d6000fd5b505050506040513d601f19601f82011682018060405250810190611baa9190613e7b565b60ff16145b611bee576040517f08c379a0000000000000000000000000000000000000000000000000000000008152600401611be590613ef4565b60405180910390fd5b5050611caa565b60128373ffffffffffffffffffffffffffffffffffffffff1663313ce5676040518163ffffffff1660e01b8152600401602060405180830381865afa158015611c42573d6000803e3d6000fd5b505050506040513d601f19601f82011682018060405250810190611c669190613e7b565b60ff1614611ca9576040517f08c379a0000000000000000000000000000000000000000000000000000000008152600401611ca090613f60565b60405180910390fd5b5b611cb5838383612d05565b505050565b7f000000000000000000000000000000000000000000000000000000000000000081565b60008060009054906101000a900473ffffffffffffffffffffffffffffffffffffffff16905090565b611d0f6124f8565b73ffffffffffffffffffffffffffffffffffffffff16611d2d611cde565b73ffffffffffffffffffffffffffffffffffffffff1614611d83576040517f08c379a0000000000000000000000000000000000000000000000000000000008152600401611d7a906137ba565b60405180910390fd5b611d8c83612500565b611dcb576040517f08c379a0000000000000000000000000000000000000000000000000000000008152600401611dc290613826565b60405180910390fd5b60008173ffffffffffffffffffffffffffffffffffffffff16630dfe16816040518163ffffffff1660e01b8152600401602060405180830381865afa158015611e18573d6000803e3d6000fd5b505050506040513d601f19601f82011682018060405250810190611e3c9190613e15565b905060008273ffffffffffffffffffffffffffffffffffffffff1663d21220a76040518163ffffffff1660e01b8152600401602060405180830381865afa158015611e8b573d6000803e3d6000fd5b505050506040513d601f19601f82011682018060405250810190611eaf9190613e15565b90508173ffffffffffffffffffffffffffffffffffffffff168573ffffffffffffffffffffffffffffffffffffffff161480611f1657508073ffffffffffffffffffffffffffffffffffffffff168573ffffffffffffffffffffffffffffffffffffffff16145b8015611f93575060128273ffffffffffffffffffffffffffffffffffffffff1663313ce5676040518163ffffffff1660e01b8152600401602060405180830381865afa158015611f6a573d6000803e3d6000fd5b505050506040513d601f19601f82011682018060405250810190611f8e9190613e7b565b60ff16145b8015612010575060128173ffffffffffffffffffffffffffffffffffffffff1663313ce5676040518163ffffffff1660e01b8152600401602060405180830381865afa158015611fe7573d6000803e3d6000fd5b505050506040513d601f19601f8201168201806040525081019061200b9190613e7b565b60ff16145b61204f576040517f08c379a000000000000000000000000000000000000000000000000000000000815260040161204690613ef4565b60405180910390fd5b83600260008773ffffffffffffffffffffffffffffffffffffffff1673ffffffffffffffffffffffffffffffffffffffff16815260200190815260200160002060000160016101000a81548160ff02191690831515021790555082600260008773ffffffffffffffffffffffffffffffffffffffff1673ffffffffffffffffffffffffffffffffffffffff16815260200190815260200160002060000160026101000a81548173ffffffffffffffffffffffffffffffffffffffff021916908373ffffffffffffffffffffffffffffffffffffffff1602179055505050505050565b600061213b61261d565b905090565b6000600960003373ffffffffffffffffffffffffffffffffffffffff1673ffffffffffffffffffffffffffffffffffffffff1681526020019081526020016000205490506000600854036121c9576040517f08c379a00000000000000000000000000000000000000000000000000000000081526004016121c090613fcc565b60405180910390fd5b81600a600083815260200190815260200160002060000190816121ec9190614198565b505050565b60075481565b6121ff6130bd565b600260008373ffffffffffffffffffffffffffffffffffffffff1673ffffffffffffffffffffffffffffffffffffffff1681526020019081526020016000206040518060600160405290816000820160009054906101000a900460ff161515151581526020016000820160019054906101000a900460ff161515151581526020016000820160029054906101000a900473ffffffffffffffffffffffffffffffffffffffff1673ffffffffffffffffffffffffffffffffffffffff1673ffffffffffffffffffffffffffffffffffffffff16815250509050919050565b600c5481565b6122ea6124f8565b73ffffffffffffffffffffffffffffffffffffffff16612308611cde565b73ffffffffffffffffffffffffffffffffffffffff161461235e576040517f08c379a0000000000000000000000000000000000000000000000000000000008152600401612355906137ba565b60405180910390fd5b600073ffffffffffffffffffffffffffffffffffffffff168173ffffffffffffffffffffffffffffffffffffffff16036123cd576040517f08c379a00000000000000000000000000000000000000000000000000000000081526004016123c4906142dc565b60405180910390fd5b6123d681612559565b50565b6123e1613086565b600a600083815260200190815260200160002060405180606001604052908160008201805461240f90613875565b80601f016020809104026020016040519081016040528092919081815260200182805461243b90613875565b80156124885780601f1061245d57610100808354040283529160200191612488565b820191906000526020600020905b81548152906001019060200180831161246b57829003601f168201915b505050505081526020016001820160009054906101000a900473ffffffffffffffffffffffffffffffffffffffff1673ffffffffffffffffffffffffffffffffffffffff1673ffffffffffffffffffffffffffffffffffffffff1681526020016002820154815250509050919050565b600033905090565b6000600260008373ffffffffffffffffffffffffffffffffffffffff1673ffffffffffffffffffffffffffffffffffffffff16815260200190815260200160002060000160009054906101000a900460ff169050919050565b60008060009054906101000a900473ffffffffffffffffffffffffffffffffffffffff169050816000806101000a81548173ffffffffffffffffffffffffffffffffffffffff021916908373ffffffffffffffffffffffffffffffffffffffff1602179055508173ffffffffffffffffffffffffffffffffffffffff168173ffffffffffffffffffffffffffffffffffffffff167f8be0079c531659141344cd1fd0a4f28419497f9722a3daafe3b4186f6b6457e060405160405180910390a35050565b6000806004541415801561264157506202a30060045461263d9190613967565b4211155b801561264e575060045442115b1561265c57600290506126a0565b60006003541415801561267f57506202a30060035461267b9190613967565b4211155b801561268d57506003544210155b1561269b57600190506126a0565b600090505b90565b6000808390506000808273ffffffffffffffffffffffffffffffffffffffff16630902f1ac6040518163ffffffff1660e01b8152600401606060405180830381865afa1580156126f7573d6000803e3d6000fd5b505050506040513d601f19601f8201168201806040525081019061271b919061437e565b506dffffffffffffffffffffffffffff1691506dffffffffffffffffffffffffffff16915060008373ffffffffffffffffffffffffffffffffffffffff16630dfe16816040518163ffffffff1660e01b8152600401602060405180830381865afa15801561278d573d6000803e3d6000fd5b505050506040513d601f19601f820116820180604052508101906127b19190613e15565b90508773ffffffffffffffffffffffffffffffffffffffff168173ffffffffffffffffffffffffffffffffffffffff1603612804578286836127f39190613c45565b6127fd9190613cce565b945061281e565b8186846128119190613c45565b61281b9190613cce565b94505b600b60009054906101000a900473ffffffffffffffffffffffffffffffffffffffff1673ffffffffffffffffffffffffffffffffffffffff16630990ac60886040518263ffffffff1660e01b81526004016128799190613139565b600060405180830381600087803b15801561289357600080fd5b505af11580156128a7573d6000803e3d6000fd5b505050506000600b60009054906101000a900473ffffffffffffffffffffffffffffffffffffffff1673ffffffffffffffffffffffffffffffffffffffff166288bf34898b8a6040518463ffffffff1660e01b815260040161290b939291906143d1565b602060405180830381865afa158015612928573d6000803e3d6000fd5b505050506040513d601f19601f8201168201806040525081019061294c919061441d565b90506103e8600c546103e86129619190613967565b8261296c9190613c45565b6129769190613cce565b86106129b7576040517f08c379a00000000000000000000000000000000000000000000000000000000081526004016129ae90614496565b60405180910390fd5b50505050509392505050565b6000806129ce61261d565b61ffff16036129e05760009050612a4d565b60016129ea61261d565b61ffff1603612a145760055482600654612a049190613967565b1115612a135760009050612a4d565b5b6002612a1e61261d565b61ffff1603612a485760055482600754612a389190613967565b1115612a475760009050612a4d565b5b600190505b919050565b600080600960008473ffffffffffffffffffffffffffffffffffffffff1673ffffffffffffffffffffffffffffffffffffffff1681526020019081526020016000205403612af357600860008154612aa9906144b6565b919050819055600960008473ffffffffffffffffffffffffffffffffffffffff1673ffffffffffffffffffffffffffffffffffffffff168152602001908152602001600020819055505b600960008373ffffffffffffffffffffffffffffffffffffffff1673ffffffffffffffffffffffffffffffffffffffff168152602001908152602001600020549050919050565b6002612b4461261d565b61ffff1603612b6b578060076000828254612b5f9190613967565b92505081905550612b85565b8060066000828254612b7d9190613967565b925050819055505b50565b80471015612bcb576040517f08c379a0000000000000000000000000000000000000000000000000000000008152600401612bc29061454a565b60405180910390fd5b60008273ffffffffffffffffffffffffffffffffffffffff1682604051612bf19061459b565b60006040518083038185875af1925050503d8060008114612c2e576040519150601f19603f3d011682016040523d82523d6000602084013e612c33565b606091505b5050905080612c77576040517f08c379a0000000000000000000000000000000000000000000000000000000008152600401612c6e90614622565b60405180910390fd5b505050565b612cff846323b872dd60e01b858585604051602401612c9d939291906143d1565b604051602081830303815290604052907bffffffffffffffffffffffffffffffffffffffffffffffffffffffff19166020820180517bffffffffffffffffffffffffffffffffffffffffffffffffffffffff8381831617835250505050612e09565b50505050565b604051806060016040528060011515815260200183151581526020018273ffffffffffffffffffffffffffffffffffffffff16815250600260008573ffffffffffffffffffffffffffffffffffffffff1673ffffffffffffffffffffffffffffffffffffffff16815260200190815260200160002060008201518160000160006101000a81548160ff02191690831515021790555060208201518160000160016101000a81548160ff02191690831515021790555060408201518160000160026101000a81548173ffffffffffffffffffffffffffffffffffffffff021916908373ffffffffffffffffffffffffffffffffffffffff160217905550905050505050565b6000612e6b826040518060400160405280602081526020017f5361666545524332303a206c6f772d6c6576656c2063616c6c206661696c65648152508573ffffffffffffffffffffffffffffffffffffffff16612ed09092919063ffffffff16565b9050600081511115612ecb5780806020019051810190612e8b9190614657565b612eca576040517f08c379a0000000000000000000000000000000000000000000000000000000008152600401612ec1906146f6565b60405180910390fd5b5b505050565b6060612edf8484600085612ee8565b90509392505050565b606082471015612f2d576040517f08c379a0000000000000000000000000000000000000000000000000000000008152600401612f2490614788565b60405180910390fd5b612f3685612ffc565b612f75576040517f08c379a0000000000000000000000000000000000000000000000000000000008152600401612f6c906147f4565b60405180910390fd5b6000808673ffffffffffffffffffffffffffffffffffffffff168587604051612f9e9190614850565b60006040518083038185875af1925050503d8060008114612fdb576040519150601f19603f3d011682016040523d82523d6000602084013e612fe0565b606091505b5091509150612ff082828661301f565b92505050949350505050565b6000808273ffffffffffffffffffffffffffffffffffffffff163b119050919050565b6060831561302f5782905061307f565b6000835111156130425782518084602001fd5b816040517f08c379a00000000000000000000000000000000000000000000000000000000081526004016130769190614867565b60405180910390fd5b9392505050565b604051806060016040528060608152602001600073ffffffffffffffffffffffffffffffffffffffff168152602001600081525090565b6040518060600160405280600015158152602001600015158152602001600073ffffffffffffffffffffffffffffffffffffffff1681525090565b600073ffffffffffffffffffffffffffffffffffffffff82169050919050565b6000613123826130f8565b9050919050565b61313381613118565b82525050565b600060208201905061314e600083018461312a565b92915050565b6000819050919050565b61316781613154565b82525050565b6000602082019050613182600083018461315e565b92915050565b6000604051905090565b600080fd5b600080fd5b6131a581613118565b81146131b057600080fd5b50565b6000813590506131c28161319c565b92915050565b6000602082840312156131de576131dd613192565b5b60006131ec848285016131b3565b91505092915050565b6131fe81613154565b811461320957600080fd5b50565b60008135905061321b816131f5565b92915050565b60006020828403121561323757613236613192565b5b60006132458482850161320c565b91505092915050565b600081519050919050565b600082825260208201905092915050565b60005b8381101561328857808201518184015260208101905061326d565b83811115613297576000848401525b50505050565b6000601f19601f8301169050919050565b60006132b98261324e565b6132c38185613259565b93506132d381856020860161326a565b6132dc8161329d565b840191505092915050565b6000606082019050818103600083015261330181866132ae565b9050613310602083018561312a565b61331d604083018461315e565b949350505050565b60008115159050919050565b61333a81613325565b82525050565b60006060820190506133556000830186613331565b6133626020830185613331565b61336f604083018461312a565b949350505050565b6000613382826130f8565b9050919050565b61339281613377565b82525050565b60006020820190506133ad6000830184613389565b92915050565b600082825260208201905092915050565b60006133cf8261324e565b6133d981856133b3565b93506133e981856020860161326a565b6133f28161329d565b840191505092915050565b61340681613118565b82525050565b61341581613154565b82525050565b6000606083016000830151848203600086015261343882826133c4565b915050602083015161344d60208601826133fd565b506040830151613460604086018261340c565b508091505092915050565b60006020820190508181036000830152613485818461341b565b905092915050565b600080604083850312156134a4576134a3613192565b5b60006134b2858286016131b3565b92505060206134c38582860161320c565b9150509250929050565b6134d681613325565b81146134e157600080fd5b50565b6000813590506134f3816134cd565b92915050565b60008060006060848603121561351257613511613192565b5b6000613520868287016131b3565b9350506020613531868287016134e4565b9250506040613542868287016131b3565b9150509250925092565b600061ffff82169050919050565b6135638161354c565b82525050565b600060208201905061357e600083018461355a565b92915050565b600080fd5b600080fd5b7f4e487b7100000000000000000000000000000000000000000000000000000000600052604160045260246000fd5b6135c68261329d565b810181811067ffffffffffffffff821117156135e5576135e461358e565b5b80604052505050565b60006135f8613188565b905061360482826135bd565b919050565b600067ffffffffffffffff8211156136245761362361358e565b5b61362d8261329d565b9050602081019050919050565b82818337600083830152505050565b600061365c61365784613609565b6135ee565b90508281526020810184848401111561367857613677613589565b5b61368384828561363a565b509392505050565b600082601f8301126136a05761369f613584565b5b81356136b0848260208601613649565b91505092915050565b6000602082840312156136cf576136ce613192565b5b600082013567ffffffffffffffff8111156136ed576136ec613197565b5b6136f98482850161368b565b91505092915050565b61370b81613325565b82525050565b6060820160008201516137276000850182613702565b50602082015161373a6020850182613702565b50604082015161374d60408501826133fd565b50505050565b60006060820190506137686000830184613711565b92915050565b7f4f776e61626c653a2063616c6c6572206973206e6f7420746865206f776e6572600082015250565b60006137a4602083613259565b91506137af8261376e565b602082019050919050565b600060208201905081810360008301526137d381613797565b9050919050565b7f536163726966696365206e6f7420737570706f72746564000000000000000000600082015250565b6000613810601783613259565b915061381b826137da565b602082019050919050565b6000602082019050818103600083015261383f81613803565b9050919050565b7f4e487b7100000000000000000000000000000000000000000000000000000000600052602260045260246000fd5b6000600282049050600182168061388d57607f821691505b6020821081036138a05761389f613846565b5b50919050565b7f43616e6e6f742075706461746520616674657220726f756e642073746172746560008201527f6400000000000000000000000000000000000000000000000000000000000000602082015250565b6000613902602183613259565b915061390d826138a6565b604082019050919050565b60006020820190508181036000830152613931816138f5565b9050919050565b7f4e487b7100000000000000000000000000000000000000000000000000000000600052601160045260246000fd5b600061397282613154565b915061397d83613154565b9250827fffffffffffffffffffffffffffffffffffffffffffffffffffffffffffffffff038211156139b2576139b1613938565b5b828201905092915050565b7f466972737420726f756e64206e6f742073746172746564206f7220656e646564600082015250565b60006139f3602083613259565b91506139fe826139bd565b602082019050919050565b60006020820190508181036000830152613a22816139e6565b9050919050565b7f526f756e6473207765726520616c726561647920737461727465640000000000600082015250565b6000613a5f601b83613259565b9150613a6a82613a29565b602082019050919050565b60006020820190508181036000830152613a8e81613a52565b9050919050565b7f43616e6e6f74206265206c657373207468616e207a65726f0000000000000000600082015250565b6000613acb601883613259565b9150613ad682613a95565b602082019050919050565b60006020820190508181036000830152613afa81613abe565b9050919050565b7f43616e6e6f7420626520636f6e74726163742e00000000000000000000000000600082015250565b6000613b37601383613259565b9150613b4282613b01565b602082019050919050565b60006020820190508181036000830152613b6681613b2a565b9050919050565b7f5265656e7472616e637947756172643a207265656e7472616e742063616c6c00600082015250565b6000613ba3601f83613259565b9150613bae82613b6d565b602082019050919050565b60006020820190508181036000830152613bd281613b96565b9050919050565b7f416d6f756e742063616e6e6f74206265206c657373207468616e207a65726f00600082015250565b6000613c0f601f83613259565b9150613c1a82613bd9565b602082019050919050565b60006020820190508181036000830152613c3e81613c02565b9050919050565b6000613c5082613154565b9150613c5b83613154565b9250817fffffffffffffffffffffffffffffffffffffffffffffffffffffffffffffffff0483118215151615613c9457613c93613938565b5b828202905092915050565b7f4e487b7100000000000000000000000000000000000000000000000000000000600052601260045260246000fd5b6000613cd982613154565b9150613ce483613154565b925082613cf457613cf3613c9f565b5b828204905092915050565b7f526f756e6420656e646564206f72206e6f742073746172746564207965740000600082015250565b6000613d35601e83613259565b9150613d4082613cff565b602082019050919050565b60006020820190508181036000830152613d6481613d28565b9050919050565b6000604082019050613d80600083018561315e565b613d8d602083018461315e565b9392505050565b7f53616372696669636520697320616c726561647920737570706f727465640000600082015250565b6000613dca601e83613259565b9150613dd582613d94565b602082019050919050565b60006020820190508181036000830152613df981613dbd565b9050919050565b600081519050613e0f8161319c565b92915050565b600060208284031215613e2b57613e2a613192565b5b6000613e3984828501613e00565b91505092915050565b600060ff82169050919050565b613e5881613e42565b8114613e6357600080fd5b50565b600081519050613e7581613e4f565b92915050565b600060208284031215613e9157613e90613192565b5b6000613e9f84828501613e66565b91505092915050565b7f496e76616c6964206c7000000000000000000000000000000000000000000000600082015250565b6000613ede600a83613259565b9150613ee982613ea8565b602082019050919050565b60006020820190508181036000830152613f0d81613ed1565b9050919050565b7f496e76616c696420646563696d616c0000000000000000000000000000000000600082015250565b6000613f4a600f83613259565b9150613f5582613f14565b602082019050919050565b60006020820190508181036000830152613f7981613f3d565b9050919050565b7f5573657220646f6573206e6f7420657869737400000000000000000000000000600082015250565b6000613fb6601383613259565b9150613fc182613f80565b602082019050919050565b60006020820190508181036000830152613fe581613fa9565b9050919050565b60008190508160005260206000209050919050565b60006020601f8301049050919050565b600082821b905092915050565b60006008830261404e7fffffffffffffffffffffffffffffffffffffffffffffffffffffffffffffffff82614011565b6140588683614011565b95508019841693508086168417925050509392505050565b6000819050919050565b600061409561409061408b84613154565b614070565b613154565b9050919050565b6000819050919050565b6140af8361407a565b6140c36140bb8261409c565b84845461401e565b825550505050565b600090565b6140d86140cb565b6140e38184846140a6565b505050565b5b81811015614107576140fc6000826140d0565b6001810190506140e9565b5050565b601f82111561414c5761411d81613fec565b61412684614001565b81016020851015614135578190505b61414961414185614001565b8301826140e8565b50505b505050565b600082821c905092915050565b600061416f60001984600802614151565b1980831691505092915050565b6000614188838361415e565b9150826002028217905092915050565b6141a18261324e565b67ffffffffffffffff8111156141ba576141b961358e565b5b6141c48254613875565b6141cf82828561410b565b600060209050601f83116001811461420257600084156141f0578287015190505b6141fa858261417c565b865550614262565b601f19841661421086613fec565b60005b8281101561423857848901518255600182019150602085019450602081019050614213565b868310156142555784890151614251601f89168261415e565b8355505b6001600288020188555050505b505050505050565b7f4f776e61626c653a206e6577206f776e657220697320746865207a65726f206160008201527f6464726573730000000000000000000000000000000000000000000000000000602082015250565b60006142c6602683613259565b91506142d18261426a565b604082019050919050565b600060208201905081810360008301526142f5816142b9565b9050919050565b60006dffffffffffffffffffffffffffff82169050919050565b61431f816142fc565b811461432a57600080fd5b50565b60008151905061433c81614316565b92915050565b600063ffffffff82169050919050565b61435b81614342565b811461436657600080fd5b50565b60008151905061437881614352565b92915050565b60008060006060848603121561439757614396613192565b5b60006143a58682870161432d565b93505060206143b68682870161432d565b92505060406143c786828701614369565b9150509250925092565b60006060820190506143e6600083018661312a565b6143f3602083018561312a565b614400604083018461315e565b949350505050565b600081519050614417816131f5565b92915050565b60006020828403121561443357614432613192565b5b600061444184828501614408565b91505092915050565b7f54574150205072696365204572726f7200000000000000000000000000000000600082015250565b6000614480601083613259565b915061448b8261444a565b602082019050919050565b600060208201905081810360008301526144af81614473565b9050919050565b60006144c182613154565b91507fffffffffffffffffffffffffffffffffffffffffffffffffffffffffffffffff82036144f3576144f2613938565b5b600182019050919050565b7f416464726573733a20696e73756666696369656e742062616c616e6365000000600082015250565b6000614534601d83613259565b915061453f826144fe565b602082019050919050565b6000602082019050818103600083015261456381614527565b9050919050565b600081905092915050565b50565b600061458560008361456a565b915061459082614575565b600082019050919050565b60006145a682614578565b9150819050919050565b7f416464726573733a20756e61626c6520746f2073656e642076616c75652c207260008201527f6563697069656e74206d61792068617665207265766572746564000000000000602082015250565b600061460c603a83613259565b9150614617826145b0565b604082019050919050565b6000602082019050818103600083015261463b816145ff565b9050919050565b600081519050614651816134cd565b92915050565b60006020828403121561466d5761466c613192565b5b600061467b84828501614642565b91505092915050565b7f5361666545524332303a204552433230206f7065726174696f6e20646964206e60008201527f6f74207375636365656400000000000000000000000000000000000000000000602082015250565b60006146e0602a83613259565b91506146eb82614684565b604082019050919050565b6000602082019050818103600083015261470f816146d3565b9050919050565b7f416464726573733a20696e73756666696369656e742062616c616e636520666f60008201527f722063616c6c0000000000000000000000000000000000000000000000000000602082015250565b6000614772602683613259565b915061477d82614716565b604082019050919050565b600060208201905081810360008301526147a181614765565b9050919050565b7f416464726573733a2063616c6c20746f206e6f6e2d636f6e7472616374000000600082015250565b60006147de601d83613259565b91506147e9826147a8565b602082019050919050565b6000602082019050818103600083015261480d816147d1565b9050919050565b600081519050919050565b600061482a82614814565b614834818561456a565b935061484481856020860161326a565b80840191505092915050565b600061485c828461481f565b915081905092915050565b6000602082019050818103600083015261488181846132ae565b90509291505056fea26469706673582212208d9a541700b49ccdccba41d0f85bf327c77be826a143a4583b1d295bd24e4fe464736f6c634300080f0033",
  "immutableReferences": {
    "1954": [
      {
        "length": 32,
        "start": 3217
      },
      {
        "length": 32,
        "start": 4785
      },
      {
        "length": 32,
        "start": 5958
      }
    ],
    "1956": [
      {
        "length": 32,
        "start": 4145
      },
      {
        "length": 32,
        "start": 4365
      },
      {
        "length": 32,
        "start": 4402
      },
      {
        "length": 32,
        "start": 4854
      },
      {
        "length": 32,
        "start": 7356
      }
    ]
  },
  "source": "// SPDX-License-Identifier: UNLICENSED\r\npragma solidity >=0.8.9;\r\n\r\nimport \"@openzeppelin/contracts/access/Ownable.sol\";\r\nimport \"@openzeppelin/contracts/security/ReentrancyGuard.sol\";\r\nimport \"@openzeppelin/contracts/token/ERC20/IERC20.sol\";\r\nimport \"@openzeppelin/contracts/token/ERC20/extensions/IERC20Metadata.sol\";\r\nimport \"@openzeppelin/contracts/token/ERC20/utils/SafeERC20.sol\";\r\nimport \"@openzeppelin/contracts/utils/Address.sol\";\r\n\r\ninterface IOraclePair {\r\n    function token0() external view returns (address);\r\n\r\n    function token1() external view returns (address);\r\n\r\n    function getReserves()\r\n        external\r\n        view\r\n        returns (\r\n            uint112 reserve0,\r\n            uint112 reserve1,\r\n            uint32 blockTimestampLast\r\n        );\r\n}\r\n\r\ninterface IOracleTwap {\r\n    function consultAveragePrice(\r\n        address _pair,\r\n        address _token,\r\n        uint256 _amountIn\r\n    ) external view returns (uint256 _amountOut);\r\n\r\n    function updateAveragePrice(address _pair) external;\r\n}\r\n\r\ncontract HmineSacrifice is Ownable, ReentrancyGuard {\r\n    using Address for address payable;\r\n    using SafeERC20 for IERC20;\r\n\r\n    struct Sacrifice {\r\n        bool isEnabled;\r\n        bool isStable;\r\n        address oracleAddress;\r\n    }\r\n\r\n    struct User {\r\n        string nickname;\r\n        address user;\r\n        uint256 amount;\r\n    }\r\n\r\n    mapping(address => Sacrifice) public sacrifices;\r\n    uint256 public startRoundOne = 0;\r\n    uint256 public startRoundTwo = 0;\r\n    uint256 constant roundPeriod = 48 hours;\r\n    uint256 public hminePerRound = 50000e18; // Hmine per round is 50K\r\n    uint256 public roundOneHmine;\r\n    uint256 public roundTwoHmine;\r\n    uint256 constant initPrice = 600; // The price is dvisible by 100.  So in this case 600 is actually $6.00\r\n    uint256 public index = 0;\r\n    mapping(address => uint256) userIndex;\r\n    mapping(uint256 => User) public users;\r\n    address payable public immutable sacrificesTo;\r\n    address public immutable wbnb;\r\n    address public twap;\r\n    uint256 public twapMax = 30;\r\n\r\n    constructor(\r\n        address payable _sacTo,\r\n        address _wbnb,\r\n        address _bnbLP,\r\n        address _twap\r\n    ) {\r\n        sacrificesTo = _sacTo;\r\n        wbnb = _wbnb;\r\n        twap = _twap;\r\n        _addSac(_wbnb, false, _bnbLP);\r\n    }\r\n\r\n    function getSacrificeInfo(address _token)\r\n        external\r\n        view\r\n        returns (Sacrifice memory)\r\n    {\r\n        return sacrifices[_token];\r\n    }\r\n\r\n    // Returns the users data by address lookup.\r\n    function getUserByAddress(address _user)\r\n        external\r\n        view\r\n        returns (User memory)\r\n    {\r\n        uint256 _index = userIndex[_user];\r\n        return users[_index];\r\n    }\r\n\r\n    // Returns the users data by Index.\r\n    function getUserByIndex(uint256 _index)\r\n        external\r\n        view\r\n        returns (User memory)\r\n    {\r\n        return users[_index];\r\n    }\r\n\r\n    // Returns the current round.\r\n    function getCurrentRound() external view returns (uint16) {\r\n        return _getCurrentRound();\r\n    }\r\n\r\n    function _getCurrentRound() internal view returns (uint16) {\r\n        if (startRoundTwo != 0 && block.timestamp <= startRoundTwo + roundPeriod && block.timestamp > startRoundTwo) return 2;\r\n        if (startRoundOne != 0 && block.timestamp <= startRoundOne + roundPeriod && block.timestamp >= startRoundOne) return 1;\r\n        return 0;\r\n    }\r\n\r\n    function updateNickname(string memory nickname) external {\r\n        uint256 _index = userIndex[msg.sender];\r\n        require(index != 0, \"User does not exist\");\r\n        users[_index].nickname = nickname;\r\n    }\r\n\r\n    function addToRoundTotal(uint256 _amount) internal {\r\n        if(_getCurrentRound() == 2){\r\n            roundTwoHmine += _amount;\r\n        }\r\n        else {\r\n            roundOneHmine += _amount;\r\n        }\r\n    }\r\n\r\n    function sacrificeERC20(address _token, uint256 _amount)\r\n        external\r\n        nonReentrant\r\n    {\r\n        require(hasSacrifice(_token), \"Sacrifice not supported\");\r\n        require(_amount > 0, \"Amount cannot be less than zero\");\r\n\r\n        uint256 price = initPrice;\r\n        if (\r\n            _getCurrentRound() == 2\r\n        ) {\r\n            price = initPrice + 50;\r\n        }\r\n\r\n        uint256 _hmineAmount;\r\n        if (sacrifices[_token].isStable) {\r\n            _hmineAmount = (_amount * 100) / price;\r\n        } else {\r\n            _hmineAmount =\r\n                (getAmountInStable(\r\n                    _token,\r\n                    sacrifices[_token].oracleAddress,\r\n                    _amount\r\n                ) * 100) /\r\n                price;\r\n        }\r\n\r\n        require(validateRound(_hmineAmount), \"Round ended or not started yet\");\r\n\r\n        uint256 _index = assignUserIndex(msg.sender);\r\n        users[_index].user = msg.sender;\r\n        users[_index].amount += _hmineAmount;\r\n        addToRoundTotal(_hmineAmount);\r\n        IERC20(_token).safeTransferFrom(msg.sender, sacrificesTo, _amount);\r\n\r\n        emit UserSacrifice(msg.sender, _token, _amount, _hmineAmount);\r\n    }\r\n\r\n    function sacrificeBNB() external payable nonReentrant {\r\n        uint256 _amount = msg.value;\r\n        require(hasSacrifice(wbnb), \"Sacrifice not supported\");\r\n        require(_amount > 0, \"Amount cannot be less than zero\");\r\n\r\n        uint256 price = initPrice;\r\n        if (\r\n            _getCurrentRound() == 2\r\n        ) {\r\n            price = initPrice + 50;\r\n        }\r\n\r\n        uint256 _hmineAmount = (getAmountInStable(\r\n            wbnb,\r\n            sacrifices[wbnb].oracleAddress,\r\n            _amount\r\n        ) * 100) / price;\r\n\r\n        require(validateRound(_hmineAmount), \"Round ended or not started yet\");\r\n\r\n        uint256 _index = assignUserIndex(msg.sender);\r\n        users[_index].user = msg.sender;\r\n        users[_index].amount += _hmineAmount;\r\n        addToRoundTotal(_hmineAmount);\r\n        sacrificesTo.sendValue(_amount);\r\n\r\n        emit UserSacrifice(msg.sender, wbnb, _amount, _hmineAmount);\r\n    }\r\n\r\n    function updateRoundMax(uint256 _max) external onlyOwner {\r\n        require(startRoundOne == 0 && startRoundTwo == 0, \"Cannot update after round started\");\r\n        hminePerRound = _max;\r\n    }\r\n\r\n    function updateTwap(address _twap) external onlyOwner {\r\n        require(address(0) != _twap, \"Cannot be contract.\");\r\n        twap = _twap;\r\n    }\r\n\r\n    function updateTwapMax(uint256 _twapMax) external onlyOwner {\r\n        require(_twapMax > 0, \"Cannot be less than zero\");\r\n        twapMax = _twapMax;\r\n    }\r\n\r\n    function startFirstRound(uint256 _time) external onlyOwner {\r\n        require(\r\n            startRoundOne > block.timestamp || startRoundOne == 0,\r\n            \"Rounds were already started\"\r\n        );\r\n        startRoundOne = _time;\r\n    }\r\n\r\n    function startSecondRound(uint256 _time) external onlyOwner {\r\n        require(_time > startRoundOne + roundPeriod && startRoundOne != 0, \"First round not started or ended\");\r\n        require(\r\n            startRoundTwo > block.timestamp || startRoundTwo == 0,\r\n            \"Rounds were already started\"\r\n        );\r\n        startRoundTwo = _time;\r\n    }\r\n\r\n    function addSacToken(\r\n        address _token,\r\n        bool _isStable,\r\n        address _lpAddress\r\n    ) external onlyOwner {\r\n        require(address(0) != _token, \"Cannot be contract.\");\r\n        require(!hasSacrifice(_token), \"Sacrifice is already supported\");\r\n\r\n        if (address(0) != _lpAddress) {\r\n            address _token0 = IOraclePair(_lpAddress).token0();\r\n            address _token1 = IOraclePair(_lpAddress).token1();\r\n            require(\r\n                (_token == _token0 || _token == _token1) &&\r\n                    IERC20Metadata(_token0).decimals() == 18 &&\r\n                    IERC20Metadata(_token1).decimals() == 18,\r\n                \"Invalid lp\"\r\n            );\r\n        } else {\r\n            require(IERC20Metadata(_token).decimals() == 18, \"Invalid decimal\");\r\n        }\r\n\r\n        _addSac(_token, _isStable, _lpAddress);\r\n    }\r\n\r\n    function updateSacrifice(\r\n        address _token,\r\n        bool _isStable,\r\n        address _lpAddress\r\n    ) public onlyOwner {\r\n        require(hasSacrifice(_token), \"Sacrifice not supported\");\r\n        address _token0 = IOraclePair(_lpAddress).token0();\r\n        address _token1 = IOraclePair(_lpAddress).token1();\r\n        require(\r\n            (_token == _token0 || _token == _token1) &&\r\n                IERC20Metadata(_token0).decimals() == 18 &&\r\n                IERC20Metadata(_token1).decimals() == 18,\r\n            \"Invalid lp\"\r\n        );\r\n        sacrifices[_token].isStable = _isStable;\r\n        sacrifices[_token].oracleAddress = _lpAddress;\r\n    }\r\n\r\n    function removeSacrifice(address _token) external onlyOwner {\r\n        require(hasSacrifice(_token), \"Sacrifice not supported\");\r\n        delete sacrifices[_token];\r\n    }\r\n\r\n    // Checks if token is a supported asset to sacrifice.\r\n    function hasSacrifice(address _token) internal view returns (bool) {\r\n        return sacrifices[_token].isEnabled;\r\n    }\r\n\r\n    function _addSac(\r\n        address _token,\r\n        bool _isStable,\r\n        address _lpAddress\r\n    ) internal {\r\n        sacrifices[_token] = Sacrifice(true, _isStable, _lpAddress);\r\n    }\r\n\r\n    // Takes in a user address and finds an existing index that is corelated to the user.\r\n    // If index not found (ZERO) then it assigns an index to the user.\r\n    function assignUserIndex(address _user) internal returns (uint256) {\r\n        if (userIndex[_user] == 0) userIndex[_user] = ++index;\r\n        return userIndex[_user];\r\n    }\r\n\r\n    // If token is not a stable token, use this to find the price for the token.\r\n    // This uses an active LP approach.\r\n    function getAmountInStable(\r\n        address _token,\r\n        address _lp,\r\n        uint256 _amount\r\n    ) internal returns (uint256 _price) {\r\n        IOraclePair LP = IOraclePair(_lp);\r\n        (uint256 reserve0, uint256 reserve1, ) = LP.getReserves();\r\n        address token0 = LP.token0();\r\n        if (token0 == _token) {\r\n            _price = (reserve1 * _amount) / reserve0;\r\n        } else {\r\n            _price = (reserve0 * _amount) / reserve1;\r\n        }\r\n\r\n        // twap protection\r\n        IOracleTwap(twap).updateAveragePrice(_lp);\r\n        uint256 twapPrice = IOracleTwap(twap).consultAveragePrice(\r\n            _lp,\r\n            _token,\r\n            _amount\r\n        );\r\n        require(\r\n            _price < (twapPrice * (1000 + twapMax)) / 1000,\r\n            \"TWAP Price Error\"\r\n        );\r\n    }\r\n\r\n    /* Check to make sure that conditions are met for the transaction to go through.\r\n     ** Cannot start sacrifice unless startTime has been specified.\r\n     ** Cannot sacrifice for anymore if 50K HMINE met before round 1 ends.\r\n     ** Cannot sacrifice if 100K HMINE met or round2 ends.\r\n     */\r\n    function validateRound(uint256 _hmineAmount) internal view returns (bool) {\r\n        // Rounds have not started yet or have already ended.\r\n        if (_getCurrentRound() == 0) return false;\r\n\r\n        //  Round one started but not ended yet\r\n        if (\r\n            _getCurrentRound() == 1\r\n        ) {\r\n            if(roundOneHmine + _hmineAmount > hminePerRound) return false;\r\n        }\r\n\r\n        // Round two started but not ended\r\n        if (\r\n            _getCurrentRound() == 2\r\n        ) {\r\n            if(roundTwoHmine + _hmineAmount > hminePerRound) return false;\r\n        }\r\n\r\n        return true;\r\n    }\r\n\r\n    event UserSacrifice(\r\n        address indexed _user,\r\n        address indexed _token,\r\n        uint256 _amount,\r\n        uint256 _hmineAmount\r\n    );\r\n}",
  "sourcePath": "C:/GitHub/hypermine-sacrifice/contracts/HmineSacrifice.sol",
  "compiler": {
    "name": "solc",
    "version": "0.8.15+commit.e14f2714.Emscripten.clang"
  },
  "schemaVersion": "3.4.1",
  "updatedAt": "2022-07-04T04:49:03.913Z",
  "devdoc": {
    "kind": "dev",
    "methods": {
      "owner()": {
        "details": "Returns the address of the current owner."
      },
      "renounceOwnership()": {
        "details": "Leaves the contract without owner. It will not be possible to call `onlyOwner` functions anymore. Can only be called by the current owner. NOTE: Renouncing ownership will leave the contract without an owner, thereby removing any functionality that is only available to the owner."
      },
      "transferOwnership(address)": {
        "details": "Transfers ownership of the contract to a new account (`newOwner`). Can only be called by the current owner."
      }
    },
    "version": 1
  },
  "userdoc": {
    "kind": "user",
    "methods": {},
    "version": 1
  }
}