{
  "contractName": "HmineSacrifice",
  "abi": [
    {
      "inputs": [
        {
          "internalType": "address payable",
          "name": "_sacTo",
          "type": "address"
        },
        {
          "internalType": "address",
          "name": "_wbnb",
          "type": "address"
        },
        {
          "internalType": "address",
          "name": "_bnbLP",
          "type": "address"
        },
        {
          "internalType": "address",
          "name": "_twap",
          "type": "address"
        }
      ],
      "stateMutability": "nonpayable",
      "type": "constructor"
    },
    {
      "anonymous": false,
      "inputs": [
        {
          "indexed": true,
          "internalType": "address",
          "name": "previousOwner",
          "type": "address"
        },
        {
          "indexed": true,
          "internalType": "address",
          "name": "newOwner",
          "type": "address"
        }
      ],
      "name": "OwnershipTransferred",
      "type": "event"
    },
    {
      "anonymous": false,
      "inputs": [
        {
          "indexed": true,
          "internalType": "address",
          "name": "_user",
          "type": "address"
        },
        {
          "indexed": true,
          "internalType": "address",
          "name": "_token",
          "type": "address"
        },
        {
          "indexed": false,
          "internalType": "uint256",
          "name": "_amount",
          "type": "uint256"
        },
        {
          "indexed": false,
          "internalType": "uint256",
          "name": "_hmineAmount",
          "type": "uint256"
        }
      ],
      "name": "UserSacrifice",
      "type": "event"
    },
    {
      "inputs": [],
      "name": "hminePerRound",
      "outputs": [
        {
          "internalType": "uint256",
          "name": "",
          "type": "uint256"
        }
      ],
      "stateMutability": "view",
      "type": "function"
    },
    {
      "inputs": [],
      "name": "index",
      "outputs": [
        {
          "internalType": "uint256",
          "name": "",
          "type": "uint256"
        }
      ],
      "stateMutability": "view",
      "type": "function"
    },
    {
      "inputs": [],
      "name": "owner",
      "outputs": [
        {
          "internalType": "address",
          "name": "",
          "type": "address"
        }
      ],
      "stateMutability": "view",
      "type": "function"
    },
    {
      "inputs": [],
      "name": "renounceOwnership",
      "outputs": [],
      "stateMutability": "nonpayable",
      "type": "function"
    },
    {
      "inputs": [
        {
          "internalType": "address",
          "name": "",
          "type": "address"
        }
      ],
      "name": "sacrifices",
      "outputs": [
        {
          "internalType": "bool",
          "name": "isEnabled",
          "type": "bool"
        },
        {
          "internalType": "bool",
          "name": "isStable",
          "type": "bool"
        },
        {
          "internalType": "address",
          "name": "oracleAddress",
          "type": "address"
        }
      ],
      "stateMutability": "view",
      "type": "function"
    },
    {
      "inputs": [],
      "name": "sacrificesTo",
      "outputs": [
        {
          "internalType": "address payable",
          "name": "",
          "type": "address"
        }
      ],
      "stateMutability": "view",
      "type": "function"
    },
    {
      "inputs": [],
      "name": "startTime",
      "outputs": [
        {
          "internalType": "uint256",
          "name": "",
          "type": "uint256"
        }
      ],
      "stateMutability": "view",
      "type": "function"
    },
    {
      "inputs": [],
      "name": "totalHmine",
      "outputs": [
        {
          "internalType": "uint256",
          "name": "",
          "type": "uint256"
        }
      ],
      "stateMutability": "view",
      "type": "function"
    },
    {
      "inputs": [
        {
          "internalType": "address",
          "name": "newOwner",
          "type": "address"
        }
      ],
      "name": "transferOwnership",
      "outputs": [],
      "stateMutability": "nonpayable",
      "type": "function"
    },
    {
      "inputs": [],
      "name": "twap",
      "outputs": [
        {
          "internalType": "address",
          "name": "",
          "type": "address"
        }
      ],
      "stateMutability": "view",
      "type": "function"
    },
    {
      "inputs": [],
      "name": "twapMax",
      "outputs": [
        {
          "internalType": "uint256",
          "name": "",
          "type": "uint256"
        }
      ],
      "stateMutability": "view",
      "type": "function"
    },
    {
      "inputs": [
        {
          "internalType": "uint256",
          "name": "",
          "type": "uint256"
        }
      ],
      "name": "users",
      "outputs": [
        {
          "internalType": "string",
          "name": "nickname",
          "type": "string"
        },
        {
          "internalType": "address",
          "name": "user",
          "type": "address"
        },
        {
          "internalType": "uint256",
          "name": "amount",
          "type": "uint256"
        }
      ],
      "stateMutability": "view",
      "type": "function"
    },
    {
      "inputs": [],
      "name": "wbnb",
      "outputs": [
        {
          "internalType": "address",
          "name": "",
          "type": "address"
        }
      ],
      "stateMutability": "view",
      "type": "function"
    },
    {
      "inputs": [
        {
          "internalType": "address",
          "name": "_token",
          "type": "address"
        }
      ],
      "name": "getSacrificeInfo",
      "outputs": [
        {
          "components": [
            {
              "internalType": "bool",
              "name": "isEnabled",
              "type": "bool"
            },
            {
              "internalType": "bool",
              "name": "isStable",
              "type": "bool"
            },
            {
              "internalType": "address",
              "name": "oracleAddress",
              "type": "address"
            }
          ],
          "internalType": "struct HmineSacrifice.Sacrifice",
          "name": "",
          "type": "tuple"
        }
      ],
      "stateMutability": "view",
      "type": "function"
    },
    {
      "inputs": [
        {
          "internalType": "address",
          "name": "_user",
          "type": "address"
        }
      ],
      "name": "getUserByAddress",
      "outputs": [
        {
          "components": [
            {
              "internalType": "string",
              "name": "nickname",
              "type": "string"
            },
            {
              "internalType": "address",
              "name": "user",
              "type": "address"
            },
            {
              "internalType": "uint256",
              "name": "amount",
              "type": "uint256"
            }
          ],
          "internalType": "struct HmineSacrifice.User",
          "name": "",
          "type": "tuple"
        }
      ],
      "stateMutability": "view",
      "type": "function"
    },
    {
      "inputs": [
        {
          "internalType": "uint256",
          "name": "_index",
          "type": "uint256"
        }
      ],
      "name": "getUserByIndex",
      "outputs": [
        {
          "components": [
            {
              "internalType": "string",
              "name": "nickname",
              "type": "string"
            },
            {
              "internalType": "address",
              "name": "user",
              "type": "address"
            },
            {
              "internalType": "uint256",
              "name": "amount",
              "type": "uint256"
            }
          ],
          "internalType": "struct HmineSacrifice.User",
          "name": "",
          "type": "tuple"
        }
      ],
      "stateMutability": "view",
      "type": "function"
    },
    {
      "inputs": [],
      "name": "getCurrentRound",
      "outputs": [
        {
          "internalType": "uint16",
          "name": "",
          "type": "uint16"
        }
      ],
      "stateMutability": "view",
      "type": "function"
    },
    {
      "inputs": [
        {
          "internalType": "string",
          "name": "nickname",
          "type": "string"
        }
      ],
      "name": "updateNickname",
      "outputs": [],
      "stateMutability": "nonpayable",
      "type": "function"
    },
    {
      "inputs": [
        {
          "internalType": "address",
          "name": "_token",
          "type": "address"
        },
        {
          "internalType": "uint256",
          "name": "_amount",
          "type": "uint256"
        }
      ],
      "name": "sacrificeERC20",
      "outputs": [],
      "stateMutability": "nonpayable",
      "type": "function"
    },
    {
      "inputs": [],
      "name": "sacrificeBNB",
      "outputs": [],
      "stateMutability": "payable",
      "type": "function"
    },
    {
      "inputs": [
        {
          "internalType": "uint256",
          "name": "_max",
          "type": "uint256"
        }
      ],
      "name": "updateRoundMax",
      "outputs": [],
      "stateMutability": "nonpayable",
      "type": "function"
    },
    {
      "inputs": [
        {
          "internalType": "address",
          "name": "_twap",
          "type": "address"
        }
      ],
      "name": "updateTwap",
      "outputs": [],
      "stateMutability": "nonpayable",
      "type": "function"
    },
    {
      "inputs": [
        {
          "internalType": "uint256",
          "name": "_twapMax",
          "type": "uint256"
        }
      ],
      "name": "updateTwapMax",
      "outputs": [],
      "stateMutability": "nonpayable",
      "type": "function"
    },
    {
      "inputs": [
        {
          "internalType": "uint256",
          "name": "_time",
          "type": "uint256"
        }
      ],
      "name": "startFirstRound",
      "outputs": [],
      "stateMutability": "nonpayable",
      "type": "function"
    },
    {
      "inputs": [
        {
          "internalType": "address",
          "name": "_token",
          "type": "address"
        },
        {
          "internalType": "bool",
          "name": "_isStable",
          "type": "bool"
        },
        {
          "internalType": "address",
          "name": "_lpAddress",
          "type": "address"
        }
      ],
      "name": "addSacToken",
      "outputs": [],
      "stateMutability": "nonpayable",
      "type": "function"
    },
    {
      "inputs": [
        {
          "internalType": "address",
          "name": "_token",
          "type": "address"
        },
        {
          "internalType": "bool",
          "name": "_isStable",
          "type": "bool"
        },
        {
          "internalType": "address",
          "name": "_lpAddress",
          "type": "address"
        }
      ],
      "name": "updateSacrifice",
      "outputs": [],
      "stateMutability": "nonpayable",
      "type": "function"
    },
    {
      "inputs": [
        {
          "internalType": "address",
          "name": "_token",
          "type": "address"
        }
      ],
      "name": "removeSacrifice",
      "outputs": [],
      "stateMutability": "nonpayable",
      "type": "function"
    }
  ],
  "bytecode": "0x60c06040526000600355690a968163f0a57b4000006004556000600655601e600a553480156200002e57600080fd5b5060405162004b0e38038062004b0e8339818101604052810190620000549190620003c1565b62000074620000686200014260201b60201c565b6200014a60201b60201c565b600180819055508373ffffffffffffffffffffffffffffffffffffffff1660808173ffffffffffffffffffffffffffffffffffffffff16815250508273ffffffffffffffffffffffffffffffffffffffff1660a08173ffffffffffffffffffffffffffffffffffffffff168152505080600960006101000a81548173ffffffffffffffffffffffffffffffffffffffff021916908373ffffffffffffffffffffffffffffffffffffffff16021790555062000138836000846200020e60201b60201c565b5050505062000433565b600033905090565b60008060009054906101000a900473ffffffffffffffffffffffffffffffffffffffff169050816000806101000a81548173ffffffffffffffffffffffffffffffffffffffff021916908373ffffffffffffffffffffffffffffffffffffffff1602179055508173ffffffffffffffffffffffffffffffffffffffff168173ffffffffffffffffffffffffffffffffffffffff167f8be0079c531659141344cd1fd0a4f28419497f9722a3daafe3b4186f6b6457e060405160405180910390a35050565b604051806060016040528060011515815260200183151581526020018273ffffffffffffffffffffffffffffffffffffffff16815250600260008573ffffffffffffffffffffffffffffffffffffffff1673ffffffffffffffffffffffffffffffffffffffff16815260200190815260200160002060008201518160000160006101000a81548160ff02191690831515021790555060208201518160000160016101000a81548160ff02191690831515021790555060408201518160000160026101000a81548173ffffffffffffffffffffffffffffffffffffffff021916908373ffffffffffffffffffffffffffffffffffffffff160217905550905050505050565b600080fd5b600073ffffffffffffffffffffffffffffffffffffffff82169050919050565b6000620003448262000317565b9050919050565b620003568162000337565b81146200036257600080fd5b50565b60008151905062000376816200034b565b92915050565b6000620003898262000317565b9050919050565b6200039b816200037c565b8114620003a757600080fd5b50565b600081519050620003bb8162000390565b92915050565b60008060008060808587031215620003de57620003dd62000312565b5b6000620003ee8782880162000365565b94505060206200040187828801620003aa565b93505060406200041487828801620003aa565b92505060606200042787828801620003aa565b91505092959194509250565b60805160a05161468b6200048360003960008181610e3501528181610f2501528181610f4a0152818161111e0152611b08015260008181610a95015281816110d90152611592015261468b6000f3fe60806040526004361061019c5760003560e01c806378e97925116100ec578063a2e9e3591161008a578063e60ec6ec11610064578063e60ec6ec14610571578063f012599d146105ae578063f2fde38b146105d9578063ff5d32fe146106025761019c565b8063a2e9e359146104f4578063a32bf5971461051d578063bd2e3b17146105485761019c565b80638a015c86116100c65780638a015c861461044c5780638ce3192d146104755780638d72647e1461049e5780638da5cb5b146104c95761019c565b806378e97925146103ee578063816d26b91461041957806385592de6146104235761019c565b8063417542c9116101595780635603e0de116101335780635603e0de1461034657806369c212f614610371578063715018a6146103ae578063725068a5146103c55761019c565b8063417542c9146102c757806350f10eab146102f257806351fd76c01461031b5761019c565b80631208aa18146101a15780632986c0e5146101cc5780632c3f4e9a146101f7578063365b98b214610220578063413447cc1461025f578063413a78881461029e575b600080fd5b3480156101ad57600080fd5b506101b661063f565b6040516101c39190612f71565b60405180910390f35b3480156101d857600080fd5b506101e1610665565b6040516101ee9190612fa5565b60405180910390f35b34801561020357600080fd5b5061021e60048036038101906102199190613000565b61066b565b005b34801561022c57600080fd5b5061024760048036038101906102429190613059565b6107c3565b6040516102569392919061311f565b60405180910390f35b34801561026b57600080fd5b5061028660048036038101906102819190613000565b610895565b60405161029593929190613178565b60405180910390f35b3480156102aa57600080fd5b506102c560048036038101906102c09190613059565b6108f9565b005b3480156102d357600080fd5b506102dc6109c4565b6040516102e99190612fa5565b60405180910390f35b3480156102fe57600080fd5b5061031960048036038101906103149190613059565b6109ca565b005b34801561032757600080fd5b50610330610a93565b60405161033d91906131d0565b60405180910390f35b34801561035257600080fd5b5061035b610ab7565b6040516103689190612fa5565b60405180910390f35b34801561037d57600080fd5b5061039860048036038101906103939190613000565b610abd565b6040516103a591906132a3565b60405180910390f35b3480156103ba57600080fd5b506103c3610c21565b005b3480156103d157600080fd5b506103ec60048036038101906103e79190613000565b610ca9565b005b3480156103fa57600080fd5b50610403610dd8565b6040516104109190612fa5565b60405180910390f35b610421610dde565b005b34801561042f57600080fd5b5061044a60048036038101906104459190613059565b6111b0565b005b34801561045857600080fd5b50610473600480360381019061046e91906132c5565b611287565b005b34801561048157600080fd5b5061049c60048036038101906104979190613331565b61164e565b005b3480156104aa57600080fd5b506104b3611b06565b6040516104c09190612f71565b60405180910390f35b3480156104d557600080fd5b506104de611b2a565b6040516104eb9190612f71565b60405180910390f35b34801561050057600080fd5b5061051b60048036038101906105169190613331565b611b53565b005b34801561052957600080fd5b50610532611fec565b60405161053f91906133a1565b60405180910390f35b34801561055457600080fd5b5061056f600480360381019061056a91906134f1565b612028565b005b34801561057d57600080fd5b5061059860048036038101906105939190613000565b6120d9565b6040516105a5919061358b565b60405180910390f35b3480156105ba57600080fd5b506105c36121be565b6040516105d09190612fa5565b60405180910390f35b3480156105e557600080fd5b5061060060048036038101906105fb9190613000565b6121c4565b005b34801561060e57600080fd5b5061062960048036038101906106249190613059565b6122bb565b60405161063691906132a3565b60405180910390f35b600960009054906101000a900473ffffffffffffffffffffffffffffffffffffffff1681565b60065481565b6106736123da565b73ffffffffffffffffffffffffffffffffffffffff16610691611b2a565b73ffffffffffffffffffffffffffffffffffffffff16146106e7576040517f08c379a00000000000000000000000000000000000000000000000000000000081526004016106de906135f2565b60405180910390fd5b6106f0816123e2565b61072f576040517f08c379a00000000000000000000000000000000000000000000000000000000081526004016107269061365e565b60405180910390fd5b600260008273ffffffffffffffffffffffffffffffffffffffff1673ffffffffffffffffffffffffffffffffffffffff168152602001908152602001600020600080820160006101000a81549060ff02191690556000820160016101000a81549060ff02191690556000820160026101000a81549073ffffffffffffffffffffffffffffffffffffffff0219169055505050565b60086020528060005260406000206000915090508060000180546107e6906136ad565b80601f0160208091040260200160405190810160405280929190818152602001828054610812906136ad565b801561085f5780601f106108345761010080835404028352916020019161085f565b820191906000526020600020905b81548152906001019060200180831161084257829003601f168201915b5050505050908060010160009054906101000a900473ffffffffffffffffffffffffffffffffffffffff16908060020154905083565b60026020528060005260406000206000915090508060000160009054906101000a900460ff16908060000160019054906101000a900460ff16908060000160029054906101000a900473ffffffffffffffffffffffffffffffffffffffff16905083565b6109016123da565b73ffffffffffffffffffffffffffffffffffffffff1661091f611b2a565b73ffffffffffffffffffffffffffffffffffffffff1614610975576040517f08c379a000000000000000000000000000000000000000000000000000000000815260040161096c906135f2565b60405180910390fd5b6000600354146109ba576040517f08c379a00000000000000000000000000000000000000000000000000000000081526004016109b190613750565b60405180910390fd5b8060048190555050565b60045481565b6109d26123da565b73ffffffffffffffffffffffffffffffffffffffff166109f0611b2a565b73ffffffffffffffffffffffffffffffffffffffff1614610a46576040517f08c379a0000000000000000000000000000000000000000000000000000000008152600401610a3d906135f2565b60405180910390fd5b60008111610a89576040517f08c379a0000000000000000000000000000000000000000000000000000000008152600401610a80906137bc565b60405180910390fd5b80600a8190555050565b7f000000000000000000000000000000000000000000000000000000000000000081565b60055481565b610ac5612ebe565b6000600760008473ffffffffffffffffffffffffffffffffffffffff1673ffffffffffffffffffffffffffffffffffffffff16815260200190815260200160002054905060086000828152602001908152602001600020604051806060016040529081600082018054610b37906136ad565b80601f0160208091040260200160405190810160405280929190818152602001828054610b63906136ad565b8015610bb05780601f10610b8557610100808354040283529160200191610bb0565b820191906000526020600020905b815481529060010190602001808311610b9357829003601f168201915b505050505081526020016001820160009054906101000a900473ffffffffffffffffffffffffffffffffffffffff1673ffffffffffffffffffffffffffffffffffffffff1673ffffffffffffffffffffffffffffffffffffffff168152602001600282015481525050915050919050565b610c296123da565b73ffffffffffffffffffffffffffffffffffffffff16610c47611b2a565b73ffffffffffffffffffffffffffffffffffffffff1614610c9d576040517f08c379a0000000000000000000000000000000000000000000000000000000008152600401610c94906135f2565b60405180910390fd5b610ca7600061243b565b565b610cb16123da565b73ffffffffffffffffffffffffffffffffffffffff16610ccf611b2a565b73ffffffffffffffffffffffffffffffffffffffff1614610d25576040517f08c379a0000000000000000000000000000000000000000000000000000000008152600401610d1c906135f2565b60405180910390fd5b8073ffffffffffffffffffffffffffffffffffffffff16600073ffffffffffffffffffffffffffffffffffffffff1603610d94576040517f08c379a0000000000000000000000000000000000000000000000000000000008152600401610d8b90613828565b60405180910390fd5b80600960006101000a81548173ffffffffffffffffffffffffffffffffffffffff021916908373ffffffffffffffffffffffffffffffffffffffff16021790555050565b60035481565b600260015403610e23576040517f08c379a0000000000000000000000000000000000000000000000000000000008152600401610e1a90613894565b60405180910390fd5b60026001819055506000349050610e597f00000000000000000000000000000000000000000000000000000000000000006123e2565b610e98576040517f08c379a0000000000000000000000000000000000000000000000000000000008152600401610e8f9061365e565b60405180910390fd5b60008111610edb576040517f08c379a0000000000000000000000000000000000000000000000000000000008152600401610ed290613900565b60405180910390fd5b60006102589050600454600554101580610f0457506202a300600354610f01919061394f565b42115b15610f1b576032610258610f18919061394f565b90505b6000816064610fcd7f0000000000000000000000000000000000000000000000000000000000000000600260007f000000000000000000000000000000000000000000000000000000000000000073ffffffffffffffffffffffffffffffffffffffff1673ffffffffffffffffffffffffffffffffffffffff16815260200190815260200160002060000160029054906101000a900473ffffffffffffffffffffffffffffffffffffffff16876124ff565b610fd791906139a5565b610fe19190613a2e565b9050610fec8161281f565b61102b576040517f08c379a000000000000000000000000000000000000000000000000000000000815260040161102290613aab565b60405180910390fd5b6000611036336128d8565b9050336008600083815260200190815260200160002060010160006101000a81548173ffffffffffffffffffffffffffffffffffffffff021916908373ffffffffffffffffffffffffffffffffffffffff160217905550816008600083815260200190815260200160002060020160008282546110b3919061394f565b9250508190555081600560008282546110cc919061394f565b9250508190555061111c847f000000000000000000000000000000000000000000000000000000000000000073ffffffffffffffffffffffffffffffffffffffff166129c090919063ffffffff16565b7f000000000000000000000000000000000000000000000000000000000000000073ffffffffffffffffffffffffffffffffffffffff163373ffffffffffffffffffffffffffffffffffffffff167ffbfbee4122d97e8c0c0bae4824575d813ebd0192d6982f360ab56834b86abd2d868560405161119b929190613acb565b60405180910390a35050505060018081905550565b6111b86123da565b73ffffffffffffffffffffffffffffffffffffffff166111d6611b2a565b73ffffffffffffffffffffffffffffffffffffffff161461122c576040517f08c379a0000000000000000000000000000000000000000000000000000000008152600401611223906135f2565b60405180910390fd5b42600354118061123e57506000600354145b61127d576040517f08c379a000000000000000000000000000000000000000000000000000000000815260040161127490613b40565b60405180910390fd5b8060038190555050565b6002600154036112cc576040517f08c379a00000000000000000000000000000000000000000000000000000000081526004016112c390613894565b60405180910390fd5b60026001819055506112dd826123e2565b61131c576040517f08c379a00000000000000000000000000000000000000000000000000000000081526004016113139061365e565b60405180910390fd5b6000811161135f576040517f08c379a000000000000000000000000000000000000000000000000000000000815260040161135690613900565b60405180910390fd5b6000610258905060045460055410158061138857506202a300600354611385919061394f565b42115b1561139f57603261025861139c919061394f565b90505b6000600260008573ffffffffffffffffffffffffffffffffffffffff1673ffffffffffffffffffffffffffffffffffffffff16815260200190815260200160002060000160019054906101000a900460ff1615611415578160648461140491906139a5565b61140e9190613a2e565b905061149c565b81606461148586600260008973ffffffffffffffffffffffffffffffffffffffff1673ffffffffffffffffffffffffffffffffffffffff16815260200190815260200160002060000160029054906101000a900473ffffffffffffffffffffffffffffffffffffffff16876124ff565b61148f91906139a5565b6114999190613a2e565b90505b6114a58161281f565b6114e4576040517f08c379a00000000000000000000000000000000000000000000000000000000081526004016114db90613aab565b60405180910390fd5b60006114ef336128d8565b9050336008600083815260200190815260200160002060010160006101000a81548173ffffffffffffffffffffffffffffffffffffffff021916908373ffffffffffffffffffffffffffffffffffffffff1602179055508160086000838152602001908152602001600020600201600082825461156c919061394f565b925050819055508160056000828254611585919061394f565b925050819055506115d9337f0000000000000000000000000000000000000000000000000000000000000000868873ffffffffffffffffffffffffffffffffffffffff16612ab4909392919063ffffffff16565b8473ffffffffffffffffffffffffffffffffffffffff163373ffffffffffffffffffffffffffffffffffffffff167ffbfbee4122d97e8c0c0bae4824575d813ebd0192d6982f360ab56834b86abd2d8685604051611638929190613acb565b60405180910390a3505050600180819055505050565b6116566123da565b73ffffffffffffffffffffffffffffffffffffffff16611674611b2a565b73ffffffffffffffffffffffffffffffffffffffff16146116ca576040517f08c379a00000000000000000000000000000000000000000000000000000000081526004016116c1906135f2565b60405180910390fd5b8273ffffffffffffffffffffffffffffffffffffffff16600073ffffffffffffffffffffffffffffffffffffffff1603611739576040517f08c379a000000000000000000000000000000000000000000000000000000000815260040161173090613828565b60405180910390fd5b611742836123e2565b15611782576040517f08c379a000000000000000000000000000000000000000000000000000000000815260040161177990613bac565b60405180910390fd5b8073ffffffffffffffffffffffffffffffffffffffff16600073ffffffffffffffffffffffffffffffffffffffff1614611a415760008173ffffffffffffffffffffffffffffffffffffffff16630dfe16816040518163ffffffff1660e01b8152600401602060405180830381865afa158015611803573d6000803e3d6000fd5b505050506040513d601f19601f820116820180604052508101906118279190613be1565b905060008273ffffffffffffffffffffffffffffffffffffffff1663d21220a76040518163ffffffff1660e01b8152600401602060405180830381865afa158015611876573d6000803e3d6000fd5b505050506040513d601f19601f8201168201806040525081019061189a9190613be1565b90508173ffffffffffffffffffffffffffffffffffffffff168573ffffffffffffffffffffffffffffffffffffffff16148061190157508073ffffffffffffffffffffffffffffffffffffffff168573ffffffffffffffffffffffffffffffffffffffff16145b801561197e575060128273ffffffffffffffffffffffffffffffffffffffff1663313ce5676040518163ffffffff1660e01b8152600401602060405180830381865afa158015611955573d6000803e3d6000fd5b505050506040513d601f19601f820116820180604052508101906119799190613c47565b60ff16145b80156119fb575060128173ffffffffffffffffffffffffffffffffffffffff1663313ce5676040518163ffffffff1660e01b8152600401602060405180830381865afa1580156119d2573d6000803e3d6000fd5b505050506040513d601f19601f820116820180604052508101906119f69190613c47565b60ff16145b611a3a576040517f08c379a0000000000000000000000000000000000000000000000000000000008152600401611a3190613cc0565b60405180910390fd5b5050611af6565b60128373ffffffffffffffffffffffffffffffffffffffff1663313ce5676040518163ffffffff1660e01b8152600401602060405180830381865afa158015611a8e573d6000803e3d6000fd5b505050506040513d601f19601f82011682018060405250810190611ab29190613c47565b60ff1614611af5576040517f08c379a0000000000000000000000000000000000000000000000000000000008152600401611aec90613d2c565b60405180910390fd5b5b611b01838383612b3d565b505050565b7f000000000000000000000000000000000000000000000000000000000000000081565b60008060009054906101000a900473ffffffffffffffffffffffffffffffffffffffff16905090565b611b5b6123da565b73ffffffffffffffffffffffffffffffffffffffff16611b79611b2a565b73ffffffffffffffffffffffffffffffffffffffff1614611bcf576040517f08c379a0000000000000000000000000000000000000000000000000000000008152600401611bc6906135f2565b60405180910390fd5b8073ffffffffffffffffffffffffffffffffffffffff16600073ffffffffffffffffffffffffffffffffffffffff1603611c3e576040517f08c379a0000000000000000000000000000000000000000000000000000000008152600401611c3590613828565b60405180910390fd5b611c47836123e2565b611c86576040517f08c379a0000000000000000000000000000000000000000000000000000000008152600401611c7d9061365e565b60405180910390fd5b60008173ffffffffffffffffffffffffffffffffffffffff16630dfe16816040518163ffffffff1660e01b8152600401602060405180830381865afa158015611cd3573d6000803e3d6000fd5b505050506040513d601f19601f82011682018060405250810190611cf79190613be1565b905060008273ffffffffffffffffffffffffffffffffffffffff1663d21220a76040518163ffffffff1660e01b8152600401602060405180830381865afa158015611d46573d6000803e3d6000fd5b505050506040513d601f19601f82011682018060405250810190611d6a9190613be1565b90508173ffffffffffffffffffffffffffffffffffffffff168573ffffffffffffffffffffffffffffffffffffffff161480611dd157508073ffffffffffffffffffffffffffffffffffffffff168573ffffffffffffffffffffffffffffffffffffffff16145b8015611e4e575060128273ffffffffffffffffffffffffffffffffffffffff1663313ce5676040518163ffffffff1660e01b8152600401602060405180830381865afa158015611e25573d6000803e3d6000fd5b505050506040513d601f19601f82011682018060405250810190611e499190613c47565b60ff16145b8015611ecb575060128173ffffffffffffffffffffffffffffffffffffffff1663313ce5676040518163ffffffff1660e01b8152600401602060405180830381865afa158015611ea2573d6000803e3d6000fd5b505050506040513d601f19601f82011682018060405250810190611ec69190613c47565b60ff16145b611f0a576040517f08c379a0000000000000000000000000000000000000000000000000000000008152600401611f0190613cc0565b60405180910390fd5b83600260008773ffffffffffffffffffffffffffffffffffffffff1673ffffffffffffffffffffffffffffffffffffffff16815260200190815260200160002060000160016101000a81548160ff02191690831515021790555082600260008773ffffffffffffffffffffffffffffffffffffffff1673ffffffffffffffffffffffffffffffffffffffff16815260200190815260200160002060000160026101000a81548173ffffffffffffffffffffffffffffffffffffffff021916908373ffffffffffffffffffffffffffffffffffffffff1602179055505050505050565b600080600354036120005760009050612025565b6202a300600354612011919061394f565b42116120205760019050612025565b600290505b90565b6000600760003373ffffffffffffffffffffffffffffffffffffffff1673ffffffffffffffffffffffffffffffffffffffff1681526020019081526020016000205490506000600654036120b1576040517f08c379a00000000000000000000000000000000000000000000000000000000081526004016120a890613d98565b60405180910390fd5b816008600083815260200190815260200160002060000190816120d49190613f64565b505050565b6120e1612ef5565b600260008373ffffffffffffffffffffffffffffffffffffffff1673ffffffffffffffffffffffffffffffffffffffff1681526020019081526020016000206040518060600160405290816000820160009054906101000a900460ff161515151581526020016000820160019054906101000a900460ff161515151581526020016000820160029054906101000a900473ffffffffffffffffffffffffffffffffffffffff1673ffffffffffffffffffffffffffffffffffffffff1673ffffffffffffffffffffffffffffffffffffffff16815250509050919050565b600a5481565b6121cc6123da565b73ffffffffffffffffffffffffffffffffffffffff166121ea611b2a565b73ffffffffffffffffffffffffffffffffffffffff1614612240576040517f08c379a0000000000000000000000000000000000000000000000000000000008152600401612237906135f2565b60405180910390fd5b600073ffffffffffffffffffffffffffffffffffffffff168173ffffffffffffffffffffffffffffffffffffffff16036122af576040517f08c379a00000000000000000000000000000000000000000000000000000000081526004016122a6906140a8565b60405180910390fd5b6122b88161243b565b50565b6122c3612ebe565b600860008381526020019081526020016000206040518060600160405290816000820180546122f1906136ad565b80601f016020809104026020016040519081016040528092919081815260200182805461231d906136ad565b801561236a5780601f1061233f5761010080835404028352916020019161236a565b820191906000526020600020905b81548152906001019060200180831161234d57829003601f168201915b505050505081526020016001820160009054906101000a900473ffffffffffffffffffffffffffffffffffffffff1673ffffffffffffffffffffffffffffffffffffffff1673ffffffffffffffffffffffffffffffffffffffff1681526020016002820154815250509050919050565b600033905090565b6000600260008373ffffffffffffffffffffffffffffffffffffffff1673ffffffffffffffffffffffffffffffffffffffff16815260200190815260200160002060000160009054906101000a900460ff169050919050565b60008060009054906101000a900473ffffffffffffffffffffffffffffffffffffffff169050816000806101000a81548173ffffffffffffffffffffffffffffffffffffffff021916908373ffffffffffffffffffffffffffffffffffffffff1602179055508173ffffffffffffffffffffffffffffffffffffffff168173ffffffffffffffffffffffffffffffffffffffff167f8be0079c531659141344cd1fd0a4f28419497f9722a3daafe3b4186f6b6457e060405160405180910390a35050565b6000808390506000808273ffffffffffffffffffffffffffffffffffffffff16630902f1ac6040518163ffffffff1660e01b8152600401606060405180830381865afa158015612553573d6000803e3d6000fd5b505050506040513d601f19601f82011682018060405250810190612577919061414a565b506dffffffffffffffffffffffffffff1691506dffffffffffffffffffffffffffff16915060008373ffffffffffffffffffffffffffffffffffffffff16630dfe16816040518163ffffffff1660e01b8152600401602060405180830381865afa1580156125e9573d6000803e3d6000fd5b505050506040513d601f19601f8201168201806040525081019061260d9190613be1565b90508773ffffffffffffffffffffffffffffffffffffffff168173ffffffffffffffffffffffffffffffffffffffff16036126605782868361264f91906139a5565b6126599190613a2e565b945061267a565b81868461266d91906139a5565b6126779190613a2e565b94505b600960009054906101000a900473ffffffffffffffffffffffffffffffffffffffff1673ffffffffffffffffffffffffffffffffffffffff16630990ac60886040518263ffffffff1660e01b81526004016126d59190612f71565b600060405180830381600087803b1580156126ef57600080fd5b505af1158015612703573d6000803e3d6000fd5b505050506000600960009054906101000a900473ffffffffffffffffffffffffffffffffffffffff1673ffffffffffffffffffffffffffffffffffffffff166288bf34898b8a6040518463ffffffff1660e01b81526004016127679392919061419d565b602060405180830381865afa158015612784573d6000803e3d6000fd5b505050506040513d601f19601f820116820180604052508101906127a891906141e9565b90506103e8600a546103e86127bd919061394f565b826127c891906139a5565b6127d29190613a2e565b8610612813576040517f08c379a000000000000000000000000000000000000000000000000000000000815260040161280a90614262565b60405180910390fd5b50505050509392505050565b6000806003541480612832575060035442105b1561284057600090506128d3565b60045482600554612851919061394f565b11801561286d57506202a30060035461286a919061394f565b42105b1561287b57600090506128d3565b600454600261288a91906139a5565b82600554612898919061394f565b11806128c057506202a30060026128af91906139a5565b6003546128bc919061394f565b4210155b156128ce57600090506128d3565b600190505b919050565b600080600760008473ffffffffffffffffffffffffffffffffffffffff1673ffffffffffffffffffffffffffffffffffffffff16815260200190815260200160002054036129795760066000815461292f90614282565b919050819055600760008473ffffffffffffffffffffffffffffffffffffffff1673ffffffffffffffffffffffffffffffffffffffff168152602001908152602001600020819055505b600760008373ffffffffffffffffffffffffffffffffffffffff1673ffffffffffffffffffffffffffffffffffffffff168152602001908152602001600020549050919050565b80471015612a03576040517f08c379a00000000000000000000000000000000000000000000000000000000081526004016129fa90614316565b60405180910390fd5b60008273ffffffffffffffffffffffffffffffffffffffff1682604051612a2990614367565b60006040518083038185875af1925050503d8060008114612a66576040519150601f19603f3d011682016040523d82523d6000602084013e612a6b565b606091505b5050905080612aaf576040517f08c379a0000000000000000000000000000000000000000000000000000000008152600401612aa6906143ee565b60405180910390fd5b505050565b612b37846323b872dd60e01b858585604051602401612ad59392919061419d565b604051602081830303815290604052907bffffffffffffffffffffffffffffffffffffffffffffffffffffffff19166020820180517bffffffffffffffffffffffffffffffffffffffffffffffffffffffff8381831617835250505050612c41565b50505050565b604051806060016040528060011515815260200183151581526020018273ffffffffffffffffffffffffffffffffffffffff16815250600260008573ffffffffffffffffffffffffffffffffffffffff1673ffffffffffffffffffffffffffffffffffffffff16815260200190815260200160002060008201518160000160006101000a81548160ff02191690831515021790555060208201518160000160016101000a81548160ff02191690831515021790555060408201518160000160026101000a81548173ffffffffffffffffffffffffffffffffffffffff021916908373ffffffffffffffffffffffffffffffffffffffff160217905550905050505050565b6000612ca3826040518060400160405280602081526020017f5361666545524332303a206c6f772d6c6576656c2063616c6c206661696c65648152508573ffffffffffffffffffffffffffffffffffffffff16612d089092919063ffffffff16565b9050600081511115612d035780806020019051810190612cc39190614423565b612d02576040517f08c379a0000000000000000000000000000000000000000000000000000000008152600401612cf9906144c2565b60405180910390fd5b5b505050565b6060612d178484600085612d20565b90509392505050565b606082471015612d65576040517f08c379a0000000000000000000000000000000000000000000000000000000008152600401612d5c90614554565b60405180910390fd5b612d6e85612e34565b612dad576040517f08c379a0000000000000000000000000000000000000000000000000000000008152600401612da4906145c0565b60405180910390fd5b6000808673ffffffffffffffffffffffffffffffffffffffff168587604051612dd6919061461c565b60006040518083038185875af1925050503d8060008114612e13576040519150601f19603f3d011682016040523d82523d6000602084013e612e18565b606091505b5091509150612e28828286612e57565b92505050949350505050565b6000808273ffffffffffffffffffffffffffffffffffffffff163b119050919050565b60608315612e6757829050612eb7565b600083511115612e7a5782518084602001fd5b816040517f08c379a0000000000000000000000000000000000000000000000000000000008152600401612eae9190614633565b60405180910390fd5b9392505050565b604051806060016040528060608152602001600073ffffffffffffffffffffffffffffffffffffffff168152602001600081525090565b6040518060600160405280600015158152602001600015158152602001600073ffffffffffffffffffffffffffffffffffffffff1681525090565b600073ffffffffffffffffffffffffffffffffffffffff82169050919050565b6000612f5b82612f30565b9050919050565b612f6b81612f50565b82525050565b6000602082019050612f866000830184612f62565b92915050565b6000819050919050565b612f9f81612f8c565b82525050565b6000602082019050612fba6000830184612f96565b92915050565b6000604051905090565b600080fd5b600080fd5b612fdd81612f50565b8114612fe857600080fd5b50565b600081359050612ffa81612fd4565b92915050565b60006020828403121561301657613015612fca565b5b600061302484828501612feb565b91505092915050565b61303681612f8c565b811461304157600080fd5b50565b6000813590506130538161302d565b92915050565b60006020828403121561306f5761306e612fca565b5b600061307d84828501613044565b91505092915050565b600081519050919050565b600082825260208201905092915050565b60005b838110156130c05780820151818401526020810190506130a5565b838111156130cf576000848401525b50505050565b6000601f19601f8301169050919050565b60006130f182613086565b6130fb8185613091565b935061310b8185602086016130a2565b613114816130d5565b840191505092915050565b6000606082019050818103600083015261313981866130e6565b90506131486020830185612f62565b6131556040830184612f96565b949350505050565b60008115159050919050565b6131728161315d565b82525050565b600060608201905061318d6000830186613169565b61319a6020830185613169565b6131a76040830184612f62565b949350505050565b60006131ba82612f30565b9050919050565b6131ca816131af565b82525050565b60006020820190506131e560008301846131c1565b92915050565b600082825260208201905092915050565b600061320782613086565b61321181856131eb565b93506132218185602086016130a2565b61322a816130d5565b840191505092915050565b61323e81612f50565b82525050565b61324d81612f8c565b82525050565b6000606083016000830151848203600086015261327082826131fc565b91505060208301516132856020860182613235565b5060408301516132986040860182613244565b508091505092915050565b600060208201905081810360008301526132bd8184613253565b905092915050565b600080604083850312156132dc576132db612fca565b5b60006132ea85828601612feb565b92505060206132fb85828601613044565b9150509250929050565b61330e8161315d565b811461331957600080fd5b50565b60008135905061332b81613305565b92915050565b60008060006060848603121561334a57613349612fca565b5b600061335886828701612feb565b93505060206133698682870161331c565b925050604061337a86828701612feb565b9150509250925092565b600061ffff82169050919050565b61339b81613384565b82525050565b60006020820190506133b66000830184613392565b92915050565b600080fd5b600080fd5b7f4e487b7100000000000000000000000000000000000000000000000000000000600052604160045260246000fd5b6133fe826130d5565b810181811067ffffffffffffffff8211171561341d5761341c6133c6565b5b80604052505050565b6000613430612fc0565b905061343c82826133f5565b919050565b600067ffffffffffffffff82111561345c5761345b6133c6565b5b613465826130d5565b9050602081019050919050565b82818337600083830152505050565b600061349461348f84613441565b613426565b9050828152602081018484840111156134b0576134af6133c1565b5b6134bb848285613472565b509392505050565b600082601f8301126134d8576134d76133bc565b5b81356134e8848260208601613481565b91505092915050565b60006020828403121561350757613506612fca565b5b600082013567ffffffffffffffff81111561352557613524612fcf565b5b613531848285016134c3565b91505092915050565b6135438161315d565b82525050565b60608201600082015161355f600085018261353a565b506020820151613572602085018261353a565b5060408201516135856040850182613235565b50505050565b60006060820190506135a06000830184613549565b92915050565b7f4f776e61626c653a2063616c6c6572206973206e6f7420746865206f776e6572600082015250565b60006135dc602083613091565b91506135e7826135a6565b602082019050919050565b6000602082019050818103600083015261360b816135cf565b9050919050565b7f536163726966696365206e6f7420737570706f72746564000000000000000000600082015250565b6000613648601783613091565b915061365382613612565b602082019050919050565b600060208201905081810360008301526136778161363b565b9050919050565b7f4e487b7100000000000000000000000000000000000000000000000000000000600052602260045260246000fd5b600060028204905060018216806136c557607f821691505b6020821081036136d8576136d761367e565b5b50919050565b7f43616e6e6f742075706461746520616674657220726f756e642073746172746560008201527f6400000000000000000000000000000000000000000000000000000000000000602082015250565b600061373a602183613091565b9150613745826136de565b604082019050919050565b600060208201905081810360008301526137698161372d565b9050919050565b7f43616e6e6f74206265206c657373207468616e207a65726f0000000000000000600082015250565b60006137a6601883613091565b91506137b182613770565b602082019050919050565b600060208201905081810360008301526137d581613799565b9050919050565b7f43616e6e6f7420626520636f6e74726163742e00000000000000000000000000600082015250565b6000613812601383613091565b915061381d826137dc565b602082019050919050565b6000602082019050818103600083015261384181613805565b9050919050565b7f5265656e7472616e637947756172643a207265656e7472616e742063616c6c00600082015250565b600061387e601f83613091565b915061388982613848565b602082019050919050565b600060208201905081810360008301526138ad81613871565b9050919050565b7f416d6f756e742063616e6e6f74206265206c657373207468616e207a65726f00600082015250565b60006138ea601f83613091565b91506138f5826138b4565b602082019050919050565b60006020820190508181036000830152613919816138dd565b9050919050565b7f4e487b7100000000000000000000000000000000000000000000000000000000600052601160045260246000fd5b600061395a82612f8c565b915061396583612f8c565b9250827fffffffffffffffffffffffffffffffffffffffffffffffffffffffffffffffff0382111561399a57613999613920565b5b828201905092915050565b60006139b082612f8c565b91506139bb83612f8c565b9250817fffffffffffffffffffffffffffffffffffffffffffffffffffffffffffffffff04831182151516156139f4576139f3613920565b5b828202905092915050565b7f4e487b7100000000000000000000000000000000000000000000000000000000600052601260045260246000fd5b6000613a3982612f8c565b9150613a4483612f8c565b925082613a5457613a536139ff565b5b828204905092915050565b7f526f756e6420656e646564206f72206e6f742073746172746564207965740000600082015250565b6000613a95601e83613091565b9150613aa082613a5f565b602082019050919050565b60006020820190508181036000830152613ac481613a88565b9050919050565b6000604082019050613ae06000830185612f96565b613aed6020830184612f96565b9392505050565b7f526f756e6473207765726520616c726561647920737461727465640000000000600082015250565b6000613b2a601b83613091565b9150613b3582613af4565b602082019050919050565b60006020820190508181036000830152613b5981613b1d565b9050919050565b7f53616372696669636520697320616c726561647920737570706f727465640000600082015250565b6000613b96601e83613091565b9150613ba182613b60565b602082019050919050565b60006020820190508181036000830152613bc581613b89565b9050919050565b600081519050613bdb81612fd4565b92915050565b600060208284031215613bf757613bf6612fca565b5b6000613c0584828501613bcc565b91505092915050565b600060ff82169050919050565b613c2481613c0e565b8114613c2f57600080fd5b50565b600081519050613c4181613c1b565b92915050565b600060208284031215613c5d57613c5c612fca565b5b6000613c6b84828501613c32565b91505092915050565b7f496e76616c6964206c7000000000000000000000000000000000000000000000600082015250565b6000613caa600a83613091565b9150613cb582613c74565b602082019050919050565b60006020820190508181036000830152613cd981613c9d565b9050919050565b7f496e76616c696420646563696d616c0000000000000000000000000000000000600082015250565b6000613d16600f83613091565b9150613d2182613ce0565b602082019050919050565b60006020820190508181036000830152613d4581613d09565b9050919050565b7f5573657220646f6573206e6f7420657869737400000000000000000000000000600082015250565b6000613d82601383613091565b9150613d8d82613d4c565b602082019050919050565b60006020820190508181036000830152613db181613d75565b9050919050565b60008190508160005260206000209050919050565b60006020601f8301049050919050565b600082821b905092915050565b600060088302613e1a7fffffffffffffffffffffffffffffffffffffffffffffffffffffffffffffffff82613ddd565b613e248683613ddd565b95508019841693508086168417925050509392505050565b6000819050919050565b6000613e61613e5c613e5784612f8c565b613e3c565b612f8c565b9050919050565b6000819050919050565b613e7b83613e46565b613e8f613e8782613e68565b848454613dea565b825550505050565b600090565b613ea4613e97565b613eaf818484613e72565b505050565b5b81811015613ed357613ec8600082613e9c565b600181019050613eb5565b5050565b601f821115613f1857613ee981613db8565b613ef284613dcd565b81016020851015613f01578190505b613f15613f0d85613dcd565b830182613eb4565b50505b505050565b600082821c905092915050565b6000613f3b60001984600802613f1d565b1980831691505092915050565b6000613f548383613f2a565b9150826002028217905092915050565b613f6d82613086565b67ffffffffffffffff811115613f8657613f856133c6565b5b613f9082546136ad565b613f9b828285613ed7565b600060209050601f831160018114613fce5760008415613fbc578287015190505b613fc68582613f48565b86555061402e565b601f198416613fdc86613db8565b60005b8281101561400457848901518255600182019150602085019450602081019050613fdf565b86831015614021578489015161401d601f891682613f2a565b8355505b6001600288020188555050505b505050505050565b7f4f776e61626c653a206e6577206f776e657220697320746865207a65726f206160008201527f6464726573730000000000000000000000000000000000000000000000000000602082015250565b6000614092602683613091565b915061409d82614036565b604082019050919050565b600060208201905081810360008301526140c181614085565b9050919050565b60006dffffffffffffffffffffffffffff82169050919050565b6140eb816140c8565b81146140f657600080fd5b50565b600081519050614108816140e2565b92915050565b600063ffffffff82169050919050565b6141278161410e565b811461413257600080fd5b50565b6000815190506141448161411e565b92915050565b60008060006060848603121561416357614162612fca565b5b6000614171868287016140f9565b9350506020614182868287016140f9565b925050604061419386828701614135565b9150509250925092565b60006060820190506141b26000830186612f62565b6141bf6020830185612f62565b6141cc6040830184612f96565b949350505050565b6000815190506141e38161302d565b92915050565b6000602082840312156141ff576141fe612fca565b5b600061420d848285016141d4565b91505092915050565b7f54574150205072696365204572726f7200000000000000000000000000000000600082015250565b600061424c601083613091565b915061425782614216565b602082019050919050565b6000602082019050818103600083015261427b8161423f565b9050919050565b600061428d82612f8c565b91507fffffffffffffffffffffffffffffffffffffffffffffffffffffffffffffffff82036142bf576142be613920565b5b600182019050919050565b7f416464726573733a20696e73756666696369656e742062616c616e6365000000600082015250565b6000614300601d83613091565b915061430b826142ca565b602082019050919050565b6000602082019050818103600083015261432f816142f3565b9050919050565b600081905092915050565b50565b6000614351600083614336565b915061435c82614341565b600082019050919050565b600061437282614344565b9150819050919050565b7f416464726573733a20756e61626c6520746f2073656e642076616c75652c207260008201527f6563697069656e74206d61792068617665207265766572746564000000000000602082015250565b60006143d8603a83613091565b91506143e38261437c565b604082019050919050565b60006020820190508181036000830152614407816143cb565b9050919050565b60008151905061441d81613305565b92915050565b60006020828403121561443957614438612fca565b5b60006144478482850161440e565b91505092915050565b7f5361666545524332303a204552433230206f7065726174696f6e20646964206e60008201527f6f74207375636365656400000000000000000000000000000000000000000000602082015250565b60006144ac602a83613091565b91506144b782614450565b604082019050919050565b600060208201905081810360008301526144db8161449f565b9050919050565b7f416464726573733a20696e73756666696369656e742062616c616e636520666f60008201527f722063616c6c0000000000000000000000000000000000000000000000000000602082015250565b600061453e602683613091565b9150614549826144e2565b604082019050919050565b6000602082019050818103600083015261456d81614531565b9050919050565b7f416464726573733a2063616c6c20746f206e6f6e2d636f6e7472616374000000600082015250565b60006145aa601d83613091565b91506145b582614574565b602082019050919050565b600060208201905081810360008301526145d98161459d565b9050919050565b600081519050919050565b60006145f6826145e0565b6146008185614336565b93506146108185602086016130a2565b80840191505092915050565b600061462882846145eb565b915081905092915050565b6000602082019050818103600083015261464d81846130e6565b90509291505056fea2646970667358221220ef4185d3351322b8a9ff95da37de1278358e63c5dcfcb73dd34afc163a8a314164736f6c634300080f0033",
  "immutableReferences": {
    "102": [
      {
        "length": 32,
        "start": 2709
      },
      {
        "length": 32,
        "start": 4313
      },
      {
        "length": 32,
        "start": 5522
      }
    ],
    "104": [
      {
        "length": 32,
        "start": 3637
      },
      {
        "length": 32,
        "start": 3877
      },
      {
        "length": 32,
        "start": 3914
      },
      {
        "length": 32,
        "start": 4382
      },
      {
        "length": 32,
        "start": 6920
      }
    ]
  },
  "source": "// SPDX-License-Identifier: UNLICENSED\r\npragma solidity >=0.8.9;\r\n\r\nimport \"@openzeppelin/contracts/access/Ownable.sol\";\r\nimport \"@openzeppelin/contracts/security/ReentrancyGuard.sol\";\r\nimport \"@openzeppelin/contracts/token/ERC20/IERC20.sol\";\r\nimport \"@openzeppelin/contracts/token/ERC20/extensions/IERC20Metadata.sol\";\r\nimport \"@openzeppelin/contracts/token/ERC20/utils/SafeERC20.sol\";\r\nimport \"@openzeppelin/contracts/utils/Address.sol\";\r\n\r\ninterface IOraclePair {\r\n    function token0() external view returns (address);\r\n\r\n    function token1() external view returns (address);\r\n\r\n    function getReserves()\r\n        external\r\n        view\r\n        returns (\r\n            uint112 reserve0,\r\n            uint112 reserve1,\r\n            uint32 blockTimestampLast\r\n        );\r\n}\r\n\r\ninterface IOracleTwap {\r\n    function consultAveragePrice(\r\n        address _pair,\r\n        address _token,\r\n        uint256 _amountIn\r\n    ) external view returns (uint256 _amountOut);\r\n\r\n    function updateAveragePrice(address _pair) external;\r\n}\r\n\r\ncontract HmineSacrifice is Ownable, ReentrancyGuard {\r\n    using Address for address payable;\r\n    using SafeERC20 for IERC20;\r\n\r\n    struct Sacrifice {\r\n        bool isEnabled;\r\n        bool isStable;\r\n        address oracleAddress;\r\n    }\r\n\r\n    struct User {\r\n        string nickname;\r\n        address user;\r\n        uint256 amount;\r\n    }\r\n\r\n    mapping(address => Sacrifice) public sacrifices;\r\n    uint256 public startTime = 0;\r\n    uint256 constant roundPeriod = 48 hours;\r\n    uint256 public hminePerRound = 50000e18; // Hmine per round is 50K\r\n    uint256 public totalHmine;\r\n    uint256 constant initPrice = 600; // The price is dvisible by 100.  So in this case 600 is actually $6.00\r\n    uint256 public index = 0;\r\n    mapping(address => uint256) userIndex;\r\n    mapping(uint256 => User) public users;\r\n    address payable public immutable sacrificesTo;\r\n    address public immutable wbnb;\r\n    address public twap;\r\n    uint256 public twapMax = 30;\r\n\r\n    constructor(\r\n        address payable _sacTo,\r\n        address _wbnb,\r\n        address _bnbLP,\r\n        address _twap\r\n    ) {\r\n        sacrificesTo = _sacTo;\r\n        wbnb = _wbnb;\r\n        twap = _twap;\r\n        _addSac(_wbnb, false, _bnbLP);\r\n    }\r\n\r\n    function getSacrificeInfo(address _token)\r\n        external\r\n        view\r\n        returns (Sacrifice memory)\r\n    {\r\n        return sacrifices[_token];\r\n    }\r\n\r\n    // Returns the users data by address lookup.\r\n    function getUserByAddress(address _user)\r\n        external\r\n        view\r\n        returns (User memory)\r\n    {\r\n        uint256 _index = userIndex[_user];\r\n        return users[_index];\r\n    }\r\n\r\n    // Returns the users data by Index.\r\n    function getUserByIndex(uint256 _index)\r\n        external\r\n        view\r\n        returns (User memory)\r\n    {\r\n        return users[_index];\r\n    }\r\n\r\n    // Returns the current round.\r\n    function getCurrentRound() external view returns (uint16) {\r\n        if (startTime == 0) return 0;\r\n        if (block.timestamp <= startTime + roundPeriod) return 1;\r\n        return 2;\r\n    }\r\n\r\n    function updateNickname(string memory nickname) external {\r\n        uint256 _index = userIndex[msg.sender];\r\n        require(index != 0, \"User does not exist\");\r\n        users[_index].nickname = nickname;\r\n    }\r\n\r\n    function sacrificeERC20(address _token, uint256 _amount)\r\n        external\r\n        nonReentrant\r\n    {\r\n        require(hasSacrifice(_token), \"Sacrifice not supported\");\r\n        require(_amount > 0, \"Amount cannot be less than zero\");\r\n\r\n        uint256 price = initPrice;\r\n        if (\r\n            totalHmine >= hminePerRound ||\r\n            block.timestamp > startTime + roundPeriod\r\n        ) {\r\n            price = initPrice + 50;\r\n        }\r\n\r\n        uint256 _hmineAmount;\r\n        if (sacrifices[_token].isStable) {\r\n            _hmineAmount = (_amount * 100) / price;\r\n        } else {\r\n            _hmineAmount =\r\n                (getAmountInStable(\r\n                    _token,\r\n                    sacrifices[_token].oracleAddress,\r\n                    _amount\r\n                ) * 100) /\r\n                price;\r\n        }\r\n\r\n        require(validateRound(_hmineAmount), \"Round ended or not started yet\");\r\n\r\n        uint256 _index = assignUserIndex(msg.sender);\r\n        users[_index].user = msg.sender;\r\n        users[_index].amount += _hmineAmount;\r\n        totalHmine += _hmineAmount;\r\n        IERC20(_token).safeTransferFrom(msg.sender, sacrificesTo, _amount);\r\n\r\n        emit UserSacrifice(msg.sender, _token, _amount, _hmineAmount);\r\n    }\r\n\r\n    function sacrificeBNB() external payable nonReentrant {\r\n        uint256 _amount = msg.value;\r\n        require(hasSacrifice(wbnb), \"Sacrifice not supported\");\r\n        require(_amount > 0, \"Amount cannot be less than zero\");\r\n\r\n        uint256 price = initPrice;\r\n        if (\r\n            totalHmine >= hminePerRound ||\r\n            block.timestamp > startTime + roundPeriod\r\n        ) {\r\n            price = initPrice + 50;\r\n        }\r\n\r\n        uint256 _hmineAmount = (getAmountInStable(\r\n            wbnb,\r\n            sacrifices[wbnb].oracleAddress,\r\n            _amount\r\n        ) * 100) / price;\r\n\r\n        require(validateRound(_hmineAmount), \"Round ended or not started yet\");\r\n\r\n        uint256 _index = assignUserIndex(msg.sender);\r\n        users[_index].user = msg.sender;\r\n        users[_index].amount += _hmineAmount;\r\n        totalHmine += _hmineAmount;\r\n        sacrificesTo.sendValue(_amount);\r\n\r\n        emit UserSacrifice(msg.sender, wbnb, _amount, _hmineAmount);\r\n    }\r\n\r\n    function updateRoundMax(uint256 _max) external onlyOwner {\r\n        require(startTime == 0, \"Cannot update after round started\");\r\n        hminePerRound = _max;\r\n    }\r\n\r\n    function updateTwap(address _twap) external onlyOwner {\r\n        require(address(0) != _twap, \"Cannot be contract.\");\r\n        twap = _twap;\r\n    }\r\n\r\n    function updateTwapMax(uint256 _twapMax) external onlyOwner {\r\n        require(_twapMax > 0, \"Cannot be less than zero\");\r\n        twapMax = _twapMax;\r\n    }\r\n\r\n    function startFirstRound(uint256 _time) external onlyOwner {\r\n        require(\r\n            startTime > block.timestamp || startTime == 0,\r\n            \"Rounds were already started\"\r\n        );\r\n        startTime = _time;\r\n    }\r\n\r\n    function addSacToken(\r\n        address _token,\r\n        bool _isStable,\r\n        address _lpAddress\r\n    ) external onlyOwner {\r\n        require(address(0) != _token, \"Cannot be contract.\");\r\n        require(!hasSacrifice(_token), \"Sacrifice is already supported\");\r\n\r\n        if (address(0) != _lpAddress) {\r\n            address _token0 = IOraclePair(_lpAddress).token0();\r\n            address _token1 = IOraclePair(_lpAddress).token1();\r\n            require(\r\n                (_token == _token0 || _token == _token1) &&\r\n                    IERC20Metadata(_token0).decimals() == 18 &&\r\n                    IERC20Metadata(_token1).decimals() == 18,\r\n                \"Invalid lp\"\r\n            );\r\n        } else {\r\n            require(IERC20Metadata(_token).decimals() == 18, \"Invalid decimal\");\r\n        }\r\n\r\n        _addSac(_token, _isStable, _lpAddress);\r\n    }\r\n\r\n    function updateSacrifice(\r\n        address _token,\r\n        bool _isStable,\r\n        address _lpAddress\r\n    ) public onlyOwner {\r\n        require(address(0) != _lpAddress, \"Cannot be contract.\");\r\n        require(hasSacrifice(_token), \"Sacrifice not supported\");\r\n        address _token0 = IOraclePair(_lpAddress).token0();\r\n        address _token1 = IOraclePair(_lpAddress).token1();\r\n        require(\r\n            (_token == _token0 || _token == _token1) &&\r\n                IERC20Metadata(_token0).decimals() == 18 &&\r\n                IERC20Metadata(_token1).decimals() == 18,\r\n            \"Invalid lp\"\r\n        );\r\n        sacrifices[_token].isStable = _isStable;\r\n        sacrifices[_token].oracleAddress = _lpAddress;\r\n    }\r\n\r\n    function removeSacrifice(address _token) external onlyOwner {\r\n        require(hasSacrifice(_token), \"Sacrifice not supported\");\r\n        delete sacrifices[_token];\r\n    }\r\n\r\n    // Checks if token is a supported asset to sacrifice.\r\n    function hasSacrifice(address _token) internal view returns (bool) {\r\n        return sacrifices[_token].isEnabled;\r\n    }\r\n\r\n    function _addSac(\r\n        address _token,\r\n        bool _isStable,\r\n        address _lpAddress\r\n    ) internal {\r\n        sacrifices[_token] = Sacrifice(true, _isStable, _lpAddress);\r\n    }\r\n\r\n    // Takes in a user address and finds an existing index that is corelated to the user.\r\n    // If index not found (ZERO) then it assigns an index to the user.\r\n    function assignUserIndex(address _user) internal returns (uint256) {\r\n        if (userIndex[_user] == 0) userIndex[_user] = ++index;\r\n        return userIndex[_user];\r\n    }\r\n\r\n    // If token is not a stable token, use this to find the price for the token.\r\n    // This uses an active LP approach.\r\n    function getAmountInStable(\r\n        address _token,\r\n        address _lp,\r\n        uint256 _amount\r\n    ) internal returns (uint256 _price) {\r\n        IOraclePair LP = IOraclePair(_lp);\r\n        (uint256 reserve0, uint256 reserve1, ) = LP.getReserves();\r\n        address token0 = LP.token0();\r\n        if (token0 == _token) {\r\n            _price = (reserve1 * _amount) / reserve0;\r\n        } else {\r\n            _price = (reserve0 * _amount) / reserve1;\r\n        }\r\n\r\n        // twap protection\r\n        IOracleTwap(twap).updateAveragePrice(_lp);\r\n        uint256 twapPrice = IOracleTwap(twap).consultAveragePrice(\r\n            _lp,\r\n            _token,\r\n            _amount\r\n        );\r\n        require(\r\n            _price < (twapPrice * (1000 + twapMax)) / 1000,\r\n            \"TWAP Price Error\"\r\n        );\r\n    }\r\n\r\n    /* Check to make sure that conditions are met for the transaction to go through.\r\n     ** Cannot start sacrifice unless startTime has been specified.\r\n     ** Cannot sacrifice for anymore if 50K HMINE met before round 1 ends.\r\n     ** Cannot sacrifice if 100K HMINE met or round2 ends.\r\n     */\r\n    function validateRound(uint256 _hmineAmount) internal view returns (bool) {\r\n        // No start time yet.\r\n        if (startTime == 0 || block.timestamp < startTime) return false;\r\n\r\n        // HMINE for first round met, but it's still not 48 hours yet.\r\n        if (\r\n            totalHmine + _hmineAmount > hminePerRound &&\r\n            block.timestamp < startTime + roundPeriod\r\n        ) return false;\r\n\r\n        // HMINE cap has been met or block time has passed the 4 day period.\r\n        if (\r\n            totalHmine + _hmineAmount > 2 * hminePerRound ||\r\n            block.timestamp >= startTime + 2 * roundPeriod\r\n        ) return false;\r\n\r\n        return true;\r\n    }\r\n\r\n    event UserSacrifice(\r\n        address indexed _user,\r\n        address indexed _token,\r\n        uint256 _amount,\r\n        uint256 _hmineAmount\r\n    );\r\n}\r\n",
  "sourcePath": "C:/GitHub/hypermine-sacrifice/contracts/HmineSacrifice.sol",
  "compiler": {
    "name": "solc",
    "version": "0.8.15+commit.e14f2714.Emscripten.clang"
  },
  "schemaVersion": "3.4.1",
  "updatedAt": "2022-06-17T18:03:01.720Z",
  "devdoc": {
    "kind": "dev",
    "methods": {
      "owner()": {
        "details": "Returns the address of the current owner."
      },
      "renounceOwnership()": {
        "details": "Leaves the contract without owner. It will not be possible to call `onlyOwner` functions anymore. Can only be called by the current owner. NOTE: Renouncing ownership will leave the contract without an owner, thereby removing any functionality that is only available to the owner."
      },
      "transferOwnership(address)": {
        "details": "Transfers ownership of the contract to a new account (`newOwner`). Can only be called by the current owner."
      }
    },
    "version": 1
  },
  "userdoc": {
    "kind": "user",
    "methods": {},
    "version": 1
  }
}