{
  "contractName": "HmineSacrifice",
  "abi": [
    {
      "inputs": [
        {
          "internalType": "address",
          "name": "_sacTo",
          "type": "address"
        },
        {
          "internalType": "address",
          "name": "_wbnb",
          "type": "address"
        },
        {
          "internalType": "address",
          "name": "_bnbLP",
          "type": "address"
        }
      ],
      "stateMutability": "nonpayable",
      "type": "constructor"
    },
    {
      "anonymous": false,
      "inputs": [
        {
          "indexed": true,
          "internalType": "address",
          "name": "previousOwner",
          "type": "address"
        },
        {
          "indexed": true,
          "internalType": "address",
          "name": "newOwner",
          "type": "address"
        }
      ],
      "name": "OwnershipTransferred",
      "type": "event"
    },
    {
      "inputs": [],
      "name": "hminePerRound",
      "outputs": [
        {
          "internalType": "uint256",
          "name": "",
          "type": "uint256"
        }
      ],
      "stateMutability": "view",
      "type": "function",
      "constant": true
    },
    {
      "inputs": [],
      "name": "initPrice",
      "outputs": [
        {
          "internalType": "uint256",
          "name": "",
          "type": "uint256"
        }
      ],
      "stateMutability": "view",
      "type": "function",
      "constant": true
    },
    {
      "inputs": [],
      "name": "owner",
      "outputs": [
        {
          "internalType": "address",
          "name": "",
          "type": "address"
        }
      ],
      "stateMutability": "view",
      "type": "function",
      "constant": true
    },
    {
      "inputs": [],
      "name": "renounceOwnership",
      "outputs": [],
      "stateMutability": "nonpayable",
      "type": "function"
    },
    {
      "inputs": [],
      "name": "roundPeriod",
      "outputs": [
        {
          "internalType": "uint256",
          "name": "",
          "type": "uint256"
        }
      ],
      "stateMutability": "view",
      "type": "function",
      "constant": true
    },
    {
      "inputs": [
        {
          "internalType": "address",
          "name": "",
          "type": "address"
        }
      ],
      "name": "sacrifices",
      "outputs": [
        {
          "internalType": "bool",
          "name": "isEnabled",
          "type": "bool"
        },
        {
          "internalType": "bool",
          "name": "isStable",
          "type": "bool"
        },
        {
          "internalType": "address",
          "name": "oracleAddress",
          "type": "address"
        }
      ],
      "stateMutability": "view",
      "type": "function",
      "constant": true
    },
    {
      "inputs": [],
      "name": "sacrificesTo",
      "outputs": [
        {
          "internalType": "address",
          "name": "",
          "type": "address"
        }
      ],
      "stateMutability": "view",
      "type": "function",
      "constant": true
    },
    {
      "inputs": [],
      "name": "startTime",
      "outputs": [
        {
          "internalType": "uint256",
          "name": "",
          "type": "uint256"
        }
      ],
      "stateMutability": "view",
      "type": "function",
      "constant": true
    },
    {
      "inputs": [],
      "name": "totalHmine",
      "outputs": [
        {
          "internalType": "uint256",
          "name": "",
          "type": "uint256"
        }
      ],
      "stateMutability": "view",
      "type": "function",
      "constant": true
    },
    {
      "inputs": [
        {
          "internalType": "address",
          "name": "newOwner",
          "type": "address"
        }
      ],
      "name": "transferOwnership",
      "outputs": [],
      "stateMutability": "nonpayable",
      "type": "function"
    },
    {
      "inputs": [
        {
          "internalType": "uint256",
          "name": "",
          "type": "uint256"
        }
      ],
      "name": "users",
      "outputs": [
        {
          "internalType": "string",
          "name": "nickname",
          "type": "string"
        },
        {
          "internalType": "address",
          "name": "user",
          "type": "address"
        },
        {
          "internalType": "uint256",
          "name": "amount",
          "type": "uint256"
        }
      ],
      "stateMutability": "view",
      "type": "function",
      "constant": true
    },
    {
      "inputs": [],
      "name": "wbnb",
      "outputs": [
        {
          "internalType": "address",
          "name": "",
          "type": "address"
        }
      ],
      "stateMutability": "view",
      "type": "function",
      "constant": true
    },
    {
      "stateMutability": "payable",
      "type": "receive",
      "payable": true
    },
    {
      "inputs": [
        {
          "internalType": "address",
          "name": "_token",
          "type": "address"
        }
      ],
      "name": "getSacrificeInfo",
      "outputs": [
        {
          "components": [
            {
              "internalType": "bool",
              "name": "isEnabled",
              "type": "bool"
            },
            {
              "internalType": "bool",
              "name": "isStable",
              "type": "bool"
            },
            {
              "internalType": "address",
              "name": "oracleAddress",
              "type": "address"
            }
          ],
          "internalType": "struct Sacrifice",
          "name": "",
          "type": "tuple"
        }
      ],
      "stateMutability": "view",
      "type": "function",
      "constant": true
    },
    {
      "inputs": [
        {
          "internalType": "uint256",
          "name": "_max",
          "type": "uint256"
        }
      ],
      "name": "updateRoundMax",
      "outputs": [],
      "stateMutability": "nonpayable",
      "type": "function"
    },
    {
      "inputs": [
        {
          "internalType": "address",
          "name": "_token",
          "type": "address"
        },
        {
          "internalType": "uint256",
          "name": "_amount",
          "type": "uint256"
        }
      ],
      "name": "sacrificeERC20",
      "outputs": [],
      "stateMutability": "nonpayable",
      "type": "function"
    },
    {
      "inputs": [],
      "name": "sacrificeBNB",
      "outputs": [],
      "stateMutability": "payable",
      "type": "function",
      "payable": true
    },
    {
      "inputs": [
        {
          "internalType": "uint256",
          "name": "_time",
          "type": "uint256"
        }
      ],
      "name": "startFirstRound",
      "outputs": [],
      "stateMutability": "nonpayable",
      "type": "function"
    },
    {
      "inputs": [
        {
          "internalType": "uint256",
          "name": "_rPeriod",
          "type": "uint256"
        }
      ],
      "name": "updateRoundPeriod",
      "outputs": [],
      "stateMutability": "nonpayable",
      "type": "function"
    },
    {
      "inputs": [
        {
          "internalType": "address",
          "name": "_token",
          "type": "address"
        },
        {
          "internalType": "bool",
          "name": "_isStable",
          "type": "bool"
        },
        {
          "internalType": "address",
          "name": "_lpAddress",
          "type": "address"
        }
      ],
      "name": "updateSacrifice",
      "outputs": [],
      "stateMutability": "nonpayable",
      "type": "function"
    },
    {
      "inputs": [
        {
          "internalType": "address",
          "name": "_token",
          "type": "address"
        }
      ],
      "name": "removeSacrifice",
      "outputs": [],
      "stateMutability": "nonpayable",
      "type": "function"
    },
    {
      "inputs": [
        {
          "internalType": "string",
          "name": "nickname",
          "type": "string"
        }
      ],
      "name": "updateNickname",
      "outputs": [],
      "stateMutability": "nonpayable",
      "type": "function"
    },
    {
      "inputs": [
        {
          "internalType": "address",
          "name": "_token",
          "type": "address"
        },
        {
          "internalType": "bool",
          "name": "_isStable",
          "type": "bool"
        },
        {
          "internalType": "address",
          "name": "_lpAddress",
          "type": "address"
        }
      ],
      "name": "addSacToken",
      "outputs": [],
      "stateMutability": "nonpayable",
      "type": "function"
    },
    {
      "inputs": [
        {
          "internalType": "address",
          "name": "_user",
          "type": "address"
        }
      ],
      "name": "getUserByAddress",
      "outputs": [
        {
          "components": [
            {
              "internalType": "string",
              "name": "nickname",
              "type": "string"
            },
            {
              "internalType": "address",
              "name": "user",
              "type": "address"
            },
            {
              "internalType": "uint256",
              "name": "amount",
              "type": "uint256"
            }
          ],
          "internalType": "struct User",
          "name": "",
          "type": "tuple"
        }
      ],
      "stateMutability": "view",
      "type": "function",
      "constant": true
    },
    {
      "inputs": [
        {
          "internalType": "uint256",
          "name": "_index",
          "type": "uint256"
        }
      ],
      "name": "getUserByIndex",
      "outputs": [
        {
          "components": [
            {
              "internalType": "string",
              "name": "nickname",
              "type": "string"
            },
            {
              "internalType": "address",
              "name": "user",
              "type": "address"
            },
            {
              "internalType": "uint256",
              "name": "amount",
              "type": "uint256"
            }
          ],
          "internalType": "struct User",
          "name": "",
          "type": "tuple"
        }
      ],
      "stateMutability": "view",
      "type": "function",
      "constant": true
    },
    {
      "inputs": [],
      "name": "getCurrentRound",
      "outputs": [
        {
          "internalType": "uint16",
          "name": "",
          "type": "uint16"
        }
      ],
      "stateMutability": "view",
      "type": "function",
      "constant": true
    }
  ],
  "bytecode": "0x60806040526202a300600355690a968163f0a57b40000060045561025860065560006007553480156200003157600080fd5b506040516200398f3803806200398f8339818101604052810190620000579190620002fd565b620000776200006b6200011660201b60201c565b6200011e60201b60201c565b82600a60006101000a81548173ffffffffffffffffffffffffffffffffffffffff021916908373ffffffffffffffffffffffffffffffffffffffff16021790555081600b60006101000a81548173ffffffffffffffffffffffffffffffffffffffff021916908373ffffffffffffffffffffffffffffffffffffffff1602179055506200010d82600083620001e260201b60201c565b505050620003a1565b600033905090565b60008060009054906101000a900473ffffffffffffffffffffffffffffffffffffffff169050816000806101000a81548173ffffffffffffffffffffffffffffffffffffffff021916908373ffffffffffffffffffffffffffffffffffffffff1602179055508173ffffffffffffffffffffffffffffffffffffffff168173ffffffffffffffffffffffffffffffffffffffff167f8be0079c531659141344cd1fd0a4f28419497f9722a3daafe3b4186f6b6457e060405160405180910390a35050565b604051806060016040528060011515815260200183151581526020018273ffffffffffffffffffffffffffffffffffffffff16815250600160008573ffffffffffffffffffffffffffffffffffffffff1673ffffffffffffffffffffffffffffffffffffffff16815260200190815260200160002060008201518160000160006101000a81548160ff02191690831515021790555060208201518160000160016101000a81548160ff02191690831515021790555060408201518160000160026101000a81548173ffffffffffffffffffffffffffffffffffffffff021916908373ffffffffffffffffffffffffffffffffffffffff160217905550905050505050565b600081519050620002f78162000387565b92915050565b6000806000606084860312156200031357600080fd5b60006200032386828701620002e6565b93505060206200033686828701620002e6565b92505060406200034986828701620002e6565b9150509250925092565b6000620003608262000367565b9050919050565b600073ffffffffffffffffffffffffffffffffffffffff82169050919050565b620003928162000353565b81146200039e57600080fd5b50565b6135de80620003b16000396000f3fe60806040526004361061016a5760003560e01c806385592de6116100d1578063a32bf5971161008a578063c34ecee711610064578063c34ecee7146104f4578063e60ec6ec1461051d578063f2fde38b1461055a578063ff5d32fe1461058357610171565b8063a32bf59714610475578063b6add0f4146104a0578063bd2e3b17146104cb57610171565b806385592de61461037b5780638a015c86146103a45780638ce3192d146103cd5780638d72647e146103f65780638da5cb5b14610421578063a2e9e3591461044c57610171565b806351fd76c01161012357806351fd76c01461029c5780635603e0de146102c757806369c212f6146102f2578063715018a61461032f57806378e9792514610346578063816d26b91461037157610171565b8063112cee44146101765780632c3f4e9a146101a1578063365b98b2146101ca578063413447cc14610209578063413a788814610248578063417542c91461027157610171565b3661017157005b600080fd5b34801561018257600080fd5b5061018b6105c0565b6040516101989190612e8f565b60405180910390f35b3480156101ad57600080fd5b506101c860048036038101906101c39190612630565b6105c6565b005b3480156101d657600080fd5b506101f160048036038101906101ec91906127c6565b61071e565b60405161020093929190612c39565b60405180910390f35b34801561021557600080fd5b50610230600480360381019061022b9190612630565b6107f0565b60405161023f93929190612be0565b60405180910390f35b34801561025457600080fd5b5061026f600480360381019061026a91906127c6565b610854565b005b34801561027d57600080fd5b5061028661091f565b6040516102939190612e8f565b60405180910390f35b3480156102a857600080fd5b506102b1610925565b6040516102be9190612b8e565b60405180910390f35b3480156102d357600080fd5b506102dc61094b565b6040516102e99190612e8f565b60405180910390f35b3480156102fe57600080fd5b5061031960048036038101906103149190612630565b610951565b6040516103269190612e52565b60405180910390f35b34801561033b57600080fd5b50610344610ab5565b005b34801561035257600080fd5b5061035b610b3d565b6040516103689190612e8f565b60405180910390f35b610379610b43565b005b34801561038757600080fd5b506103a2600480360381019061039d91906127c6565b610e98565b005b3480156103b057600080fd5b506103cb60048036038101906103c691906126d1565b610f6f565b005b3480156103d957600080fd5b506103f460048036038101906103ef9190612682565b61129c565b005b34801561040257600080fd5b5061040b611418565b6040516104189190612b8e565b60405180910390f35b34801561042d57600080fd5b5061043661143e565b6040516104439190612b8e565b60405180910390f35b34801561045857600080fd5b50610473600480360381019061046e9190612682565b611467565b005b34801561048157600080fd5b5061048a61167a565b6040516104979190612e74565b60405180910390f35b3480156104ac57600080fd5b506104b56116bd565b6040516104c29190612e8f565b60405180910390f35b3480156104d757600080fd5b506104f260048036038101906104ed9190612736565b6116c3565b005b34801561050057600080fd5b5061051b600480360381019061051691906127c6565b61177c565b005b34801561052957600080fd5b50610544600480360381019061053f9190612630565b611845565b6040516105519190612e37565b60405180910390f35b34801561056657600080fd5b50610581600480360381019061057c9190612630565b61192a565b005b34801561058f57600080fd5b506105aa60048036038101906105a591906127c6565b611a22565b6040516105b79190612e52565b60405180910390f35b60035481565b6105ce611b41565b73ffffffffffffffffffffffffffffffffffffffff166105ec61143e565b73ffffffffffffffffffffffffffffffffffffffff1614610642576040517f08c379a000000000000000000000000000000000000000000000000000000000815260040161063990612d37565b60405180910390fd5b61064b81611b49565b61068a576040517f08c379a000000000000000000000000000000000000000000000000000000000815260040161068190612cd7565b60405180910390fd5b600160008273ffffffffffffffffffffffffffffffffffffffff1673ffffffffffffffffffffffffffffffffffffffff168152602001908152602001600020600080820160006101000a81549060ff02191690556000820160016101000a81549060ff02191690556000820160026101000a81549073ffffffffffffffffffffffffffffffffffffffff0219169055505050565b6009602052806000526040600020600091509050806000018054610741906130e6565b80601f016020809104026020016040519081016040528092919081815260200182805461076d906130e6565b80156107ba5780601f1061078f576101008083540402835291602001916107ba565b820191906000526020600020905b81548152906001019060200180831161079d57829003601f168201915b5050505050908060010160009054906101000a900473ffffffffffffffffffffffffffffffffffffffff16908060020154905083565b60016020528060005260406000206000915090508060000160009054906101000a900460ff16908060000160019054906101000a900460ff16908060000160029054906101000a900473ffffffffffffffffffffffffffffffffffffffff16905083565b61085c611b41565b73ffffffffffffffffffffffffffffffffffffffff1661087a61143e565b73ffffffffffffffffffffffffffffffffffffffff16146108d0576040517f08c379a00000000000000000000000000000000000000000000000000000000081526004016108c790612d37565b60405180910390fd5b600060025414610915576040517f08c379a000000000000000000000000000000000000000000000000000000000815260040161090c90612c77565b60405180910390fd5b8060048190555050565b60045481565b600a60009054906101000a900473ffffffffffffffffffffffffffffffffffffffff1681565b60055481565b610959612420565b6000600860008473ffffffffffffffffffffffffffffffffffffffff1673ffffffffffffffffffffffffffffffffffffffff168152602001908152602001600020549050600960008281526020019081526020016000206040518060600160405290816000820180546109cb906130e6565b80601f01602080910402602001604051908101604052809291908181526020018280546109f7906130e6565b8015610a445780601f10610a1957610100808354040283529160200191610a44565b820191906000526020600020905b815481529060010190602001808311610a2757829003601f168201915b505050505081526020016001820160009054906101000a900473ffffffffffffffffffffffffffffffffffffffff1673ffffffffffffffffffffffffffffffffffffffff1673ffffffffffffffffffffffffffffffffffffffff168152602001600282015481525050915050919050565b610abd611b41565b73ffffffffffffffffffffffffffffffffffffffff16610adb61143e565b73ffffffffffffffffffffffffffffffffffffffff1614610b31576040517f08c379a0000000000000000000000000000000000000000000000000000000008152600401610b2890612d37565b60405180910390fd5b610b3b6000611bb3565b565b60025481565b6000349050610b73600b60009054906101000a900473ffffffffffffffffffffffffffffffffffffffff16611b49565b610bb2576040517f08c379a0000000000000000000000000000000000000000000000000000000008152600401610ba990612cd7565b60405180910390fd5b60008111610bf5576040517f08c379a0000000000000000000000000000000000000000000000000000000008152600401610bec90612c97565b60405180910390fd5b6000806006549050600454600554101580610c255750610c22600354600254611c7790919063ffffffff16565b42115b15610c4357610c406032600654611c7790919063ffffffff16565b90505b610d196064610d0b83610cfd600b60009054906101000a900473ffffffffffffffffffffffffffffffffffffffff1660016000600b60009054906101000a900473ffffffffffffffffffffffffffffffffffffffff1673ffffffffffffffffffffffffffffffffffffffff1673ffffffffffffffffffffffffffffffffffffffff16815260200190815260200160002060000160029054906101000a900473ffffffffffffffffffffffffffffffffffffffff1689611c8d565b611e5290919063ffffffff16565b611e6890919063ffffffff16565b9150610d2482611e7e565b610d63576040517f08c379a0000000000000000000000000000000000000000000000000000000008152600401610d5a90612d57565b60405180910390fd5b6000610d6e33611f5f565b9050336009600083815260200190815260200160002060010160006101000a81548173ffffffffffffffffffffffffffffffffffffffff021916908373ffffffffffffffffffffffffffffffffffffffff160217905550610dee600960008381526020019081526020016000206002015484611c7790919063ffffffff16565b6009600083815260200190815260200160002060020181905550610e1d60055484611c7790919063ffffffff16565b6005819055506000600a60009054906101000a900473ffffffffffffffffffffffffffffffffffffffff1690508073ffffffffffffffffffffffffffffffffffffffff166108fc349081150290604051600060405180830381858888f19350505050158015610e90573d6000803e3d6000fd5b505050505050565b610ea0611b41565b73ffffffffffffffffffffffffffffffffffffffff16610ebe61143e565b73ffffffffffffffffffffffffffffffffffffffff1614610f14576040517f08c379a0000000000000000000000000000000000000000000000000000000008152600401610f0b90612d37565b60405180910390fd5b426002541180610f2657506000600254145b610f65576040517f08c379a0000000000000000000000000000000000000000000000000000000008152600401610f5c90612db7565b60405180910390fd5b8060028190555050565b610f7882611b49565b610fb7576040517f08c379a0000000000000000000000000000000000000000000000000000000008152600401610fae90612cd7565b60405180910390fd5b60008111610ffa576040517f08c379a0000000000000000000000000000000000000000000000000000000008152600401610ff190612c97565b60405180910390fd5b600080600654905060045460055410158061102a5750611027600354600254611c7790919063ffffffff16565b42115b15611048576110456032600654611c7790919063ffffffff16565b90505b600160008573ffffffffffffffffffffffffffffffffffffffff1673ffffffffffffffffffffffffffffffffffffffff16815260200190815260200160002060000160019054906101000a900460ff16156110ca576110c360646110b58386611e5290919063ffffffff16565b611e6890919063ffffffff16565b915061115f565b61115c606461114e8361114088600160008b73ffffffffffffffffffffffffffffffffffffffff1673ffffffffffffffffffffffffffffffffffffffff16815260200190815260200160002060000160029054906101000a900473ffffffffffffffffffffffffffffffffffffffff1689611c8d565b611e5290919063ffffffff16565b611e6890919063ffffffff16565b91505b61116882611e7e565b6111a7576040517f08c379a000000000000000000000000000000000000000000000000000000000815260040161119e90612d57565b60405180910390fd5b60006111b233611f5f565b9050336009600083815260200190815260200160002060010160006101000a81548173ffffffffffffffffffffffffffffffffffffffff021916908373ffffffffffffffffffffffffffffffffffffffff160217905550611232600960008381526020019081526020016000206002015484611c7790919063ffffffff16565b600960008381526020019081526020016000206002018190555061126160055484611c7790919063ffffffff16565b6005819055506112958533600a60009054906101000a900473ffffffffffffffffffffffffffffffffffffffff1687612016565b5050505050565b6112a4611b41565b73ffffffffffffffffffffffffffffffffffffffff166112c261143e565b73ffffffffffffffffffffffffffffffffffffffff1614611318576040517f08c379a000000000000000000000000000000000000000000000000000000000815260040161130f90612d37565b60405180910390fd5b8273ffffffffffffffffffffffffffffffffffffffff163073ffffffffffffffffffffffffffffffffffffffff161415801561138057508073ffffffffffffffffffffffffffffffffffffffff163073ffffffffffffffffffffffffffffffffffffffff1614155b6113bf576040517f08c379a00000000000000000000000000000000000000000000000000000000081526004016113b690612d17565b60405180910390fd5b6113c883611b49565b15611408576040517f08c379a00000000000000000000000000000000000000000000000000000000081526004016113ff90612df7565b60405180910390fd5b61141383838361209f565b505050565b600b60009054906101000a900473ffffffffffffffffffffffffffffffffffffffff1681565b60008060009054906101000a900473ffffffffffffffffffffffffffffffffffffffff16905090565b61146f611b41565b73ffffffffffffffffffffffffffffffffffffffff1661148d61143e565b73ffffffffffffffffffffffffffffffffffffffff16146114e3576040517f08c379a00000000000000000000000000000000000000000000000000000000081526004016114da90612d37565b60405180910390fd5b8073ffffffffffffffffffffffffffffffffffffffff163073ffffffffffffffffffffffffffffffffffffffff161415611552576040517f08c379a000000000000000000000000000000000000000000000000000000000815260040161154990612d17565b60405180910390fd5b61155b83611b49565b61159a576040517f08c379a000000000000000000000000000000000000000000000000000000000815260040161159190612cd7565b60405180910390fd5b81600160008573ffffffffffffffffffffffffffffffffffffffff1673ffffffffffffffffffffffffffffffffffffffff16815260200190815260200160002060000160016101000a81548160ff02191690831515021790555080600160008573ffffffffffffffffffffffffffffffffffffffff1673ffffffffffffffffffffffffffffffffffffffff16815260200190815260200160002060000160026101000a81548173ffffffffffffffffffffffffffffffffffffffff021916908373ffffffffffffffffffffffffffffffffffffffff160217905550505050565b600080600254141561168f57600090506116ba565b6116a6600354600254611c7790919063ffffffff16565b42116116b557600190506116ba565b600290505b90565b60065481565b6000600860003373ffffffffffffffffffffffffffffffffffffffff1673ffffffffffffffffffffffffffffffffffffffff1681526020019081526020016000205490506000600754141561174d576040517f08c379a000000000000000000000000000000000000000000000000000000000815260040161174490612d97565b60405180910390fd5b81600960008381526020019081526020016000206000019080519060200190611777929190612457565b505050565b611784611b41565b73ffffffffffffffffffffffffffffffffffffffff166117a261143e565b73ffffffffffffffffffffffffffffffffffffffff16146117f8576040517f08c379a00000000000000000000000000000000000000000000000000000000081526004016117ef90612d37565b60405180910390fd5b6000811161183b576040517f08c379a000000000000000000000000000000000000000000000000000000000815260040161183290612d77565b60405180910390fd5b8060038190555050565b61184d6124dd565b600160008373ffffffffffffffffffffffffffffffffffffffff1673ffffffffffffffffffffffffffffffffffffffff1681526020019081526020016000206040518060600160405290816000820160009054906101000a900460ff161515151581526020016000820160019054906101000a900460ff161515151581526020016000820160029054906101000a900473ffffffffffffffffffffffffffffffffffffffff1673ffffffffffffffffffffffffffffffffffffffff1673ffffffffffffffffffffffffffffffffffffffff16815250509050919050565b611932611b41565b73ffffffffffffffffffffffffffffffffffffffff1661195061143e565b73ffffffffffffffffffffffffffffffffffffffff16146119a6576040517f08c379a000000000000000000000000000000000000000000000000000000000815260040161199d90612d37565b60405180910390fd5b600073ffffffffffffffffffffffffffffffffffffffff168173ffffffffffffffffffffffffffffffffffffffff161415611a16576040517f08c379a0000000000000000000000000000000000000000000000000000000008152600401611a0d90612cb7565b60405180910390fd5b611a1f81611bb3565b50565b611a2a612420565b60096000838152602001908152602001600020604051806060016040529081600082018054611a58906130e6565b80601f0160208091040260200160405190810160405280929190818152602001828054611a84906130e6565b8015611ad15780601f10611aa657610100808354040283529160200191611ad1565b820191906000526020600020905b815481529060010190602001808311611ab457829003601f168201915b505050505081526020016001820160009054906101000a900473ffffffffffffffffffffffffffffffffffffffff1673ffffffffffffffffffffffffffffffffffffffff1673ffffffffffffffffffffffffffffffffffffffff1681526020016002820154815250509050919050565b600033905090565b6000600160008373ffffffffffffffffffffffffffffffffffffffff1673ffffffffffffffffffffffffffffffffffffffff16815260200190815260200160002060000160009054906101000a900460ff1615611ba95760019050611bae565b600090505b919050565b60008060009054906101000a900473ffffffffffffffffffffffffffffffffffffffff169050816000806101000a81548173ffffffffffffffffffffffffffffffffffffffff021916908373ffffffffffffffffffffffffffffffffffffffff1602179055508173ffffffffffffffffffffffffffffffffffffffff168173ffffffffffffffffffffffffffffffffffffffff167f8be0079c531659141344cd1fd0a4f28419497f9722a3daafe3b4186f6b6457e060405160405180910390a35050565b60008183611c859190612f43565b905092915050565b6000808390506000808273ffffffffffffffffffffffffffffffffffffffff16630902f1ac6040518163ffffffff1660e01b815260040160606040518083038186803b158015611cdc57600080fd5b505afa158015611cf0573d6000803e3d6000fd5b505050506040513d601f19601f82011682018060405250810190611d149190612777565b506dffffffffffffffffffffffffffff1691506dffffffffffffffffffffffffffff16915060008373ffffffffffffffffffffffffffffffffffffffff16630dfe16816040518163ffffffff1660e01b815260040160206040518083038186803b158015611d8157600080fd5b505afa158015611d95573d6000803e3d6000fd5b505050506040513d601f19601f82011682018060405250810190611db99190612659565b90508773ffffffffffffffffffffffffffffffffffffffff168173ffffffffffffffffffffffffffffffffffffffff161415611e1f57611e1483611e068885611e6890919063ffffffff16565b611e5290919063ffffffff16565b945050505050611e4b565b611e4482611e368886611e6890919063ffffffff16565b611e5290919063ffffffff16565b9450505050505b9392505050565b60008183611e609190612f99565b905092915050565b60008183611e769190612fca565b905092915050565b6000806002541480611e91575060025442105b15611e9f5760009050611f5a565b600454611eb783600554611c7790919063ffffffff16565b118015611ed95750611ed6600354600254611c7790919063ffffffff16565b42105b15611ee75760009050611f5a565b611efd6002600454611e6890919063ffffffff16565b611f1283600554611c7790919063ffffffff16565b1180611f475750611f43600254611f356002600354611e6890919063ffffffff16565b611c7790919063ffffffff16565b4210155b15611f555760009050611f5a565b600190505b919050565b600080600860008473ffffffffffffffffffffffffffffffffffffffff1673ffffffffffffffffffffffffffffffffffffffff1681526020019081526020016000205414611fee57600860008373ffffffffffffffffffffffffffffffffffffffff1673ffffffffffffffffffffffffffffffffffffffff168152602001908152602001600020549050612011565b6007600081548092919061200190613149565b9190505560078190555060075490505b919050565b612099846323b872dd60e01b85858560405160240161203793929190612ba9565b604051602081830303815290604052907bffffffffffffffffffffffffffffffffffffffffffffffffffffffff19166020820180517bffffffffffffffffffffffffffffffffffffffffffffffffffffffff83818316178352505050506121a3565b50505050565b604051806060016040528060011515815260200183151581526020018273ffffffffffffffffffffffffffffffffffffffff16815250600160008573ffffffffffffffffffffffffffffffffffffffff1673ffffffffffffffffffffffffffffffffffffffff16815260200190815260200160002060008201518160000160006101000a81548160ff02191690831515021790555060208201518160000160016101000a81548160ff02191690831515021790555060408201518160000160026101000a81548173ffffffffffffffffffffffffffffffffffffffff021916908373ffffffffffffffffffffffffffffffffffffffff160217905550905050505050565b6000612205826040518060400160405280602081526020017f5361666545524332303a206c6f772d6c6576656c2063616c6c206661696c65648152508573ffffffffffffffffffffffffffffffffffffffff1661226a9092919063ffffffff16565b90506000815111156122655780806020019051810190612225919061270d565b612264576040517f08c379a000000000000000000000000000000000000000000000000000000000815260040161225b90612e17565b60405180910390fd5b5b505050565b60606122798484600085612282565b90509392505050565b6060824710156122c7576040517f08c379a00000000000000000000000000000000000000000000000000000000081526004016122be90612cf7565b60405180910390fd5b6122d085612396565b61230f576040517f08c379a000000000000000000000000000000000000000000000000000000000815260040161230690612dd7565b60405180910390fd5b6000808673ffffffffffffffffffffffffffffffffffffffff1685876040516123389190612b77565b60006040518083038185875af1925050503d8060008114612375576040519150601f19603f3d011682016040523d82523d6000602084013e61237a565b606091505b509150915061238a8282866123b9565b92505050949350505050565b6000808273ffffffffffffffffffffffffffffffffffffffff163b119050919050565b606083156123c957829050612419565b6000835111156123dc5782518084602001fd5b816040517f08c379a00000000000000000000000000000000000000000000000000000000081526004016124109190612c17565b60405180910390fd5b9392505050565b604051806060016040528060608152602001600073ffffffffffffffffffffffffffffffffffffffff168152602001600081525090565b828054612463906130e6565b90600052602060002090601f01602090048101928261248557600085556124cc565b82601f1061249e57805160ff19168380011785556124cc565b828001600101855582156124cc579182015b828111156124cb5782518255916020019190600101906124b0565b5b5090506124d99190612518565b5090565b6040518060600160405280600015158152602001600015158152602001600073ffffffffffffffffffffffffffffffffffffffff1681525090565b5b80821115612531576000816000905550600101612519565b5090565b600061254861254384612ecf565b612eaa565b90508281526020810184848401111561256057600080fd5b61256b8482856130a4565b509392505050565b60008135905061258281613535565b92915050565b60008151905061259781613535565b92915050565b6000813590506125ac8161354c565b92915050565b6000815190506125c18161354c565b92915050565b600082601f8301126125d857600080fd5b81356125e8848260208601612535565b91505092915050565b60008151905061260081613563565b92915050565b6000813590506126158161357a565b92915050565b60008151905061262a81613591565b92915050565b60006020828403121561264257600080fd5b600061265084828501612573565b91505092915050565b60006020828403121561266b57600080fd5b600061267984828501612588565b91505092915050565b60008060006060848603121561269757600080fd5b60006126a586828701612573565b93505060206126b68682870161259d565b92505060406126c786828701612573565b9150509250925092565b600080604083850312156126e457600080fd5b60006126f285828601612573565b925050602061270385828601612606565b9150509250929050565b60006020828403121561271f57600080fd5b600061272d848285016125b2565b91505092915050565b60006020828403121561274857600080fd5b600082013567ffffffffffffffff81111561276257600080fd5b61276e848285016125c7565b91505092915050565b60008060006060848603121561278c57600080fd5b600061279a868287016125f1565b93505060206127ab868287016125f1565b92505060406127bc8682870161261b565b9150509250925092565b6000602082840312156127d857600080fd5b60006127e684828501612606565b91505092915050565b6127f881613024565b82525050565b61280781613024565b82525050565b61281681613036565b82525050565b61282581613036565b82525050565b600061283682612f00565b6128408185612f16565b93506128508185602086016130b3565b80840191505092915050565b600061286782612f0b565b6128718185612f21565b93506128818185602086016130b3565b61288a8161324e565b840191505092915050565b60006128a082612f0b565b6128aa8185612f32565b93506128ba8185602086016130b3565b6128c38161324e565b840191505092915050565b60006128db602183612f32565b91506128e68261325f565b604082019050919050565b60006128fe601f83612f32565b9150612909826132ae565b602082019050919050565b6000612921602683612f32565b915061292c826132d7565b604082019050919050565b6000612944601983612f32565b915061294f82613326565b602082019050919050565b6000612967602683612f32565b91506129728261334f565b604082019050919050565b600061298a601383612f32565b91506129958261339e565b602082019050919050565b60006129ad602083612f32565b91506129b8826133c7565b602082019050919050565b60006129d0602083612f32565b91506129db826133f0565b602082019050919050565b60006129f3601e83612f32565b91506129fe82613419565b602082019050919050565b6000612a16601383612f32565b9150612a2182613442565b602082019050919050565b6000612a39601b83612f32565b9150612a448261346b565b602082019050919050565b6000612a5c601d83612f32565b9150612a6782613494565b602082019050919050565b6000612a7f602083612f32565b9150612a8a826134bd565b602082019050919050565b6000612aa2602a83612f32565b9150612aad826134e6565b604082019050919050565b606082016000820151612ace600085018261280d565b506020820151612ae1602085018261280d565b506040820151612af460408501826127ef565b50505050565b60006060830160008301518482036000860152612b17828261285c565b9150506020830151612b2c60208601826127ef565b506040830151612b3f6040860182612b59565b508091505092915050565b612b538161305c565b82525050565b612b628161308a565b82525050565b612b718161308a565b82525050565b6000612b83828461282b565b915081905092915050565b6000602082019050612ba360008301846127fe565b92915050565b6000606082019050612bbe60008301866127fe565b612bcb60208301856127fe565b612bd86040830184612b68565b949350505050565b6000606082019050612bf5600083018661281c565b612c02602083018561281c565b612c0f60408301846127fe565b949350505050565b60006020820190508181036000830152612c318184612895565b905092915050565b60006060820190508181036000830152612c538186612895565b9050612c6260208301856127fe565b612c6f6040830184612b68565b949350505050565b60006020820190508181036000830152612c90816128ce565b9050919050565b60006020820190508181036000830152612cb0816128f1565b9050919050565b60006020820190508181036000830152612cd081612914565b9050919050565b60006020820190508181036000830152612cf081612937565b9050919050565b60006020820190508181036000830152612d108161295a565b9050919050565b60006020820190508181036000830152612d308161297d565b9050919050565b60006020820190508181036000830152612d50816129a0565b9050919050565b60006020820190508181036000830152612d70816129c3565b9050919050565b60006020820190508181036000830152612d90816129e6565b9050919050565b60006020820190508181036000830152612db081612a09565b9050919050565b60006020820190508181036000830152612dd081612a2c565b9050919050565b60006020820190508181036000830152612df081612a4f565b9050919050565b60006020820190508181036000830152612e1081612a72565b9050919050565b60006020820190508181036000830152612e3081612a95565b9050919050565b6000606082019050612e4c6000830184612ab8565b92915050565b60006020820190508181036000830152612e6c8184612afa565b905092915050565b6000602082019050612e896000830184612b4a565b92915050565b6000602082019050612ea46000830184612b68565b92915050565b6000612eb4612ec5565b9050612ec08282613118565b919050565b6000604051905090565b600067ffffffffffffffff821115612eea57612ee961321f565b5b612ef38261324e565b9050602081019050919050565b600081519050919050565b600081519050919050565b600081905092915050565b600082825260208201905092915050565b600082825260208201905092915050565b6000612f4e8261308a565b9150612f598361308a565b9250827fffffffffffffffffffffffffffffffffffffffffffffffffffffffffffffffff03821115612f8e57612f8d613192565b5b828201905092915050565b6000612fa48261308a565b9150612faf8361308a565b925082612fbf57612fbe6131c1565b5b828204905092915050565b6000612fd58261308a565b9150612fe08361308a565b9250817fffffffffffffffffffffffffffffffffffffffffffffffffffffffffffffffff048311821515161561301957613018613192565b5b828202905092915050565b600061302f8261306a565b9050919050565b60008115159050919050565b60006dffffffffffffffffffffffffffff82169050919050565b600061ffff82169050919050565b600073ffffffffffffffffffffffffffffffffffffffff82169050919050565b6000819050919050565b600063ffffffff82169050919050565b82818337600083830152505050565b60005b838110156130d15780820151818401526020810190506130b6565b838111156130e0576000848401525b50505050565b600060028204905060018216806130fe57607f821691505b60208210811415613112576131116131f0565b5b50919050565b6131218261324e565b810181811067ffffffffffffffff821117156131405761313f61321f565b5b80604052505050565b60006131548261308a565b91507fffffffffffffffffffffffffffffffffffffffffffffffffffffffffffffffff82141561318757613186613192565b5b600182019050919050565b7f4e487b7100000000000000000000000000000000000000000000000000000000600052601160045260246000fd5b7f4e487b7100000000000000000000000000000000000000000000000000000000600052601260045260246000fd5b7f4e487b7100000000000000000000000000000000000000000000000000000000600052602260045260246000fd5b7f4e487b7100000000000000000000000000000000000000000000000000000000600052604160045260246000fd5b6000601f19601f8301169050919050565b7f43616e6e6f742075706461746520616674657220726f756e642073746172746560008201527f6400000000000000000000000000000000000000000000000000000000000000602082015250565b7f416d6f756e742063616e6e6f74206265206c657373207468616e207a65726f00600082015250565b7f4f776e61626c653a206e6577206f776e657220697320746865207a65726f206160008201527f6464726573730000000000000000000000000000000000000000000000000000602082015250565b7f536163726966696365206e6f7420737570706f727465642e2000000000000000600082015250565b7f416464726573733a20696e73756666696369656e742062616c616e636520666f60008201527f722063616c6c0000000000000000000000000000000000000000000000000000602082015250565b7f43616e6e6f7420626520636f6e74726163742e00000000000000000000000000600082015250565b7f4f776e61626c653a2063616c6c6572206973206e6f7420746865206f776e6572600082015250565b7f526f756e6420656e646564206f72206e6f742073746172746564207965742e20600082015250565b7f506572696f64206d75737420626520706f7369746976652074696d652e200000600082015250565b7f5573657220646f6573206e6f7420657869737400000000000000000000000000600082015250565b7f526f756e6473207765726520616c726561647920737461727465640000000000600082015250565b7f416464726573733a2063616c6c20746f206e6f6e2d636f6e7472616374000000600082015250565b7f53616372696669636520697320616c726561647920737570706f727465642e20600082015250565b7f5361666545524332303a204552433230206f7065726174696f6e20646964206e60008201527f6f74207375636365656400000000000000000000000000000000000000000000602082015250565b61353e81613024565b811461354957600080fd5b50565b61355581613036565b811461356057600080fd5b50565b61356c81613042565b811461357757600080fd5b50565b6135838161308a565b811461358e57600080fd5b50565b61359a81613094565b81146135a557600080fd5b5056fea2646970667358221220e3e7efa1676a35fc435dc5d7da7865cd021512e54888e89668321596e3565c3164736f6c63430008010033",
  "immutableReferences": {},
  "source": "// SPDX-License-Identifier: UNLICENSED\r\npragma solidity >=0.8.0;\r\nimport \"@openzeppelin/contracts/access/Ownable.sol\";\r\nimport \"@openzeppelin/contracts/utils/math/SafeMath.sol\";\r\nimport \"@openzeppelin/contracts/token/ERC20/utils/SafeERC20.sol\";\r\nimport \"@openzeppelin/contracts/interfaces/IERC20.sol\";\r\nimport \"./interfaces/IOraclePair.sol\";\r\n\r\nstruct Sacrifice {\r\n    bool isEnabled;\r\n    bool isStable;\r\n    address oracleAddress;\r\n}\r\n\r\nstruct User {\r\n    string nickname;\r\n    address user;\r\n    uint256 amount;\r\n}\r\n\r\ncontract HmineSacrifice is Ownable {\r\n    using SafeMath for uint256;\r\n\r\n    mapping(address => Sacrifice) public sacrifices;\r\n    uint256 public startTime;\r\n    uint256 public roundPeriod = 48 hours;\r\n    uint256 public hminePerRound = 50000e18; //Hmine per round is 50K\r\n    uint256 public totalHmine;\r\n    uint256 public initPrice = 600; // The price is dvisible by 100.  So in this case 600 is actually $6.00\r\n    uint256 index = 0;\r\n    mapping(address => uint256) userIndex;\r\n    mapping(uint256 => User) public users;\r\n    address public sacrificesTo;\r\n    address public wbnb;\r\n\r\n    constructor(\r\n        address _sacTo,\r\n        address _wbnb,\r\n        address _bnbLP\r\n    ) {\r\n        sacrificesTo = _sacTo;\r\n        wbnb = _wbnb;\r\n        _addSac(_wbnb, false, _bnbLP);\r\n    }\r\n\r\n    receive() external payable {}\r\n\r\n    function getSacrificeInfo(address _token)\r\n        external\r\n        view\r\n        returns (Sacrifice memory)\r\n    {\r\n        return sacrifices[_token];\r\n    }\r\n\r\n    function updateRoundMax(uint256 _max) external onlyOwner {\r\n        require(startTime == 0, \"Cannot update after round started\");\r\n        hminePerRound = _max;\r\n    }\r\n\r\n    function sacrificeERC20(address _token, uint256 _amount) public {\r\n        require(hasSacrifice(_token), \"Sacrifice not supported. \");\r\n        require(_amount > 0, \"Amount cannot be less than zero\");\r\n\r\n        uint256 _hmineAmount;\r\n        uint256 price = initPrice;\r\n\r\n        if (\r\n            totalHmine >= hminePerRound ||\r\n            block.timestamp > startTime.add(roundPeriod)\r\n        ) {\r\n            price = initPrice.add(50);\r\n        }\r\n\r\n        if (sacrifices[_token].isStable) {\r\n            _hmineAmount = _amount.div(price).mul(100);\r\n        } else {\r\n            _hmineAmount = getAmountInStable(\r\n                _token,\r\n                sacrifices[_token].oracleAddress,\r\n                _amount\r\n            ).div(price).mul(100);\r\n        }\r\n\r\n        require(\r\n            validateRound(_hmineAmount),\r\n            \"Round ended or not started yet. \"\r\n        );\r\n\r\n        uint256 _index = assignUserIndex(msg.sender);\r\n        users[_index].user = msg.sender;\r\n        users[_index].amount = _hmineAmount.add(users[_index].amount);\r\n        totalHmine = _hmineAmount.add(totalHmine);\r\n        SafeERC20.safeTransferFrom(\r\n            IERC20(_token),\r\n            msg.sender,\r\n            sacrificesTo,\r\n            _amount\r\n        );\r\n    }\r\n\r\n    function sacrificeBNB() public payable {\r\n        uint256 _amount = msg.value;\r\n        require(hasSacrifice(wbnb), \"Sacrifice not supported. \");\r\n        require(_amount > 0, \"Amount cannot be less than zero\");\r\n\r\n        uint256 _hmineAmount;\r\n        uint256 price = initPrice;\r\n\r\n        if (\r\n            totalHmine >= hminePerRound ||\r\n            block.timestamp > startTime.add(roundPeriod)\r\n        ) {\r\n            price = initPrice.add(50);\r\n        }\r\n\r\n        _hmineAmount = getAmountInStable(\r\n            wbnb,\r\n            sacrifices[wbnb].oracleAddress,\r\n            _amount\r\n        ).div(price).mul(100);\r\n\r\n        require(\r\n            validateRound(_hmineAmount),\r\n            \"Round ended or not started yet. \"\r\n        );\r\n\r\n        uint256 _index = assignUserIndex(msg.sender);\r\n        users[_index].user = msg.sender;\r\n        users[_index].amount = _hmineAmount.add(users[_index].amount);\r\n        totalHmine = _hmineAmount.add(totalHmine);\r\n\r\n        //Sends BNB to the multisig wallet.\r\n        address payable receiver = payable(sacrificesTo);\r\n        receiver.transfer(msg.value);\r\n    }\r\n\r\n    function startFirstRound(uint256 _time) public onlyOwner {\r\n        require(\r\n            startTime > block.timestamp || startTime == 0,\r\n            \"Rounds were already started\"\r\n        );\r\n        startTime = _time;\r\n    }\r\n\r\n    function updateRoundPeriod(uint256 _rPeriod) public onlyOwner {\r\n        require(_rPeriod > 0, \"Period must be positive time. \");\r\n        roundPeriod = _rPeriod;\r\n    }\r\n\r\n    function updateSacrifice(\r\n        address _token,\r\n        bool _isStable,\r\n        address _lpAddress\r\n    ) public onlyOwner {\r\n        require(address(this) != _lpAddress, \"Cannot be contract.\");\r\n        require(hasSacrifice(_token), \"Sacrifice not supported. \");\r\n        sacrifices[_token].isStable = _isStable;\r\n        sacrifices[_token].oracleAddress = _lpAddress;\r\n    }\r\n\r\n    function removeSacrifice(address _token) public onlyOwner {\r\n        require(hasSacrifice(_token), \"Sacrifice not supported. \");\r\n        delete sacrifices[_token];\r\n    }\r\n\r\n    function updateNickname(string memory nickname) public {\r\n        uint256 _index = userIndex[msg.sender];\r\n        require(index != 0, \"User does not exist\");\r\n        users[_index].nickname = nickname;\r\n    }\r\n\r\n    function addSacToken(\r\n        address _token,\r\n        bool _isStable,\r\n        address _lpAddress\r\n    ) public onlyOwner {\r\n        require(\r\n            address(this) != _token && address(this) != _lpAddress,\r\n            \"Cannot be contract.\"\r\n        );\r\n        require(!hasSacrifice(_token), \"Sacrifice is already supported. \");\r\n        _addSac(_token, _isStable, _lpAddress);\r\n    }\r\n\r\n    function _addSac(\r\n        address _token,\r\n        bool _isStable,\r\n        address _lpAddress\r\n    ) internal {\r\n        sacrifices[_token] = Sacrifice(true, _isStable, _lpAddress);\r\n    }\r\n\r\n    // Returns the users data by address lookup.\r\n    function getUserByAddress(address _user) public view returns (User memory) {\r\n        uint256 _index = userIndex[_user];\r\n        return users[_index];\r\n    }\r\n\r\n    // Returns the users data by Index.\r\n    function getUserByIndex(uint256 _index) public view returns (User memory) {\r\n        return users[_index];\r\n    }\r\n\r\n    // Returns the current round.\r\n    function getCurrentRound() public view returns (uint16) {\r\n        if (startTime == 0) {\r\n            return 0;\r\n        }\r\n        if (block.timestamp <= startTime.add(roundPeriod)) {\r\n            return 1;\r\n        }\r\n        return 2;\r\n    }\r\n\r\n    /* Check to make sure that conditions are met for the transaction to go through.\r\n     ** Cannot start sacrifice unless startTime has been specified.\r\n     ** Cannot sacrifice for anymore if 50K HMINE met before round 1 ends.\r\n     ** Cannot sacrifice if 100K HMINE met or round2 ends.\r\n     */\r\n    function validateRound(uint256 _hmineAmount) internal view returns (bool) {\r\n        // No start time yet.\r\n        if (startTime == 0 || block.timestamp < startTime) {\r\n            return false;\r\n        }\r\n\r\n        // HMINE for first round met, but it's still not 48 hours yet.\r\n        if (\r\n            totalHmine.add(_hmineAmount) > hminePerRound &&\r\n            block.timestamp < startTime.add(roundPeriod)\r\n        ) {\r\n            return false;\r\n        }\r\n\r\n        // HMINE cap has been met or block time has passed the 4 day period.\r\n        if (\r\n            totalHmine.add(_hmineAmount) > hminePerRound.mul(2) ||\r\n            block.timestamp >= (roundPeriod).mul(2).add(startTime)\r\n        ) {\r\n            return false;\r\n        }\r\n\r\n        return true;\r\n    }\r\n\r\n    // Takes in a user address and finds an existing index that is corelated to the user.\r\n    // If index not found (ZERO) then it assigns an index to the user.\r\n    function assignUserIndex(address _user) internal returns (uint256) {\r\n        if (userIndex[_user] != 0) {\r\n            return userIndex[_user];\r\n        }\r\n        index = index++;\r\n        return index;\r\n    }\r\n\r\n    // Checks if token is a supported asset to sacrifice.\r\n    function hasSacrifice(address _token) internal view returns (bool) {\r\n        if (sacrifices[_token].isEnabled) {\r\n            return true;\r\n        }\r\n        return false;\r\n    }\r\n\r\n    // If token is not a stable token, use this to find the price for the token.\r\n    // This uses an active LP approach.\r\n    function getAmountInStable(\r\n        address _token,\r\n        address _lp,\r\n        uint256 _amount\r\n    ) internal view returns (uint256) {\r\n        IOraclePair LP = IOraclePair(_lp);\r\n        (uint256 reserve0, uint256 reserve1, ) = LP.getReserves();\r\n        address token0 = LP.token0();\r\n\r\n        if (token0 == _token) {\r\n            return reserve1.mul(_amount).div(reserve0);\r\n        } else {\r\n            return reserve0.mul(_amount).div(reserve1);\r\n        }\r\n    }\r\n}\r\n",
  "sourcePath": "C:/GitHub/hypermine-sacrifice/contracts/HmineSacrifice.sol",
  "compiler": {
    "name": "solc",
    "version": "0.8.1+commit.df193b15.Emscripten.clang"
  },
  "schemaVersion": "3.4.1",
  "updatedAt": "2022-06-14T20:00:01.884Z",
  "networkType": "ethereum",
  "devdoc": {
    "kind": "dev",
    "methods": {
      "owner()": {
        "details": "Returns the address of the current owner."
      },
      "renounceOwnership()": {
        "details": "Leaves the contract without owner. It will not be possible to call `onlyOwner` functions anymore. Can only be called by the current owner. NOTE: Renouncing ownership will leave the contract without an owner, thereby removing any functionality that is only available to the owner."
      },
      "transferOwnership(address)": {
        "details": "Transfers ownership of the contract to a new account (`newOwner`). Can only be called by the current owner."
      }
    },
    "version": 1
  },
  "userdoc": {
    "kind": "user",
    "methods": {},
    "version": 1
  }
}