{
  "contractName": "HmineMain",
  "abi": [
    {
      "inputs": [
        {
          "internalType": "address",
          "name": "_currenctyToken",
          "type": "address"
        },
        {
          "internalType": "address",
          "name": "_hmineToken",
          "type": "address"
        }
      ],
      "stateMutability": "nonpayable",
      "type": "constructor"
    },
    {
      "anonymous": false,
      "inputs": [
        {
          "indexed": false,
          "internalType": "uint256",
          "name": "_amount",
          "type": "uint256"
        }
      ],
      "name": "BonusReward",
      "type": "event"
    },
    {
      "anonymous": false,
      "inputs": [
        {
          "indexed": true,
          "internalType": "address",
          "name": "_user",
          "type": "address"
        },
        {
          "indexed": false,
          "internalType": "uint256",
          "name": "_amount",
          "type": "uint256"
        },
        {
          "indexed": false,
          "internalType": "uint256",
          "name": "_price",
          "type": "uint256"
        }
      ],
      "name": "Buy",
      "type": "event"
    },
    {
      "anonymous": false,
      "inputs": [
        {
          "indexed": true,
          "internalType": "address",
          "name": "_user",
          "type": "address"
        },
        {
          "indexed": false,
          "internalType": "uint256",
          "name": "_amount",
          "type": "uint256"
        },
        {
          "indexed": false,
          "internalType": "uint256",
          "name": "_price",
          "type": "uint256"
        }
      ],
      "name": "Compound",
      "type": "event"
    },
    {
      "anonymous": false,
      "inputs": [
        {
          "indexed": true,
          "internalType": "address",
          "name": "previousOwner",
          "type": "address"
        },
        {
          "indexed": true,
          "internalType": "address",
          "name": "newOwner",
          "type": "address"
        }
      ],
      "name": "OwnershipTransferred",
      "type": "event"
    },
    {
      "anonymous": false,
      "inputs": [
        {
          "indexed": true,
          "internalType": "address",
          "name": "_user",
          "type": "address"
        },
        {
          "indexed": false,
          "internalType": "uint256",
          "name": "_amount",
          "type": "uint256"
        },
        {
          "indexed": false,
          "internalType": "uint256",
          "name": "_price",
          "type": "uint256"
        }
      ],
      "name": "Sell",
      "type": "event"
    },
    {
      "inputs": [],
      "name": "FURNACE",
      "outputs": [
        {
          "internalType": "address",
          "name": "",
          "type": "address"
        }
      ],
      "stateMutability": "view",
      "type": "function",
      "constant": true
    },
    {
      "inputs": [],
      "name": "accRewardPerShare",
      "outputs": [
        {
          "internalType": "uint256",
          "name": "",
          "type": "uint256"
        }
      ],
      "stateMutability": "view",
      "type": "function",
      "constant": true
    },
    {
      "inputs": [],
      "name": "bankroll",
      "outputs": [
        {
          "internalType": "address",
          "name": "",
          "type": "address"
        }
      ],
      "stateMutability": "view",
      "type": "function",
      "constant": true
    },
    {
      "inputs": [],
      "name": "currencyToken",
      "outputs": [
        {
          "internalType": "address",
          "name": "",
          "type": "address"
        }
      ],
      "stateMutability": "view",
      "type": "function",
      "constant": true
    },
    {
      "inputs": [],
      "name": "currentPrice",
      "outputs": [
        {
          "internalType": "uint256",
          "name": "",
          "type": "uint256"
        }
      ],
      "stateMutability": "view",
      "type": "function",
      "constant": true
    },
    {
      "inputs": [],
      "name": "firstRound",
      "outputs": [
        {
          "internalType": "uint256",
          "name": "",
          "type": "uint256"
        }
      ],
      "stateMutability": "view",
      "type": "function",
      "constant": true
    },
    {
      "inputs": [],
      "name": "hmineToken",
      "outputs": [
        {
          "internalType": "address",
          "name": "",
          "type": "address"
        }
      ],
      "stateMutability": "view",
      "type": "function",
      "constant": true
    },
    {
      "inputs": [],
      "name": "index",
      "outputs": [
        {
          "internalType": "uint256",
          "name": "",
          "type": "uint256"
        }
      ],
      "stateMutability": "view",
      "type": "function",
      "constant": true
    },
    {
      "inputs": [
        {
          "internalType": "uint256",
          "name": "",
          "type": "uint256"
        }
      ],
      "name": "management",
      "outputs": [
        {
          "internalType": "address",
          "name": "",
          "type": "address"
        }
      ],
      "stateMutability": "view",
      "type": "function",
      "constant": true
    },
    {
      "inputs": [],
      "name": "maxSupply",
      "outputs": [
        {
          "internalType": "uint256",
          "name": "",
          "type": "uint256"
        }
      ],
      "stateMutability": "view",
      "type": "function",
      "constant": true
    },
    {
      "inputs": [],
      "name": "owner",
      "outputs": [
        {
          "internalType": "address",
          "name": "",
          "type": "address"
        }
      ],
      "stateMutability": "view",
      "type": "function",
      "constant": true
    },
    {
      "inputs": [],
      "name": "renounceOwnership",
      "outputs": [],
      "stateMutability": "nonpayable",
      "type": "function"
    },
    {
      "inputs": [],
      "name": "rewardGiver",
      "outputs": [
        {
          "internalType": "address",
          "name": "",
          "type": "address"
        }
      ],
      "stateMutability": "view",
      "type": "function",
      "constant": true
    },
    {
      "inputs": [],
      "name": "rewardTotal",
      "outputs": [
        {
          "internalType": "uint256",
          "name": "",
          "type": "uint256"
        }
      ],
      "stateMutability": "view",
      "type": "function",
      "constant": true
    },
    {
      "inputs": [],
      "name": "roundIncrement",
      "outputs": [
        {
          "internalType": "uint256",
          "name": "",
          "type": "uint256"
        }
      ],
      "stateMutability": "view",
      "type": "function",
      "constant": true
    },
    {
      "inputs": [],
      "name": "safeHolders",
      "outputs": [
        {
          "internalType": "address",
          "name": "",
          "type": "address"
        }
      ],
      "stateMutability": "view",
      "type": "function",
      "constant": true
    },
    {
      "inputs": [],
      "name": "secondRound",
      "outputs": [
        {
          "internalType": "uint256",
          "name": "",
          "type": "uint256"
        }
      ],
      "stateMutability": "view",
      "type": "function",
      "constant": true
    },
    {
      "inputs": [],
      "name": "startTime",
      "outputs": [
        {
          "internalType": "uint256",
          "name": "",
          "type": "uint256"
        }
      ],
      "stateMutability": "view",
      "type": "function",
      "constant": true
    },
    {
      "inputs": [],
      "name": "totalSold",
      "outputs": [
        {
          "internalType": "uint256",
          "name": "",
          "type": "uint256"
        }
      ],
      "stateMutability": "view",
      "type": "function",
      "constant": true
    },
    {
      "inputs": [],
      "name": "totalStaked",
      "outputs": [
        {
          "internalType": "uint256",
          "name": "",
          "type": "uint256"
        }
      ],
      "stateMutability": "view",
      "type": "function",
      "constant": true
    },
    {
      "inputs": [
        {
          "internalType": "address",
          "name": "newOwner",
          "type": "address"
        }
      ],
      "name": "transferOwnership",
      "outputs": [],
      "stateMutability": "nonpayable",
      "type": "function"
    },
    {
      "inputs": [
        {
          "internalType": "address",
          "name": "",
          "type": "address"
        }
      ],
      "name": "userIndex",
      "outputs": [
        {
          "internalType": "uint256",
          "name": "",
          "type": "uint256"
        }
      ],
      "stateMutability": "view",
      "type": "function",
      "constant": true
    },
    {
      "inputs": [
        {
          "internalType": "address",
          "name": "",
          "type": "address"
        }
      ],
      "name": "userRewardDebt",
      "outputs": [
        {
          "internalType": "uint256",
          "name": "",
          "type": "uint256"
        }
      ],
      "stateMutability": "view",
      "type": "function",
      "constant": true
    },
    {
      "inputs": [
        {
          "internalType": "uint256",
          "name": "",
          "type": "uint256"
        }
      ],
      "name": "users",
      "outputs": [
        {
          "internalType": "string",
          "name": "nickname",
          "type": "string"
        },
        {
          "internalType": "address",
          "name": "user",
          "type": "address"
        },
        {
          "internalType": "uint256",
          "name": "amount",
          "type": "uint256"
        },
        {
          "internalType": "uint256",
          "name": "reward",
          "type": "uint256"
        }
      ],
      "stateMutability": "view",
      "type": "function",
      "constant": true
    },
    {
      "inputs": [
        {
          "internalType": "uint256",
          "name": "_startTime",
          "type": "uint256"
        }
      ],
      "name": "initialize",
      "outputs": [],
      "stateMutability": "nonpayable",
      "type": "function"
    },
    {
      "inputs": [
        {
          "components": [
            {
              "internalType": "string",
              "name": "nickname",
              "type": "string"
            },
            {
              "internalType": "address",
              "name": "user",
              "type": "address"
            },
            {
              "internalType": "uint256",
              "name": "amount",
              "type": "uint256"
            },
            {
              "internalType": "uint256",
              "name": "reward",
              "type": "uint256"
            }
          ],
          "internalType": "struct HmineMain.User[]",
          "name": "_users",
          "type": "tuple[]"
        }
      ],
      "name": "migrateSacrifice",
      "outputs": [],
      "stateMutability": "nonpayable",
      "type": "function"
    },
    {
      "inputs": [],
      "name": "hmineReserve",
      "outputs": [
        {
          "internalType": "uint256",
          "name": "_hmineReserve",
          "type": "uint256"
        }
      ],
      "stateMutability": "view",
      "type": "function",
      "constant": true
    },
    {
      "inputs": [],
      "name": "currencyReserve",
      "outputs": [
        {
          "internalType": "uint256",
          "name": "_currencyReserve",
          "type": "uint256"
        }
      ],
      "stateMutability": "view",
      "type": "function",
      "constant": true
    },
    {
      "inputs": [
        {
          "internalType": "uint256",
          "name": "_amount",
          "type": "uint256"
        }
      ],
      "name": "recoverReserve",
      "outputs": [],
      "stateMutability": "nonpayable",
      "type": "function"
    },
    {
      "inputs": [
        {
          "internalType": "uint256",
          "name": "_amount",
          "type": "uint256"
        },
        {
          "internalType": "bool",
          "name": "_isBuy",
          "type": "bool"
        }
      ],
      "name": "calculateSwap",
      "outputs": [
        {
          "internalType": "uint256",
          "name": "_value",
          "type": "uint256"
        }
      ],
      "stateMutability": "view",
      "type": "function",
      "constant": true
    },
    {
      "inputs": [
        {
          "internalType": "uint256",
          "name": "_amount",
          "type": "uint256"
        }
      ],
      "name": "buy",
      "outputs": [],
      "stateMutability": "nonpayable",
      "type": "function"
    },
    {
      "inputs": [
        {
          "internalType": "uint256",
          "name": "_amount",
          "type": "uint256"
        }
      ],
      "name": "sell",
      "outputs": [],
      "stateMutability": "nonpayable",
      "type": "function"
    },
    {
      "inputs": [
        {
          "internalType": "uint256",
          "name": "_amount",
          "type": "uint256"
        }
      ],
      "name": "stake",
      "outputs": [],
      "stateMutability": "nonpayable",
      "type": "function"
    },
    {
      "inputs": [
        {
          "internalType": "uint256",
          "name": "_amount",
          "type": "uint256"
        }
      ],
      "name": "unstake",
      "outputs": [],
      "stateMutability": "nonpayable",
      "type": "function"
    },
    {
      "inputs": [
        {
          "internalType": "string",
          "name": "_nickname",
          "type": "string"
        }
      ],
      "name": "updateNickname",
      "outputs": [],
      "stateMutability": "nonpayable",
      "type": "function"
    },
    {
      "inputs": [],
      "name": "claim",
      "outputs": [],
      "stateMutability": "nonpayable",
      "type": "function"
    },
    {
      "inputs": [],
      "name": "compound",
      "outputs": [],
      "stateMutability": "nonpayable",
      "type": "function"
    },
    {
      "inputs": [
        {
          "internalType": "uint256",
          "name": "_amount",
          "type": "uint256"
        },
        {
          "internalType": "address[]",
          "name": "_topTen",
          "type": "address[]"
        },
        {
          "internalType": "address[]",
          "name": "_topTwenty",
          "type": "address[]"
        }
      ],
      "name": "sendBonusDiv",
      "outputs": [],
      "stateMutability": "nonpayable",
      "type": "function"
    },
    {
      "inputs": [
        {
          "internalType": "uint256",
          "name": "_amount",
          "type": "uint256"
        }
      ],
      "name": "sendDailyDiv",
      "outputs": [],
      "stateMutability": "nonpayable",
      "type": "function"
    },
    {
      "inputs": [
        {
          "internalType": "address",
          "name": "_userAddress",
          "type": "address"
        }
      ],
      "name": "userRewardBalance",
      "outputs": [
        {
          "internalType": "uint256",
          "name": "_reward",
          "type": "uint256"
        }
      ],
      "stateMutability": "view",
      "type": "function",
      "constant": true
    },
    {
      "inputs": [
        {
          "internalType": "address",
          "name": "_userAddress",
          "type": "address"
        }
      ],
      "name": "getUserByAddress",
      "outputs": [
        {
          "components": [
            {
              "internalType": "string",
              "name": "nickname",
              "type": "string"
            },
            {
              "internalType": "address",
              "name": "user",
              "type": "address"
            },
            {
              "internalType": "uint256",
              "name": "amount",
              "type": "uint256"
            },
            {
              "internalType": "uint256",
              "name": "reward",
              "type": "uint256"
            }
          ],
          "internalType": "struct HmineMain.User",
          "name": "_user",
          "type": "tuple"
        }
      ],
      "stateMutability": "view",
      "type": "function",
      "constant": true
    },
    {
      "inputs": [
        {
          "internalType": "uint256",
          "name": "_index",
          "type": "uint256"
        }
      ],
      "name": "getUserByIndex",
      "outputs": [
        {
          "components": [
            {
              "internalType": "string",
              "name": "nickname",
              "type": "string"
            },
            {
              "internalType": "address",
              "name": "user",
              "type": "address"
            },
            {
              "internalType": "uint256",
              "name": "amount",
              "type": "uint256"
            },
            {
              "internalType": "uint256",
              "name": "reward",
              "type": "uint256"
            }
          ],
          "internalType": "struct HmineMain.User",
          "name": "_user",
          "type": "tuple"
        }
      ],
      "stateMutability": "view",
      "type": "function",
      "constant": true
    },
    {
      "inputs": [
        {
          "internalType": "address",
          "name": "_rewardGiver",
          "type": "address"
        },
        {
          "internalType": "address",
          "name": "_bankRoll",
          "type": "address"
        }
      ],
      "name": "updateStateAddresses",
      "outputs": [],
      "stateMutability": "nonpayable",
      "type": "function"
    },
    {
      "inputs": [
        {
          "internalType": "address",
          "name": "_management",
          "type": "address"
        },
        {
          "internalType": "uint256",
          "name": "_i",
          "type": "uint256"
        }
      ],
      "name": "updateManagement",
      "outputs": [],
      "stateMutability": "nonpayable",
      "type": "function"
    }
  ],
  "bytecode": "0x60c06040526040518060800160405280735c9de63470d0d6d8103f7c83f1be4f55998706fc73ffffffffffffffffffffffffffffffffffffffff1673ffffffffffffffffffffffffffffffffffffffff168152602001732165fa4a32b9c228cd55713f77d2e977297d03e873ffffffffffffffffffffffffffffffffffffffff1673ffffffffffffffffffffffffffffffffffffffff1681526020017370f5fb6be943162545a496ed120495b05dc5ce0773ffffffffffffffffffffffffffffffffffffffff1673ffffffffffffffffffffffffffffffffffffffff1681526020017336b13280500aebc5a75ebc1e9cb9bf1b6a78a95e73ffffffffffffffffffffffffffffffffffffffff1673ffffffffffffffffffffffffffffffffffffffff1681525060029060046200013792919062000384565b507325be1fcf5f51c418a0c30357a4e8371db9cf9369600660006101000a81548173ffffffffffffffffffffffffffffffffffffffff021916908373ffffffffffffffffffffffffffffffffffffffff160217905550732165fa4a32b9c228cd55713f77d2e977297d03e8600760006101000a81548173ffffffffffffffffffffffffffffffffffffffff021916908373ffffffffffffffffffffffffffffffffffffffff160217905550676124fee993bc0000600c55348015620001fb57600080fd5b506040516200616e3803806200616e83398181016040528101906200022191906200048f565b6200024162000235620002b860201b60201c565b620002c060201b60201c565b600180819055508173ffffffffffffffffffffffffffffffffffffffff1660808173ffffffffffffffffffffffffffffffffffffffff16815250508073ffffffffffffffffffffffffffffffffffffffff1660a08173ffffffffffffffffffffffffffffffffffffffff16815250505050620004d6565b600033905090565b60008060009054906101000a900473ffffffffffffffffffffffffffffffffffffffff169050816000806101000a81548173ffffffffffffffffffffffffffffffffffffffff021916908373ffffffffffffffffffffffffffffffffffffffff1602179055508173ffffffffffffffffffffffffffffffffffffffff168173ffffffffffffffffffffffffffffffffffffffff167f8be0079c531659141344cd1fd0a4f28419497f9722a3daafe3b4186f6b6457e060405160405180910390a35050565b8260048101928215620003f3579160200282015b82811115620003f25782518260006101000a81548173ffffffffffffffffffffffffffffffffffffffff021916908373ffffffffffffffffffffffffffffffffffffffff1602179055509160200191906001019062000398565b5b50905062000402919062000406565b5090565b5b808211156200042157600081600090555060010162000407565b5090565b600080fd5b600073ffffffffffffffffffffffffffffffffffffffff82169050919050565b600062000457826200042a565b9050919050565b62000469816200044a565b81146200047557600080fd5b50565b60008151905062000489816200045e565b92915050565b60008060408385031215620004a957620004a862000425565b5b6000620004b98582860162000478565b9250506020620004cc8582860162000478565b9150509250929050565b60805160a051615bdf6200058f60003960008181610ad801528181610b4501528181610b90015281816114ff01528181611f00015281816121a901528181612a6301528181612fdb01526131720152600081816107e301528181610db20152818161157e015281816117c5015281816119de01528181612053015281816121490152818161241801528181612ac901528181612bbf01528181613ca801528181613d3b01528181613dc70152613e790152615bdf6000f3fe608060405234801561001057600080fd5b50600436106102745760003560e01c80638da5cb5b11610151578063c96679fe116100c3578063f2fde38b11610087578063f2fde38b14610730578063f69e20461461074c578063f703542e14610756578063f959680b14610774578063fe4b84df14610792578063ff5d32fe146107ae57610274565b8063c96679fe1461068e578063cbc8f275146106be578063d5abeb01146106da578063d96a094a146106f8578063e4849b321461071457610274565b80639d1b464a116101155780639d1b464a146105e0578063a694fc3a146105fe578063a88db3ff1461061a578063b2dd71d014610636578063b476dd1c14610654578063bd2e3b171461067257610274565b80638da5cb5b1461054c5780639106d7ba1461056a5780639295f47b14610588578063939d6237146105a657806398b29392146105c457610274565b80634c8af89f116101ea57806369c212f6116101ae57806369c212f6146104885780636b2fa374146104b8578063715018a6146104d657806378e97925146104e0578063817b1cd2146104fe5780638787bb151461051c57610274565b80634c8af89f146103e65780634cb11f99146104025780634e71d92d1461041e57806356a745121461042857806362e760131461045857610274565b8063333e530e1161023c578063333e530e1461030d578063337c46b21461032b578063348a60ef14610347578063365b98b2146103655780633aab16f7146103985780634bf6f9e7146103b657610274565b80630a8a2f6a146102795780630c657eb0146102975780632486df02146102b55780632986c0e5146102d35780632e17de78146102f1575b600080fd5b6102816107de565b60405161028e9190614277565b60405180910390f35b61029f610891565b6040516102ac91906142d3565b60405180910390f35b6102bd6108b7565b6040516102ca9190614277565b60405180910390f35b6102db6108c4565b6040516102e89190614277565b60405180910390f35b61030b6004803603810190610306919061432e565b6108ca565b005b610315610c20565b6040516103229190614277565b60405180910390f35b6103456004803603810190610340919061432e565b610c2e565b005b61034f610e24565b60405161035c91906142d3565b60405180910390f35b61037f600480360381019061037a919061432e565b610e4a565b60405161038f94939291906143f4565b60405180910390f35b6103a0610f22565b6040516103ad91906142d3565b60405180910390f35b6103d060048036038101906103cb919061446c565b610f28565b6040516103dd9190614277565b60405180910390f35b61040060048036038101906103fb9190614499565b610f40565b005b61041c60048036038101906104179190614792565b611192565b005b610426611638565b005b610442600480360381019061043d9190614813565b611814565b60405161044f9190614277565b60405180910390f35b610472600480360381019061046d919061432e565b61183e565b60405161047f91906142d3565b60405180910390f35b6104a2600480360381019061049d919061446c565b611874565b6040516104af919061491e565b60405180910390f35b6104c06119dc565b6040516104cd91906142d3565b60405180910390f35b6104de611a00565b005b6104e8611a88565b6040516104f59190614277565b60405180910390f35b610506611a8e565b6040516105139190614277565b60405180910390f35b6105366004803603810190610531919061446c565b611a94565b6040516105439190614277565b60405180910390f35b610554611b98565b60405161056191906142d3565b60405180910390f35b610572611bc1565b60405161057f9190614277565b60405180910390f35b610590611bc7565b60405161059d91906142d3565b60405180910390f35b6105ae611bdf565b6040516105bb9190614277565b60405180910390f35b6105de60048036038101906105d99190614940565b611be5565b005b6105e8611da4565b6040516105f59190614277565b60405180910390f35b6106186004803603810190610613919061432e565b611daa565b005b610634600480360381019061062f919061432e565b611f86565b005b61063e612199565b60405161064b9190614277565b60405180910390f35b61065c6121a7565b60405161066991906142d3565b60405180910390f35b61068c60048036038101906106879190614980565b6121cb565b005b6106a860048036038101906106a3919061446c565b61227c565b6040516106b59190614277565b60405180910390f35b6106d860048036038101906106d39190614a8c565b612294565b005b6106e26127ec565b6040516106ef9190614277565b60405180910390f35b610712600480360381019061070d919061432e565b6127fa565b005b61072e6004803603810190610729919061432e565b61295f565b005b61074a6004803603810190610745919061446c565b612c83565b005b610754612d7a565b005b61075e612fd6565b60405161076b9190614277565b60405180910390f35b61077c613089565b6040516107899190614277565b60405180910390f35b6107ac60048036038101906107a7919061432e565b61308f565b005b6107c860048036038101906107c3919061432e565b61325d565b6040516107d5919061491e565b60405180910390f35b6000807f000000000000000000000000000000000000000000000000000000000000000073ffffffffffffffffffffffffffffffffffffffff166370a08231306040518263ffffffff1660e01b815260040161083a91906142d3565b602060405180830381865afa158015610857573d6000803e3d6000fd5b505050506040513d601f19601f8201168201806040525081019061087b9190614b2c565b9050600d548161088b9190614b88565b91505090565b600660009054906101000a900473ffffffffffffffffffffffffffffffffffffffff1681565b683635c9adc5dea0000081565b60095481565b60026001540361090f576040517f08c379a000000000000000000000000000000000000000000000000000000000815260040161090690614c08565b60405180910390fd5b6002600181905550600180151560006008541415801561093157504260085411155b151514610973576040517f08c379a000000000000000000000000000000000000000000000000000000000815260040161096a90614c74565b60405180910390fd5b600082116109b6576040517f08c379a00000000000000000000000000000000000000000000000000000000081526004016109ad90614ce0565b60405180910390fd5b6000600e60003373ffffffffffffffffffffffffffffffffffffffff1673ffffffffffffffffffffffffffffffffffffffff16815260200190815260200160002054905060008103610a3d576040517f08c379a0000000000000000000000000000000000000000000000000000000008152600401610a3490614d4c565b60405180910390fd5b82600f6000838152602001908152602001600020600201541015610a96576040517f08c379a0000000000000000000000000000000000000000000000000000000008152600401610a8d90614db8565b60405180910390fd5b60006064600a85610aa79190614dd8565b610ab19190614e61565b90506000816002610ac29190614dd8565b85610acd9190614b88565b9050610b1c61dead837f000000000000000000000000000000000000000000000000000000000000000073ffffffffffffffffffffffffffffffffffffffff166133869092919063ffffffff16565b610b89600660009054906101000a900473ffffffffffffffffffffffffffffffffffffffff16837f000000000000000000000000000000000000000000000000000000000000000073ffffffffffffffffffffffffffffffffffffffff166133869092919063ffffffff16565b610bd433827f000000000000000000000000000000000000000000000000000000000000000073ffffffffffffffffffffffffffffffffffffffff166133869092919063ffffffff16565b610bf9600f600085815260200190815260200160002086610bf490614e9c565b61340c565b84600b6000828254610c0b9190614b88565b92505081905550505050506001808190555050565b69152d02c7e14af680000081565b600760009054906101000a900473ffffffffffffffffffffffffffffffffffffffff1673ffffffffffffffffffffffffffffffffffffffff163373ffffffffffffffffffffffffffffffffffffffff1614610cbe576040517f08c379a0000000000000000000000000000000000000000000000000000000008152600401610cb590614f30565b60405180910390fd5b600260015403610d03576040517f08c379a0000000000000000000000000000000000000000000000000000000008152600401610cfa90614c08565b60405180910390fd5b60026001819055506001801515600060085414158015610d2557504260085411155b151514610d67576040517f08c379a0000000000000000000000000000000000000000000000000000000008152600401610d5e90614c74565b60405180910390fd5b60008211610daa576040517f08c379a0000000000000000000000000000000000000000000000000000000008152600401610da190614ce0565b60405180910390fd5b610df73330847f000000000000000000000000000000000000000000000000000000000000000073ffffffffffffffffffffffffffffffffffffffff16613596909392919063ffffffff16565b610e008261361f565b81600d6000828254610e129190614f50565b92505081905550506001808190555050565b600760009054906101000a900473ffffffffffffffffffffffffffffffffffffffff1681565b600f602052806000526040600020600091509050806000018054610e6d90614fd5565b80601f0160208091040260200160405190810160405280929190818152602001828054610e9990614fd5565b8015610ee65780601f10610ebb57610100808354040283529160200191610ee6565b820191906000526020600020905b815481529060010190602001808311610ec957829003601f168201915b5050505050908060010160009054906101000a900473ffffffffffffffffffffffffffffffffffffffff16908060020154908060030154905084565b61dead81565b60116020528060005260406000206000915090505481565b610f48613658565b73ffffffffffffffffffffffffffffffffffffffff16610f66611b98565b73ffffffffffffffffffffffffffffffffffffffff1614610fbc576040517f08c379a0000000000000000000000000000000000000000000000000000000008152600401610fb390615052565b60405180910390fd5b600073ffffffffffffffffffffffffffffffffffffffff168173ffffffffffffffffffffffffffffffffffffffff161415801561102557503073ffffffffffffffffffffffffffffffffffffffff168173ffffffffffffffffffffffffffffffffffffffff1614155b611064576040517f08c379a000000000000000000000000000000000000000000000000000000000815260040161105b906150be565b60405180910390fd5b600073ffffffffffffffffffffffffffffffffffffffff168273ffffffffffffffffffffffffffffffffffffffff16141580156110cd57503073ffffffffffffffffffffffffffffffffffffffff168273ffffffffffffffffffffffffffffffffffffffff1614155b61110c576040517f08c379a0000000000000000000000000000000000000000000000000000000008152600401611103906150be565b60405180910390fd5b80600660006101000a81548173ffffffffffffffffffffffffffffffffffffffff021916908373ffffffffffffffffffffffffffffffffffffffff16021790555081600760006101000a81548173ffffffffffffffffffffffffffffffffffffffff021916908373ffffffffffffffffffffffffffffffffffffffff1602179055505050565b61119a613658565b73ffffffffffffffffffffffffffffffffffffffff166111b8611b98565b73ffffffffffffffffffffffffffffffffffffffff161461120e576040517f08c379a000000000000000000000000000000000000000000000000000000000815260040161120590615052565b60405180910390fd5b600260015403611253576040517f08c379a000000000000000000000000000000000000000000000000000000000815260040161124a90614c08565b60405180910390fd5b6002600181905550600080151560006008541415801561127557504260085411155b1515146112b7576040517f08c379a00000000000000000000000000000000000000000000000000000000081526004016112ae90614c74565b60405180910390fd5b60008060005b84518110156114f65760008582815181106112db576112da6150de565b5b6020026020010151602001519050600073ffffffffffffffffffffffffffffffffffffffff168173ffffffffffffffffffffffffffffffffffffffff1603611358576040517f08c379a000000000000000000000000000000000000000000000000000000000815260040161134f906150be565b60405180910390fd5b6000600e60008373ffffffffffffffffffffffffffffffffffffffff1673ffffffffffffffffffffffffffffffffffffffff16815260200190815260200160002054146113da576040517f08c379a00000000000000000000000000000000000000000000000000000000081526004016113d190615159565b60405180910390fd5b60006113e582613660565b90508683815181106113fa576113f96150de565b5b6020026020010151600f6000838152602001908152602001600020600082015181600001908161142a9190615325565b5060208201518160010160006101000a81548173ffffffffffffffffffffffffffffffffffffffff021916908373ffffffffffffffffffffffffffffffffffffffff160217905550604082015181600201556060820151816003015590505086838151811061149c5761149b6150de565b5b602002602001015160400151856114b39190614f50565b94508683815181106114c8576114c76150de565b5b602002602001015160600151846114df9190614f50565b9350505080806114ee906153f7565b9150506112bd565b506115443330847f000000000000000000000000000000000000000000000000000000000000000073ffffffffffffffffffffffffffffffffffffffff16613596909392919063ffffffff16565b81600a60008282546115569190614f50565b9250508190555081600b600082825461156f9190614f50565b925050819055506115c33330837f000000000000000000000000000000000000000000000000000000000000000073ffffffffffffffffffffffffffffffffffffffff16613596909392919063ffffffff16565b80600d60008282546115d59190614f50565b9250508190555069152d02c7e14af6800000600a54111561162b576040517f08c379a00000000000000000000000000000000000000000000000000000000081526004016116229061548b565b60405180910390fd5b5050506001808190555050565b60026001540361167d576040517f08c379a000000000000000000000000000000000000000000000000000000000815260040161167490614c08565b60405180910390fd5b60026001819055506000600e60003373ffffffffffffffffffffffffffffffffffffffff1673ffffffffffffffffffffffffffffffffffffffff16815260200190815260200160002054905060006009540361170e576040517f08c379a0000000000000000000000000000000000000000000000000000000008152600401611705906154f7565b60405180910390fd5b61172b600f6000838152602001908152602001600020600061340c565b6000600f600083815260200190815260200160002060030154905060008111611789576040517f08c379a000000000000000000000000000000000000000000000000000000000815260040161178090615563565b60405180910390fd5b80600d600082825461179b9190614b88565b925050819055506000600f60008481526020019081526020016000206003018190555061180933827f000000000000000000000000000000000000000000000000000000000000000073ffffffffffffffffffffffffffffffffffffffff166133869092919063ffffffff16565b505060018081905550565b6000816118295761182483613748565b611833565b6118328361389a565b5b508091505092915050565b6002816004811061184e57600080fd5b016000915054906101000a900473ffffffffffffffffffffffffffffffffffffffff1681565b61187c614220565b600f6000600e60008573ffffffffffffffffffffffffffffffffffffffff1673ffffffffffffffffffffffffffffffffffffffff1681526020019081526020016000205481526020019081526020016000206040518060800160405290816000820180546118e990614fd5565b80601f016020809104026020016040519081016040528092919081815260200182805461191590614fd5565b80156119625780601f1061193757610100808354040283529160200191611962565b820191906000526020600020905b81548152906001019060200180831161194557829003601f168201915b505050505081526020016001820160009054906101000a900473ffffffffffffffffffffffffffffffffffffffff1673ffffffffffffffffffffffffffffffffffffffff1673ffffffffffffffffffffffffffffffffffffffff168152602001600282015481526020016003820154815250509050919050565b7f000000000000000000000000000000000000000000000000000000000000000081565b611a08613658565b73ffffffffffffffffffffffffffffffffffffffff16611a26611b98565b73ffffffffffffffffffffffffffffffffffffffff1614611a7c576040517f08c379a0000000000000000000000000000000000000000000000000000000008152600401611a7390615052565b60405180910390fd5b611a866000613b17565b565b60085481565b600b5481565b600080600f6000600e60008673ffffffffffffffffffffffffffffffffffffffff1673ffffffffffffffffffffffffffffffffffffffff16815260200190815260200160002054815260200190815260200160002090506000601160008360010160009054906101000a900473ffffffffffffffffffffffffffffffffffffffff1673ffffffffffffffffffffffffffffffffffffffff1673ffffffffffffffffffffffffffffffffffffffff1681526020019081526020016000205464e8d4a510006010548460020154611b699190614dd8565b611b739190614e61565b611b7d9190614b88565b9050808260030154611b8f9190614f50565b92505050919050565b60008060009054906101000a900473ffffffffffffffffffffffffffffffffffffffff16905090565b600a5481565b73cd8ddee99c0c4be4cd699661ae9c00c69d1eb4a881565b60105481565b611bed613658565b73ffffffffffffffffffffffffffffffffffffffff16611c0b611b98565b73ffffffffffffffffffffffffffffffffffffffff1614611c61576040517f08c379a0000000000000000000000000000000000000000000000000000000008152600401611c5890615052565b60405180910390fd5b600073ffffffffffffffffffffffffffffffffffffffff168273ffffffffffffffffffffffffffffffffffffffff1614158015611cca57503073ffffffffffffffffffffffffffffffffffffffff168273ffffffffffffffffffffffffffffffffffffffff1614155b611d09576040517f08c379a0000000000000000000000000000000000000000000000000000000008152600401611d00906150be565b60405180910390fd5b60048110611d4c576040517f08c379a0000000000000000000000000000000000000000000000000000000008152600401611d43906155cf565b60405180910390fd5b8160028260048110611d6157611d606150de565b5b0160006101000a81548173ffffffffffffffffffffffffffffffffffffffff021916908373ffffffffffffffffffffffffffffffffffffffff1602179055505050565b600c5481565b600260015403611def576040517f08c379a0000000000000000000000000000000000000000000000000000000008152600401611de690614c08565b60405180910390fd5b60026001819055506001801515600060085414158015611e1157504260085411155b151514611e53576040517f08c379a0000000000000000000000000000000000000000000000000000000008152600401611e4a90614c74565b60405180910390fd5b60008211611e96576040517f08c379a0000000000000000000000000000000000000000000000000000000008152600401611e8d90614ce0565b60405180910390fd5b6000611ea133613660565b905033600f600083815260200190815260200160002060010160006101000a81548173ffffffffffffffffffffffffffffffffffffffff021916908373ffffffffffffffffffffffffffffffffffffffff160217905550611f453330857f000000000000000000000000000000000000000000000000000000000000000073ffffffffffffffffffffffffffffffffffffffff16613596909392919063ffffffff16565b611f61600f60008381526020019081526020016000208461340c565b82600b6000828254611f739190614f50565b9250508190555050506001808190555050565b611f8e613658565b73ffffffffffffffffffffffffffffffffffffffff16611fac611b98565b73ffffffffffffffffffffffffffffffffffffffff1614612002576040517f08c379a0000000000000000000000000000000000000000000000000000000008152600401611ff990615052565b60405180910390fd5b600260015403612047576040517f08c379a000000000000000000000000000000000000000000000000000000000815260040161203e90614c08565b60405180910390fd5b600260018190555060007f000000000000000000000000000000000000000000000000000000000000000073ffffffffffffffffffffffffffffffffffffffff166370a08231306040518263ffffffff1660e01b81526004016120aa91906142d3565b602060405180830381865afa1580156120c7573d6000803e3d6000fd5b505050506040513d601f19601f820116820180604052508101906120eb9190614b2c565b90506000600d54826120fd9190614b88565b905080831115612142576040517f08c379a00000000000000000000000000000000000000000000000000000000081526004016121399061563b565b60405180910390fd5b61218d33847f000000000000000000000000000000000000000000000000000000000000000073ffffffffffffffffffffffffffffffffffffffff166133869092919063ffffffff16565b50506001808190555050565b69156338918f10d520000081565b7f000000000000000000000000000000000000000000000000000000000000000081565b6000600e60003373ffffffffffffffffffffffffffffffffffffffff1673ffffffffffffffffffffffffffffffffffffffff168152602001908152602001600020549050600060095403612254576040517f08c379a000000000000000000000000000000000000000000000000000000000815260040161224b906154f7565b60405180910390fd5b81600f600083815260200190815260200160002060000190816122779190615325565b505050565b600e6020528060005260406000206000915090505481565b600760009054906101000a900473ffffffffffffffffffffffffffffffffffffffff1673ffffffffffffffffffffffffffffffffffffffff163373ffffffffffffffffffffffffffffffffffffffff1614612324576040517f08c379a000000000000000000000000000000000000000000000000000000000815260040161231b90614f30565b60405180910390fd5b600260015403612369576040517f08c379a000000000000000000000000000000000000000000000000000000000815260040161236090614c08565b60405180910390fd5b6002600181905550600180151560006008541415801561238b57504260085411155b1515146123cd576040517f08c379a00000000000000000000000000000000000000000000000000000000081526004016123c490614c74565b60405180910390fd5b60008411612410576040517f08c379a000000000000000000000000000000000000000000000000000000000815260040161240790614ce0565b60405180910390fd5b61245d3330867f000000000000000000000000000000000000000000000000000000000000000073ffffffffffffffffffffffffffffffffffffffff16613596909392919063ffffffff16565b600a835114801561246f5750600a8251145b6124ae576040517f08c379a00000000000000000000000000000000000000000000000000000000081526004016124a5906156a7565b60405180910390fd5b6000600a6064604b876124c19190614dd8565b6124cb9190614e61565b6124d59190614e61565b90506000600a60646019886124ea9190614dd8565b6124f49190614e61565b6124fe9190614e61565b905060005b600a8110156125ee576000600e6000888481518110612525576125246150de565b5b602002602001015173ffffffffffffffffffffffffffffffffffffffff1673ffffffffffffffffffffffffffffffffffffffff168152602001908152602001600020549050600081036125ad576040517f08c379a00000000000000000000000000000000000000000000000000000000081526004016125a490615713565b60405180910390fd5b83600f600083815260200190815260200160002060030160008282546125d39190614f50565b925050819055505080806125e6906153f7565b915050612503565b5060005b600a8110156126dd576000600e6000878481518110612614576126136150de565b5b602002602001015173ffffffffffffffffffffffffffffffffffffffff1673ffffffffffffffffffffffffffffffffffffffff1681526020019081526020016000205490506000810361269c576040517f08c379a000000000000000000000000000000000000000000000000000000000815260040161269390615713565b60405180910390fd5b82600f600083815260200190815260200160002060030160008282546126c29190614f50565b925050819055505080806126d5906153f7565b9150506125f2565b50600081836126ec9190614f50565b600a6126f89190614dd8565b876127039190614b88565b905080600f6000600e60008a600081518110612722576127216150de565b5b602002602001015173ffffffffffffffffffffffffffffffffffffffff1673ffffffffffffffffffffffffffffffffffffffff16815260200190815260200160002054815260200190815260200160002060030160008282546127859190614f50565b9250508190555086600d600082825461279e9190614f50565b925050819055507ff231db6d9d668f25bf91c4a1377e817aa60638cc3c1d700e776a0996242b347a876040516127d49190614277565b60405180910390a15050505060018081905550505050565b692a5a058fc295ed00000081565b60026001540361283f576040517f08c379a000000000000000000000000000000000000000000000000000000000815260040161283690614c08565b60405180910390fd5b6002600181905550600180151560006008541415801561286157504260085411155b1515146128a3576040517f08c379a000000000000000000000000000000000000000000000000000000000815260040161289a90614c74565b60405180910390fd5b600082116128e6576040517f08c379a00000000000000000000000000000000000000000000000000000000081526004016128dd90614ce0565b60405180910390fd5b6000806128f28461389a565b9150915061290233858484613bdb565b3373ffffffffffffffffffffffffffffffffffffffff167f1cbc5ab135991bd2b6a4b034a04aa2aa086dac1371cb9b16b8b5e2ed6b036bed838360405161294a929190615733565b60405180910390a25050506001808190555050565b6002600154036129a4576040517f08c379a000000000000000000000000000000000000000000000000000000000815260040161299b90614c08565b60405180910390fd5b600260018190555060018015156000600854141580156129c657504260085411155b151514612a08576040517f08c379a00000000000000000000000000000000000000000000000000000000081526004016129ff90614c74565b60405180910390fd5b60008211612a4b576040517f08c379a0000000000000000000000000000000000000000000000000000000008152600401612a4290614ce0565b60405180910390fd5b600080612a5784613748565b91509150612aa83330867f000000000000000000000000000000000000000000000000000000000000000073ffffffffffffffffffffffffffffffffffffffff16613596909392919063ffffffff16565b60006064603c84612ab99190614dd8565b612ac39190614e61565b905060007f000000000000000000000000000000000000000000000000000000000000000073ffffffffffffffffffffffffffffffffffffffff166370a08231306040518263ffffffff1660e01b8152600401612b2091906142d3565b602060405180830381865afa158015612b3d573d6000803e3d6000fd5b505050506040513d601f19601f82011682018060405250810190612b619190614b2c565b90506000600d5482612b739190614b88565b905080831115612bb8576040517f08c379a0000000000000000000000000000000000000000000000000000000008152600401612baf9061563b565b60405180910390fd5b612c0333847f000000000000000000000000000000000000000000000000000000000000000073ffffffffffffffffffffffffffffffffffffffff166133869092919063ffffffff16565b86600a6000828254612c159190614b88565b9250508190555083600c819055503373ffffffffffffffffffffffffffffffffffffffff167fed7a144fad14804d5c249145e3e0e2b63a9eb455b76aee5bc92d711e9bba3e4a8886604051612c6b929190615733565b60405180910390a25050505050506001808190555050565b612c8b613658565b73ffffffffffffffffffffffffffffffffffffffff16612ca9611b98565b73ffffffffffffffffffffffffffffffffffffffff1614612cff576040517f08c379a0000000000000000000000000000000000000000000000000000000008152600401612cf690615052565b60405180910390fd5b600073ffffffffffffffffffffffffffffffffffffffff168173ffffffffffffffffffffffffffffffffffffffff1603612d6e576040517f08c379a0000000000000000000000000000000000000000000000000000000008152600401612d65906157ce565b60405180910390fd5b612d7781613b17565b50565b600260015403612dbf576040517f08c379a0000000000000000000000000000000000000000000000000000000008152600401612db690614c08565b60405180910390fd5b60026001819055506001801515600060085414158015612de157504260085411155b151514612e23576040517f08c379a0000000000000000000000000000000000000000000000000000000008152600401612e1a90614c74565b60405180910390fd5b6000600e60003373ffffffffffffffffffffffffffffffffffffffff1673ffffffffffffffffffffffffffffffffffffffff168152602001908152602001600020549050600060095403612eac576040517f08c379a0000000000000000000000000000000000000000000000000000000008152600401612ea3906154f7565b60405180910390fd5b612ec9600f6000838152602001908152602001600020600061340c565b6000600f600083815260200190815260200160002060030154905060008111612f27576040517f08c379a0000000000000000000000000000000000000000000000000000000008152600401612f1e90615563565b60405180910390fd5b80600d6000828254612f399190614b88565b925050819055506000600f600084815260200190815260200160002060030181905550600080612f688361389a565b91509150612f7830848484613bdb565b3373ffffffffffffffffffffffffffffffffffffffff167f0e311a2c6dbfb0153ec3a8a5bdca09070b3e5f60768fdc10a20453f38d1868738383604051612fc0929190615733565b60405180910390a2505050505060018081905550565b6000807f000000000000000000000000000000000000000000000000000000000000000073ffffffffffffffffffffffffffffffffffffffff166370a08231306040518263ffffffff1660e01b815260040161303291906142d3565b602060405180830381865afa15801561304f573d6000803e3d6000fd5b505050506040513d601f19601f820116820180604052508101906130739190614b2c565b9050600b54816130839190614b88565b91505090565b600d5481565b613097613658565b73ffffffffffffffffffffffffffffffffffffffff166130b5611b98565b73ffffffffffffffffffffffffffffffffffffffff161461310b576040517f08c379a000000000000000000000000000000000000000000000000000000000815260040161310290615052565b60405180910390fd5b600080151560006008541415801561312557504260085411155b151514613167576040517f08c379a000000000000000000000000000000000000000000000000000000000815260040161315e90614c74565b60405180910390fd5b8160088190555060007f000000000000000000000000000000000000000000000000000000000000000073ffffffffffffffffffffffffffffffffffffffff166370a08231306040518263ffffffff1660e01b81526004016131c991906142d3565b602060405180830381865afa1580156131e6573d6000803e3d6000fd5b505050506040513d601f19601f8201168201806040525081019061320a9190614b2c565b9050692a5a058fc295ed0000008114613258576040517f08c379a000000000000000000000000000000000000000000000000000000000815260040161324f9061583a565b60405180910390fd5b505050565b613265614220565b600f600083815260200190815260200160002060405180608001604052908160008201805461329390614fd5565b80601f01602080910402602001604051908101604052809291908181526020018280546132bf90614fd5565b801561330c5780601f106132e15761010080835404028352916020019161330c565b820191906000526020600020905b8154815290600101906020018083116132ef57829003601f168201915b505050505081526020016001820160009054906101000a900473ffffffffffffffffffffffffffffffffffffffff1673ffffffffffffffffffffffffffffffffffffffff1673ffffffffffffffffffffffffffffffffffffffff168152602001600282015481526020016003820154815250509050919050565b6134078363a9059cbb60e01b84846040516024016133a592919061585a565b604051602081830303815290604052907bffffffffffffffffffffffffffffffffffffffffffffffffffffffff19166020820180517bffffffffffffffffffffffffffffffffffffffffffffffffffffffff8381831617835250505050613fa3565b505050565b6000601160008460010160009054906101000a900473ffffffffffffffffffffffffffffffffffffffff1673ffffffffffffffffffffffffffffffffffffffff1673ffffffffffffffffffffffffffffffffffffffff1681526020019081526020016000205464e8d4a51000601054856002015461348a9190614dd8565b6134949190614e61565b61349e9190614b88565b9050808360030160008282546134b49190614f50565b92505081905550600082126134e357818360020160008282546134d79190614f50565b92505081905550613508565b816134ed90614e9c565b8360020160008282546135009190614b88565b925050819055505b64e8d4a5100060105484600201546135209190614dd8565b61352a9190614e61565b601160008560010160009054906101000a900473ffffffffffffffffffffffffffffffffffffffff1673ffffffffffffffffffffffffffffffffffffffff1673ffffffffffffffffffffffffffffffffffffffff16815260200190815260200160002081905550505050565b613619846323b872dd60e01b8585856040516024016135b793929190615883565b604051602081830303815290604052907bffffffffffffffffffffffffffffffffffffffffffffffffffffffff19166020820180517bffffffffffffffffffffffffffffffffffffffffffffffffffffffff8381831617835250505050613fa3565b50505050565b600b5464e8d4a51000826136339190614dd8565b61363d9190614e61565b6010600082825461364e9190614f50565b9250508190555050565b600033905090565b600080600e60008473ffffffffffffffffffffffffffffffffffffffff1673ffffffffffffffffffffffffffffffffffffffff1681526020019081526020016000205403613701576009600081546136b7906153f7565b919050819055600e60008473ffffffffffffffffffffffffffffffffffffffff1673ffffffffffffffffffffffffffffffffffffffff168152602001908152602001600020819055505b600e60008373ffffffffffffffffffffffffffffffffffffffff1673ffffffffffffffffffffffffffffffffffffffff168152602001908152602001600020549050919050565b600080600c5490506000683635c9adc5dea00000600a5461376991906158ba565b905080841161379857670de0b6b3a764000082856137879190614dd8565b6137919190614e61565b9250613894565b670de0b6b3a764000082826137ad9190614dd8565b6137b79190614e61565b9250600081856137c79190614b88565b90505b600081111561389257676124fee993bc00008311156137fa576729a2241af62c0000836137f79190614b88565b92505b683635c9adc5dea0000081111561385c57670de0b6b3a764000083683635c9adc5dea000006138299190614dd8565b6138339190614e61565b8461383e9190614f50565b9350683635c9adc5dea00000816138559190614b88565b905061388d565b670de0b6b3a764000083826138719190614dd8565b61387b9190614e61565b846138869190614f50565b9350600090505b6137ca565b505b50915091565b600080600c54905080670de0b6b3a7640000846138b79190614dd8565b6138c19190614e61565b915069156338918f10d520000082600a546138dc9190614f50565b1161391b5769156338918f10d520000082600a546138fa9190614f50565b03613916576729a2241af62c0000816139139190614f50565b90505b613b12565b6000915060008390506000683635c9adc5dea00000600a5461393d91906158ba565b683635c9adc5dea000006139519190614b88565b905069152d02c7e14af6800000600a5410156139c557600a5469152d02c7e14af680000061397f9190614b88565b8461398a9190614f50565b9350670de0b6b3a764000083856139a19190614dd8565b6139ab9190614e61565b826139b69190614b88565b9150683635c9adc5dea0000090505b600083670de0b6b3a7640000846139dc9190614dd8565b6139e69190614e61565b905081811015613a035780856139fc9190614f50565b9450613b0e565b8185613a0f9190614f50565b9450670de0b6b3a7640000848383613a279190614b88565b613a319190614dd8565b613a3b9190614e61565b92506729a2241af62c000084613a519190614f50565b93505b6000831115613b0d5783670de0b6b3a764000084613a729190614dd8565b613a7c9190614e61565b9050683635c9adc5dea000008110613af557683635c9adc5dea0000085613aa39190614f50565b9450670de0b6b3a764000084683635c9adc5dea0000083613ac49190614b88565b613ace9190614dd8565b613ad89190614e61565b92506729a2241af62c000084613aee9190614f50565b9350613b08565b8085613b019190614f50565b9450600092505b613a54565b5b5050505b915091565b60008060009054906101000a900473ffffffffffffffffffffffffffffffffffffffff169050816000806101000a81548173ffffffffffffffffffffffffffffffffffffffff021916908373ffffffffffffffffffffffffffffffffffffffff1602179055508173ffffffffffffffffffffffffffffffffffffffff168173ffffffffffffffffffffffffffffffffffffffff167f8be0079c531659141344cd1fd0a4f28419497f9722a3daafe3b4186f6b6457e060405160405180910390a35050565b692a5a058fc295ed00000082600a54613bf49190614f50565b1115613c35576040517f08c379a0000000000000000000000000000000000000000000000000000000008152600401613c2c90615937565b60405180910390fd5b600060046103e8604b86613c499190614dd8565b613c539190614e61565b613c5d9190614e61565b905060005b6004811015613d0057613ced8660028360048110613c8357613c826150de565b5b0160009054906101000a900473ffffffffffffffffffffffffffffffffffffffff16847f000000000000000000000000000000000000000000000000000000000000000073ffffffffffffffffffffffffffffffffffffffff16613596909392919063ffffffff16565b8080613cf8906153f7565b915050613c62565b5060006103e8601986613d139190614dd8565b613d1d9190614e61565b9050613d808673cd8ddee99c0c4be4cd699661ae9c00c69d1eb4a8837f000000000000000000000000000000000000000000000000000000000000000073ffffffffffffffffffffffffffffffffffffffff16613596909392919063ffffffff16565b60006064605087613d919190614dd8565b613d9b9190614e61565b9050613e0c87600660009054906101000a900473ffffffffffffffffffffffffffffffffffffffff16837f000000000000000000000000000000000000000000000000000000000000000073ffffffffffffffffffffffffffffffffffffffff16613596909392919063ffffffff16565b60008183856004613e1d9190614dd8565b613e279190614f50565b613e319190614f50565b87613e3c9190614b88565b90503073ffffffffffffffffffffffffffffffffffffffff168873ffffffffffffffffffffffffffffffffffffffff1614613ebf57613ebe8830837f000000000000000000000000000000000000000000000000000000000000000073ffffffffffffffffffffffffffffffffffffffff16613596909392919063ffffffff16565b5b613ec88161361f565b6000613ed333613660565b905033600f600083815260200190815260200160002060010160006101000a81548173ffffffffffffffffffffffffffffffffffffffff021916908373ffffffffffffffffffffffffffffffffffffffff160217905550613f46600f60008381526020019081526020016000208861340c565b86600a6000828254613f589190614f50565b9250508190555086600b6000828254613f719190614f50565b9250508190555085600c8190555081600d6000828254613f919190614f50565b92505081905550505050505050505050565b6000614005826040518060400160405280602081526020017f5361666545524332303a206c6f772d6c6576656c2063616c6c206661696c65648152508573ffffffffffffffffffffffffffffffffffffffff1661406a9092919063ffffffff16565b90506000815111156140655780806020019051810190614025919061596c565b614064576040517f08c379a000000000000000000000000000000000000000000000000000000000815260040161405b90615a0b565b60405180910390fd5b5b505050565b60606140798484600085614082565b90509392505050565b6060824710156140c7576040517f08c379a00000000000000000000000000000000000000000000000000000000081526004016140be90615a9d565b60405180910390fd5b6140d085614196565b61410f576040517f08c379a000000000000000000000000000000000000000000000000000000000815260040161410690615b09565b60405180910390fd5b6000808673ffffffffffffffffffffffffffffffffffffffff1685876040516141389190615b70565b60006040518083038185875af1925050503d8060008114614175576040519150601f19603f3d011682016040523d82523d6000602084013e61417a565b606091505b509150915061418a8282866141b9565b92505050949350505050565b6000808273ffffffffffffffffffffffffffffffffffffffff163b119050919050565b606083156141c957829050614219565b6000835111156141dc5782518084602001fd5b816040517f08c379a00000000000000000000000000000000000000000000000000000000081526004016142109190615b87565b60405180910390fd5b9392505050565b604051806080016040528060608152602001600073ffffffffffffffffffffffffffffffffffffffff16815260200160008152602001600081525090565b6000819050919050565b6142718161425e565b82525050565b600060208201905061428c6000830184614268565b92915050565b600073ffffffffffffffffffffffffffffffffffffffff82169050919050565b60006142bd82614292565b9050919050565b6142cd816142b2565b82525050565b60006020820190506142e860008301846142c4565b92915050565b6000604051905090565b600080fd5b600080fd5b61430b8161425e565b811461431657600080fd5b50565b60008135905061432881614302565b92915050565b600060208284031215614344576143436142f8565b5b600061435284828501614319565b91505092915050565b600081519050919050565b600082825260208201905092915050565b60005b8381101561439557808201518184015260208101905061437a565b838111156143a4576000848401525b50505050565b6000601f19601f8301169050919050565b60006143c68261435b565b6143d08185614366565b93506143e0818560208601614377565b6143e9816143aa565b840191505092915050565b6000608082019050818103600083015261440e81876143bb565b905061441d60208301866142c4565b61442a6040830185614268565b6144376060830184614268565b95945050505050565b614449816142b2565b811461445457600080fd5b50565b60008135905061446681614440565b92915050565b600060208284031215614482576144816142f8565b5b600061449084828501614457565b91505092915050565b600080604083850312156144b0576144af6142f8565b5b60006144be85828601614457565b92505060206144cf85828601614457565b9150509250929050565b600080fd5b7f4e487b7100000000000000000000000000000000000000000000000000000000600052604160045260246000fd5b614516826143aa565b810181811067ffffffffffffffff82111715614535576145346144de565b5b80604052505050565b60006145486142ee565b9050614554828261450d565b919050565b600067ffffffffffffffff821115614574576145736144de565b5b602082029050602081019050919050565b600080fd5b600080fd5b600080fd5b600080fd5b600067ffffffffffffffff8211156145b4576145b36144de565b5b6145bd826143aa565b9050602081019050919050565b82818337600083830152505050565b60006145ec6145e784614599565b61453e565b90508281526020810184848401111561460857614607614594565b5b6146138482856145ca565b509392505050565b600082601f8301126146305761462f6144d9565b5b81356146408482602086016145d9565b91505092915050565b60006080828403121561465f5761465e61458a565b5b614669608061453e565b9050600082013567ffffffffffffffff8111156146895761468861458f565b5b6146958482850161461b565b60008301525060206146a984828501614457565b60208301525060406146bd84828501614319565b60408301525060606146d184828501614319565b60608301525092915050565b60006146f06146eb84614559565b61453e565b9050808382526020820190506020840283018581111561471357614712614585565b5b835b8181101561475a57803567ffffffffffffffff811115614738576147376144d9565b5b8086016147458982614649565b85526020850194505050602081019050614715565b5050509392505050565b600082601f830112614779576147786144d9565b5b81356147898482602086016146dd565b91505092915050565b6000602082840312156147a8576147a76142f8565b5b600082013567ffffffffffffffff8111156147c6576147c56142fd565b5b6147d284828501614764565b91505092915050565b60008115159050919050565b6147f0816147db565b81146147fb57600080fd5b50565b60008135905061480d816147e7565b92915050565b6000806040838503121561482a576148296142f8565b5b600061483885828601614319565b9250506020614849858286016147fe565b9150509250929050565b600082825260208201905092915050565b600061486f8261435b565b6148798185614853565b9350614889818560208601614377565b614892816143aa565b840191505092915050565b6148a6816142b2565b82525050565b6148b58161425e565b82525050565b600060808301600083015184820360008601526148d88282614864565b91505060208301516148ed602086018261489d565b50604083015161490060408601826148ac565b50606083015161491360608601826148ac565b508091505092915050565b6000602082019050818103600083015261493881846148bb565b905092915050565b60008060408385031215614957576149566142f8565b5b600061496585828601614457565b925050602061497685828601614319565b9150509250929050565b600060208284031215614996576149956142f8565b5b600082013567ffffffffffffffff8111156149b4576149b36142fd565b5b6149c08482850161461b565b91505092915050565b600067ffffffffffffffff8211156149e4576149e36144de565b5b602082029050602081019050919050565b6000614a08614a03846149c9565b61453e565b90508083825260208201905060208402830185811115614a2b57614a2a614585565b5b835b81811015614a545780614a408882614457565b845260208401935050602081019050614a2d565b5050509392505050565b600082601f830112614a7357614a726144d9565b5b8135614a838482602086016149f5565b91505092915050565b600080600060608486031215614aa557614aa46142f8565b5b6000614ab386828701614319565b935050602084013567ffffffffffffffff811115614ad457614ad36142fd565b5b614ae086828701614a5e565b925050604084013567ffffffffffffffff811115614b0157614b006142fd565b5b614b0d86828701614a5e565b9150509250925092565b600081519050614b2681614302565b92915050565b600060208284031215614b4257614b416142f8565b5b6000614b5084828501614b17565b91505092915050565b7f4e487b7100000000000000000000000000000000000000000000000000000000600052601160045260246000fd5b6000614b938261425e565b9150614b9e8361425e565b925082821015614bb157614bb0614b59565b5b828203905092915050565b7f5265656e7472616e637947756172643a207265656e7472616e742063616c6c00600082015250565b6000614bf2601f83614366565b9150614bfd82614bbc565b602082019050919050565b60006020820190508181036000830152614c2181614be5565b9050919050565b7f556e617661696c61626c65000000000000000000000000000000000000000000600082015250565b6000614c5e600b83614366565b9150614c6982614c28565b602082019050919050565b60006020820190508181036000830152614c8d81614c51565b9050919050565b7f496e76616c696420616d6f756e74000000000000000000000000000000000000600082015250565b6000614cca600e83614366565b9150614cd582614c94565b602082019050919050565b60006020820190508181036000830152614cf981614cbd565b9050919050565b7f4e6f74207374616b656420796574000000000000000000000000000000000000600082015250565b6000614d36600e83614366565b9150614d4182614d00565b602082019050919050565b60006020820190508181036000830152614d6581614d29565b9050919050565b7f496e656666696369656e74207374616b652062616c616e636500000000000000600082015250565b6000614da2601983614366565b9150614dad82614d6c565b602082019050919050565b60006020820190508181036000830152614dd181614d95565b9050919050565b6000614de38261425e565b9150614dee8361425e565b9250817fffffffffffffffffffffffffffffffffffffffffffffffffffffffffffffffff0483118215151615614e2757614e26614b59565b5b828202905092915050565b7f4e487b7100000000000000000000000000000000000000000000000000000000600052601260045260246000fd5b6000614e6c8261425e565b9150614e778361425e565b925082614e8757614e86614e32565b5b828204905092915050565b6000819050919050565b6000614ea782614e92565b91507f80000000000000000000000000000000000000000000000000000000000000008203614ed957614ed8614b59565b5b816000039050919050565b7f556e617574686f72697a65640000000000000000000000000000000000000000600082015250565b6000614f1a600c83614366565b9150614f2582614ee4565b602082019050919050565b60006020820190508181036000830152614f4981614f0d565b9050919050565b6000614f5b8261425e565b9150614f668361425e565b9250827fffffffffffffffffffffffffffffffffffffffffffffffffffffffffffffffff03821115614f9b57614f9a614b59565b5b828201905092915050565b7f4e487b7100000000000000000000000000000000000000000000000000000000600052602260045260246000fd5b60006002820490506001821680614fed57607f821691505b60208210810361500057614fff614fa6565b5b50919050565b7f4f776e61626c653a2063616c6c6572206973206e6f7420746865206f776e6572600082015250565b600061503c602083614366565b915061504782615006565b602082019050919050565b6000602082019050818103600083015261506b8161502f565b9050919050565b7f496e76616c696420616464726573730000000000000000000000000000000000600082015250565b60006150a8600f83614366565b91506150b382615072565b602082019050919050565b600060208201905081810360008301526150d78161509b565b9050919050565b7f4e487b7100000000000000000000000000000000000000000000000000000000600052603260045260246000fd5b7f4475706c69636174652075736572000000000000000000000000000000000000600082015250565b6000615143600e83614366565b915061514e8261510d565b602082019050919050565b6000602082019050818103600083015261517281615136565b9050919050565b60008190508160005260206000209050919050565b60006020601f8301049050919050565b600082821b905092915050565b6000600883026151db7fffffffffffffffffffffffffffffffffffffffffffffffffffffffffffffffff8261519e565b6151e5868361519e565b95508019841693508086168417925050509392505050565b6000819050919050565b600061522261521d6152188461425e565b6151fd565b61425e565b9050919050565b6000819050919050565b61523c83615207565b61525061524882615229565b8484546151ab565b825550505050565b600090565b615265615258565b615270818484615233565b505050565b5b818110156152945761528960008261525d565b600181019050615276565b5050565b601f8211156152d9576152aa81615179565b6152b38461518e565b810160208510156152c2578190505b6152d66152ce8561518e565b830182615275565b50505b505050565b600082821c905092915050565b60006152fc600019846008026152de565b1980831691505092915050565b600061531583836152eb565b9150826002028217905092915050565b61532e8261435b565b67ffffffffffffffff811115615347576153466144de565b5b6153518254614fd5565b61535c828285615298565b600060209050601f83116001811461538f576000841561537d578287015190505b6153878582615309565b8655506153ef565b601f19841661539d86615179565b60005b828110156153c5578489015182556001820191506020850194506020810190506153a0565b868310156153e257848901516153de601f8916826152eb565b8355505b6001600288020188555050505b505050505050565b60006154028261425e565b91507fffffffffffffffffffffffffffffffffffffffffffffffffffffffffffffffff820361543457615433614b59565b5b600182019050919050565b7f4d6967726174696f6e2065786365737300000000000000000000000000000000600082015250565b6000615475601083614366565b91506154808261543f565b602082019050919050565b600060208201905081810360008301526154a481615468565b9050919050565b7f5573657220646f6573206e6f7420657869737400000000000000000000000000600082015250565b60006154e1601383614366565b91506154ec826154ab565b602082019050919050565b60006020820190508181036000830152615510816154d4565b9050919050565b7f4e6f207265776172647320746f20636c61696d00000000000000000000000000600082015250565b600061554d601383614366565b915061555882615517565b602082019050919050565b6000602082019050818103600083015261557c81615540565b9050919050565b7f496e76616c696420656e74727900000000000000000000000000000000000000600082015250565b60006155b9600d83614366565b91506155c482615583565b602082019050919050565b600060208201905081810360008301526155e8816155ac565b9050919050565b7f496e73756666696369656e7420444149206f6e20436f6e747261637400000000600082015250565b6000615625601c83614366565b9150615630826155ef565b602082019050919050565b6000602082019050818103600083015261565481615618565b9050919050565b7f496e76616c696420617272617973000000000000000000000000000000000000600082015250565b6000615691600e83614366565b915061569c8261565b565b602082019050919050565b600060208201905081810360008301526156c081615684565b9050919050565b7f41207573657220646f65736e2774206578697374000000000000000000000000600082015250565b60006156fd601483614366565b9150615708826156c7565b602082019050919050565b6000602082019050818103600083015261572c816156f0565b9050919050565b60006040820190506157486000830185614268565b6157556020830184614268565b9392505050565b7f4f776e61626c653a206e6577206f776e657220697320746865207a65726f206160008201527f6464726573730000000000000000000000000000000000000000000000000000602082015250565b60006157b8602683614366565b91506157c38261575c565b604082019050919050565b600060208201905081810360008301526157e7816157ab565b9050919050565b7f4d697373696e6720686d696e652062616c616e63650000000000000000000000600082015250565b6000615824601583614366565b915061582f826157ee565b602082019050919050565b6000602082019050818103600083015261585381615817565b9050919050565b600060408201905061586f60008301856142c4565b61587c6020830184614268565b9392505050565b600060608201905061589860008301866142c4565b6158a560208301856142c4565b6158b26040830184614268565b949350505050565b60006158c58261425e565b91506158d08361425e565b9250826158e0576158df614e32565b5b828206905092915050565b7f457863656564656420737570706c790000000000000000000000000000000000600082015250565b6000615921600f83614366565b915061592c826158eb565b602082019050919050565b6000602082019050818103600083015261595081615914565b9050919050565b600081519050615966816147e7565b92915050565b600060208284031215615982576159816142f8565b5b600061599084828501615957565b91505092915050565b7f5361666545524332303a204552433230206f7065726174696f6e20646964206e60008201527f6f74207375636365656400000000000000000000000000000000000000000000602082015250565b60006159f5602a83614366565b9150615a0082615999565b604082019050919050565b60006020820190508181036000830152615a24816159e8565b9050919050565b7f416464726573733a20696e73756666696369656e742062616c616e636520666f60008201527f722063616c6c0000000000000000000000000000000000000000000000000000602082015250565b6000615a87602683614366565b9150615a9282615a2b565b604082019050919050565b60006020820190508181036000830152615ab681615a7a565b9050919050565b7f416464726573733a2063616c6c20746f206e6f6e2d636f6e7472616374000000600082015250565b6000615af3601d83614366565b9150615afe82615abd565b602082019050919050565b60006020820190508181036000830152615b2281615ae6565b9050919050565b600081519050919050565b600081905092915050565b6000615b4a82615b29565b615b548185615b34565b9350615b64818560208601614377565b80840191505092915050565b6000615b7c8284615b3f565b915081905092915050565b60006020820190508181036000830152615ba181846143bb565b90509291505056fea2646970667358221220a54881af96b15b5797bc71661a68a2582cf351f552c9c863a8cba4df9d070ef964736f6c634300080f0033",
  "immutableReferences": {
    "49": [
      {
        "length": 32,
        "start": 2019
      },
      {
        "length": 32,
        "start": 3506
      },
      {
        "length": 32,
        "start": 5502
      },
      {
        "length": 32,
        "start": 6085
      },
      {
        "length": 32,
        "start": 6622
      },
      {
        "length": 32,
        "start": 8275
      },
      {
        "length": 32,
        "start": 8521
      },
      {
        "length": 32,
        "start": 9240
      },
      {
        "length": 32,
        "start": 10953
      },
      {
        "length": 32,
        "start": 11199
      },
      {
        "length": 32,
        "start": 15528
      },
      {
        "length": 32,
        "start": 15675
      },
      {
        "length": 32,
        "start": 15815
      },
      {
        "length": 32,
        "start": 15993
      }
    ],
    "51": [
      {
        "length": 32,
        "start": 2776
      },
      {
        "length": 32,
        "start": 2885
      },
      {
        "length": 32,
        "start": 2960
      },
      {
        "length": 32,
        "start": 5375
      },
      {
        "length": 32,
        "start": 7936
      },
      {
        "length": 32,
        "start": 8617
      },
      {
        "length": 32,
        "start": 10851
      },
      {
        "length": 32,
        "start": 12251
      },
      {
        "length": 32,
        "start": 12658
      }
    ]
  },
  "source": "// SPDX-License-Identifier: UNLICENSED\r\npragma solidity >=0.8.9;\r\n\r\nimport {Ownable} from \"@openzeppelin/contracts/access/Ownable.sol\";\r\nimport {ReentrancyGuard} from \"@openzeppelin/contracts/security/ReentrancyGuard.sol\";\r\nimport {IERC20} from \"@openzeppelin/contracts/token/ERC20/IERC20.sol\";\r\nimport {SafeERC20} from \"@openzeppelin/contracts/token/ERC20/utils/SafeERC20.sol\";\r\n\r\ncontract HmineMain is Ownable, ReentrancyGuard {\r\n    using SafeERC20 for IERC20;\r\n\r\n    struct User {\r\n        string nickname;\r\n        address user;\r\n        uint256 amount;\r\n        uint256 reward;\r\n    }\r\n\r\n    // dead address to receive \"burnt\" tokens\r\n    address public constant FURNACE =\r\n        0x000000000000000000000000000000000000dEaD;\r\n\r\n    address[4] public management = [\r\n        0x5C9dE63470D0D6d8103f7c83F1Be4F55998706FC, // 0 Loft\r\n        0x2165fa4a32B9c228cD55713f77d2e977297D03e8, // 1 Ghost\r\n        0x70F5FB6BE943162545a496eD120495B05dC5ce07, // 2 Mike\r\n        0x36b13280500AEBC5A75EbC1e9cB9Bf1b6A78a95e // 3 Miko\r\n    ];\r\n\r\n    address public constant safeHolders =\r\n        0xcD8dDeE99C0c4Be4cD699661AE9c00C69D1Eb4A8;\r\n\r\n    address public bankroll = 0x25be1fcF5F51c418a0C30357a4e8371dB9cf9369; // 4 Way Multisig wallet\r\n    address public rewardGiver = 0x2165fa4a32B9c228cD55713f77d2e977297D03e8; // Ghost\r\n    address public immutable currencyToken; // Will likely be DAI\r\n    address public immutable hmineToken;\r\n\r\n    uint256 public startTime;\r\n    uint256 public index;\r\n    uint256 public totalSold; // The contract will start with 100,000 Sold HMINE.\r\n    uint256 public totalStaked; // The contract will start with 100,000 Staked HMINE.\r\n    uint256 public currentPrice = 7e18; // The price is divisible by 1e18.  So in this case 7.00 is the current price.\r\n    uint256 public constant roundIncrement = 1_000e18;\r\n    uint256 public rewardTotal;\r\n    uint256 public constant maxSupply = 200_000e18;\r\n    uint256 public constant firstRound = 100_000e18;\r\n    uint256 public constant secondRound = 101_000e18;\r\n\r\n    mapping(address => uint256) public userIndex;\r\n    mapping(uint256 => User) public users;\r\n\r\n    // The user's pending reward is user's balance multiplied by the accumulated reward per share minus the user's reward debt.\r\n    // The user's reward debt is always set to balance multiplied by the accumulated reward per share when reward's are distributed\r\n    // (or balance changes, which also forces distribution), such that the diference immediately after distribution is always zero (nothing left)\r\n    uint256 public accRewardPerShare;\r\n    mapping(address => uint256) public userRewardDebt;\r\n\r\n    modifier onlyRewardGiver() {\r\n        require(msg.sender == rewardGiver, \"Unauthorized\");\r\n        _;\r\n    }\r\n\r\n    modifier isRunning(bool _flag) {\r\n        require(\r\n            (startTime != 0 && startTime <= block.timestamp) == _flag,\r\n            \"Unavailable\"\r\n        );\r\n        _;\r\n    }\r\n\r\n    constructor(address _currenctyToken, address _hmineToken) {\r\n        currencyToken = _currenctyToken;\r\n        hmineToken = _hmineToken;\r\n    }\r\n\r\n    // Start the contract.\r\n    // Will not initialize if already started.\r\n    function initialize(uint256 _startTime)\r\n        external\r\n        onlyOwner\r\n        isRunning(false)\r\n    {\r\n        startTime = _startTime;\r\n\r\n        // Admin is supposed to send an additional 100k HMINE to the contract\r\n        uint256 _balance = IERC20(hmineToken).balanceOf(address(this));\r\n        require(_balance == maxSupply, \"Missing hmine balance\");\r\n    }\r\n\r\n    // Used to initally migrate the user data from the sacrifice round. Can be run multiple times. Do 10 at a time.\r\n    function migrateSacrifice(User[] memory _users)\r\n        external\r\n        onlyOwner\r\n        nonReentrant\r\n        isRunning(false)\r\n    {\r\n        uint256 _amountSum = 0;\r\n        uint256 _rewardSum = 0;\r\n        for (uint256 _i = 0; _i < _users.length; _i++) {\r\n            address _userAddress = _users[_i].user;\r\n            require(_userAddress != address(0), \"Invalid address\");\r\n            require(userIndex[_userAddress] == 0, \"Duplicate user\");\r\n            uint256 _index = _assignUserIndex(_userAddress);\r\n            users[_index] = _users[_i];\r\n            _amountSum += _users[_i].amount;\r\n            _rewardSum += _users[_i].reward;\r\n        }\r\n\r\n        // Admin sends send initial token deposits to the contract\r\n        IERC20(hmineToken).safeTransferFrom(\r\n            msg.sender,\r\n            address(this),\r\n            _amountSum\r\n        );\r\n        totalSold += _amountSum;\r\n        totalStaked += _amountSum;\r\n\r\n        // Admin must send initial rewards to the contract\r\n        IERC20(currencyToken).safeTransferFrom(\r\n            msg.sender,\r\n            address(this),\r\n            _rewardSum\r\n        );\r\n        rewardTotal += _rewardSum;\r\n\r\n        // Sanity check, pre-sale must not exceed 100k\r\n        require(totalSold <= 100_000e18, \"Migration excess\");\r\n    }\r\n\r\n    // Total liquidity of HMINE available for trades.\r\n    function hmineReserve() external view returns (uint256 _hmineReserve) {\r\n        uint256 _balance = IERC20(hmineToken).balanceOf(address(this));\r\n        return _balance - totalStaked;\r\n    }\r\n\r\n    // Total liquidity of DAI available for trades.\r\n    function currencyReserve()\r\n        external\r\n        view\r\n        returns (uint256 _currencyReserve)\r\n    {\r\n        uint256 _balance = IERC20(currencyToken).balanceOf(address(this));\r\n        return _balance - rewardTotal;\r\n    }\r\n\r\n    // Allows for withdrawing DAI liquidity.\r\n    // Admin is supposed to send the DAI liquidity directly to the contract.\r\n    function recoverReserve(uint256 _amount) external onlyOwner nonReentrant {\r\n        // Checks to make sure there is enough dai on contract to fullfill the withdrawal.\r\n        uint256 _balance = IERC20(currencyToken).balanceOf(address(this));\r\n        uint256 _available = _balance - rewardTotal;\r\n        require(_amount <= _available, \"Insufficient DAI on Contract\");\r\n\r\n        // Send DAI to user.  User only get's 60% of the selling price.\r\n        IERC20(currencyToken).safeTransfer(msg.sender, _amount);\r\n    }\r\n\r\n    // An external function to calculate the swap value.\r\n    // If it's a buy then calculate the amount of HMINE you get for the DAI input.\r\n    // If it's a sell then calculate the amount of DAI you get for the HMINE input.\r\n    function calculateSwap(uint256 _amount, bool _isBuy)\r\n        external\r\n        view\r\n        returns (uint256 _value)\r\n    {\r\n        (_value, ) = _isBuy ? _getBuyValue(_amount) : _getSellValue(_amount);\r\n        return _value;\r\n    }\r\n\r\n    // Input the amount a DAI and return the HMINE value.\r\n    // It takes into account the price upscale in case a round has been met during the buy.\r\n    function _getBuyValue(uint256 _amount)\r\n        internal\r\n        view\r\n        returns (uint256 _hmineValue, uint256 _price)\r\n    {\r\n        _price = currentPrice;\r\n        _hmineValue = (_amount * 1e18) / _price;\r\n        // Fixed price if below second round\r\n        if (totalSold + _hmineValue <= secondRound) {\r\n            // Increment price if second round is reached\r\n            if (totalSold + _hmineValue == secondRound) {\r\n                _price += 3e18;\r\n            }\r\n        }\r\n        // Price calculation when beyond the second round\r\n        else {\r\n            _hmineValue = 0;\r\n            uint256 _amountLeftOver = _amount;\r\n            uint256 _roundAvailable = roundIncrement -\r\n                (totalSold % roundIncrement);\r\n\r\n            // If short of first round, adjust up to first round\r\n            if (totalSold < firstRound) {\r\n                _hmineValue += firstRound - totalSold;\r\n                _amountLeftOver -= (_hmineValue * _price) / 1e18;\r\n                _roundAvailable = roundIncrement;\r\n            }\r\n\r\n            uint256 _valueOfLeftOver = (_amountLeftOver * 1e18) / _price;\r\n            if (_valueOfLeftOver < _roundAvailable) {\r\n                _hmineValue += _valueOfLeftOver;\r\n            } else {\r\n                _hmineValue += _roundAvailable;\r\n                _amountLeftOver =\r\n                    ((_valueOfLeftOver - _roundAvailable) * _price) /\r\n                    1e18;\r\n                _price += 3e18;\r\n                while (_amountLeftOver > 0) {\r\n                    _valueOfLeftOver = (_amountLeftOver * 1e18) / _price;\r\n                    if (_valueOfLeftOver >= roundIncrement) {\r\n                        _hmineValue += roundIncrement;\r\n                        _amountLeftOver =\r\n                            ((_valueOfLeftOver - roundIncrement) * _price) /\r\n                            1e18;\r\n                        _price += 3e18;\r\n                    } else {\r\n                        _hmineValue += _valueOfLeftOver;\r\n                        _amountLeftOver = 0;\r\n                    }\r\n                }\r\n            }\r\n        }\r\n        return (_hmineValue, _price);\r\n    }\r\n\r\n    // This internal function is used to calculate the amount of DAI user will receive.\r\n    // It takes into account the price reversal in case rounds have reversed during a sell order.\r\n    function _getSellValue(uint256 _amount)\r\n        internal\r\n        view\r\n        returns (uint256 _sellValue, uint256 _price)\r\n    {\r\n        _price = currentPrice;\r\n        uint256 _roundAvailable = totalSold % roundIncrement;\r\n        // Still in current round.\r\n        if (_amount <= _roundAvailable) {\r\n            _sellValue = (_amount * _price) / 1e18;\r\n        }\r\n        // Amount plus the mod total tells us tha the round or rounds will most likely be reached.\r\n        else {\r\n            _sellValue = (_roundAvailable * _price) / 1e18;\r\n            uint256 _amountLeftOver = _amount - _roundAvailable;\r\n            while (_amountLeftOver > 0) {\r\n                if (_price > 7e18) {\r\n                    _price -= 3e18;\r\n                }\r\n                if (_amountLeftOver > roundIncrement) {\r\n                    _sellValue += (roundIncrement * _price) / 1e18;\r\n                    _amountLeftOver -= roundIncrement;\r\n                } else {\r\n                    _sellValue += (_amountLeftOver * _price) / 1e18;\r\n                    _amountLeftOver = 0;\r\n                }\r\n            }\r\n        }\r\n        return (_sellValue, _price);\r\n    }\r\n\r\n    // Buy HMINE with DAI\r\n    function buy(uint256 _amount) external nonReentrant isRunning(true) {\r\n        require(_amount > 0, \"Invalid amount\");\r\n\r\n        (uint256 _hmineValue, uint256 _price) = _getBuyValue(_amount);\r\n\r\n        // Used to send funds to the appropriate wallets and update global data\r\n        _buyInternal(msg.sender, _amount, _hmineValue, _price);\r\n\r\n        emit Buy(msg.sender, _hmineValue, _price);\r\n    }\r\n\r\n    // Used to send funds to the appropriate wallets and update global data\r\n    // The buy and compound function calls this internal function.\r\n    function _buyInternal(\r\n        address _sender,\r\n        uint256 _amount,\r\n        uint256 _hmineValue,\r\n        uint256 _price\r\n    ) internal {\r\n        // Checks to make sure supply is not exeeded.\r\n        require(totalSold + _hmineValue <= maxSupply, \"Exceeded supply\");\r\n\r\n        // Sends 7.5% / 4 to Loft, Ghost, Mike, Miko\r\n        uint256 _managementAmount = ((_amount * 75) / 1000) / 4;\r\n        for (uint256 _i = 0; _i < 4; _i++) {\r\n            IERC20(currencyToken).safeTransferFrom(\r\n                _sender,\r\n                management[_i],\r\n                _managementAmount\r\n            );\r\n        }\r\n\r\n        // Sends 2.5% to SafeHolders\r\n        uint256 _safeHoldersAmount = (_amount * 25) / 1000;\r\n        IERC20(currencyToken).safeTransferFrom(\r\n            _sender,\r\n            safeHolders,\r\n            _safeHoldersAmount\r\n        );\r\n\r\n        // Sends 80% to bankroll\r\n        uint256 _bankrollAmount = (_amount * 80) / 100;\r\n        IERC20(currencyToken).safeTransferFrom(\r\n            _sender,\r\n            bankroll,\r\n            _bankrollAmount\r\n        );\r\n\r\n        // Sends 10% to contract for divs\r\n        uint256 _amountToStakers = _amount -\r\n            (4 * _managementAmount + _safeHoldersAmount + _bankrollAmount);\r\n        if (_sender != address(this)) {\r\n            IERC20(currencyToken).safeTransferFrom(\r\n                _sender,\r\n                address(this),\r\n                _amountToStakers\r\n            );\r\n        }\r\n\r\n        _distributeRewards(_amountToStakers);\r\n\r\n        // Update user's stake entry.\r\n        uint256 _index = _assignUserIndex(msg.sender);\r\n        users[_index].user = msg.sender; // just in case it was not yet initialized\r\n        _collectsUserRewardAndUpdatesBalance(\r\n            users[_index],\r\n            int256(_hmineValue)\r\n        );\r\n\r\n        // Update global values.\r\n        totalSold += _hmineValue;\r\n        totalStaked += _hmineValue;\r\n        currentPrice = _price;\r\n        rewardTotal += _amountToStakers;\r\n    }\r\n\r\n    // Sell HMINE for DAI\r\n    function sell(uint256 _amount) external nonReentrant isRunning(true) {\r\n        require(_amount > 0, \"Invalid amount\");\r\n\r\n        (uint256 _sellValue, uint256 _price) = _getSellValue(_amount);\r\n\r\n        // Sends HMINE to contract\r\n        IERC20(hmineToken).safeTransferFrom(msg.sender, address(this), _amount);\r\n\r\n        uint256 _60percent = (_sellValue * 60) / 100;\r\n\r\n        // Checks to make sure there is enough dai on contract to fullfill the swap.\r\n        uint256 _balance = IERC20(currencyToken).balanceOf(address(this));\r\n        uint256 _available = _balance - rewardTotal;\r\n        require(_60percent <= _available, \"Insufficient DAI on Contract\");\r\n\r\n        // Send DAI to user.  User only get's 60% of the selling price.\r\n        IERC20(currencyToken).safeTransfer(msg.sender, _60percent);\r\n\r\n        // Update global values.\r\n        totalSold -= _amount;\r\n        currentPrice = _price;\r\n\r\n        emit Sell(msg.sender, _amount, _price);\r\n    }\r\n\r\n    // Stake HMINE\r\n    function stake(uint256 _amount) external nonReentrant isRunning(true) {\r\n        require(_amount > 0, \"Invalid amount\");\r\n        uint256 _index = _assignUserIndex(msg.sender);\r\n        users[_index].user = msg.sender; // just in case it was not yet initialized\r\n\r\n        // User sends HMINE to the contract to stake\r\n        IERC20(hmineToken).safeTransferFrom(msg.sender, address(this), _amount);\r\n\r\n        // Update user's staking amount\r\n        _collectsUserRewardAndUpdatesBalance(users[_index], int256(_amount));\r\n        // Update total staking amount\r\n        totalStaked += _amount;\r\n    }\r\n\r\n    // Unstake HMINE\r\n    function unstake(uint256 _amount) external nonReentrant isRunning(true) {\r\n        require(_amount > 0, \"Invalid amount\");\r\n        uint256 _index = userIndex[msg.sender];\r\n        require(_index != 0, \"Not staked yet\");\r\n        require(users[_index].amount >= _amount, \"Inefficient stake balance\");\r\n\r\n        uint256 _10percent = (_amount * 10) / 100;\r\n        uint256 _80percent = _amount - 2 * _10percent;\r\n\r\n        // Goes to burn address\r\n        IERC20(hmineToken).safeTransfer(FURNACE, _10percent);\r\n        // Goes to bankroll\r\n        IERC20(hmineToken).safeTransfer(bankroll, _10percent);\r\n        // User only gets 80% HMINE\r\n        IERC20(hmineToken).safeTransfer(msg.sender, _80percent);\r\n\r\n        // Update user's staking amount\r\n        _collectsUserRewardAndUpdatesBalance(users[_index], -int256(_amount));\r\n        // Update total staking amount\r\n        totalStaked -= _amount;\r\n    }\r\n\r\n    // Adds a nickname to the user.\r\n    function updateNickname(string memory _nickname) external {\r\n        uint256 _index = userIndex[msg.sender];\r\n        require(index != 0, \"User does not exist\");\r\n        users[_index].nickname = _nickname;\r\n    }\r\n\r\n    // Claim DIV as DAI\r\n    function claim() external nonReentrant {\r\n        uint256 _index = userIndex[msg.sender];\r\n        require(index != 0, \"User does not exist\");\r\n        _collectsUserRewardAndUpdatesBalance(users[_index], 0);\r\n        uint256 _claimAmount = users[_index].reward;\r\n        require(_claimAmount > 0, \"No rewards to claim\");\r\n        rewardTotal -= _claimAmount;\r\n        users[_index].reward = 0;\r\n        IERC20(currencyToken).safeTransfer(msg.sender, _claimAmount);\r\n    }\r\n\r\n    // Compound the divs.\r\n    // Uses the div to buy more HMINE internally by calling the _buyInternal.\r\n    function compound() external nonReentrant isRunning(true) {\r\n        uint256 _index = userIndex[msg.sender];\r\n        require(index != 0, \"User does not exist\");\r\n        _collectsUserRewardAndUpdatesBalance(users[_index], 0);\r\n        uint256 _claimAmount = users[_index].reward;\r\n        require(_claimAmount > 0, \"No rewards to claim\");\r\n        // Removes the the claim amount from total divs for tracing purposes.\r\n        rewardTotal -= _claimAmount;\r\n        // remove the div from the users reward pool.\r\n        users[_index].reward = 0;\r\n\r\n        (uint256 _hmineValue, uint256 _price) = _getBuyValue(_claimAmount);\r\n\r\n        _buyInternal(address(this), _claimAmount, _hmineValue, _price);\r\n\r\n        emit Compound(msg.sender, _hmineValue, _price);\r\n    }\r\n\r\n    // Reward giver sends bonus DIV to top 20 holders\r\n    function sendBonusDiv(\r\n        uint256 _amount,\r\n        address[] memory _topTen,\r\n        address[] memory _topTwenty\r\n    ) external onlyRewardGiver nonReentrant isRunning(true) {\r\n        require(_amount > 0, \"Invalid amount\");\r\n\r\n        // Admin sends div to the contract\r\n        IERC20(currencyToken).safeTransferFrom(\r\n            msg.sender,\r\n            address(this),\r\n            _amount\r\n        );\r\n\r\n        require(\r\n            _topTen.length == 10 && _topTwenty.length == 10,\r\n            \"Invalid arrays\"\r\n        );\r\n\r\n        // 75% split between topTen\r\n        uint256 _topTenAmount = ((_amount * 75) / 100) / 10;\r\n        // 25% split between topTwenty\r\n        uint256 _topTwentyAmount = ((_amount * 25) / 100) / 10;\r\n\r\n        for (uint256 _i = 0; _i < 10; _i++) {\r\n            uint256 _index = userIndex[_topTen[_i]];\r\n            require(_index != 0, \"A user doesn't exist\");\r\n            users[_index].reward += _topTenAmount;\r\n        }\r\n\r\n        for (uint256 _i = 0; _i < 10; _i++) {\r\n            uint256 _index = userIndex[_topTwenty[_i]];\r\n            require(_index != 0, \"A user doesn't exist\");\r\n            users[_index].reward += _topTwentyAmount;\r\n        }\r\n\r\n        uint256 _leftOver = _amount - 10 * (_topTenAmount + _topTwentyAmount);\r\n        users[userIndex[_topTen[0]]].reward += _leftOver;\r\n\r\n        rewardTotal += _amount;\r\n\r\n        emit BonusReward(_amount);\r\n    }\r\n\r\n    // Reward giver sends daily divs to all holders\r\n    function sendDailyDiv(uint256 _amount)\r\n        external\r\n        onlyRewardGiver\r\n        nonReentrant\r\n        isRunning(true)\r\n    {\r\n        require(_amount > 0, \"Invalid amount\");\r\n\r\n        // Admin sends div to the contract\r\n        IERC20(currencyToken).safeTransferFrom(\r\n            msg.sender,\r\n            address(this),\r\n            _amount\r\n        );\r\n\r\n        _distributeRewards(_amount);\r\n\r\n        rewardTotal += _amount;\r\n    }\r\n\r\n    // Calculates actual user reward balance\r\n    function userRewardBalance(address _userAddress)\r\n        external\r\n        view\r\n        returns (uint256 _reward)\r\n    {\r\n        User storage _user = users[userIndex[_userAddress]];\r\n        // The difference is the user's share of rewards distributed since the last collection\r\n        uint256 _newReward = (_user.amount * accRewardPerShare) /\r\n            1e12 -\r\n            userRewardDebt[_user.user];\r\n        return _user.reward + _newReward;\r\n    }\r\n\r\n    // Distributes reward amount to all users propotionally to their stake.\r\n    function _distributeRewards(uint256 _amount) internal {\r\n        accRewardPerShare += (_amount * 1e12) / totalStaked;\r\n    }\r\n\r\n    // Collects pending rewards and updates user balance.\r\n    function _collectsUserRewardAndUpdatesBalance(\r\n        User storage _user,\r\n        int256 _amountDelta\r\n    ) internal {\r\n        // The difference is the user's share of rewards distributed since the last collection/reset\r\n        uint256 _newReward = (_user.amount * accRewardPerShare) /\r\n            1e12 -\r\n            userRewardDebt[_user.user];\r\n        _user.reward += _newReward;\r\n        if (_amountDelta >= 0) {\r\n            _user.amount += uint256(_amountDelta);\r\n        } else {\r\n            _user.amount -= uint256(-_amountDelta);\r\n        }\r\n        // Resets user's reward debt so that the difference is zero\r\n        userRewardDebt[_user.user] = (_user.amount * accRewardPerShare) / 1e12;\r\n    }\r\n\r\n    // Show user by address\r\n    function getUserByAddress(address _userAddress)\r\n        external\r\n        view\r\n        returns (User memory _user)\r\n    {\r\n        return users[userIndex[_userAddress]];\r\n    }\r\n\r\n    // Show user by index\r\n    function getUserByIndex(uint256 _index)\r\n        external\r\n        view\r\n        returns (User memory _user)\r\n    {\r\n        return users[_index];\r\n    }\r\n\r\n    // Takes in a user address and finds an existing index that is corelated to the user.\r\n    // If index not found (ZERO) then it assigns an index to the user.\r\n    function _assignUserIndex(address _user) internal returns (uint256 _index) {\r\n        if (userIndex[_user] == 0) userIndex[_user] = ++index;\r\n        return userIndex[_user];\r\n    }\r\n\r\n    // Updates the management and reward giver address.\r\n    function updateStateAddresses(address _rewardGiver, address _bankRoll)\r\n        external\r\n        onlyOwner\r\n    {\r\n        require(\r\n            _bankRoll != address(0) && _bankRoll != address(this),\r\n            \"Invalid address\"\r\n        );\r\n        require(\r\n            _rewardGiver != address(0) && _rewardGiver != address(this),\r\n            \"Invalid address\"\r\n        );\r\n        bankroll = _bankRoll;\r\n        rewardGiver = _rewardGiver;\r\n    }\r\n\r\n    // Updates the management.\r\n    function updateManagement(address _management, uint256 _i)\r\n        external\r\n        onlyOwner\r\n    {\r\n        require(\r\n            _management != address(0) && _management != address(this),\r\n            \"Invalid address\"\r\n        );\r\n        require(_i < 4, \"Invalid entry\");\r\n        management[_i] = _management;\r\n    }\r\n\r\n    event Buy(address indexed _user, uint256 _amount, uint256 _price);\r\n    event Sell(address indexed _user, uint256 _amount, uint256 _price);\r\n    event Compound(address indexed _user, uint256 _amount, uint256 _price);\r\n    event BonusReward(uint256 _amount);\r\n}\r\n",
  "sourcePath": "C:/GitHub/hypermine-sacrifice/contracts/HmineMain.sol",
  "compiler": {
    "name": "solc",
    "version": "0.8.15+commit.e14f2714.Emscripten.clang"
  },
  "schemaVersion": "3.4.1",
  "updatedAt": "2022-07-04T07:24:25.835Z",
  "networkType": "ethereum",
  "devdoc": {
    "kind": "dev",
    "methods": {
      "owner()": {
        "details": "Returns the address of the current owner."
      },
      "renounceOwnership()": {
        "details": "Leaves the contract without owner. It will not be possible to call `onlyOwner` functions anymore. Can only be called by the current owner. NOTE: Renouncing ownership will leave the contract without an owner, thereby removing any functionality that is only available to the owner."
      },
      "transferOwnership(address)": {
        "details": "Transfers ownership of the contract to a new account (`newOwner`). Can only be called by the current owner."
      }
    },
    "version": 1
  },
  "userdoc": {
    "kind": "user",
    "methods": {},
    "version": 1
  }
}