{
  "contractName": "MockOracle",
  "abi": [
    {
      "inputs": [
        {
          "internalType": "address",
          "name": "_pair",
          "type": "address"
        },
        {
          "internalType": "address",
          "name": "_token",
          "type": "address"
        },
        {
          "internalType": "uint256",
          "name": "_amountIn",
          "type": "uint256"
        }
      ],
      "name": "consultCurrentPrice",
      "outputs": [
        {
          "internalType": "uint256",
          "name": "_amountOut",
          "type": "uint256"
        }
      ],
      "stateMutability": "view",
      "type": "function"
    },
    {
      "inputs": [
        {
          "internalType": "address",
          "name": "_pair",
          "type": "address"
        },
        {
          "internalType": "address",
          "name": "_token",
          "type": "address"
        },
        {
          "internalType": "uint256",
          "name": "_amountIn",
          "type": "uint256"
        }
      ],
      "name": "consultAveragePrice",
      "outputs": [
        {
          "internalType": "uint256",
          "name": "_amountOut",
          "type": "uint256"
        }
      ],
      "stateMutability": "view",
      "type": "function"
    },
    {
      "inputs": [
        {
          "internalType": "address",
          "name": "_pair",
          "type": "address"
        }
      ],
      "name": "updateAveragePrice",
      "outputs": [],
      "stateMutability": "nonpayable",
      "type": "function"
    }
  ],
  "bytecode": "0x608060405234801561001057600080fd5b5061032b806100206000396000f3fe608060405234801561001057600080fd5b50600436106100405760003560e01c806288bf34146100455780630990ac6014610075578063ce21076414610091575b600080fd5b61005f600480360381019061005a9190610189565b6100c1565b60405161006c91906101e7565b60405180910390f35b61008f600480360381019061008a9190610160565b6100da565b005b6100ab60048036038101906100a69190610189565b61011d565b6040516100b891906101e7565b60405180910390f35b6000610126826100d19190610202565b90509392505050565b806000806101000a81548173ffffffffffffffffffffffffffffffffffffffff021916908373ffffffffffffffffffffffffffffffffffffffff16021790555050565b60006101268261012d9190610202565b90509392505050565b600081359050610145816102c7565b92915050565b60008135905061015a816102de565b92915050565b60006020828403121561017257600080fd5b600061018084828501610136565b91505092915050565b60008060006060848603121561019e57600080fd5b60006101ac86828701610136565b93505060206101bd86828701610136565b92505060406101ce8682870161014b565b9150509250925092565b6101e18161028e565b82525050565b60006020820190506101fc60008301846101d8565b92915050565b600061020d8261028e565b91506102188361028e565b9250817fffffffffffffffffffffffffffffffffffffffffffffffffffffffffffffffff048311821515161561025157610250610298565b5b828202905092915050565b60006102678261026e565b9050919050565b600073ffffffffffffffffffffffffffffffffffffffff82169050919050565b6000819050919050565b7f4e487b7100000000000000000000000000000000000000000000000000000000600052601160045260246000fd5b6102d08161025c565b81146102db57600080fd5b50565b6102e78161028e565b81146102f257600080fd5b5056fea264697066735822122005edc5713b7ebe4843a24cd69dd925155d6058598c9f5876dae807dcfaf0cb8464736f6c63430008010033",
  "immutableReferences": {},
  "source": "// SPDX-License-Identifier: UNLICENSED\r\npragma solidity >=0.8.0;\r\n\r\ncontract MockOracle {\r\n    address private pair;\r\n\r\n    // view functions\r\n    function consultCurrentPrice(\r\n        address _pair,\r\n        address _token,\r\n        uint256 _amountIn\r\n    ) external view returns (uint256 _amountOut){\r\n        return _amountIn * 294;\r\n    }\r\n\r\n    function consultAveragePrice(\r\n        address _pair,\r\n        address _token,\r\n        uint256 _amountIn\r\n    ) external view returns (uint256 _amountOut){\r\n        return _amountIn * 294;\r\n    }\r\n\r\n    // open functions\r\n    function updateAveragePrice(address _pair) external {\r\n        pair = _pair;\r\n    }\r\n  \r\n}\r\n",
  "sourcePath": "C:/GitHub/hypermine-sacrifice/contracts/test/MockOracle.sol",
  "compiler": {
    "name": "solc",
    "version": "0.8.1+commit.df193b15.Emscripten.clang"
  },
  "schemaVersion": "3.4.1",
  "updatedAt": "2022-06-16T21:03:48.744Z",
  "networkType": "ethereum",
  "devdoc": {
    "kind": "dev",
    "methods": {},
    "version": 1
  },
  "userdoc": {
    "kind": "user",
    "methods": {},
    "version": 1
  }
}