{
  "contractName": "MockOraclePair",
  "abi": [
    {
      "inputs": [
        {
          "internalType": "address",
          "name": "_token0",
          "type": "address"
        },
        {
          "internalType": "address",
          "name": "_token1",
          "type": "address"
        }
      ],
      "stateMutability": "nonpayable",
      "type": "constructor"
    },
    {
      "inputs": [],
      "name": "token0",
      "outputs": [
        {
          "internalType": "address",
          "name": "",
          "type": "address"
        }
      ],
      "stateMutability": "view",
      "type": "function"
    },
    {
      "inputs": [],
      "name": "token1",
      "outputs": [
        {
          "internalType": "address",
          "name": "",
          "type": "address"
        }
      ],
      "stateMutability": "view",
      "type": "function"
    },
    {
      "inputs": [],
      "name": "getReserves",
      "outputs": [
        {
          "internalType": "uint112",
          "name": "_reserve0",
          "type": "uint112"
        },
        {
          "internalType": "uint112",
          "name": "_reserve1",
          "type": "uint112"
        },
        {
          "internalType": "uint32",
          "name": "_blockTimestampLast",
          "type": "uint32"
        }
      ],
      "stateMutability": "view",
      "type": "function"
    }
  ],
  "bytecode": "0x608060405234801561001057600080fd5b5060405161044138038061044183398181016040528101906100329190610198565b816000806101000a81548173ffffffffffffffffffffffffffffffffffffffff021916908373ffffffffffffffffffffffffffffffffffffffff16021790555080600160006101000a81548173ffffffffffffffffffffffffffffffffffffffff021916908373ffffffffffffffffffffffffffffffffffffffff160217905550681043561a88293000006002600e6101000a8154816dffffffffffffffffffffffffffff02191690836dffffffffffffffffffffffffffff160217905550670de0b6b3a7640000600260006101000a8154816dffffffffffffffffffffffffffff02191690836dffffffffffffffffffffffffffff16021790555050506101d8565b600080fd5b600073ffffffffffffffffffffffffffffffffffffffff82169050919050565b60006101658261013a565b9050919050565b6101758161015a565b811461018057600080fd5b50565b6000815190506101928161016c565b92915050565b600080604083850312156101af576101ae610135565b5b60006101bd85828601610183565b92505060206101ce85828601610183565b9150509250929050565b61025a806101e76000396000f3fe608060405234801561001057600080fd5b50600436106100415760003560e01c80630902f1ac146100465780630dfe168114610066578063d21220a714610084575b600080fd5b61004e6100a2565b60405161005d93929190610191565b60405180910390f35b61006e6100ff565b60405161007b9190610209565b60405180910390f35b61008c610123565b6040516100999190610209565b60405180910390f35b6000806000600260009054906101000a90046dffffffffffffffffffffffffffff1692506002600e9054906101000a90046dffffffffffffffffffffffffffff1691506002601c9054906101000a900463ffffffff169050909192565b60008054906101000a900473ffffffffffffffffffffffffffffffffffffffff1681565b600160009054906101000a900473ffffffffffffffffffffffffffffffffffffffff1681565b60006dffffffffffffffffffffffffffff82169050919050565b61016c81610149565b82525050565b600063ffffffff82169050919050565b61018b81610172565b82525050565b60006060820190506101a66000830186610163565b6101b36020830185610163565b6101c06040830184610182565b949350505050565b600073ffffffffffffffffffffffffffffffffffffffff82169050919050565b60006101f3826101c8565b9050919050565b610203816101e8565b82525050565b600060208201905061021e60008301846101fa565b9291505056fea2646970667358221220427d460d20ed2239e1b49fac0a83092633dc969d7fd8d3fd5c995a3dcf93b39564736f6c634300080f0033",
  "immutableReferences": {},
  "source": "// SPDX-License-Identifier: UNLICENSED\r\npragma solidity >=0.8.0;\r\nimport \"@openzeppelin/contracts/utils/math/SafeMath.sol\";\r\n\r\ncontract MockOraclePair {\r\n    using SafeMath for uint256;\r\n\r\n    address public token0;\r\n    address public token1;\r\n\r\n    uint112 private reserve0; // uses single storage slot, accessible via getReserves\r\n    uint112 private reserve1; // uses single storage slot, accessible via getReserves\r\n    uint32 private blockTimestampLast; // uses single storage slot, accessible via getReserves\r\n\r\n    function getReserves()\r\n        public\r\n        view\r\n        returns (\r\n            uint112 _reserve0,\r\n            uint112 _reserve1,\r\n            uint32 _blockTimestampLast\r\n        )\r\n    {\r\n        _reserve0 = reserve0;\r\n        _reserve1 = reserve1;\r\n        _blockTimestampLast = blockTimestampLast;\r\n    }\r\n\r\n    constructor(address _token0, address _token1) {\r\n        token0 = _token0; // WBNB\r\n        token1 = _token1; // BUSD\r\n        reserve1 = 300e18;\r\n        reserve0 = 1e18;\r\n    }\r\n}\r\n",
  "sourcePath": "C:/GitHub/hypermine-sacrifice/contracts/test/MockOraclePair.sol",
  "compiler": {
    "name": "solc",
    "version": "0.8.15+commit.e14f2714.Emscripten.clang"
  },
  "schemaVersion": "3.4.1",
  "updatedAt": "2022-06-20T15:26:22.188Z",
  "devdoc": {
    "kind": "dev",
    "methods": {},
    "version": 1
  },
  "userdoc": {
    "kind": "user",
    "methods": {},
    "version": 1
  }
}