{
  "contractName": "MockOracle",
  "abi": [
    {
      "inputs": [
        {
          "internalType": "address",
          "name": "_pair",
          "type": "address"
        },
        {
          "internalType": "address",
          "name": "_token",
          "type": "address"
        },
        {
          "internalType": "uint256",
          "name": "_amountIn",
          "type": "uint256"
        }
      ],
      "name": "consultCurrentPrice",
      "outputs": [
        {
          "internalType": "uint256",
          "name": "_amountOut",
          "type": "uint256"
        }
      ],
      "stateMutability": "view",
      "type": "function"
    },
    {
      "inputs": [
        {
          "internalType": "address",
          "name": "_pair",
          "type": "address"
        },
        {
          "internalType": "address",
          "name": "_token",
          "type": "address"
        },
        {
          "internalType": "uint256",
          "name": "_amountIn",
          "type": "uint256"
        }
      ],
      "name": "consultAveragePrice",
      "outputs": [
        {
          "internalType": "uint256",
          "name": "_amountOut",
          "type": "uint256"
        }
      ],
      "stateMutability": "view",
      "type": "function"
    },
    {
      "inputs": [
        {
          "internalType": "address",
          "name": "_pair",
          "type": "address"
        }
      ],
      "name": "updateAveragePrice",
      "outputs": [],
      "stateMutability": "nonpayable",
      "type": "function"
    }
  ],
  "bytecode": "0x608060405234801561001057600080fd5b50610338806100206000396000f3fe608060405234801561001057600080fd5b50600436106100405760003560e01c806288bf34146100455780630990ac6014610075578063ce21076414610091575b600080fd5b61005f600480360381019061005a91906101cf565b6100c1565b60405161006c9190610231565b60405180910390f35b61008f600480360381019061008a919061024c565b6100da565b005b6100ab60048036038101906100a691906101cf565b61011d565b6040516100b89190610231565b60405180910390f35b6000610126826100d191906102a8565b90509392505050565b806000806101000a81548173ffffffffffffffffffffffffffffffffffffffff021916908373ffffffffffffffffffffffffffffffffffffffff16021790555050565b60006101268261012d91906102a8565b90509392505050565b600080fd5b600073ffffffffffffffffffffffffffffffffffffffff82169050919050565b60006101668261013b565b9050919050565b6101768161015b565b811461018157600080fd5b50565b6000813590506101938161016d565b92915050565b6000819050919050565b6101ac81610199565b81146101b757600080fd5b50565b6000813590506101c9816101a3565b92915050565b6000806000606084860312156101e8576101e7610136565b5b60006101f686828701610184565b935050602061020786828701610184565b9250506040610218868287016101ba565b9150509250925092565b61022b81610199565b82525050565b60006020820190506102466000830184610222565b92915050565b60006020828403121561026257610261610136565b5b600061027084828501610184565b91505092915050565b7f4e487b7100000000000000000000000000000000000000000000000000000000600052601160045260246000fd5b60006102b382610199565b91506102be83610199565b9250817fffffffffffffffffffffffffffffffffffffffffffffffffffffffffffffffff04831182151516156102f7576102f6610279565b5b82820290509291505056fea2646970667358221220853ce14ed0949ae2f161ed8891d42b09b3bf414d16f092c664edbd4d966a584a64736f6c634300080f0033",
  "immutableReferences": {},
  "source": "// SPDX-License-Identifier: UNLICENSED\r\npragma solidity >=0.8.0;\r\n\r\ncontract MockOracle {\r\n    address private pair;\r\n\r\n    // view functions\r\n    function consultCurrentPrice(\r\n        address _pair,\r\n        address _token,\r\n        uint256 _amountIn\r\n    ) external view returns (uint256 _amountOut){\r\n        return _amountIn * 294;\r\n    }\r\n\r\n    function consultAveragePrice(\r\n        address _pair,\r\n        address _token,\r\n        uint256 _amountIn\r\n    ) external view returns (uint256 _amountOut){\r\n        return _amountIn * 294;\r\n    }\r\n\r\n    // open functions\r\n    function updateAveragePrice(address _pair) external {\r\n        pair = _pair;\r\n    }\r\n  \r\n}\r\n",
  "sourcePath": "C:/GitHub/hypermine-sacrifice/contracts/test/MockOracle.sol",
  "compiler": {
    "name": "solc",
    "version": "0.8.15+commit.e14f2714.Emscripten.clang"
  },
  "schemaVersion": "3.4.1",
  "updatedAt": "2022-06-20T15:26:22.186Z",
  "devdoc": {
    "kind": "dev",
    "methods": {},
    "version": 1
  },
  "userdoc": {
    "kind": "user",
    "methods": {},
    "version": 1
  }
}