{
  "contractName": "MockOraclePair",
  "abi": [
    {
      "inputs": [
        {
          "internalType": "address",
          "name": "_token0",
          "type": "address"
        },
        {
          "internalType": "address",
          "name": "_token1",
          "type": "address"
        }
      ],
      "stateMutability": "nonpayable",
      "type": "constructor"
    },
    {
      "inputs": [],
      "name": "token0",
      "outputs": [
        {
          "internalType": "address",
          "name": "",
          "type": "address"
        }
      ],
      "stateMutability": "view",
      "type": "function"
    },
    {
      "inputs": [],
      "name": "token1",
      "outputs": [
        {
          "internalType": "address",
          "name": "",
          "type": "address"
        }
      ],
      "stateMutability": "view",
      "type": "function"
    },
    {
      "inputs": [],
      "name": "getReserves",
      "outputs": [
        {
          "internalType": "uint112",
          "name": "_reserve0",
          "type": "uint112"
        },
        {
          "internalType": "uint112",
          "name": "_reserve1",
          "type": "uint112"
        },
        {
          "internalType": "uint32",
          "name": "_blockTimestampLast",
          "type": "uint32"
        }
      ],
      "stateMutability": "view",
      "type": "function"
    }
  ],
  "bytecode": "0x608060405234801561001057600080fd5b506040516104383803806104388339818101604052810190610032919061014a565b816000806101000a81548173ffffffffffffffffffffffffffffffffffffffff021916908373ffffffffffffffffffffffffffffffffffffffff16021790555080600160006101000a81548173ffffffffffffffffffffffffffffffffffffffff021916908373ffffffffffffffffffffffffffffffffffffffff160217905550681043561a88293000006002600e6101000a8154816dffffffffffffffffffffffffffff02191690836dffffffffffffffffffffffffffff160217905550670de0b6b3a7640000600260006101000a8154816dffffffffffffffffffffffffffff02191690836dffffffffffffffffffffffffffff16021790555050506101cf565b600081519050610144816101b8565b92915050565b6000806040838503121561015d57600080fd5b600061016b85828601610135565b925050602061017c85828601610135565b9150509250929050565b600061019182610198565b9050919050565b600073ffffffffffffffffffffffffffffffffffffffff82169050919050565b6101c181610186565b81146101cc57600080fd5b50565b61025a806101de6000396000f3fe608060405234801561001057600080fd5b50600436106100415760003560e01c80630902f1ac146100465780630dfe168114610066578063d21220a714610084575b600080fd5b61004e6100a2565b60405161005d93929190610191565b60405180910390f35b61006e6100ff565b60405161007b9190610176565b60405180910390f35b61008c610123565b6040516100999190610176565b60405180910390f35b6000806000600260009054906101000a90046dffffffffffffffffffffffffffff1692506002600e9054906101000a90046dffffffffffffffffffffffffffff1691506002601c9054906101000a900463ffffffff169050909192565b60008054906101000a900473ffffffffffffffffffffffffffffffffffffffff1681565b600160009054906101000a900473ffffffffffffffffffffffffffffffffffffffff1681565b610152816101c8565b82525050565b610161816101da565b82525050565b61017081610214565b82525050565b600060208201905061018b6000830184610149565b92915050565b60006060820190506101a66000830186610158565b6101b36020830185610158565b6101c06040830184610167565b949350505050565b60006101d3826101f4565b9050919050565b60006dffffffffffffffffffffffffffff82169050919050565b600073ffffffffffffffffffffffffffffffffffffffff82169050919050565b600063ffffffff8216905091905056fea2646970667358221220e9f5fb1c25287d88f8f54784b503a6a9459a81374c0c1a0b36ad374d5b4dead964736f6c63430008010033",
  "immutableReferences": {},
  "source": "// SPDX-License-Identifier: UNLICENSED\r\npragma solidity >=0.8.0;\r\nimport \"@openzeppelin/contracts/utils/math/SafeMath.sol\";\r\n\r\ncontract MockOraclePair {\r\n    using SafeMath for uint256;\r\n\r\n    address public token0;\r\n    address public token1;\r\n\r\n    uint112 private reserve0; // uses single storage slot, accessible via getReserves\r\n    uint112 private reserve1; // uses single storage slot, accessible via getReserves\r\n    uint32 private blockTimestampLast; // uses single storage slot, accessible via getReserves\r\n\r\n    function getReserves()\r\n        public\r\n        view\r\n        returns (\r\n            uint112 _reserve0,\r\n            uint112 _reserve1,\r\n            uint32 _blockTimestampLast\r\n        )\r\n    {\r\n        _reserve0 = reserve0;\r\n        _reserve1 = reserve1;\r\n        _blockTimestampLast = blockTimestampLast;\r\n    }\r\n\r\n    constructor(address _token0, address _token1) {\r\n        token0 = _token0; // WBNB\r\n        token1 = _token1; // BUSD\r\n        reserve1 = 300e18;\r\n        reserve0 = 1e18;\r\n    }\r\n}\r\n",
  "sourcePath": "C:/GitHub/hypermine-sacrifice/contracts/test/MockOraclePair.sol",
  "compiler": {
    "name": "solc",
    "version": "0.8.1+commit.df193b15.Emscripten.clang"
  },
  "schemaVersion": "3.4.1",
  "updatedAt": "2022-06-16T21:03:48.746Z",
  "networkType": "ethereum",
  "devdoc": {
    "kind": "dev",
    "methods": {},
    "version": 1
  },
  "userdoc": {
    "kind": "user",
    "methods": {},
    "version": 1
  }
}